:0400000088EF01F094
:100008000182E1CF0DF0E2CF0EF0D9CF0FF0DACFB9
:1000180010F0F3CF11F0F4CF12F0F2A416EF00F0C5
:1000280018EF00F069EF01F0F294146A000E136EF5
:100038007FEF00F0230E1302F3CF09F0F4CF0AF09C
:100048001402F3500A26030E0924D96E010E0A2061
:10005800DA6EDF50D8B433EF00F035EF00F07DEF03
:1000680000F0230E1302F3CF09F0F4CF0AF01402C4
:10007800F3500A26030E0924D96E010E0A20DA6EFF
:10008800DF06230E1302F3CF09F0F4CF0AF01402AF
:10009800F3500A26030E0924D96E010E0A20DA6EDF
:1000A800DF50D8A45AEF00F05CEF00F07DEF00F0CD
:1000B800230E1302F3CF09F0F4CF0AF01402F35021
:1000C8000A26040E0924D96E010E0A20DA6E230EC0
:1000D8001302F3CF0BF0F4CF0CF01402F3500C26FC
:1000E800040E0B24E16E010E0C20E26EE750FC0BAF
:1000F800DF6E134A142A0101D251096E0A6A0950A7
:10010800135C1450800A0B6E0A50800A0B58D8A052
:1001180090EF00F092EF00F01EEF00F02D062D504A
:10012800D8A499EF00F09BEF00F069EF01F0140EEE
:100138002D6ED351230D040EF324D96E010EF42035
:10014800DA6ED351230D040EF324E16E010EF42070
:10015800E26EE750FC0BDF6ED351230D070EF3243C
:10016800D96E010EF420DA6EE0CFDFFFD351230DF4
:10017800050EF324D96E010EF420DA6EE8CFDFFF06
:10018800D351230D060EF324D96E010EF420DA6E36
:10019800D8CFDFFFD351230D090EF324D96E010EFA
:1001A800F420DA6EEACFDFFFD351230D080EF324D3
:1001B800D96E010EF420DA6EE9CFDFFFD351230D9B
:1001C8000A0EF324D96E010EF420DA6EFDCFDFFF9C
:1001D800D351230D0B0EF324D96E010EF420DA6EE1
:1001E800FECFDFFFD351230D0C0EF324D96E010E81
:1001F800F420DA6EFFCFDFFF32EC13F00101D351A8
:10020800230D040EF324D96E010EF420DA6ED351B7
:10021800230D040EF324E16E010EF420E26EE75084
:10022800FC0B0209DF6ED351230D070EF324D96EA0
:10023800010EF420DA6EDF50E06ED351230D050E67
:10024800F324D96E010EF420DA6EDF50096E0950DE
:10025800D351230D060EF324D96E010EF420DA6E65
:10026800DF50D86ED351230D090EF324D96E010E39
:10027800F420DA6EDF50EA6ED351230D080EF32412
:10028800D96E010EF420DA6EDF50E96ED351230DDA
:100298000A0EF324D96E010EF420DA6EDF50FD6EDB
:1002A800D351230D0B0EF324D96E010EF420DA6E10
:1002B800DF50FE6ED351230D0C0EF324D96E010EC0
:1002C800F420DA6EDF50FF6E1200F2A26EEF01F03A
:1002D80070EF01F07AEF01F0F292060E026E260E30
:1002E800036E060E046E060EB2EC0EF012C0F4FF9A
:1002F80011C0F3FF10C0DAFF0FC0D9FF0EC0E2FF34
:0C0308000DC0E1FF0192110090EF11F018
:101000000000F29E00018751D96EDA6ADF50D8B431
:101010000CEF08F00EEF08F01FEF09F08751D96EC2
:10102000DA6A070ED926DF50886F87518825D96E76
:10103000DA6A020ED926D3C1DFFF8751D96EDA6A88
:10104000070ED926DF2A8751D96EDA6A070ED9260C
:10105000040EDF642EEF08F030EF08F036EF08F0F2
:101060008751D96EDA6A070ED926DF6A8751D96EA1
:10107000DA6A090ED926DF2A0101D351230D040EA5
:10108000F324D96E010EF420DA6ED351230D040E31
:10109000F324E16E010EF420E26EE750FC0B01092F
:1010A000DF6ED351230D070EF324D96E010EF42009
:1010B000DA6EE0CFDFFFD351230D050EF324D96E96
:1010C000010EF420DA6EE8CFDFFFD351230D060EB8
:1010D000F324D96E010EF420DA6ED8CFDFFFD3519E
:1010E000230D090EF324D96E010EF420DA6EEACF37
:1010F000DFFFD351230D080EF324D96E010EF42027
:10110000DA6EE9CFDFFFD351230D0A0EF324D96E37
:10111000010EF420DA6EFDCFDFFFD351230D0B0E4D
:10112000F324D96E010EF420DA6EFECFDFFFD35127
:10113000230D0C0EF324D96E010EF420DA6EFFCFCE
:10114000DFFF2DEC13F00101D351230D040EF32426
:10115000D96E010EF420DA6ED351230D040EF32460
:10116000E16E010EF420E26EE750FC0B0209DF6E27
:10117000D351230D070EF324D96E010EF420DA6E3D
:10118000DF50E06ED351230D050EF324D96E010E0E
:10119000F420DA6EDF500001886F88510101D351CD
:1011A000230D060EF324D96E010EF420DA6EDF5003
:1011B000D86ED351230D090EF324D96E010EF420FD
:1011C000DA6EDF50EA6ED351230D080EF324D96E88
:1011D000010EF420DA6EDF50E96ED351230D0A0EB2
:1011E000F324D96E010EF420DA6EDF50FD6ED35178
:1011F000230D0B0EF324D96E010EF420DA6EDF50AE
:10120000FE6ED351230D0C0EF324D96E010EF42083
:10121000DA6EDF50FF6E12000101D351230D000E74
:10122000F324D96E010EF420DA6E00018751E16ECD
:10123000E26A010EE126DFCFE7FF35EF09F08751C3
:10124000D96EDA6A010EDF6E0101D351230D000E53
:10125000F324D96E010EF420DA6E00018751E16E9D
:10126000E26A010EE126DFCFE7FFF28E1200F29E66
:1012700000018751D96EDA6ADF068751D96EDA6AC2
:10128000000EDBBE48EF09F046EF09F040EF0AF030
:101290008751D96EDA6A060ED926DF50886F8751DA
:1012A0008825D96EDA6A010ED926D3C1DFFF8751AE
:1012B000D96EDA6A060ED926DF2A8751D96EDA6A24
:1012C000060ED926040EDF6468EF09F06AEF09F014
:1012D00070EF09F08751D96EDA6A060ED926DF6AF7
:1012E0000101D351230D040EF324D96E010EF42015
:1012F000DA6ED351230D040EF324E16E010EF420B7
:10130000E26EE750FC0B0309DF6ED351230D070E8D
:10131000F324D96E010EF420DA6EE0CFDFFFD35153
:10132000230D050EF324D96E010EF420DA6EE8CFFA
:10133000DFFFD351230D060EF324D96E010EF420E6
:10134000DA6ED8CFDFFFD351230D090EF324D96E07
:10135000010EF420DA6EEACFDFFFD351230D080E21
:10136000F324D96E010EF420DA6EE9CFDFFFD351FA
:10137000230D0A0EF324D96E010EF420DA6EFDCF90
:10138000DFFFD351230D0B0EF324D96E010EF42091
:10139000DA6EFECFDFFFD351230D0C0EF324D96E8E
:1013A000010EF420DA6EFFCFDFFF2DEC13F0010108
:1013B000D351230D040EF324D96E010EF420DA6EFE
:1013C000D351230D040EF324E16E010EF420E26EDE
:1013D000E750FC0B0209DF6ED351230D070EF324F7
:1013E000D96E010EF420DA6EDF50E06ED351230D7A
:1013F000050EF324D96E010EF420DA6EDF500001E1
:10140000886F88510101D351230D060EF324D96E44
:10141000010EF420DA6EDF50D86ED351230D090E81
:10142000F324D96E010EF420DA6EDF50EA6ED35148
:10143000230D080EF324D96E010EF420DA6EDF506E
:10144000E96ED351230D0A0EF324D96E010EF42058
:10145000DA6EDF50FD6ED351230D0B0EF324D96EDF
:10146000010EF420DA6EDF50FE6ED351230D0C0E08
:10147000F324D96E010EF420DA6EDF50FF6E1200F5
:10148000F28E12000001946FF29E000191519211B0
:10149000D8A44DEF0AF04FEF0AF023EF0BF0010153
:1014A000D351230D040EF324D96E010EF420DA6E0D
:1014B000D351230D040EF324E16E010EF420E26EED
:1014C000E750FC0B00019411DF6E0101D351230D95
:1014D000070EF324D96E010EF420DA6EE0CFDFFFA1
:1014E000D351230D050EF324D96E010EF420DA6ECC
:1014F000E8CFDFFFD351230D060EF324D96E010E82
:10150000F420DA6ED8CFDFFFD351230D090EF32478
:10151000D96E010EF420DA6EEACFDFFFD351230D2E
:10152000080EF324D96E010EF420DA6EE9CFDFFF46
:10153000D351230D0A0EF324D96E010EF420DA6E76
:10154000FDCFDFFFD351230D0B0EF324D96E010E17
:10155000F420DA6EFECFDFFFD351230D0C0EF324FF
:10156000D96E010EF420DA6EFFCFDFFF2DEC13F001
:101570000101D351230D040EF324D96E010EF42082
:10158000DA6ED351230D040EF324E16E010EF42024
:10159000E26EE750FC0B0209DF6ED351230D070EFC
:1015A000F324D96E010EF420DA6EDF50E06ED351D1
:1015B000230D050EF324D96E010EF420DA6EDF50F0
:1015C0000001936F93510101D351230D060EF324B3
:1015D000D96E010EF420DA6EDF50D86ED351230D90
:1015E000090EF324D96E010EF420DA6EDF50EA6E94
:1015F000D351230D080EF324D96E010EF420DA6EB8
:10160000DF50E96ED351230D0A0EF324D96E010E7B
:10161000F420DA6EDF50FD6ED351230D0B0EF32450
:10162000D96E010EF420DA6EDF50FE6ED351230D19
:101630000C0EF324D96E010EF420DA6EDF50FF6E2B
:10164000120033EF0BF020EE04F09151D9269251A5
:10165000DA2210EE04F09151E1269251E222E75095
:10166000FC0B9411DF6EF28E12000001926FF29E5D
:101670000101D351230D040EF324D96E010EF42081
:10168000DA6ED351230D040EF324E16E010EF42023
:10169000E26EE750FC0B0109DF6ED351230D070EFC
:1016A000F324D96E010EF420DA6EE0CFDFFFD351C0
:1016B000230D050EF324D96E010EF420DA6EE8CF67
:1016C000DFFFD351230D060EF324D96E010EF42053
:1016D000DA6ED8CFDFFFD351230D090EF324D96E74
:1016E000010EF420DA6EEACFDFFFD351230D080E8E
:1016F000F324D96E010EF420DA6EE9CFDFFFD35167
:10170000230D0A0EF324D96E010EF420DA6EFDCFFC
:10171000DFFFD351230D0B0EF324D96E010EF420FD
:10172000DA6EFECFDFFFD351230D0C0EF324D96EFA
:10173000010EF420DA6EFFCFDFFFD351230D030E2D
:10174000F324D96E010EF420DA6E92C0DFFF2DEC87
:1017500013F00101D351230D040EF324D96E010EB1
:10176000F420DA6ED351230D040EF324E16E010E42
:10177000F420E26EE750FC0B0209DF6ED351230D1B
:10178000070EF324D96E010EF420DA6EDF50E06EFE
:10179000D351230D050EF324D96E010EF420DA6E19
:1017A000DF500001916F91510101D351230D060EBD
:1017B000F324D96E010EF420DA6EDF50D86ED351C7
:1017C000230D090EF324D96E010EF420DA6EDF50DA
:1017D000EA6ED351230D080EF324D96E010EF420C6
:1017E000DA6EDF50E96ED351230D0A0EF324D96E61
:1017F000010EF420DA6EDF50FD6ED351230D0B0E77
:10180000F324D96E010EF420DA6EDF50FE6ED35150
:10181000230D0C0EF324D96E010EF420DA6EDF5086
:10182000FF6E1200F28E1200276A266A256A5EEFAA
:101830000CF02550230D040EF324D96E010EF42074
:10184000DA6EDF500001956F030E9517D8A42BEFC9
:101850000CF02DEF0CF05DEF0CF02650D8B433EF08
:101860000CF035EF0CF04BEF0CF02550230D040E6F
:10187000F324D96E010EF420DA6EDF50956FD89004
:101880009533D8909531070B276049EF0CF04BEF5B
:101890000CF05DEF0CF02550230D040EF324D96EEF
:1018A000010EF420DA6EDF50956FD8909533D89002
:1018B0009531070B276E010E266E252A0101D251A4
:1018C000255CD8A066EF0CF068EF0CF019EF0CF077
:1018D0002650D8A46EEF0CF070EF0CF073EF0CF004
:1018E000000EC1EF0CF0D3C124F0256AB5EF0CF067
:1018F00024502524236ED251235CD8A082EF0CF013
:1019000084EF0CF086EF0CF0D251235E2550230DAE
:10191000040EF324D96E010EF420DA6EDF500001BC
:10192000956F030E9517D8A498EF0CF09AEF0CF072
:10193000B4EF0CF02550230D040EF324D96E010EE4
:10194000F420DA6EDF50956FD8909533D8909531AA
:10195000070B2718D8A4AFEF0CF0B1EF0CF0B4EFE1
:101960000CF02350C1EF0CF0252A0101D251255C67
:10197000D8A0BDEF0CF0BFEF0CF078EF0CF070EFDB
:101980000CF01200276A266A256A0CEF0DF025502C
:10199000230D040EF324D96E010EF420DA6EDF500D
:1019A0000001906F030E9017D8A4D9EF0CF0DBEF75
:1019B0000CF00BEF0DF02650D8B4E1EF0CF0E3EF94
:1019C0000CF0F9EF0CF02550230D040EF324D96E22
:1019D000010EF420DA6EDF50906FD8909033D890DB
:1019E0009031070B2760F7EF0CF0F9EF0CF00BEFDD
:1019F0000DF02550230D040EF324D96E010EF420B2
:101A0000DA6EDF50906FD8909033D8909031070BFA
:101A1000276E010E266E252A0101D251255CD8A021
:101A200014EF0DF016EF0DF0C7EF0CF02650D8A410
:101A30001CEF0DF01EEF0DF021EF0DF0000E6FEF1B
:101A40000DF0D3C124F0256A63EF0DF02450252456
:101A5000236ED251235CD8A030EF0DF032EF0DF0A1
:101A600034EF0DF0D251235E2550230D040EF324E4
:101A7000D96E010EF420DA6EDF500001906F030E74
:101A80009017D8A446EF0DF048EF0DF062EF0DF07F
:101A90002550230D040EF324D96E010EF420DA6EC6
:101AA000DF50906FD8909033D8909031070B271863
:101AB000D8A45DEF0DF05FEF0DF062EF0DF0235055
:101AC0006FEF0DF0252A0101D251255CD8A06BEFF4
:101AD0000DF06DEF0DF026EF0DF01EEF0DF0120082
:101AE000276A266A256AB9EF0DF02550230D040EEA
:101AF000F324D96E010EF420DA6EDF50026E030E6D
:101B00000216D8A486EF0DF088EF0DF0B8EF0DF0B7
:101B10002650D8B48EEF0DF090EF0DF0A6EF0DF03B
:101B20002550230D040EF324D96E010EF420DA6E35
:101B3000DF50026ED8900232D8900230070B276037
:101B4000A4EF0DF0A6EF0DF0B8EF0DF02550230D2A
:101B5000040EF324D96E010EF420DA6EDF50026E0B
:101B6000D8900232D8900230070B276E010E266EF5
:101B7000252A0101D251255CD8A0C1EF0DF0C3EF99
:101B80000DF075EF0DF02650D8A4C9EF0DF0CBEF96
:101B90000DF0CEEF0DF0000E1AEF0EF0D3C124F0D1
:101BA000256A0FEF0EF024502524236ED251235CBA
:101BB000D8A0DDEF0DF0DFEF0DF0E1EF0DF0D25129
:101BC000235E2550230D040EF324D96E010EF4205C
:101BD000DA6EDF50026E030E0216D8A4F2EF0DF09B
:101BE000F4EF0DF00EEF0EF02550230D040EF3244C
:101BF000D96E010EF420DA6EDF50026ED8900232F8
:101C0000D8900230070B2718D8A409EF0EF00BEF7D
:101C10000EF00EEF0EF023501AEF0EF0252AD251DF
:101C2000255CD8A016EF0EF018EF0EF0D3EF0DF0F4
:101C3000CBEF0DF012000001996F050E0101D26586
:101C400024EF0EF026EF0EF028EF0EF0B1EF0EF0BD
:101C5000D251230D000EF32400019A6F010EF420DF
:101C60009B6F9AC0D9FF9BC0DAFF99C0DFFF20EEBF
:101C700003F09A51D9269B51DA22DF6A20EE01F057
:101C80009A51D9269B51DA2295C0DEFF96C0DDFF1E
:101C900020EE04F09A51D9269B51DA2210EE04F07E
:101CA0009A51E1269B51E222E750FC0BDF6E20EEB9
:101CB00004F09A51D9269B51DA2297C098F0D89017
:101CC0009837D890983710EE04F09A51E1269B513E
:101CD000E222E750030B9811DF6E20EE07F09A51D5
:101CE000D9269B51DA22DF6A20EE06F09A51D926D6
:101CF0009B51DA22DF6A20EE05F09A51D9269B51DA
:101D0000DA22DF6A20EE09F09A51D9269B51DA22B5
:101D1000DF6A20EE08F09A51D9269B51DA22DF6A59
:101D200020EE0AF09A51D9269B51DA2295C0DFFFA6
:101D300020EE0BF09A51D9269B51DA229651DF6E94
:101D400020EE0CF09A51D9269B51DA22DF6A20EE60
:101D500022F09A51D9269B51DA22010EDF6E010141
:101D6000D22B1200066E050E0101D265BAEF0EF0FD
:101D7000BCEF0EF0BEEF0EF045EF0FF0D251230D89
:101D8000000EF324076E010EF420086E07C0D9FF81
:101D900008C0DAFF06C0DFFF20EE03F00750D926A7
:101DA0000850DA22DF6A20EE01F00750D9260850E9
:101DB000DA2202C0DEFF03C0DDFF20EE04F0075090
:101DC000D9260850DA2210EE04F00750E126085018
:101DD000E222E750FC0BDF6E20EE04F00750D9261C
:101DE0000850DA2204C005F0D8900536D8900536A0
:101DF00010EE04F00750E1260850E222E750030BF2
:101E00000510DF6E20EE07F00750D9260850DA22C1
:101E1000DF6A20EE06F00750D9260850DA22DF6A82
:101E200020EE05F00750D9260850DA22DF6A20EEAE
:101E300009F00750D9260850DA22DF6A20EE08F0B0
:101E40000750D9260850DA22DF6A20EE0AF0075040
:101E5000D9260850DA2202C0DFFF20EE0BF007502F
:101E6000D9260850DA220350DF6E20EE0CF007501E
:101E7000D9260850DA22DF6A20EE22F00750D92650
:101E80000850DA22010EDF6ED22B1200F29E000102
:101E90008651D96EDA6ADF50D8B451EF0FF053EFA4
:101EA0000FF0CEEF0FF00101D351230D000EF324FC
:101EB000D96E010EF420DA6E00018651E16EE26AFD
:101EC000010EE126DE50E618D8A469EF0FF06BEFA3
:101ED0000FF0CEEF0FF08651D96EDA6A090ED926CF
:101EE000DF50D8B476EF0FF078EF0FF0CAEF0FF0B5
:101EF0008651D96EDA6A080ED926DF50876F86516F
:101F00008725D96EDA6A020ED926DF50896F89518A
:101F1000230D040EF324D96E010EF420DA6E8951DC
:101F2000230D040EF324E16E010EF420E26EE7505F
:101F3000FC0BDF6E8651D96EDA6A070ED926DF2ACE
:101F40008651D96EDA6A070ED926040EDF64ABEF2C
:101F50000FF0ADEF0FF0B3EF0FF08651D96EDA6AE4
:101F6000070ED926DF6A8651D96EDA6A090ED9269C
:101F7000DF068951230D000EF324D96E010EF420E3
:101F8000DA6E8651E16EE26A010EE126DFCFE7FFED
:101F9000CEEF0FF08651D96EDA6ADF6AF28E120048
:101FA00013EC13F028EC13F00101D351230D040EB0
:101FB000F324D96E010EF420DA6ED351230D040EF2
:101FC000F324E16E010EF420E26EE750FC0B0209EF
:101FD000DF6ED351230D070EF324D96E010EF420CA
:101FE000DA6EDF50E06ED351230D050EF324D96E67
:101FF000010EF420DA6EDF500001966F9651010158
:10200000D351230D060EF324D96E010EF420DA6E9F
:10201000DF50D86ED351230D090EF324D96E010E73
:10202000F420DA6EDF50EA6ED351230D080EF3244C
:10203000D96E010EF420DA6EDF50E96ED351230D14
:102040000A0EF324D96E010EF420DA6EDF50FD6E15
:10205000D351230D0B0EF324D96E010EF420DA6E4A
:10206000DF50FE6ED351230D0C0EF324D96E010EFA
:10207000F420DA6EDF50FF6E1200F28E1200F29E34
:1020800000018351D96EDA6ADF2A8351D96EDA6A88
:10209000DF50800A7F0FD8B050EF10F052EF10F0F1
:1020A0009DEF10F08351D96EDA6A070ED926DF5002
:1020B0001D6E83511D24D96EDA6A010ED926DF50B8
:1020C0001E6E1E50230D040EF324D96E010EF42053
:1020D000DA6E8351E16EE26A070EE126E7501F6E69
:1020E00083511F24E16EE26A010EE126E750206E63
:1020F0002050230D040EF324E16E010EF420E26E55
:10210000E750FC0BDF6E8351D96EDA6A070ED926D1
:102110008351E16EE26A070EE126E7501D6E010E63
:102120001D247F6F806B000E8023826B050E816FF4
:102130009FEC10F000017F51DF6EF28E12001C6ADE
:10214000000180BFA8EF10F0A6EF10F0AEEF10F086
:102150007F6D801FD8B0802B010E1C6E82BFB5EF43
:1021600010F0B3EF10F0B9EF10F0816D821FD8B00E
:10217000822B81518211D8B4C0EF10F0C2EF10F061
:10218000E6EF10F0010E1B6ECAEF10F0D890813709
:1021900082371B2A82AFCFEF10F0D1EF10F0C6EFDD
:1021A00010F081517F5D82518059D8A0DAEF10F094
:1021B000DCEF10F0E0EF10F081517F5F8251805B27
:1021C000D890823381331B2ED1EF10F01C50D8B43D
:1021D000ECEF10F0EEEF10F0F2EF10F07F6D801FDB
:1021E000D8B0802B7FC07FF080C080F0120000014B
:1021F00084510E0F876F37EC09F000018451D96EBE
:10220000DA6A050ED926DF50216E84512124D96E59
:10221000DA6A8551E16EE26ADFCFE7FF8451D96E59
:10222000DA6A040ED926DF2A8451D96EDA6A040EDE
:10223000D926030EDF641FEF11F021EF11F027EF15
:1022400011F08451D96EDA6A040ED926DF6A8451FE
:10225000060F836F3FEC10F0120000017D51060F56
:10226000876F37EC09F000017D51D96EDA6A040EF0
:10227000D926DF50196E7D511924D96EDA6A7EC0D5
:10228000DFFF7D51D96EDA6A040ED926DF2A7D512F
:10229000D96EDA6A040ED926030EDF6452EF11F00C
:1022A00054EF11F05AEF11F07D51D96EDA6A040E35
:1022B000D926DF6A7D510E0F836F3FEC10F01200BC
:1022C000F3EC12F0100E0001956F250E966F030EC1
:1022D000976F020E1BEC0EF0760E0001956F240E28
:1022E000966F020E976F030E1BEC0EF0BC0E0001F2
:1022F000956F230E966F020E976F040E1BEC0EF077
:10230000DE0E0001956F240E966F040E976F050E7A
:102310001BEC0EF0D0EC0FF08CEF11F088EF01F019
:102320006E0EF66E260EF76E000EF86E0900F5CFF3
:102330002DF001EED4F012EE00F0EE6AE550E1501F
:10234000FCE1E250FAE101EE00F0D40EEE6AE8069C
:10235000FDE100EE9CF0290EEE6AE806FDE100EEDC
:1023600023F00A0EEE6AE806FDE1019001920001F9
:1023700060EF11F0956A0F0139919380949C949EBF
:10238000959095923B913A9D3A9FF288F19CF292FA
:10239000B8EC12F021EC13F09D0E0001976F1EECCB
:1023A00012F0B30E0001956F00EC12F0BD0E0001AB
:1023B000956F000E966FE0EC12F01200BD0E00015A
:1023C000876F37EC09F0B30E0001876F01EC08F05E
:1023D00000019C518A6F8B6BD8908A378B37D890CD
:1023E0008A378B378AC086F08BC087F0A0EC12F05A
:1023F000B30E0001866F46EC0FF0DEEF11F0120015
:1024000000019551D96EDA6ADF6A9551D96EDA6AA0
:10241000010ED926DF6A9551D96EDA6A070ED926E0
:10242000DF6A9551D96EDA6A080ED926DF6A9551AE
:10243000D96EDA6A090ED926DF6A120000019751B7
:10244000D96EDA6A040ED926DF6A9751D96EDA6A34
:10245000050ED926DF6A9751060F956F040E966F09
:10246000E0EC12F0000197510E0F956F000E966F81
:10247000E0EC12F012009D0E0001846F220E856FB9
:10248000F7EC10F022C09CF022C08CFFBD0E0001C2
:10249000836F3FEC10F0000E0001916F000E926F01
:1024A000000E42EC0AF03BEF12F01200176E17C05C
:1024B00015F015461546C2501518830B1518C26E37
:1024C000C282C2B266EF12F068EF12F061EF12F052
:1024D000C450156EC350136E15C014F012008CBE9C
:1024E00074EF12F077EF12F0010E78EF12F0000E99
:1024F000FF0A00018F6F8F338F338C508F197F0B42
:102500008F198C6E050E35EC0BF06FEF12F0120088
:10251000000E56EC12F0D89014321332D8901432C8
:10252000133213501A6E9D0E00017D6F1AC07EF09B
:102530002DEC11F00A0E35EC0BF088EF12F01200C2
:1025400086C088F087C089F00001D890893388332D
:10255000D890893388338851BE6E86C088F0030EC8
:102560008817883BBD508819CF0B8819BD6E1200A3
:10257000830EC216F30EC116FC0EC116C08EC050DB
:10258000C70B3009C06EC050F80B0409C06E9280B2
:102590000F013881C2801200949082B0D2EF12F005
:1025A000D5EF12F0010ED6EF12F0000EFF0A026E08
:1025B00082500218FE0B0218826ECDEF12F012004C
:1025C00000019551D96EDA6A96C0DFFF9551D96E38
:1025D000DA6A060ED926DF6A9551D96EDA6A070ED5
:1025E000D926DF6A12000101D26BD36B980E00016D
:1025F000956F250E966F000E976F010E1BEC0EF077
:10260000BAEC11F012008C820A0E35EC0BF08C92B1
:10261000000E0001916F000E926F010E42EC0AF065
:1026200003EF13F01200F28AF294D58CD59AD59666
:10263000070ED512D58ED76A000ED66EF28EF28CAA
:102640001200BB680C0EBD6E040EBA6E949412009C
:1026500014EC0CF00101D36F1200C2EC0CF001017C
:0F266000D36F120070EC0DF00101D36F12001454
:00000001FF
