:0400000015EF03F005
:100008000182E1CF3DF0E2CF3EF0D9CF3FF0DACF29
:1000180040F0F3CF41F0F4CF42F0F2A416EF00F035
:1000280018EF00F0F6EF02F0F294446A000E436E07
:100038006EEF00F0300E4302F3CF36F0F4CF37F016
:100048004402F3503726040E3624D96E020E3720A8
:10005800DA6EDF50D8B433EF00F035EF00F06CEF14
:1000680000F0300E4302F3CF36F0F4CF37F04402FD
:10007800F3503726040E3624D96E020E3720DA6E76
:10008800DF06300E4302F3CF36F0F4CF37F04402E8
:10009800F3503726040E3624D96E020E3720DA6E56
:1000A800DF50D8A45AEF00F05CEF00F06CEF00F0DE
:1000B800300E4302F3CF36F0F4CF37F04402F3505A
:1000C8003726010E3624D96E020E3720DA6EDF6A23
:1000D800434A442A0201F051366E376A3650435C6F
:1000E8004450800A386E3750800A3858D8A07FEFBD
:1000F80000F081EF00F01EEF00F05D065D50D8A41F
:1001080088EF00F08AEF00F0F6EF02F0140E5D6E53
:1001180020EE01F0F151D926F251DA22020EDE1852
:10012800D8A499EF00F09BEF00F098EF01F020EED3
:1001380001F0F151D926F251DA22DF6A20EE08F0F7
:10014800F151D926F251DA22E0CFDFFF20EE0CF090
:10015800F151D926F251DA22EACFDFFF20EE0BF077
:10016800F151D926F251DA22E9CFDFFF20EE0EF065
:10017800F151D926F251DA22E2CFDFFF20EE0DF05D
:10018800F151D926F251DA22E1CFDFFF20EE10F04B
:10019800F151D926F251DA22DACFDFFF20EE0FF043
:1001A800F151D926F251DA22D9CFDFFF20EE15F02E
:1001B800F151D926F251DA22FACFDFFF20EE16F0FC
:1001C800F151D926F251DA22FBCFDFFF20EE0AF0F7
:1001D800F151D926F251DA22F4CFDFFF20EE09F0EF
:1001E800F151D926F251DA22F3CFDFFF20EE11F0D8
:1001F800F151D926F251DA22F5CFDFFF20EE13F0C4
:10020800F151D926F251DA22F7CFDFFF20EE12F0B2
:10021800F151D926F251DA22F6CFDFFF20EE14F0A1
:10022800F151D926F251DA22F8CFDFFF20EE06F09D
:10023800F151D926F251DA22E8CFDFFF20EE07F09C
:10024800F151D926F251DA22D8CFDFFF20EE2FF074
:10025800F151D926F251DA22DF6A90EF01F002015A
:1002680020EE2FF0F151D926F251DA22DF50366E06
:100278003650030DF3CF37F0F4CF38F03750F1256F
:10028800396E3850F2213A6E170E3924D96E000EA5
:100298003A20DA6EFDCFDFFF20EE2FF0F151D9269C
:1002A800F251DA22DF50366E3650030DF3CF37F0B5
:1002B800F4CF38F03750F125396E3850F2213A6EC4
:1002C800180E3924D96E000E3A20DA6EFECFDFFF01
:1002D80020EE2FF0F151D926F251DA22DF50366E96
:1002E8003650030DF3CF37F0F4CF38F03750F125FF
:1002F800396E3850F2213A6E190E3924D96E000E33
:100308003A20DA6EFFCFDFFF20EE2FF0F151D92629
:10031800F251DA22DF2A0600FC50D8A496EF01F049
:1003280098EF01F033EF01F05CEC17F0020120EEDA
:1003380001F0F151D926F251DA22DF50D8A4A7EF03
:1003480001F0A9EF01F0F6EF02F020EE01F0F15113
:10035800D926F251DA22020EDF6E20EE08F0F151B2
:10036800D926F251DA22DF50E06E20EE0CF0F1517E
:10037800D926F251DA22DF50EA6E20EE0BF0F15165
:10038800D926F251DA22DF50E96E20EE0EF0F15153
:10039800D926F251DA22DF50E26E20EE0DF0F1514B
:1003A800D926F251DA22DF50E16E20EE10F0F15139
:1003B800D926F251DA22DF50DA6E20EE0FF0F15131
:1003C800D926F251DA22DF50D96E20EE15F0F1511C
:1003D800D926F251DA22DF50FA6E20EE16F0F151EA
:1003E800D926F251DA22DF50FB6E20EE0AF0F151E5
:1003F800D926F251DA22DF50F46E20EE09F0F151DD
:10040800D926F251DA22DF50F36E20EE11F0F151C5
:10041800D926F251DA22DF50F56E20EE13F0F151B1
:10042800D926F251DA22DF50F76E20EE12F0F151A0
:10043800D926F251DA22DF50F66E20EE14F0F1518F
:10044800D926F251DA22DF50F86E20EE07F0F1518A
:10045800D926F251DA22DF50D86E20EE06F0F1519B
:10046800D926F251DA22DF50366E3650FC6A20EE79
:100478002FF0F151D926F251DA22DF50D8B447EFE4
:1004880002F049EF02F0B6EF02F00500020120EE9B
:100498002FF0F151D926F251DA22DF0620EE2FF0A3
:1004A800F151D926F251DA22DF50366E3650030D5B
:1004B800F3CF37F0F4CF38F03750F125396E385094
:1004C800F2213A6E170E3924D96E000E3A20DA6EF0
:1004D800DF50FD6E20EE2FF0F151D926F251DA22CD
:1004E800DF50366E3650030DF3CF37F0F4CF38F0C7
:1004F8003750F125396E3850F2213A6E180E3924EA
:10050800D96E000E3A20DA6EDF50FE6E20EE2FF024
:10051800F151D926F251DA22DF50366E3650030DEA
:10052800F3CF37F0F4CF38F03750F125396E385023
:10053800F2213A6E190E3924D96E000E3A20DA6E7D
:10054800DF50FF6E20EE2FF0F151D926F251DA225A
:10055800DF50D8A4B2EF02F0B4EF02F049EF02F096
:10056800F4EF02F00500020120EE02F0F151D92665
:10057800F251DA22DF50FD6E20EE02F0F151D92659
:10058800F251DA22DECF36F0DDCF37F036C038F060
:1005980037C039F03A6A39C038F03AC039F03A6AA7
:1005A8003850FE6E100E366E20EE02F0F151D9264C
:1005B800F251DA22DECF37F0DDCF38F037C039F02C
:1005C80038C03AF03B6A36283C6EEFEF02F0D8901C
:1005D8003B323A3239323C2EEBEF02F03950FF6EA3
:1005E800140E5D6EF2A2FBEF02F0FDEF02F007EFD2
:1005F80003F0F292000E026E000E036E060E046EF9
:10060800060EC6EC15F042C0F4FF41C0F3FF40C02F
:10061800DAFF3FC0D9FF3EC0E2FF3DC0E1FF0192D3
:06062800110003EF15F0C4
:101000000000F29E01011E51D96EDA6ADF50D8B499
:101010000CEF08F00EEF08F0CAEF0AF01E51D96E7F
:10102000DA6A060ED926DF501F6F1E511F25D96EB2
:10103000DA6A020ED926F3C2DFFF1E51D96EDA6AD0
:10104000060ED9261E51E16EE26A060EE126E75031
:101050001F6F1F29030BDF6E1E51D96EDA6A080E4F
:10106000D926DF2A020120EE01F0F151D926F251F2
:10107000DA22020EDE18D8A440EF08F042EF08F0A2
:1010800052EF09F020EE01F0F151D926F251DA22A7
:10109000010EDF6E20EE08F0F151D926F251DA226E
:1010A000E0CFDFFF20EE0CF0F151D926F251DA2229
:1010B000EACFDFFF20EE0BF0F151D926F251DA2210
:1010C000E9CFDFFF20EE0EF0F151D926F251DA22FE
:1010D000E2CFDFFF20EE0DF0F151D926F251DA22F6
:1010E000E1CFDFFF20EE10F0F151D926F251DA22E4
:1010F000DACFDFFF20EE0FF0F151D926F251DA22DC
:10110000D9CFDFFF20EE15F0F151D926F251DA22C6
:10111000FACFDFFF20EE16F0F151D926F251DA2294
:10112000FBCFDFFF20EE0AF0F151D926F251DA228F
:10113000F4CFDFFF20EE09F0F151D926F251DA2287
:10114000F3CFDFFF20EE11F0F151D926F251DA2270
:10115000F5CFDFFF20EE13F0F151D926F251DA225C
:10116000F7CFDFFF20EE12F0F151D926F251DA224B
:10117000F6CFDFFF20EE14F0F151D926F251DA223A
:10118000F8CFDFFF20EE06F0F151D926F251DA2236
:10119000E8CFDFFF20EE07F0F151D926F251DA2235
:1011A000D8CFDFFF20EE2FF0F151D926F251DA220D
:1011B000DF6A4AEF09F0020120EE2FF0F151D92643
:1011C000F251DA22DF5001011F6F1F51030DF3CFDF
:1011D00020F1F4CF21F120510201F1250101226F0C
:1011E00021510201F2210101236F170E2225D96E30
:1011F000000E2321DA6EFDCFDFFF020120EE2FF07B
:10120000F151D926F251DA22DF5001011F6F1F512F
:10121000030DF3CF20F1F4CF21F120510201F1258C
:101220000101226F21510201F2210101236F180EE9
:101230002225D96E000E2321DA6EFECFDFFF0201D8
:1012400020EE2FF0F151D926F251DA22DF500101C0
:101250001F6F1F51030DF3CF20F1F4CF21F1205167
:101260000201F1250101226F21510201F221010148
:10127000236F190E2225D96E000E2321DA6EFFCFBF
:10128000DFFF020120EE2FF0F151D926F251DA22D0
:10129000DF2A0600FC50D8A450EF09F052EF09F005
:1012A000DBEF08F042EC17F0020120EE01F0F15103
:1012B000D926F251DA22DF50D8A461EF09F063EFAA
:1012C00009F0DAEF0AF020EE01F0F151D926F251DF
:1012D000DA22020EDF6E20EE08F0F151D926F2512B
:1012E000DA22DF50E06E20EE0CF0F151D926F251F7
:1012F000DA22DF50EA6E20EE0BF0F151D926F251DE
:10130000DA22DF50E96E20EE0EF0F151D926F251CB
:10131000DA22DF50E26E20EE0DF0F151D926F251C3
:10132000DA22DF50E16E20EE10F0F151D926F251B1
:10133000DA22DF50DA6E20EE0FF0F151D926F251A9
:10134000DA22DF50D96E20EE15F0F151D926F25194
:10135000DA22DF50FA6E20EE16F0F151D926F25162
:10136000DA22DF50FB6E20EE0AF0F151D926F2515D
:10137000DA22DF50F46E20EE09F0F151D926F25155
:10138000DA22DF50F36E20EE11F0F151D926F2513E
:10139000DA22DF50F56E20EE13F0F151D926F2512A
:1013A000DA22DF50F76E20EE12F0F151D926F25119
:1013B000DA22DF50F66E20EE14F0F151D926F25108
:1013C000DA22DF50F86E20EE07F0F151D926F25103
:1013D000DA22DF50D86E20EE06F0F151D926F25114
:1013E000DA22DF5001011F6F1F51FC6A020120EE5B
:1013F0002FF0F151D926F251DA22DF50D8B403EFA1
:101400000AF005EF0AF084EF0AF00500020120EE71
:101410002FF0F151D926F251DA22DF0620EE2FF01B
:10142000F151D926F251DA22DF5001011F6F1F510D
:10143000030DF3CF20F1F4CF21F120510201F1256A
:101440000101226F21510201F2210101236F170EC8
:101450002225D96E000E2321DA6EDF50FD6E0201C7
:1014600020EE2FF0F151D926F251DA22DF5001019E
:101470001F6F1F51030DF3CF20F1F4CF21F1205145
:101480000201F1250101226F21510201F221010126
:10149000236F180E2225D96E000E2321DA6EDF503D
:1014A000FE6E020120EE2FF0F151D926F251DA2220
:1014B000DF5001011F6F1F51030DF3CF20F1F4CF57
:1014C00021F120510201F1250101226F2151020178
:1014D000F2210101236F190E2225D96E000E23215E
:1014E000DA6EDF50FF6E020120EE2FF0F151D926A7
:1014F000F251DA22DF50D8A480EF0AF082EF0AF02E
:1015000005EF0AF0C6EF0AF00500020120EE02F036
:10151000F151D926F251DA22DF50FD6E20EE02F0B1
:10152000F151D926F251DA22DECF1FF1DDCF20F1C1
:101530001FC121F120C122F10101236B22C121F140
:1015400023C122F1236B2151FE6E100E1F6F020189
:1015500020EE02F0F151D926F251DA22DECF20F14D
:10156000DDCF21F120C122F121C123F10101246B42
:101570001F29256FC0EF0AF0D8902433233322337C
:10158000252FBCEF0AF001012251FF6E140E5D6E93
:10159000DAEF0AF01E51D96EDA6A010EDF6EF1C27F
:1015A000D9FFF2C2DAFF1E51E16EE26A010EE126B6
:1015B000DFCFE7FFF28E1200F29E01012F51D96EAC
:1015C000DA6ADE06000EDD5A2F51D96EDA6A010E94
:1015D000DBBEEFEF0AF0EDEF0AF0A3EF0DF02F51B5
:1015E000D96EDA6A060ED926DF50306F2F513025BA
:1015F000D96EDA6A020ED926F3C2DFFF2F51D96EF7
:10160000DA6A060ED9262F51E16EE26A060EE1264D
:10161000E750306F3029030BDF6E020120EE01F03E
:10162000F151D926F251DA22020EDE18D8A41BEFAE
:101630000BF01DEF0BF02DEF0CF020EE01F0F1514F
:10164000D926F251DA22030EDF6E20EE08F0F151B6
:10165000D926F251DA22E0CFDFFF20EE0CF0F15173
:10166000D926F251DA22EACFDFFF20EE0BF0F1515A
:10167000D926F251DA22E9CFDFFF20EE0EF0F15148
:10168000D926F251DA22E2CFDFFF20EE0DF0F15140
:10169000D926F251DA22E1CFDFFF20EE10F0F1512E
:1016A000D926F251DA22DACFDFFF20EE0FF0F15126
:1016B000D926F251DA22D9CFDFFF20EE15F0F15111
:1016C000D926F251DA22FACFDFFF20EE16F0F151DF
:1016D000D926F251DA22FBCFDFFF20EE0AF0F151DA
:1016E000D926F251DA22F4CFDFFF20EE09F0F151D2
:1016F000D926F251DA22F3CFDFFF20EE11F0F151BB
:10170000D926F251DA22F5CFDFFF20EE13F0F151A6
:10171000D926F251DA22F7CFDFFF20EE12F0F15195
:10172000D926F251DA22F6CFDFFF20EE14F0F15184
:10173000D926F251DA22F8CFDFFF20EE06F0F15180
:10174000D926F251DA22E8CFDFFF20EE07F0F1517F
:10175000D926F251DA22D8CFDFFF20EE2FF0F15157
:10176000D926F251DA22DF6A25EF0CF0020120EED1
:101770002FF0F151D926F251DA22DF500101306FFA
:101780003051030DF3CF31F1F4CF32F13151020179
:10179000F1250101336F32510201F2210101346F51
:1017A000170E3325D96E000E3421DA6EFDCFDFFF20
:1017B000020120EE2FF0F151D926F251DA22DF504A
:1017C0000101306F3051030DF3CF31F1F4CF32F11D
:1017D00031510201F1250101336F32510201F22131
:1017E0000101346F180E3325D96E000E3421DA6EE4
:1017F000FECFDFFF020120EE2FF0F151D926F2518A
:10180000DA22DF500101306F3051030DF3CF31F197
:10181000F4CF32F131510201F1250101336F325120
:101820000201F2210101346F190E3325D96E000E29
:101830003421DA6EFFCFDFFF020120EE2FF0F151ED
:10184000D926F251DA22DF2A0600FC50D8A42BEF69
:101850000CF02DEF0CF0B6EF0BF042EC17F002019C
:1018600020EE01F0F151D926F251DA22DF50D8A44E
:101870003CEF0CF03EEF0CF0A3EF0DF020EE01F08A
:10188000F151D926F251DA22020EDF6E20EE08F075
:10189000F151D926F251DA22DF50E06E20EE0CF041
:1018A000F151D926F251DA22DF50EA6E20EE0BF028
:1018B000F151D926F251DA22DF50E96E20EE0EF016
:1018C000F151D926F251DA22DF50E26E20EE0DF00E
:1018D000F151D926F251DA22DF50E16E20EE10F0FC
:1018E000F151D926F251DA22DF50DA6E20EE0FF0F4
:1018F000F151D926F251DA22DF50D96E20EE15F0DF
:10190000F151D926F251DA22DF50FA6E20EE16F0AC
:10191000F151D926F251DA22DF50FB6E20EE0AF0A7
:10192000F151D926F251DA22DF50F46E20EE09F09F
:10193000F151D926F251DA22DF50F36E20EE11F088
:10194000F151D926F251DA22DF50F56E20EE13F074
:10195000F151D926F251DA22DF50F76E20EE12F063
:10196000F151D926F251DA22DF50F66E20EE14F052
:10197000F151D926F251DA22DF50F86E20EE07F04D
:10198000F151D926F251DA22DF50D86E20EE06F05E
:10199000F151D926F251DA22DF500101306F305176
:1019A000FC6A020120EE2FF0F151D926F251DA2221
:1019B000DF50D8B4DEEF0CF0E0EF0CF05FEF0DF08D
:1019C0000500020120EE2FF0F151D926F251DA2262
:1019D000DF0620EE2FF0F151D926F251DA22DF5046
:1019E0000101306F3051030DF3CF31F1F4CF32F1FB
:1019F00031510201F1250101336F32510201F2210F
:101A00000101346F170E3325D96E000E3421DA6EC2
:101A1000DF50FD6E020120EE2FF0F151D926F25178
:101A2000DA22DF500101306F3051030DF3CF31F175
:101A3000F4CF32F131510201F1250101336F3251FE
:101A40000201F2210101346F180E3325D96E000E08
:101A50003421DA6EDF50FE6E020120EE2FF0F151DC
:101A6000D926F251DA22DF500101306F3051030DD7
:101A7000F3CF31F1F4CF32F131510201F1250101FF
:101A8000336F32510201F2210101346F190E3325F7
:101A9000D96E000E3421DA6EDF50FF6E020120EEA7
:101AA0002FF0F151D926F251DA22DF50D8A45BEFA2
:101AB0000DF05DEF0DF0E0EF0CF0A1EF0DF0050083
:101AC000020120EE02F0F151D926F251DA22DF5064
:101AD000FD6E20EE02F0F151D926F251DA22DECF6E
:101AE00030F1DDCF31F130C132F131C133F10101DB
:101AF000346B33C132F134C133F1346B3251FE6E89
:101B0000100E306F020120EE02F0F151D926F25191
:101B1000DA22DECF31F1DDCF32F131C133F132C122
:101B200034F10101356B3029366F9BEF0DF0D89001
:101B3000353334333333362F97EF0DF00101335102
:101B4000FF6E140E5D6EF28E12000301676FF29E3F
:101B5000020120EE01F0F151D926F251DA22020EF3
:101B6000DE18D8A4B6EF0DF0B8EF0DF0C8EF0EF008
:101B700020EE01F0F151D926F251DA22010EDF6E8A
:101B800020EE08F0F151D926F251DA22E0CFDFFF42
:101B900020EE0CF0F151D926F251DA22EACFDFFF24
:101BA00020EE0BF0F151D926F251DA22E9CFDFFF16
:101BB00020EE0EF0F151D926F251DA22E2CFDFFF0A
:101BC00020EE0DF0F151D926F251DA22E1CFDFFFFC
:101BD00020EE10F0F151D926F251DA22DACFDFFFF0
:101BE00020EE0FF0F151D926F251DA22D9CFDFFFE2
:101BF00020EE15F0F151D926F251DA22FACFDFFFAB
:101C000020EE16F0F151D926F251DA22FBCFDFFF98
:101C100020EE0AF0F151D926F251DA22F4CFDFFF9B
:101C200020EE09F0F151D926F251DA22F3CFDFFF8D
:101C300020EE11F0F151D926F251DA22F5CFDFFF73
:101C400020EE13F0F151D926F251DA22F7CFDFFF5F
:101C500020EE12F0F151D926F251DA22F6CFDFFF51
:101C600020EE14F0F151D926F251DA22F8CFDFFF3D
:101C700020EE06F0F151D926F251DA22E8CFDFFF4B
:101C800020EE07F0F151D926F251DA22D8CFDFFF4A
:101C900020EE2FF0F151D926F251DA22DF6AC0EF9F
:101CA0000EF0020120EE2FF0F151D926F251DA2286
:101CB000DF500301606F6051030DF3CF61F3F4CF88
:101CC00062F361510201F1250301636F6251020168
:101CD000F2210301646F170E6325D96E000E642193
:101CE000DA6EFDCFDFFF020120EE2FF0F151D92691
:101CF000F251DA22DF500301606F6051030DF3CF20
:101D000061F3F4CF62F361510201F1250301636FC6
:101D100062510201F2210301646F180E6325D96E2E
:101D2000000E6421DA6EFECFDFFF020120EE2FF0FD
:101D3000F151D926F251DA22DF500301606F605170
:101D4000030DF3CF61F3F4CF62F361510201F1258A
:101D50000301636F62510201F2210301646F190EE6
:101D60006325D96E000E6421DA6EFFCFDFFF02011A
:101D700020EE2FF0F151D926F251DA22DF2A0600A7
:101D8000FC50D8A4C6EF0EF0C8EF0EF051EF0EF0E5
:101D90000201F351300D040EF324D96E020EF4202B
:101DA000DA6E67C3DFFF42EC17F0020120EE01F0AC
:101DB000F151D926F251DA22DF50D8A4E2EF0EF029
:101DC000E4EF0EF049EF10F020EE01F0F151D926CA
:101DD000F251DA22020EDF6E20EE08F0F151D92620
:101DE000F251DA22DF50E06E20EE0CF0F151D926EC
:101DF000F251DA22DF50EA6E20EE0BF0F151D926D3
:101E0000F251DA22DF50E96E20EE0EF0F151D926C0
:101E1000F251DA22DF50E26E20EE0DF0F151D926B8
:101E2000F251DA22DF50E16E20EE10F0F151D926A6
:101E3000F251DA22DF50DA6E20EE0FF0F151D9269E
:101E4000F251DA22DF50D96E20EE15F0F151D92689
:101E5000F251DA22DF50FA6E20EE16F0F151D92657
:101E6000F251DA22DF50FB6E20EE0AF0F151D92652
:101E7000F251DA22DF50F46E20EE09F0F151D9264A
:101E8000F251DA22DF50F36E20EE11F0F151D92633
:101E9000F251DA22DF50F56E20EE13F0F151D9261F
:101EA000F251DA22DF50F76E20EE12F0F151D9260E
:101EB000F251DA22DF50F66E20EE14F0F151D926FD
:101EC000F251DA22DF50F86E20EE07F0F151D926F8
:101ED000F251DA22DF50D86E20EE06F0F151D92609
:101EE000F251DA22DF500301606F6051FC6A020197
:101EF00020EE2FF0F151D926F251DA22DF50D8B47A
:101F000084EF0FF086EF0FF005EF10F005000201EF
:101F100020EE2FF0F151D926F251DA22DF0620EE21
:101F20002FF0F151D926F251DA22DF500301606F10
:101F30006051030DF3CF61F3F4CF62F361510201FD
:101F4000F1250301636F62510201F2210301646F05
:101F5000170E6325D96E000E6421DA6EDF50FD6E18
:101F6000020120EE2FF0F151D926F251DA22DF5092
:101F70000301606F6051030DF3CF61F3F4CF62F39F
:101F800061510201F1250301636F62510201F221E7
:101F90000301646F180E6325D96E000E6421DA6E9A
:101FA000DF50FE6E020120EE2FF0F151D926F251E2
:101FB000DA22DF500301606F6051030DF3CF61F34C
:101FC000F4CF62F361510201F1250301636F6251A5
:101FD0000201F2210301646F190E6325D96E000E10
:101FE0006421DA6EDF50FF6E020120EE2FF0F15116
:101FF000D926F251DA22DF50D8A401EF10F003EF16
:1020000010F086EF0FF047EF10F00500020120EE10
:1020100002F0F151D926F251DA22DF50FD6E20EEA6
:1020200002F0F151D926F251DA22DECF60F3DDCF92
:1020300061F360C362F361C363F30301646B63C361
:1020400062F364C363F3646B6251FE6E100E606FE3
:10205000020120EE02F0F151D926F251DA22DECF50
:1020600061F3DDCF62F361C363F362C364F3030121
:10207000656B6029666F41EF10F0D890653364336B
:102080006333662F3DEF10F003016351FF6E140EB2
:102090005D6EF28E120027EC17F035EC17F002019E
:1020A00020EE01F0F151D926F251DA22DF50D8A406
:1020B0005CEF10F05EEF10F0C3EF11F020EE01F0D6
:1020C000F151D926F251DA22020EDF6E20EE08F02D
:1020D000F151D926F251DA22DF50E06E20EE0CF0F9
:1020E000F151D926F251DA22DF50EA6E20EE0BF0E0
:1020F000F151D926F251DA22DF50E96E20EE0EF0CE
:10210000F151D926F251DA22DF50E26E20EE0DF0C5
:10211000F151D926F251DA22DF50E16E20EE10F0B3
:10212000F151D926F251DA22DF50DA6E20EE0FF0AB
:10213000F151D926F251DA22DF50D96E20EE15F096
:10214000F151D926F251DA22DF50FA6E20EE16F064
:10215000F151D926F251DA22DF50FB6E20EE0AF05F
:10216000F151D926F251DA22DF50F46E20EE09F057
:10217000F151D926F251DA22DF50F36E20EE11F040
:10218000F151D926F251DA22DF50F56E20EE13F02C
:10219000F151D926F251DA22DF50F76E20EE12F01B
:1021A000F151D926F251DA22DF50F66E20EE14F00A
:1021B000F151D926F251DA22DF50F86E20EE07F005
:1021C000F151D926F251DA22DF50D86E20EE06F016
:1021D000F151D926F251DA22DF5003016F6F6F51AE
:1021E000FC6A020120EE2FF0F151D926F251DA22D9
:1021F000DF50D8B4FEEF10F000EF11F07FEF11F0D8
:102200000500020120EE2FF0F151D926F251DA2219
:10221000DF0620EE2FF0F151D926F251DA22DF50FD
:1022200003016F6F6F51030DF3CF70F3F4CF71F3B0
:1022300070510201F1250301726F71510201F22107
:102240000301736F170E7225D96E000E7321DA6EBB
:10225000DF50FD6E020120EE2FF0F151D926F25130
:10226000DA22DF5003016F6F6F51030DF3CF70F36C
:10227000F4CF71F370510201F1250301726F7151B6
:102280000201F2210301736F180E7225D96E000E40
:102290007321DA6EDF50FE6E020120EE2FF0F15155
:1022A000D926F251DA22DF5003016F6F6F51030D0F
:1022B000F3CF70F3F4CF71F370510201F1250301F4
:1022C000726F71510201F2210301736F190E7225B1
:1022D000D96E000E7321DA6EDF50FF6E020120EE20
:1022E0002FF0F151D926F251DA22DF50D8A47BEF3A
:1022F00011F07DEF11F000EF11F0C1EF11F00500CA
:10230000020120EE02F0F151D926F251DA22DF501B
:10231000FD6E20EE02F0F151D926F251DA22DECF25
:102320006FF3DDCF70F36FC371F370C372F303010A
:10233000736B72C371F373C372F3736B7151FE6E7F
:10234000100E6F6F020120EE02F0F151D926F2510A
:10235000DA22DECF70F3DDCF71F370C372F371C395
:1023600073F30301746B6F29756FBBEF11F0D89095
:10237000743373337233752FB7EF11F00301725159
:10238000FF6E140E5D6EF28E120003016A6B6B6BB2
:102390006D6B01EF12F06D51300D010EF324D96E0B
:1023A000020EF420DA6EDF50D8A4D9EF11F0DBEF83
:1023B00011F000EF12F06B51D8B4E1EF11F0E3EF40
:1023C00011F0F4EF11F06D51300D050EF324D96EBC
:1023D000020EF420DA6EDE506A5DD8B0F2EF11F032
:1023E000F4EF11F000EF12F06D51300D050EF324F3
:1023F000D96E020EF420DA6EDF506A6F010E6B6F39
:102400006D2B0201F05103016D5DD8A00AEF12F0AF
:102410000CEF12F0CBEF11F06B51D8A412EF12F0C9
:1024200014EF12F017EF12F0000E60EF12F0F3C28B
:1024300069F36C6B53EF12F069516C256E6F0201FA
:10244000F05103016E5DD8A028EF12F02AEF12F0D0
:102450002EEF12F00201F05103016E5F6E51300D4C
:10246000010EF324D96E020EF420DA6EDF50D8A4E8
:102470003CEF12F03EEF12F052EF12F06E51300DC1
:10248000050EF324D96E020EF420DA6E6A51DE18BE
:10249000D8A44DEF12F04FEF12F052EF12F06E5140
:1024A00060EF12F06C2B0201F05103016C5DD8A0BB
:1024B0005CEF12F05EEF12F01CEF12F014EF12F06E
:1024C000120003015B6B5C6B5E6B9DEF12F05E5163
:1024D000300D010EF324D96E020EF420DA6EDF50B7
:1024E000D8A475EF12F077EF12F09CEF12F05C5168
:1024F000D8B47DEF12F07FEF12F090EF12F05E5142
:10250000300D050EF324D96E020EF420DA6EDE5083
:102510005B5DD8B08EEF12F090EF12F09CEF12F0EE
:102520005E51300D050EF324D96E020EF420DA6EE2
:10253000DF505B6F010E5C6F5E2B0201F0510301F7
:102540005E5DD8A0A6EF12F0A8EF12F067EF12F0D0
:102550005C51D8A4AEEF12F0B0EF12F0B3EF12F06E
:10256000000EFCEF12F0F3C25AF35D6BEFEF12F0C6
:102570005A515D255F6F0201F05103015F5DD8A0E4
:10258000C4EF12F0C6EF12F0CAEF12F00201F051E0
:1025900003015F5F5F51300D010EF324D96E020E0F
:1025A000F420DA6EDF50D8A4D8EF12F0DAEF12F090
:1025B000EEEF12F05F51300D050EF324D96E020ECE
:1025C000F420DA6E5B51DE18D8A4E9EF12F0EBEFDD
:1025D00012F0EEEF12F05F51FCEF12F05D2B0201F2
:1025E000F05103015D5DD8A0F8EF12F0FAEF12F0A0
:1025F000B8EF12F0B0EF12F01200046A056A076A31
:1026000038EF13F00750300D010EF324D96E020E8F
:10261000F420DA6EDF50D8A410EF13F012EF13F0AD
:1026200037EF13F00550D8B418EF13F01AEF13F08A
:102630002BEF13F00750300D050EF324D96E020E68
:10264000F420DA6EDE50045CD8B029EF13F02BEFE3
:1026500013F037EF13F00750300D050EF324D96E49
:10266000020EF420DA6EDF50046E010E056E072AAA
:102670000201F051075CD8A040EF13F042EF13F0D5
:1026800002EF13F00550D8A448EF13F04AEF13F00F
:102690004DEF13F0000E90EF13F0F3C203F0066A53
:1026A00085EF13F003500624086EF051085CD8A0A3
:1026B0005CEF13F05EEF13F060EF13F0F051085E83
:1026C0000850300D010EF324D96E020EF420DA6E9C
:1026D000DF50D8A46EEF13F070EF13F084EF13F017
:1026E0000850300D050EF324D96E020EF420DA6E78
:1026F0000450DE18D8A47FEF13F081EF13F084EFBD
:1027000013F0085090EF13F0062AF051065CD8A0A1
:102710008CEF13F08EEF13F052EF13F04AEF13F03B
:102720001200F29E01011E51D96EDA6ADF50D8B450
:102730009CEF13F09EEF13F00DEF14F0F1C2D9FFF0
:10274000F2C2DAFF1E51E16EE26A010EE126DE50AE
:10275000E618D8A4AEEF13F0B0EF13F00DEF14F0BD
:102760001E51D96EDA6A080ED926DF50D8B4BBEFF5
:1027700013F0BDEF13F003EF14F01E51D96EDA6AB7
:10278000070ED926DF5000017B6F01011E510001A9
:102790007B25D96EDA6A020ED926DF507D6F7D5116
:1027A000300D010EF324D96E020EF420DA6EDF6ACA
:1027B00001011E51D96EDA6A070ED9261E51E16E4B
:1027C000E26A070EE126E75000017B6F7B29030BCD
:1027D000DF6E01011E51D96EDA6A080ED926DF06B6
:1027E00000017D51300D000EF324D96E020EF4204D
:1027F000DA6E01011E51E16EE26A010EE126DFCFC1
:10280000E7FF0DEF14F01E51D96EDA6ADF6A1E5130
:10281000D96EDA6A080ED926DF6AF28E120000013C
:102820007C6B01011FBF19EF14F017EF14F020EFBC
:1028300014F01E6D1F1FD8B01F2B010E00017C6FFE
:10284000010121BF28EF14F026EF14F02CEF14F053
:10285000206D211FD8B0212B20512111D8B433EF86
:1028600014F035EF14F05EEF14F0010E00017B6FF1
:102870003FEF14F0D8902037213700017B2B010166
:1028800021AF45EF14F047EF14F03AEF14F00101D7
:1028900020511E5D21511F59D8A051EF14F053EF64
:1028A00014F057EF14F020511E5F21511F5BD89098
:1028B0002133203300017B2F47EF14F000017C51BE
:1028C000D8B465EF14F067EF14F06CEF14F0010169
:1028D0001E6D1F1FD8B01F2B1EC11EF11FC11FF17F
:1028E000120020EE57F011EE28F0050EDBCFE3FFCB
:1028F000E806FCE201012E6B82BC81EF14F084EF4C
:1029000014F0010E85EF14F0000EFF0A00017E6F37
:102910007E3B7E477E4782507E19BF0B7E19826EBA
:10292000600E0101266F280E2E25D96EDA6A010E7F
:10293000DA22DF50276F97EC15F0010E01012E25EA
:102940001E6F1F6B000E1F23216B060E206F0FECF6
:1029500014F001011E512E6F4E0E2F6FC0EC14F0BB
:10296000450E01011E6F01EC08F0050EA5EC0DF0FF
:10297000450E01011E6F91EC13F07CEF14F0120074
:10298000F29E01012F51D96EDA6ADE2A000EDD2295
:102990002F51D96EDA6A010EDBBEDAEF14F0010EA8
:1029A000DB5006E1DE04D8B0D8EF14F0DAEF14F013
:1029B00001EF15F02F51D96EDA6A070ED926DF50D4
:1029C000306F2F513025D96EDA6A020ED926DF50CA
:1029D000316F3151300D010EF324D96E020EF42007
:1029E000DA6EDF6A2F51D96EDA6A070ED9262F51B7
:1029F000E16EE26A070EE126E750306F3029030BE3
:102A0000DF6EF28E1200F80EF66E2E0EF76E000ECE
:102A1000F86E00EE57F010EE07F00900F5CFEEFF6C
:102A2000E550E150FAE104EE31F012EE00F0EE6A0A
:102A3000E550E150FCE1E250FAE102EE00F0F40E64
:102A4000EE6AE806FDE100EE60F0160EEE6AE806BA
:102A5000FDE100EE45F0120EEE6AE806FDE10190A0
:102A60000192000EF86E000167EF15F00401006F8F
:102A700000C401F40401056B6AC306F468C303F4DF
:102A800069C304F4026B096B0D6B0C6B0F6B0E6B5F
:102A9000116B106B166B176B0B6B0A6B086B126B61
:102AA000146B136B156B076B306B24EE01F0020196
:102AB000F051300D000EF324E16E020EF420E26EB0
:102AC0002F0EDBCFE3FFE806FCE2F02B1200FFEC59
:102AD00016F0E20E0301686F280E696F010E6A6F2F
:102AE000020E36EC15F0420E0301686F2C0E696F72
:102AF000010E6A6F030E36EC15F0740E0301686F59
:102B00002D0E696F010E6A6F040E36EC15F0D20EB1
:102B10000301686F2E0E696F010E6A6F050E36ECA9
:102B200015F04BEC10F093EF15F015EF03F00101E9
:102B30002651060F2F6FDCEC0AF001012651D96EE9
:102B4000DA6A040ED926DF5000017B6F010126519D
:102B500000017B25D96EDA6A27C1DFFF010126510A
:102B6000D96EDA6A040ED9262651E16EE26A040EA5
:102B7000E126E75000017B6F7B29030BDF6E01012B
:102B800026510E0F2F6FC0EC14F01200056E05C019
:102B900006F00A6A04C00BF002C008F003C009F096
:102BA000076A0E6A126A116A146A136A166A156A4B
:102BB0001B6A1C6A106A0F6A0D6A176A196A186A1A
:102BC0001A6A0C6A356A20EE06F00201F051300DE7
:102BD000000EF324E16E020EF420E26E2F0EDBCF26
:102BE000E3FFE806FCE2F02B1200010137510E0F63
:102BF0002F6FDCEC0AF001013751D96EDA6A050E4D
:102C0000D926DF50396F37513925D96EDA6A3851F4
:102C1000E16EE26ADFCFE7FF3751D96EDA6A050E5F
:102C2000D9263751E16EE26A050EE126E750396F89
:102C30003929030BDF6E3751060F2F6FC0EC14F0EC
:102C400012004E0E01012F6FDCEC0AF0600E010144
:102C5000376F560E386FF5EC15F04C0E5618D8A499
:102C600034EF16F036EF16F039EF16F0838021EFCF
:102C700016F0440E5618D8A440EF16F042EF16F0A6
:102C800021EF16F0839021EF16F012009380949CB0
:102C9000949E95900F013B913A9D3A9FF288F19C4A
:102CA000F29213EC17F075EC17F04E0E0301686FFB
:102CB000000E696FA2EC16F0600E03016C6F85ECDC
:102CC00016F0450E0301686F67EC16F01200030161
:102CD0006851D96EDA6ADF6A6851D96EDA6A010E14
:102CE000D926DF6A6851D96EDA6A060ED926DF6AFC
:102CF0006851D96EDA6A070ED926DF6A6851D96E33
:102D0000DA6A080ED926DF6A120003016C51D96E07
:102D1000DA6A040ED926DF6A6C51D96EDA6A050EBA
:102D2000D926DF6A6C51060F686F040E696FA2EC3A
:102D300016F003016C510E0F686F000E696FA2EC64
:102D400016F01200030169516A6F6B6B6851D96EFE
:102D5000DA6A6AC3DEFF6BC3DDFF6851D96EDA6AD7
:102D6000060ED926DF6A6851D96EDA6A070ED926AF
:102D7000DF6A12004FEC17F001013B5109E17B0EB5
:102D80003A5DD8A0C6EF16F0C8EF16F0CBEF16F0FC
:102D9000828ECCEF16F0829E0A0EA5EC0DF0BAEFF3
:102DA00016F0120059C35BF35AC35CF30301D890C9
:102DB0005C335B33D8905C335B335B51BE6E59C37D
:102DC0005BF3030E5B175B3BBD505B19CF0B5B19CD
:102DD000BD6E1200949082B0F0EF16F0F3EF16F093
:102DE000010EF4EF16F0000EFF0A0001766F82501C
:102DF0007619FE0B7619826EEBEF16F012000201C7
:102E0000F06B000EF16F020EF26FF36BD40E030144
:102E1000686F2D0E696F000E6A6F010E36EC15F0AB
:102E200046EC16F01200830EC216F30EC116FC0E0D
:102E3000C116C08EC050C70B3009C06EC050F80B11
:102E40000409C06E92800F013881C2801200F28A9C
:102E5000F294D58CD59AD596070ED512D58ED76A11
:102E6000000ED66EF28EF28C1200C5EC11F002014B
:102E7000F36FF351300D000EF324F16F020EF420C6
:102E8000F26F120061EC12F00201F36FF351300D9A
:102E9000000EF324F16F020EF420F26F1200C282D2
:102EA000C2B255EF17F057EF17F050EF17F0C3CF3E
:102EB0003AF1C4CF3BF11200FDEC12F00201F36FC6
:102EC000F351300D000EF324F16F020EF420F26F77
:102ED000120003015A6B800E596FD2EC16F0050EEA
:102EE000A5EC0DF069EF17F01200BB680C0EBD6E7B
:0F2EF000040EBA6E949412004C4C444C4444149B
:00000001FF
