:040000008DEF03F08D
:100008000182E1CF3CF0E2CF3DF0D9CF3EF0DACF2C
:100018003FF0F3CF40F0F4CF41F0F2A416EF00F038
:1000280018EF00F07FEF03F0F294436A000E426E7F
:100038006EEF00F0750E4202F3CF35F0F4CF36F0D4
:100048004302F3503626E60E3524D96E020E3620CA
:10005800DA6EDF50D8B433EF00F035EF00F06CEF14
:1000680000F0750E4202F3CF35F0F4CF36F04302BC
:10007800F3503626E60E3524D96E020E3620DA6E97
:10008800DF06750E4202F3CF35F0F4CF36F04302A7
:10009800F3503626E60E3524D96E020E3620DA6E77
:1000A800DF50D8A45AEF00F05CEF00F06CEF00F0DE
:1000B800750E4202F3CF35F0F4CF36F04302F35019
:1000C8003626E30E3524D96E020E3620DA6EDF6A44
:1000D800424A432A24EEB6F0DF50356E366A355070
:1000E800425C4350800A376E3650800A3758D8A091
:1000F80080EF00F082EF00F01EEF00F04A064A5051
:10010800D8A489EF00F08BEF00F07FEF03F0140E16
:100118004A6E24EEB7F010EE01F0DE50E126DD5015
:10012800E222020EE618D8A49CEF00F09EEF00F041
:10013800DAEF01F024EEB7F010EE01F0DE50E12620
:10014800DD50E222E76A24EEB7F010EE08F0DE5048
:10015800E126DD50E222E0CFE7FF24EEB7F010EE13
:100168000CF0DE50E126DD50E222EACFE7FF24EE74
:10017800B7F010EE0BF0DE50E126DD50E222E9CFB9
:10018800E7FF24EEB7F010EE0EF0DE50E126DD506A
:10019800E222E2CFE7FF24EEB7F010EE0DF0DE50DA
:1001A800E126DD50E222E1CFE7FF24EEB7F010EEC2
:1001B80010F0DE50E126DD50E222DACFE7FF24EE30
:1001C800B7F010EE0FF0DE50E126DD50E222D9CF75
:1001D800E7FF24EEB7F010EE15F0DE50E126DD5013
:1001E800E222FACFE7FF24EEB7F010EE16F0DE5069
:1001F800E126DD50E222FBCFE7FF24EEB7F010EE58
:100208000AF0DE50E126DD50E222F4CFE7FF24EECB
:10021800B7F010EE09F0DE50E126DD50E222F3CF10
:10022800E7FF24EEB7F010EE11F0DE50E126DD50C6
:10023800E222F5CFE7FF24EEB7F010EE13F0DE5020
:10024800E126DD50E222F7CFE7FF24EEB7F010EE0B
:1002580012F0DE50E126DD50E222F6CFE7FF24EE71
:10026800B7F010EE14F0DE50E126DD50E222F8CFB0
:10027800E7FF24EEB7F010EE06F0DE50E126DD5081
:10028800E222E8CFE7FF24EEB7F010EE07F0DE50E9
:10029800E126DD50E222D8CFE7FF24EEB7F010EEDA
:1002A80074F0DE50E126DD50E222E76AD2EF01F079
:1002B80024EEB7F010EE74F0DE50E126DD50E222B5
:1002C800E750356E3550030DF3CF36F0F4CF37F0E5
:1002D80024EEB7F0DECF38F0DDCF39F036503824D1
:1002E8003A6E375039203B6E170E3A24D96E000EFD
:1002F8003B20DA6EFDCFDFFF24EEB7F010EE74F08E
:10030800DE50E126DD50E222E750356E3550030D10
:10031800F3CF36F0F4CF37F024EEB7F0DECF38F075
:10032800DDCF39F0365038243A6E375039203B6EDD
:10033800180E3A24D96E000E3B20DA6EFECFDFFF8E
:1003480024EEB7F010EE74F0DE50E126DD50E22224
:10035800E750356E3550030DF3CF36F0F4CF37F054
:1003680024EEB7F0DECF38F0DDCF39F03650382440
:100378003A6E375039203B6E190E3A24D96E000E6A
:100388003B20DA6EFFCFDFFF24EEB7F010EE74F0FB
:10039800DE50E126DD50E222E72A0600FC50D8A410
:1003A800D8EF01F0DAEF01F05CEF01F00FEC11F09B
:1003B80024EEB7F010EE01F0DE50E126DD50E22227
:1003C800E750D8A4EAEF01F0ECEF01F07FEF03F07B
:1003D80024EEB7F010EE01F0DE50E126DD50E22207
:1003E800020EE76E24EEB7F010EE08F0DE50E126BC
:1003F800DD50E222E750E06E24EEB7F010EE0CF08C
:10040800DE50E126DD50E222E750EA6E24EEB7F036
:1004180010EE0BF0DE50E126DD50E222E750E96EE7
:1004280024EEB7F010EE0EF0DE50E126DD50E222A9
:10043800E750E26E24EEB7F010EE0DF0DE50E12644
:10044800DD50E222E750E16E24EEB7F010EE10F036
:10045800DE50E126DD50E222E750DA6E24EEB7F0F6
:1004680010EE0FF0DE50E126DD50E222E750D96EA3
:1004780024EEB7F010EE15F0DE50E126DD50E22252
:10048800E750FA6E24EEB7F010EE16F0DE50E126D3
:10049800DD50E222E750FB6E24EEB7F010EE0AF0D2
:1004A800DE50E126DD50E222E750F46E24EEB7F08C
:1004B80010EE09F0DE50E126DD50E222E750F36E3F
:1004C80024EEB7F010EE11F0DE50E126DD50E22206
:1004D800E750F56E24EEB7F010EE13F0DE50E1268B
:1004E800DD50E222E750F76E24EEB7F010EE12F07E
:1004F800DE50E126DD50E222E750F66E24EEB7F03A
:1005080010EE14F0DE50E126DD50E222E750F86EDE
:1005180024EEB7F010EE07F0DE50E126DD50E222BF
:10052800E750D86E24EEB7F010EE06F0DE50E12664
:10053800DD50E222E750356E3550FC6A24EEB7F004
:1005480010EE74F0DE50E126DD50E222E750D8B418
:10055800B0EF02F0B2EF02F03AEF03F0050024EE3C
:10056800B7F010EE74F0DE50E126DD50E222E70627
:1005780024EEB7F010EE74F0DE50E126DD50E222F2
:10058800E750356E3550030DF3CF36F0F4CF37F022
:1005980024EEB7F0DECF38F0DDCF39F0365038240E
:1005A8003A6E375039203B6E170E3A24D96E000E3A
:1005B8003B20DA6EDF50FD6E24EEB7F010EE74F0DB
:1005C800DE50E126DD50E222E750356E3550030D4E
:1005D800F3CF36F0F4CF37F024EEB7F0DECF38F0B3
:1005E800DDCF39F0365038243A6E375039203B6E1B
:1005F800180E3A24D96E000E3B20DA6EDF50FE6EDC
:1006080024EEB7F010EE74F0DE50E126DD50E22261
:10061800E750356E3550030DF3CF36F0F4CF37F091
:1006280024EEB7F0DECF38F0DDCF39F0365038247D
:100638003A6E375039203B6E190E3A24D96E000EA7
:100648003B20DA6EDF50FF6E24EEB7F010EE74F048
:10065800DE50E126DD50E222E750D8A436EF03F061
:1006680038EF03F0B2EF02F07DEF03F0050024EE5F
:10067800B7F010EE02F0DE50E126DD50E222E7503E
:10068800FD6E24EEB7F010EE02F0DE50E126DD50EC
:10069800E222E6CF35F0E5CF36F035C037F036C088
:1006A80038F0396A38C037F039C038F0396A37500D
:1006B800FE6E100E356E24EEB7F010EE02F0DE502E
:1006C800E126DD50E222E6CF36F0E5CF37F036C03E
:1006D80038F037C039F03A6A35283B6E78EF03F0C6
:1006E800D8903A32393238323B2E74EF03F0385012
:1006F800FF6E140E4A6E41C0F4FF40C0F3FF3FC0C6
:10070800DAFF3EC0D9FF3DC0E2FF3CC0E1FF0192E5
:060718001100F6EF0FF0E6
:101000000000356EF29E24EEB7F010EE01F0DE50D7
:10101000E126DD50E222020EE618D8A412EF08F015
:1010200014EF08F052EF09F024EEB7F010EE01F0E3
:10103000DE50E126DD50E222010EE76E24EEB7F02D
:1010400010EE08F0DE50E126DD50E222E0CFE7FFAF
:1010500024EEB7F010EE0CF0DE50E126DD50E22277
:10106000EACFE7FF24EEB7F010EE0BF0DE50E126FA
:10107000DD50E222E9CFE7FF24EEB7F010EE0EF0EC
:10108000DE50E126DD50E222E2CFE7FF24EEB7F0AA
:1010900010EE0DF0DE50E126DD50E222E1CFE7FF59
:1010A00024EEB7F010EE10F0DE50E126DD50E22223
:1010B000DACFE7FF24EEB7F010EE0FF0DE50E126B6
:1010C000DD50E222D9CFE7FF24EEB7F010EE15F0A5
:1010D000DE50E126DD50E222FACFE7FF24EEB7F042
:1010E00010EE16F0DE50E126DD50E222FBCFE7FFE6
:1010F00024EEB7F010EE0AF0DE50E126DD50E222D9
:10110000F4CFE7FF24EEB7F010EE09F0DE50E12651
:10111000DD50E222F3CFE7FF24EEB7F010EE11F03E
:10112000DE50E126DD50E222F5CFE7FF24EEB7F0F6
:1011300010EE13F0DE50E126DD50E222F7CFE7FF9C
:1011400024EEB7F010EE12F0DE50E126DD50E22280
:10115000F6CFE7FF24EEB7F010EE14F0DE50E126F4
:10116000DD50E222F8CFE7FF24EEB7F010EE06F0F4
:10117000DE50E126DD50E222E8CFE7FF24EEB7F0B3
:1011800010EE07F0DE50E126DD50E222D8CFE7FF77
:1011900024EEB7F010EE74F0DE50E126DD50E222CE
:1011A000E76A4AEF09F024EEB7F010EE74F0DE5073
:1011B000E126DD50E222E7500001616F6151030D2D
:1011C000F3CF62F0F4CF63F024EEB7F0DECF64F03B
:1011D000DDCF65F062516425666F63516521676FED
:1011E000170E6625D96E000E6721DA6EFDCFDFFF80
:1011F00024EEB7F010EE74F0DE50E126DD50E2226E
:10120000E750616F6151030DF3CF62F0F4CF63F0EB
:1012100024EEB7F0DECF64F0DDCF65F062516425D7
:10122000666F63516521676F180E6625D96E000ED3
:101230006721DA6EFECFDFFF24EEB7F010EE74F018
:10124000DE50E126DD50E222E750616F6151030D6F
:10125000F3CF62F0F4CF63F024EEB7F0DECF64F0AA
:10126000DDCF65F062516425666F63516521676F5C
:10127000190E6625D96E000E6721DA6EFFCFDFFFEB
:1012800024EEB7F010EE74F0DE50E126DD50E222DD
:10129000E72A0600FC50D8A450EF09F052EF09F0FD
:1012A000D3EF08F0B9C461F000016151750DE60E8D
:1012B000F324D96E020EF420DA6E35C0DFFFFBECAA
:1012C00010F024EEB7F010EE01F0DE50E126DD5014
:1012D000E222E750D8A46FEF09F071EF09F008EFB0
:1012E0000BF024EEB7F010EE01F0DE50E126DD50F9
:1012F000E222020EE76E24EEB7F010EE08F0DE50A8
:10130000E126DD50E222E750E06E24EEB7F010EE69
:101310000CF0DE50E126DD50E222E750EA6E24EECA
:10132000B7F010EE0BF0DE50E126DD50E222E75080
:10133000E96E24EEB7F010EE0EF0DE50E126DD503F
:10134000E222E750E26E24EEB7F010EE0DF0DE5030
:10135000E126DD50E222E750E16E24EEB7F010EE18
:1013600010F0DE50E126DD50E222E750DA6E24EE86
:10137000B7F010EE0FF0DE50E126DD50E222E7502C
:10138000D96E24EEB7F010EE15F0DE50E126DD50F8
:10139000E222E750FA6E24EEB7F010EE16F0DE50BF
:1013A000E126DD50E222E750FB6E24EEB7F010EEAE
:1013B0000AF0DE50E126DD50E222E750F46E24EE22
:1013C000B7F010EE09F0DE50E126DD50E222E750E2
:1013D000F36E24EEB7F010EE11F0DE50E126DD5092
:1013E000E222E750F56E24EEB7F010EE13F0DE5077
:1013F000E126DD50E222E750F76E24EEB7F010EE62
:1014000012F0DE50E126DD50E222E750F66E24EEC7
:10141000B7F010EE14F0DE50E126DD50E222E75086
:10142000F86E24EEB7F010EE07F0DE50E126DD5046
:10143000E222E750D86E24EEB7F010EE06F0DE5050
:10144000E126DD50E222E7500001616F6151FC6A44
:1014500024EEB7F010EE74F0DE50E126DD50E2220B
:10146000E750D8B436EF0AF038EF0AF0C1EF0AF0CF
:10147000050024EEB7F010EE74F0DE50E126DD50EA
:10148000E222E70624EEB7F010EE74F0DE50E1261B
:10149000DD50E222E7500001616F6151030DF3CF8F
:1014A00062F0F4CF63F024EEB7F0DECF64F0DDCF6E
:1014B00065F062516425666F63516521676F170E91
:1014C0006625D96E000E6721DA6EDF50FD6E24EEC0
:1014D000B7F010EE74F0DE50E126DD50E222E75066
:1014E000616F6151030DF3CF62F0F4CF63F024EE2E
:1014F000B7F0DECF64F0DDCF65F062516425666F32
:1015000063516521676F180E6625D96E000E67213D
:10151000DA6EDF50FE6E24EEB7F010EE74F0DE509F
:10152000E126DD50E222E750616F6151030DF3CFF8
:1015300062F0F4CF63F024EEB7F0DECF64F0DDCFDD
:1015400065F062516425666F63516521676F190EFE
:101550006625D96E000E6721DA6EDF50FF6E24EE2D
:10156000B7F010EE74F0DE50E126DD50E222E750D5
:10157000D8A4BDEF0AF0BFEF0AF038EF0AF006EF8B
:101580000BF0050024EEB7F010EE02F0DE50E1267D
:10159000DD50E222E750FD6E24EEB7F010EE02F0CF
:1015A000DE50E126DD50E222E6CF61F0E5CF62F0C9
:1015B00061C063F062C064F00001656B64C063F0F9
:1015C00065C064F0656B6351FE6E100E616F24EEB2
:1015D000B7F010EE02F0DE50E126DD50E222E6CF59
:1015E00062F0E5CF63F062C064F063C065F0666BE3
:1015F0006129676F00EF0BF0D89066336533643371
:10160000672FFCEF0AF000016451FF6E140E4A6E62
:10161000F28E120035EC11F0BDEC10F024EEB7F0B4
:1016200010EE01F0DE50E126DD50E222E750D8A4B2
:101630001CEF0BF01EEF0BF0B5EF0CF024EEB7F043
:1016400010EE01F0DE50E126DD50E222020EE76EE0
:1016500024EEB7F010EE08F0DE50E126DD50E22275
:10166000E750E06E24EEB7F010EE0CF0DE50E1260D
:10167000DD50E222E750EA6E24EEB7F010EE0BF0F8
:10168000DE50E126DD50E222E750E96E24EEB7F0AD
:1016900010EE0EF0DE50E126DD50E222E750E26E61
:1016A00024EEB7F010EE0DF0DE50E126DD50E22220
:1016B000E750E16E24EEB7F010EE10F0DE50E126B8
:1016C000DD50E222E750DA6E24EEB7F010EE0FF0B4
:1016D000DE50E126DD50E222E750D96E24EEB7F06D
:1016E00010EE15F0DE50E126DD50E222E750FA6EF2
:1016F00024EEB7F010EE16F0DE50E126DD50E222C7
:10170000E750FB6E24EEB7F010EE0AF0DE50E12653
:10171000DD50E222E750F46E24EEB7F010EE09F04F
:10172000DE50E126DD50E222E750F36E24EEB7F002
:1017300010EE11F0DE50E126DD50E222E750F56EAA
:1017400024EEB7F010EE13F0DE50E126DD50E22279
:10175000E750F76E24EEB7F010EE12F0DE50E126FF
:10176000DD50E222E750F66E24EEB7F010EE14F0F2
:10177000DE50E126DD50E222E750F86E24EEB7F0AD
:1017800010EE07F0DE50E126DD50E222E750D86E81
:1017900024EEB7F010EE06F0DE50E126DD50E22236
:1017A000E7500001786F7851FC6A24EEB7F010EE34
:1017B00074F0DE50E126DD50E222E750D8B4E3EFCA
:1017C0000BF0E5EF0BF06EEF0CF0050024EEB7F038
:1017D00010EE74F0DE50E126DD50E222E70624EE42
:1017E000B7F010EE74F0DE50E126DD50E222E75053
:1017F0000001786F7851030DF3CF79F0F4CF7AF0D0
:1018000024EEB7F0DECF7BF0DDCF7CF079517B2585
:101810007D6F7A517C217E6F170E7D25D96E000E6B
:101820007E21DA6EDF50FD6E24EEB7F010EE74F01C
:10183000DE50E126DD50E222E750786F7851030D4B
:10184000F3CF79F0F4CF7AF024EEB7F0DECF7BF06F
:10185000DDCF7CF079517B257D6F7A517C217E6FC5
:10186000180E7D25D96E000E7E21DA6EDF50FE6ED9
:1018700024EEB7F010EE74F0DE50E126DD50E222E7
:10188000E750786F7851030DF3CF79F0F4CF7AF009
:1018900024EEB7F0DECF7BF0DDCF7CF079517B25F5
:1018A0007D6F7A517C217E6F190E7D25D96E000ED9
:1018B0007E21DA6EDF50FF6E24EEB7F010EE74F08A
:1018C000DE50E126DD50E222E750D8A46AEF0CF0AA
:1018D0006CEF0CF0E5EF0BF0B3EF0CF0050024EE2D
:1018E000B7F010EE02F0DE50E126DD50E222E750C4
:1018F000FD6E24EEB7F010EE02F0DE50E126DD5072
:10190000E222E6CF78F0E5CF79F078C07AF079C0BE
:101910007BF000017C6B7BC07AF07CC07BF07C6B41
:101920007A51FE6E100E786F24EEB7F010EE02F0D2
:10193000DE50E126DD50E222E6CF79F0E5CF7AF005
:1019400079C07BF07AC07CF07D6B78297E6FADEF3B
:101950000CF0D8907D337C337B337E2FA9EF0CF0D5
:1019600000017B51FF6E140E4A6EF28E12000001D0
:10197000706B716B746BF3EF0CF07451750DE30EBB
:10198000F324D96E020EF420DA6EDF50D8A4CBEF28
:101990000CF0CDEF0CF0F2EF0CF07151D8B4D3EFA6
:1019A0000CF0D5EF0CF0E6EF0CF07451750DE70E6E
:1019B000F324D96E020EF420DA6EDE50705DD8B0DA
:1019C000E4EF0CF0E6EF0CF0F2EF0CF07451750D53
:1019D000E70EF324D96E020EF420DA6EDF50706F3A
:1019E000010E716F742B24EEB6F0DE50745DD8A03A
:1019F000FCEF0CF0FEEF0CF0BDEF0CF07151D8A431
:101A000004EF0DF006EF0DF009EF0DF0000E4FEFB3
:101A10000DF0B9C46FF0726B42EF0DF06F5172258B
:101A2000686F696B6937B6C46EF06E516A6F6B6B25
:101A30007EEC0EF000016851736F7351750DE30E6B
:101A4000F324D96E020EF420DA6EDF50D8A42BEF07
:101A50000DF02DEF0DF041EF0DF07351750DE70E08
:101A6000F324D96E020EF420DA6E7051DE18D8A479
:101A70003CEF0DF03EEF0DF041EF0DF073514FEFE5
:101A80000DF0722B24EEB6F0DE50725DD8A04BEF55
:101A90000DF04DEF0DF00EEF0DF006EF0DF0120012
:101AA0002D6A2E6A316A8BEF0DF03150750DE30E01
:101AB000F324D96E020EF420DA6EDF50D8A463EF5F
:101AC0000DF065EF0DF08AEF0DF02E50D8B46BEFEE
:101AD0000DF06DEF0DF07EEF0DF03150750DE70E4E
:101AE000F324D96E020EF420DA6EDE502D5CD8B0ED
:101AF0007CEF0DF07EEF0DF08AEF0DF03150750D9B
:101B0000E70EF324D96E020EF420DA6EDF502D6E4C
:101B1000010E2E6E312A24EEB6F0DE50315CD8A0D4
:101B200094EF0DF096EF0DF055EF0DF02E50D8A478
:101B30009CEF0DF09EEF0DF0A1EF0DF0000EE6EF23
:101B40000DF0B9C42CF02F6AD9EF0DF02C502F24D2
:101B5000256E266A2636B6C42BF02B50276E286ACF
:101B6000D6EC0EF02550306E3050750DE30EF32498
:101B7000D96E020EF420DA6EDF50D8A4C2EF0DF059
:101B8000C4EF0DF0D8EF0DF03050750DE70EF324D3
:101B9000D96E020EF420DA6E2D50DE18D8A4D3EFE1
:101BA0000DF0D5EF0DF0D8EF0DF03050E6EF0DF061
:101BB0002F2A24EEB6F0DE502F5CD8A0E2EF0DF015
:101BC000E4EF0DF0A6EF0DF09EEF0DF012002D6A80
:101BD0002E6A316A22EF0EF03150750DE30EF324B8
:101BE000D96E020EF420DA6EDF50D8A4FAEF0DF0B1
:101BF000FCEF0DF021EF0EF02E50D8B402EF0EF0F6
:101C000004EF0EF015EF0EF03150750DE70EF324D2
:101C1000D96E020EF420DA6EDE502D5CD8B013EFD0
:101C20000EF015EF0EF021EF0EF03150750DE70EAE
:101C3000F324D96E020EF420DA6EDF502D6E010E01
:101C40002E6E312A24EEB6F0DE50315CD8A02BEF98
:101C50000EF02DEF0EF0ECEF0DF02E50D8A433EF78
:101C60000EF035EF0EF038EF0EF0000E7DEF0EF0B7
:101C7000B9C42CF02F6A70EF0EF02C502F24256E73
:101C8000266A2636B6C42BF02B50276E286A2DEC18
:101C90000FF02550306E3050750DE30EF324D96EE1
:101CA000020EF420DA6EDF50D8A459EF0EF05BEF8D
:101CB0000EF06FEF0EF03050750DE70EF324D96E75
:101CC000020EF420DA6E2D50DE18D8A46AEF0EF062
:101CD0006CEF0EF06FEF0EF030507DEF0EF02F2A0C
:101CE00024EEB6F0DE502F5CD8A079EF0EF07BEF3B
:101CF0000EF03DEF0EF035EF0EF0120000016D6BAF
:101D000069BF87EF0EF085EF0EF08DEF0EF0686D76
:101D1000691FD8B0692B010E6D6F6BBF94EF0EF089
:101D200092EF0EF098EF0EF06A6D6B1FD8B06B2B30
:101D30006A516B11D8B49FEF0EF0A1EF0EF0C5EF12
:101D40000EF0010E6C6FA9EF0EF0D8906A376B376A
:101D50006C2B6BAFAEEF0EF0B0EF0EF0A5EF0EF008
:101D60006A51685D6B516959D8A0B9EF0EF0BBEFAD
:101D70000EF0BFEF0EF06A51685F6B51695BD8904F
:101D80006B336A336C2FB0EF0EF06D51D8B4CBEFDC
:101D90000EF0CDEF0EF0D1EF0EF0686D691FD8B0E8
:101DA000692B68C068F069C069F012002A6A26BE13
:101DB000DEEF0EF0DCEF0EF0E4EF0EF0256C261EE9
:101DC000D8B0262A010E2A6E28BEEBEF0EF0E9EFFE
:101DD0000EF0EFEF0EF0276C281ED8B0282A2750FF
:101DE0002810D8B4F6EF0EF0F8EF0EF01CEF0FF05D
:101DF000010E296E00EF0FF0D89027362836292AD9
:101E000028AE05EF0FF007EF0FF0FCEF0EF02750B4
:101E1000255C28502658D8A010EF0FF012EF0FF0D5
:101E200016EF0FF02750255E2850265AD8902832FA
:101E30002732292E07EF0FF02A50D8B422EF0FF0E7
:101E400024EF0FF028EF0FF0256C261ED8B0262ABD
:101E500025C025F026C026F012002A6A26BE35EFDE
:101E60000FF033EF0FF03BEF0FF0256C261ED8B0CC
:101E7000262A010E2A6E28BE42EF0FF040EF0FF027
:101E800046EF0FF0276C281ED8B0282A27502810BC
:101E9000D8B44DEF0FF04FEF0FF073EF0FF0010ECE
:101EA000296E57EF0FF0D89027362836292A28AE0A
:101EB0005CEF0FF05EEF0FF053EF0FF02750255C53
:101EC00028502658D8A067EF0FF069EF0FF06DEF9C
:101ED0000FF02750255E2850265AD89028322732F6
:101EE000292E5EEF0FF02A50D8B479EF0FF07BEF78
:101EF0000FF07FEF0FF0256C261ED8B0262A25C0E4
:101F000025F026C026F01200386A000E376E010E4A
:101F1000366E37C025F038C026F0A6EC10F0360437
:101F2000D8A495EF0FF097EF0FF0A9EF0FF00A0E7E
:101F30003726000E3822E80E375C030E3858D8A03A
:101F4000A4EF0FF0A6EF0FF0BAEF0FF03668BAEF7C
:101F50000FF00A0E375E000E385A385007E10B0EAC
:101F6000375CD8B0B6EF0FF0B8EF0FF0BAEF0FF064
:101F7000010E366E050E01EC08F089EF0FF012002D
:101F800000016C6F6CC06DF00001716B6AC072F083
:101F900068C06FF069C070F06E6B756B796B786BB1
:101FA0007B6B7A6B7D6B7C6B826B836B776B766BF9
:101FB000746B7E6B806B7F6B816B736BE16B20EE60
:101FC0006DF0B6C46BF06B51750DE20EF324E16E4B
:101FD000020EF420E26E740EDBCFE3FFE806FCE2B3
:101FE000B6C4E8FF010FE8CFB6F41200900EF66E0B
:101FF000220EF76E000EF86E00EE44F010EE07F0C1
:102000000900F5CFEEFFE550E150FAE100EEE2F015
:1020100013EED8F0EE6AE550E150FCE1E250FAE14F
:1020200000EE02F0230EEE6AE806FDE10190019257
:10203000000EF86E000123EF11F000016851D96E17
:10204000DA6ADF6A6851D96EDA6A010ED926DF6A68
:102050006851D96EDA6A050ED926DF6A6851D96EE1
:10206000DA6A060ED926DF6A6851D96EDA6A070E77
:10207000D926DF6A1200949C949E95900F013B91A3
:102080003A9D3A9F1E0E0001686F000E696F8EEC3C
:1020900010F0020E00016C6F58EC10F0160E0001EB
:1020A000686F1DEC10F0E7EC10F041EC11F012003D
:1020B00000016C51D96EDA6A040ED926DF6A6C51C0
:1020C000D96EDA6A050ED926DF6A6C51060F686F81
:1020D000040E696F8EEC10F000016C510D0F686FEB
:1020E000000E696F8EEC10F01200000EE8CFB6F40F
:1020F000E20EE8CFB7F4020EE8CFB8F4000EE8CF56
:10210000B9F4A40E0001686F210E696F000E6A6FAA
:10211000010EC0EC0FF03BEC10F012000001695111
:102120006A6F6B6B6851D96EDA6A6AC0DEFF6BC08A
:10213000DDFF6851D96EDA6A050ED926DF6A68516B
:10214000D96EDA6A060ED926DF6A120025C027F09A
:1021500026C028F0D89028322732D890283227324B
:102160002750BE6E25C027F0030E2716273ABD5014
:102170002718CF0B2718BD6E1200B7EC0CF000012A
:10218000756F75C0B9F4B9C475F07551750DE20E6F
:10219000F324766F020EF420776F76C0B7F477C021
:1021A000B8F41200949082B0D8EF10F0DBEF10F08A
:1021B000010EDCEF10F0000EFF0A0001606F82508C
:1021C0006019FE0B6019826ED3EF10F01200830EBF
:1021D000C216F30EC116FC0EC116C08EC050C70B3E
:1021E0003009C06EC050F80B0409C06E92800F0118
:1021F0003881C280120050EC0DF0326E32C0B9F45A
:10220000B9C432F03250750DE20EF324336E020E73
:10221000F420346E33C0B7F434C0B8F41200E7ECE5
:102220000DF0326E32C0B9F4B9C432F03250750DCF
:10223000E20EF324336E020EF420346E33C0B7F492
:1022400034C0B8F4120075EC10F0000E0001686F95
:10225000000E696F050E6A6F020EC0EC0FF00AECFB
:102260000BF031EF11F08DEF03F0F28AF294D58C80
:10227000D59AD596070ED512D58ED76A000ED66E92
:102280001200BB680C0EBD6E040EBA6E9494120060
:072290004C4C444C44441483
:00000001FF
