:0400000090EF06F087
:100008000182E1CF3EF0E2CF3FF0D9CF40F0DACF26
:1000180041F0F3CF42F0F4CF43F0F2A416EF00F032
:1000280018EF00F07FEF03F0F294456A000E446E7B
:100038006EEF00F0300E4402F3CF37F0F4CF38F013
:100048004502F3503826390E3724D96E050E38206C
:10005800DA6EDF50D8B433EF00F035EF00F06CEF14
:1000680000F0300E4402F3CF37F0F4CF38F04502F9
:10007800F3503826390E3724D96E050E3820DA6E3B
:10008800DF06300E4402F3CF37F0F4CF38F04502E4
:10009800F3503826390E3724D96E050E3820DA6E1B
:1000A800DF50D8A45AEF00F05CEF00F06CEF00F0DE
:1000B800300E4402F3CF37F0F4CF38F04502F35056
:1000C8003826360E3724D96E050E3820DA6EDF6AE8
:1000D800444A452A26EE85F0DF50376E386A375095
:1000E800445C4550800A396E3850800A3958D8A087
:1000F80080EF00F082EF00F01EEF00F04706475057
:10010800D8A489EF00F08BEF00F07FEF03F0140E16
:10011800476E26EE86F010EE01F0DE50E126DD5047
:10012800E222020EE618D8A49CEF00F09EEF00F041
:10013800DAEF01F026EE86F010EE01F0DE50E1264F
:10014800DD50E222E76A26EE86F010EE08F0DE5077
:10015800E126DD50E222E0CFE7FF26EE86F010EE42
:100168000CF0DE50E126DD50E222EACFE7FF26EE72
:1001780086F010EE0BF0DE50E126DD50E222E9CFEA
:10018800E7FF26EE86F010EE0EF0DE50E126DD5099
:10019800E222E2CFE7FF26EE86F010EE0DF0DE5009
:1001A800E126DD50E222E1CFE7FF26EE86F010EEF1
:1001B80010F0DE50E126DD50E222DACFE7FF26EE2E
:1001C80086F010EE0FF0DE50E126DD50E222D9CFA6
:1001D800E7FF26EE86F010EE15F0DE50E126DD5042
:1001E800E222FACFE7FF26EE86F010EE16F0DE5098
:1001F800E126DD50E222FBCFE7FF26EE86F010EE87
:100208000AF0DE50E126DD50E222F4CFE7FF26EEC9
:1002180086F010EE09F0DE50E126DD50E222F3CF41
:10022800E7FF26EE86F010EE11F0DE50E126DD50F5
:10023800E222F5CFE7FF26EE86F010EE13F0DE504F
:10024800E126DD50E222F7CFE7FF26EE86F010EE3A
:1002580012F0DE50E126DD50E222F6CFE7FF26EE6F
:1002680086F010EE14F0DE50E126DD50E222F8CFE1
:10027800E7FF26EE86F010EE06F0DE50E126DD50B0
:10028800E222E8CFE7FF26EE86F010EE07F0DE5018
:10029800E126DD50E222D8CFE7FF26EE86F010EE09
:1002A8002FF0DE50E126DD50E222E76AD2EF01F0BE
:1002B80026EE86F010EE2FF0DE50E126DD50E22229
:1002C800E750376E3750030DF3CF38F0F4CF39F0DD
:1002D80026EE86F0DECF3AF0DDCF3BF038503A24F8
:1002E8003C6E39503B203D6E170E3C24D96E000EF3
:1002F8003D20DA6EFDCFDFFF26EE86F010EE2FF000
:10030800DE50E126DD50E222E750376E3750030D0C
:10031800F3CF38F0F4CF39F026EE86F0DECF3AF09E
:10032800DDCF3BF038503A243C6E39503B203D6ECF
:10033800180E3C24D96E000E3D20DA6EFECFDFFF8A
:1003480026EE86F010EE2FF0DE50E126DD50E22298
:10035800E750376E3750030DF3CF38F0F4CF39F04C
:1003680026EE86F0DECF3AF0DDCF3BF038503A2467
:100378003C6E39503B203D6E190E3C24D96E000E60
:100388003D20DA6EFFCFDFFF26EE86F010EE2FF06D
:10039800DE50E126DD50E222E72A0600FC50D8A410
:1003A800D8EF01F0DAEF01F05CEF01F0B7EC18F0EC
:1003B80026EE86F010EE01F0DE50E126DD50E22256
:1003C800E750D8A4EAEF01F0ECEF01F07FEF03F07B
:1003D80026EE86F010EE01F0DE50E126DD50E22236
:1003E800020EE76E26EE86F010EE08F0DE50E126EB
:1003F800DD50E222E750E06E26EE86F010EE0CF0BB
:10040800DE50E126DD50E222E750EA6E26EE86F065
:1004180010EE0BF0DE50E126DD50E222E750E96EE7
:1004280026EE86F010EE0EF0DE50E126DD50E222D8
:10043800E750E26E26EE86F010EE0DF0DE50E12673
:10044800DD50E222E750E16E26EE86F010EE10F065
:10045800DE50E126DD50E222E750DA6E26EE86F025
:1004680010EE0FF0DE50E126DD50E222E750D96EA3
:1004780026EE86F010EE15F0DE50E126DD50E22281
:10048800E750FA6E26EE86F010EE16F0DE50E12602
:10049800DD50E222E750FB6E26EE86F010EE0AF001
:1004A800DE50E126DD50E222E750F46E26EE86F0BB
:1004B80010EE09F0DE50E126DD50E222E750F36E3F
:1004C80026EE86F010EE11F0DE50E126DD50E22235
:1004D800E750F56E26EE86F010EE13F0DE50E126BA
:1004E800DD50E222E750F76E26EE86F010EE12F0AD
:1004F800DE50E126DD50E222E750F66E26EE86F069
:1005080010EE14F0DE50E126DD50E222E750F86EDE
:1005180026EE86F010EE07F0DE50E126DD50E222EE
:10052800E750D86E26EE86F010EE06F0DE50E12693
:10053800DD50E222E750376E3750FC6A26EE86F02F
:1005480010EE2FF0DE50E126DD50E222E750D8B45D
:10055800B0EF02F0B2EF02F03AEF03F0050026EE3A
:1005680086F010EE2FF0DE50E126DD50E222E7069D
:1005780026EE86F010EE2FF0DE50E126DD50E22266
:10058800E750376E3750030DF3CF38F0F4CF39F01A
:1005980026EE86F0DECF3AF0DDCF3BF038503A2435
:1005A8003C6E39503B203D6E170E3C24D96E000E30
:1005B8003D20DA6EDF50FD6E26EE86F010EE2FF04D
:1005C800DE50E126DD50E222E750376E3750030D4A
:1005D800F3CF38F0F4CF39F026EE86F0DECF3AF0DC
:1005E800DDCF3BF038503A243C6E39503B203D6E0D
:1005F800180E3C24D96E000E3D20DA6EDF50FE6ED8
:1006080026EE86F010EE2FF0DE50E126DD50E222D5
:10061800E750376E3750030DF3CF38F0F4CF39F089
:1006280026EE86F0DECF3AF0DDCF3BF038503A24A4
:100638003C6E39503B203D6E190E3C24D96E000E9D
:100648003D20DA6EDF50FF6E26EE86F010EE2FF0BA
:10065800DE50E126DD50E222E750D8A436EF03F061
:1006680038EF03F0B2EF02F07DEF03F0050026EE5D
:1006780086F010EE02F0DE50E126DD50E222E7506F
:10068800FD6E26EE86F010EE02F0DE50E126DD501B
:10069800E222E6CF37F0E5CF38F037C039F038C07E
:1006A8003AF03B6A3AC039F03BC03AF03B6A3950FD
:1006B800FE6E100E376E26EE86F010EE02F0DE505B
:1006C800E126DD50E222E6CF38F0E5CF39F038C038
:1006D8003AF039C03BF03C6A37283D6E78EF03F0BA
:1006E800D8903C323B323A323D2E74EF03F03A5008
:1006F800FF6E140E476EF2A284EF03F086EF03F04C
:1007080082EF06F0F292000E026E000E036E060EE5
:10071800046E060EAFEC16F026EE86F010EE01F031
:10072800DE50E126DD50E222020EE618D8A49FEF43
:1007380003F0A1EF03F0DDEF04F026EE86F010EEF3
:1007480001F0DE50E126DD50E222E76A26EE86F06F
:1007580010EE08F0DE50E126DD50E222E0CFE7FFA0
:1007680026EE86F010EE0CF0DE50E126DD50E22297
:10077800EACFE7FF26EE86F010EE0BF0DE50E1261A
:10078800DD50E222E9CFE7FF26EE86F010EE0EF00C
:10079800DE50E126DD50E222E2CFE7FF26EE86F0CA
:1007A80010EE0DF0DE50E126DD50E222E1CFE7FF4A
:1007B80026EE86F010EE10F0DE50E126DD50E22243
:1007C800DACFE7FF26EE86F010EE0FF0DE50E126D6
:1007D800DD50E222D9CFE7FF26EE86F010EE15F0C5
:1007E800DE50E126DD50E222FACFE7FF26EE86F062
:1007F80010EE16F0DE50E126DD50E222FBCFE7FFD7
:1008080026EE86F010EE0AF0DE50E126DD50E222F8
:10081800F4CFE7FF26EE86F010EE09F0DE50E12671
:10082800DD50E222F3CFE7FF26EE86F010EE11F05E
:10083800DE50E126DD50E222F5CFE7FF26EE86F016
:1008480010EE13F0DE50E126DD50E222F7CFE7FF8D
:1008580026EE86F010EE12F0DE50E126DD50E222A0
:10086800F6CFE7FF26EE86F010EE14F0DE50E12614
:10087800DD50E222F8CFE7FF26EE86F010EE06F014
:10088800DE50E126DD50E222E8CFE7FF26EE86F0D3
:1008980010EE07F0DE50E126DD50E222D8CFE7FF68
:1008A80026EE86F010EE2FF0DE50E126DD50E22233
:1008B800E76AD5EF04F026EE86F010EE2FF0DE5052
:1008C800E126DD50E222E750376E3750030DF3CFB3
:1008D80038F0F4CF39F026EE86F0DECF3AF0DDCFEF
:1008E8003BF038503A243C6E39503B203D6E170E91
:1008F8003C24D96E000E3D20DA6EFDCFDFFF26EED8
:1009080086F010EE2FF0DE50E126DD50E222E750AF
:10091800376E3750030DF3CF38F0F4CF39F026EEA9
:1009280086F0DECF3AF0DDCF3BF038503A243C6E0B
:1009380039503B203D6E180E3C24D96E000E3D20E8
:10094800DA6EFECFDFFF26EE86F010EE2FF0DE50D7
:10095800E126DD50E222E750376E3750030DF3CF22
:1009680038F0F4CF39F026EE86F0DECF3AF0DDCF5E
:100978003BF038503A243C6E39503B203D6E190EFE
:100988003C24D96E000E3D20DA6EFFCFDFFF26EE45
:1009980086F010EE2FF0DE50E126DD50E222E72A45
:1009A8000600FC50D8A4DBEF04F0DDEF04F05FEFA5
:1009B80004F0B7EC18F026EE86F010EE01F0DE50E9
:1009C800E126DD50E222E750D8A4EDEF04F0EFEF86
:1009D80004F082EF06F026EE86F010EE01F0DE500D
:1009E800E126DD50E222020EE76E26EE86F010EEDA
:1009F80008F0DE50E126DD50E222E750E06E26EEF8
:100A080086F010EE0CF0DE50E126DD50E222E750D1
:100A1800EA6E26EE86F010EE0BF0DE50E126DD5091
:100A2800E222E750E96E26EE86F010EE0EF0DE5078
:100A3800E126DD50E222E750E26E26EE86F010EE67
:100A48000DF0DE50E126DD50E222E750E16E26EEA1
:100A580086F010EE10F0DE50E126DD50E222E7507D
:100A6800DA6E26EE86F010EE0FF0DE50E126DD504D
:100A7800E222E750D96E26EE86F010EE15F0DE5031
:100A8800E126DD50E222E750FA6E26EE86F010EEFF
:100A980016F0DE50E126DD50E222E750FB6E26EE2E
:100AA80086F010EE0AF0DE50E126DD50E222E75033
:100AB800F46E26EE86F010EE09F0DE50E126DD50E9
:100AC800E222E750F36E26EE86F010EE11F0DE50CB
:100AD800E126DD50E222E750F56E26EE86F010EEB4
:100AE80013F0DE50E126DD50E222E750F76E26EEE5
:100AF80086F010EE12F0DE50E126DD50E222E750DB
:100B0800F66E26EE86F010EE14F0DE50E126DD508B
:100B1800E222E750F86E26EE86F010EE07F0DE507F
:100B2800E126DD50E222E750D86E26EE86F010EE80
:100B380006F0DE50E126DD50E222E750376E3750EE
:100B4800FC6A26EE86F010EE2FF0DE50E126DD502E
:100B5800E222E750D8B4B3EF05F0B5EF05F03DEF6A
:100B680006F0050026EE86F010EE2FF0DE50E126A6
:100B7800DD50E222E70626EE86F010EE2FF0DE507A
:100B8800E126DD50E222E750376E3750030DF3CFF0
:100B980038F0F4CF39F026EE86F0DECF3AF0DDCF2C
:100BA8003BF038503A243C6E39503B203D6E170ECE
:100BB8003C24D96E000E3D20DA6EDF50FD6E26EE25
:100BC80086F010EE2FF0DE50E126DD50E222E750ED
:100BD800376E3750030DF3CF38F0F4CF39F026EEE7
:100BE80086F0DECF3AF0DDCF3BF038503A243C6E49
:100BF80039503B203D6E180E3C24D96E000E3D2026
:100C0800DA6EDF50FE6E26EE86F010EE2FF0DE5024
:100C1800E126DD50E222E750376E3750030DF3CF5F
:100C280038F0F4CF39F026EE86F0DECF3AF0DDCF9B
:100C38003BF038503A243C6E39503B203D6E190E3B
:100C48003C24D96E000E3D20DA6EDF50FF6E26EE92
:100C580086F010EE2FF0DE50E126DD50E222E7505C
:100C6800D8A439EF06F03BEF06F0B5EF05F080EFBA
:100C780006F0050026EE86F010EE02F0DE50E126C2
:100C8800DD50E222E750FD6E26EE86F010EE02F00F
:100C9800DE50E126DD50E222E6CF37F0E5CF38F02E
:100CA80037C039F038C03AF03B6A3AC039F03BC037
:100CB8003AF03B6A3950FE6E100E376E26EE86F01B
:100CC80010EE02F0DE50E126DD50E222E6CF38F0E9
:100CD800E5CF39F038C03AF039C03BF03C6A3728E4
:100CE8003D6E7BEF06F0D8903C323B323A323D2ED7
:100CF80077EF06F03A50FF6E140E476E43C0F4FFCC
:100D080042C0F3FF41C0DAFF40C0D9FF3FC0E2FF55
:0C0D18003EC0E1FF01921100E3EF16F075
:101000000000F29E01013051D96EDA6ADF50D8B487
:101010000CEF08F00EEF08F039EF0BF026EE88F039
:101020003051E16EE26A080EE126E750316F30512F
:101030003125E16EE26A020EE126DFCFE7FF305193
:10104000D96EDA6A080ED9263051E16EE26A080ECE
:10105000E126E750316F010E3125436F446B000EDE
:101060004423466B060E456F8CEC15F0010143518D
:10107000DF6E3051D96EDA6A0A0ED926DF2A26EEE3
:1010800086F010EE01F0DE50E126DD50E222020E85
:10109000E618D8A44EEF08F050EF08F08EEF09F0F4
:1010A00026EE86F010EE01F0DE50E126DD50E22261
:1010B000010EE76E26EE86F010EE08F0DE50E12617
:1010C000DD50E222E0CFE7FF26EE86F010EE0CF0D6
:1010D000DE50E126DD50E222EACFE7FF26EE86F081
:1010E00010EE0BF0DE50E126DD50E222E9CFE7FF03
:1010F00026EE86F010EE0EF0DE50E126DD50E22204
:10110000E2CFE7FF26EE86F010EE0DF0DE50E1268E
:10111000DD50E222E1CFE7FF26EE86F010EE10F080
:10112000DE50E126DD50E222DACFE7FF26EE86F040
:1011300010EE0FF0DE50E126DD50E222D9CFE7FFBE
:1011400026EE86F010EE15F0DE50E126DD50E222AC
:10115000FACFE7FF26EE86F010EE16F0DE50E1261D
:10116000DD50E222FBCFE7FF26EE86F010EE0AF01C
:10117000DE50E126DD50E222F4CFE7FF26EE86F0D6
:1011800010EE09F0DE50E126DD50E222F3CFE7FF5A
:1011900026EE86F010EE11F0DE50E126DD50E22260
:1011A000F5CFE7FF26EE86F010EE13F0DE50E126D5
:1011B000DD50E222F7CFE7FF26EE86F010EE12F0C8
:1011C000DE50E126DD50E222F6CFE7FF26EE86F084
:1011D00010EE14F0DE50E126DD50E222F8CFE7FFFA
:1011E00026EE86F010EE06F0DE50E126DD50E2221B
:1011F000E8CFE7FF26EE86F010EE07F0DE50E1269E
:10120000DD50E222D8CFE7FF26EE86F010EE2FF079
:10121000DE50E126DD50E222E76A86EF09F026EE95
:1012200086F010EE2FF0DE50E126DD50E222E7508E
:101230000101316F3151030DF3CF32F1F4CF33F1AE
:1012400026EE86F0DECF34F1DDCF35F13251342594
:10125000366F33513521376F170E3625D96E000E94
:101260003721DA6EFDCFDFFF26EE86F010EE2FF08D
:10127000DE50E126DD50E222E750316F3151030D9F
:10128000F3CF32F1F4CF33F126EE86F0DECF34F136
:10129000DDCF35F132513425366F33513521376F7B
:1012A000180E3625D96E000E3721DA6EFECFDFFF1D
:1012B00026EE86F010EE2FF0DE50E126DD50E22221
:1012C000E750316F3151030DF3CF32F1F4CF33F1E9
:1012D00026EE86F0DECF34F1DDCF35F13251342504
:1012E000366F33513521376F190E3625D96E000E02
:1012F0003721DA6EFFCFDFFF26EE86F010EE2FF0FB
:10130000DE50E126DD50E222E72A0600FC50D8A498
:101310008CEF09F08EEF09F00FEF09F08EEC18F06A
:1013200026EE86F010EE01F0DE50E126DD50E222DE
:10133000E750D8A49EEF09F0A0EF09F049EF0BF0B9
:1013400026EE86F010EE01F0DE50E126DD50E222BE
:10135000020EE76E26EE86F010EE08F0DE50E12673
:10136000DD50E222E750E06E26EE86F010EE0CF043
:10137000DE50E126DD50E222E750EA6E26EE86F0EE
:1013800010EE0BF0DE50E126DD50E222E750E96E70
:1013900026EE86F010EE0EF0DE50E126DD50E22261
:1013A000E750E26E26EE86F010EE0DF0DE50E126FC
:1013B000DD50E222E750E16E26EE86F010EE10F0EE
:1013C000DE50E126DD50E222E750DA6E26EE86F0AE
:1013D00010EE0FF0DE50E126DD50E222E750D96E2C
:1013E00026EE86F010EE15F0DE50E126DD50E2220A
:1013F000E750FA6E26EE86F010EE16F0DE50E1268B
:10140000DD50E222E750FB6E26EE86F010EE0AF089
:10141000DE50E126DD50E222E750F46E26EE86F043
:1014200010EE09F0DE50E126DD50E222E750F36EC7
:1014300026EE86F010EE11F0DE50E126DD50E222BD
:10144000E750F56E26EE86F010EE13F0DE50E12642
:10145000DD50E222E750F76E26EE86F010EE12F035
:10146000DE50E126DD50E222E750F66E26EE86F0F1
:1014700010EE14F0DE50E126DD50E222E750F86E67
:1014800026EE86F010EE07F0DE50E126DD50E22277
:10149000E750D86E26EE86F010EE06F0DE50E1261C
:1014A000DD50E222E7500101316F3151FC6A26EE36
:1014B00086F010EE2FF0DE50E126DD50E222E750FC
:1014C000D8B465EF0AF067EF0AF0F0EF0AF0050014
:1014D00026EE86F010EE2FF0DE50E126DD50E222FF
:1014E000E70626EE86F010EE2FF0DE50E126DD5006
:1014F000E222E7500101316F3151030DF3CF32F198
:10150000F4CF33F126EE86F0DECF34F1DDCF35F1C6
:1015100032513425366F33513521376F170E36254A
:10152000D96E000E3721DA6EDF50FD6E26EE86F0A2
:1015300010EE2FF0DE50E126DD50E222E750316F51
:101540003151030DF3CF32F1F4CF33F126EE86F0B3
:10155000DECF34F1DDCF35F132513425366F3351E2
:101560003521376F180E3625D96E000E3721DA6E09
:10157000DF50FE6E26EE86F010EE2FF0DE50E126F4
:10158000DD50E222E750316F3151030DF3CF32F1DC
:10159000F4CF33F126EE86F0DECF34F1DDCF35F136
:1015A00032513425366F33513521376F190E3625B8
:1015B000D96E000E3721DA6EDF50FF6E26EE86F010
:1015C00010EE2FF0DE50E126DD50E222E750D8A4E5
:1015D000ECEF0AF0EEEF0AF067EF0AF035EF0BF0F0
:1015E000050026EE86F010EE02F0DE50E126DD501A
:1015F000E222E750FD6E26EE86F010EE02F0DE509D
:10160000E126DD50E222E6CF31F1E5CF32F131C102
:1016100033F132C134F10101356B34C133F135C1DD
:1016200034F1356B3351FE6E100E316F26EE86F0BD
:1016300010EE02F0DE50E126DD50E222E6CF32F17C
:10164000E5CF33F132C134F133C135F1366B312995
:10165000376F2FEF0BF0D890363335333433372FC5
:101660002BEF0BF001013451FF6E140E476E49EF62
:101670000BF03051D96EDA6A010EDF6E86C6D9FFE3
:1016800087C6DAFF3051E16EE26A010EE126DFCF54
:10169000E7FFF28E1200F29E01014951D96EDA6A1B
:1016A000DF064951D96EDA6A000EDBBE5CEF0BF043
:1016B0005AEF0BF07FEF0EF026EE88F04951E16E05
:1016C000E26A070EE126E7504A6F49514A25E16E6A
:1016D000E26A010EE126DFCFE7FF4951D96EDA6AEF
:1016E000070ED9264951E16EE26A070EE126E7505E
:1016F0004A6F010E4A25436F446B000E4423466B2C
:10170000060E456F8CEC15F001014351DF6E26EE9D
:1017100086F010EE01F0DE50E126DD50E222020EEE
:10172000E618D8A496EF0BF098EF0BF0D6EF0CF07C
:1017300026EE86F010EE01F0DE50E126DD50E222CA
:10174000030EE76E26EE86F010EE08F0DE50E1267E
:10175000DD50E222E0CFE7FF26EE86F010EE0CF03F
:10176000DE50E126DD50E222EACFE7FF26EE86F0EA
:1017700010EE0BF0DE50E126DD50E222E9CFE7FF6C
:1017800026EE86F010EE0EF0DE50E126DD50E2226D
:10179000E2CFE7FF26EE86F010EE0DF0DE50E126F8
:1017A000DD50E222E1CFE7FF26EE86F010EE10F0EA
:1017B000DE50E126DD50E222DACFE7FF26EE86F0AA
:1017C00010EE0FF0DE50E126DD50E222D9CFE7FF28
:1017D00026EE86F010EE15F0DE50E126DD50E22216
:1017E000FACFE7FF26EE86F010EE16F0DE50E12687
:1017F000DD50E222FBCFE7FF26EE86F010EE0AF086
:10180000DE50E126DD50E222F4CFE7FF26EE86F03F
:1018100010EE09F0DE50E126DD50E222F3CFE7FFC3
:1018200026EE86F010EE11F0DE50E126DD50E222C9
:10183000F5CFE7FF26EE86F010EE13F0DE50E1263E
:10184000DD50E222F7CFE7FF26EE86F010EE12F031
:10185000DE50E126DD50E222F6CFE7FF26EE86F0ED
:1018600010EE14F0DE50E126DD50E222F8CFE7FF63
:1018700026EE86F010EE06F0DE50E126DD50E22284
:10188000E8CFE7FF26EE86F010EE07F0DE50E12607
:10189000DD50E222D8CFE7FF26EE86F010EE2FF0E3
:1018A000DE50E126DD50E222E76ACEEF0CF026EEB4
:1018B00086F010EE2FF0DE50E126DD50E222E750F8
:1018C00001014A6F4A51030DF3CF4BF1F4CF4CF1B4
:1018D00026EE86F0DECF4DF1DDCF4EF14B514D259A
:1018E0004F6F4C514E21506F170E4F25D96E000E81
:1018F0005021DA6EFDCFDFFF26EE86F010EE2FF0DE
:10190000DE50E126DD50E222E7504A6F4A51030DD6
:10191000F3CF4BF1F4CF4CF126EE86F0DECF4DF154
:10192000DDCF4EF14B514D254F6F4C514E21506F35
:10193000180E4F25D96E000E5021DA6EFECFDFFF54
:1019400026EE86F010EE2FF0DE50E126DD50E2228A
:10195000E7504A6F4A51030DF3CF4BF1F4CF4CF1EE
:1019600026EE86F0DECF4DF1DDCF4EF14B514D2509
:101970004F6F4C514E21506F190E4F25D96E000EEE
:101980005021DA6EFFCFDFFF26EE86F010EE2FF04B
:10199000DE50E126DD50E222E72A0600FC50D8A402
:1019A000D4EF0CF0D6EF0CF057EF0CF08EEC18F0F3
:1019B00026EE86F010EE01F0DE50E126DD50E22248
:1019C000E750D8A4E6EF0CF0E8EF0CF07FEF0EF054
:1019D00026EE86F010EE01F0DE50E126DD50E22228
:1019E000020EE76E26EE86F010EE08F0DE50E126DD
:1019F000DD50E222E750E06E26EE86F010EE0CF0AD
:101A0000DE50E126DD50E222E750EA6E26EE86F057
:101A100010EE0BF0DE50E126DD50E222E750E96ED9
:101A200026EE86F010EE0EF0DE50E126DD50E222CA
:101A3000E750E26E26EE86F010EE0DF0DE50E12665
:101A4000DD50E222E750E16E26EE86F010EE10F057
:101A5000DE50E126DD50E222E750DA6E26EE86F017
:101A600010EE0FF0DE50E126DD50E222E750D96E95
:101A700026EE86F010EE15F0DE50E126DD50E22273
:101A8000E750FA6E26EE86F010EE16F0DE50E126F4
:101A9000DD50E222E750FB6E26EE86F010EE0AF0F3
:101AA000DE50E126DD50E222E750F46E26EE86F0AD
:101AB00010EE09F0DE50E126DD50E222E750F36E31
:101AC00026EE86F010EE11F0DE50E126DD50E22227
:101AD000E750F56E26EE86F010EE13F0DE50E126AC
:101AE000DD50E222E750F76E26EE86F010EE12F09F
:101AF000DE50E126DD50E222E750F66E26EE86F05B
:101B000010EE14F0DE50E126DD50E222E750F86ED0
:101B100026EE86F010EE07F0DE50E126DD50E222E0
:101B2000E750D86E26EE86F010EE06F0DE50E12685
:101B3000DD50E222E75001014A6F4A51FC6A26EE6D
:101B400086F010EE2FF0DE50E126DD50E222E75065
:101B5000D8B4ADEF0DF0AFEF0DF038EF0EF005009B
:101B600026EE86F010EE2FF0DE50E126DD50E22268
:101B7000E70626EE86F010EE2FF0DE50E126DD506F
:101B8000E222E75001014A6F4A51030DF3CF4BF1B6
:101B9000F4CF4CF126EE86F0DECF4DF1DDCF4EF1E5
:101BA0004B514D254F6F4C514E21506F170E4F2505
:101BB000D96E000E5021DA6EDF50FD6E26EE86F0F3
:101BC00010EE2FF0DE50E126DD50E222E7504A6FA2
:101BD0004A51030DF3CF4BF1F4CF4CF126EE86F0D2
:101BE000DECF4DF1DDCF4EF14B514D254F6F4C51B6
:101BF0004E21506F180E4F25D96E000E5021DA6E0F
:101C0000DF50FE6E26EE86F010EE2FF0DE50E1265D
:101C1000DD50E222E7504A6F4A51030DF3CF4BF1FA
:101C2000F4CF4CF126EE86F0DECF4DF1DDCF4EF154
:101C30004B514D254F6F4C514E21506F190E4F2572
:101C4000D96E000E5021DA6EDF50FF6E26EE86F060
:101C500010EE2FF0DE50E126DD50E222E750D8A44E
:101C600034EF0EF036EF0EF0AFEF0DF07DEF0EF02B
:101C7000050026EE86F010EE02F0DE50E126DD5083
:101C8000E222E750FD6E26EE86F010EE02F0DE5006
:101C9000E126DD50E222E6CF4AF1E5CF4BF14AC121
:101CA0004CF14BC14DF101014E6B4DC14CF14EC198
:101CB0004DF14E6B4C51FE6E100E4A6F26EE86F0C3
:101CC00010EE02F0DE50E126DD50E222E6CF4BF1CD
:101CD000E5CF4CF14BC14DF14CC14EF14F6B4A2950
:101CE000506F77EF0EF0D8904F334E334D33502F67
:101CF00073EF0EF001014D51FF6E140E476EF28E20
:101D0000120002017F6FF29E26EE86F010EE01F0C7
:101D1000DE50E126DD50E222020EE618D8A493EF51
:101D20000EF095EF0EF0D3EF0FF026EE86F010EEEA
:101D300001F0DE50E126DD50E222010EE76E26EED4
:101D400086F010EE08F0DE50E126DD50E222E0CF12
:101D5000E7FF26EE86F010EE0CF0DE50E126DD50B7
:101D6000E222EACFE7FF26EE86F010EE0BF0DE501F
:101D7000E126DD50E222E9CFE7FF26EE86F010EE05
:101D80000EF0DE50E126DD50E222E2CFE7FF26EE44
:101D900086F010EE0DF0DE50E126DD50E222E1CFBC
:101DA000E7FF26EE86F010EE10F0DE50E126DD5063
:101DB000E222DACFE7FF26EE86F010EE0FF0DE50DB
:101DC000E126DD50E222D9CFE7FF26EE86F010EEC5
:101DD00015F0DE50E126DD50E222FACFE7FF26EED5
:101DE00086F010EE16F0DE50E126DD50E222FBCF49
:101DF000E7FF26EE86F010EE0AF0DE50E126DD5019
:101E0000E222F4CFE7FF26EE86F010EE09F0DE5076
:101E1000E126DD50E222F3CFE7FF26EE86F010EE5A
:101E200011F0DE50E126DD50E222F5CFE7FF26EE8D
:101E300086F010EE13F0DE50E126DD50E222F7CFFF
:101E4000E7FF26EE86F010EE12F0DE50E126DD50C0
:101E5000E222F6CFE7FF26EE86F010EE14F0DE5019
:101E6000E126DD50E222F8CFE7FF26EE86F010EE05
:101E700006F0DE50E126DD50E222E8CFE7FF26EE55
:101E800086F010EE07F0DE50E126DD50E222D8CFDA
:101E9000E7FF26EE86F010EE2FF0DE50E126DD5053
:101EA000E222E76ACBEF0FF026EE86F010EE2FF07D
:101EB000DE50E126DD50E222E7500201786F7851D2
:101EC000030DF3CF79F2F4CF7AF226EE86F0DECF6F
:101ED0007BF2DDCF7CF279517B257D6F7A517C21BD
:101EE0007E6F170E7D25D96E000E7E21DA6EFDCF36
:101EF000DFFF26EE86F010EE2FF0DE50E126DD50FB
:101F0000E222E750786F7851030DF3CF79F2F4CFE6
:101F10007AF226EE86F0DECF7BF2DDCF7CF27951CD
:101F20007B257D6F7A517C217E6F180E7D25D96EC1
:101F3000000E7E21DA6EFECFDFFF26EE86F010EE79
:101F40002FF0DE50E126DD50E222E750786F785125
:101F5000030DF3CF79F2F4CF7AF226EE86F0DECFDE
:101F60007BF2DDCF7CF279517B257D6F7A517C212C
:101F70007E6F190E7D25D96E000E7E21DA6EFFCFA1
:101F8000DFFF26EE86F010EE2FF0DE50E126DD506A
:101F9000E222E72A0600FC50D8A4D1EF0FF0D3EFDD
:101FA0000FF054EF0FF088C678F202017851300D2F
:101FB000390EF324D96E050EF420DA6E7FC2DFFFEE
:101FC0008EEC18F026EE86F010EE01F0DE50E126E1
:101FD000DD50E222E750D8A4F0EF0FF0F2EF0FF05F
:101FE00089EF11F026EE86F010EE01F0DE50E126CA
:101FF000DD50E222020EE76E26EE86F010EE08F0CB
:10200000DE50E126DD50E222E750E06E26EE86F05B
:1020100010EE0CF0DE50E126DD50E222E750EA6ED1
:1020200026EE86F010EE0BF0DE50E126DD50E222C7
:10203000E750E96E26EE86F010EE0EF0DE50E12657
:10204000DD50E222E750E26E26EE86F010EE0DF053
:10205000DE50E126DD50E222E750E16E26EE86F00A
:1020600010EE10F0DE50E126DD50E222E750DA6E8D
:1020700026EE86F010EE0FF0DE50E126DD50E22273
:10208000E750D96E26EE86F010EE15F0DE50E12610
:10209000DD50E222E750FA6E26EE86F010EE16F0E2
:1020A000DE50E126DD50E222E750FB6E26EE86F0A0
:1020B00010EE0AF0DE50E126DD50E222E750F46E29
:1020C00026EE86F010EE09F0DE50E126DD50E22229
:1020D000E750F36E26EE86F010EE11F0DE50E126AA
:1020E000DD50E222E750F56E26EE86F010EE13F09A
:1020F000DE50E126DD50E222E750F76E26EE86F054
:1021000010EE12F0DE50E126DD50E222E750F66ECE
:1021100026EE86F010EE14F0DE50E126DD50E222CD
:10212000E750F86E26EE86F010EE07F0DE50E1265E
:10213000DD50E222E750D86E26EE86F010EE06F073
:10214000DE50E126DD50E222E7500201786F78513F
:10215000FC6A26EE86F010EE2FF0DE50E126DD5010
:10216000E222E750D8B4B7EF10F0B9EF10F042EF29
:1021700011F0050026EE86F010EE2FF0DE50E1267D
:10218000DD50E222E70626EE86F010EE2FF0DE505C
:10219000E126DD50E222E7500201786F7851030D0D
:1021A000F3CF79F2F4CF7AF226EE86F0DECF7BF22F
:1021B000DDCF7CF279517B257D6F7A517C217E6F5A
:1021C000170E7D25D96E000E7E21DA6EDF50FD6E72
:1021D00026EE86F010EE2FF0DE50E126DD50E222F2
:1021E000E750786F7851030DF3CF79F2F4CF7AF29C
:1021F00026EE86F0DECF7BF2DDCF7CF279517B25B7
:102200007D6F7A517C217E6F180E7D25D96E000E70
:102210007E21DA6EDF50FE6E26EE86F010EE2FF095
:10222000DE50E126DD50E222E750786F7851030D51
:10223000F3CF79F2F4CF7AF226EE86F0DECF7BF29E
:10224000DDCF7CF279517B257D6F7A517C217E6FC9
:10225000190E7D25D96E000E7E21DA6EDF50FF6EDD
:1022600026EE86F010EE2FF0DE50E126DD50E22261
:10227000E750D8A43EEF11F040EF11F0B9EF10F0A5
:1022800087EF11F0050026EE86F010EE02F0DE502A
:10229000E126DD50E222E750FD6E26EE86F010EEDC
:1022A00002F0DE50E126DD50E222E6CF78F2E5CF03
:1022B00079F278C27AF279C27BF202017C6B7BC23E
:1022C0007AF27CC27BF27C6B7A51FE6E100E786FD4
:1022D00026EE86F010EE02F0DE50E126DD50E2221E
:1022E000E6CF79F2E5CF7AF279C27BF27AC27CF25C
:1022F0007D6B78297E6F81EF11F0D8907D337C3330
:102300007B337E2F7DEF11F002017B51FF6E140EA7
:10231000476EF28E1200DEEC18F064EC18F026EE38
:1023200086F010EE01F0DE50E126DD50E222E750AB
:10233000D8A49DEF11F09FEF11F036EF13F026EEC9
:1023400086F010EE01F0DE50E126DD50E222020EB2
:10235000E76E26EE86F010EE08F0DE50E126DD5046
:10236000E222E750E06E26EE86F010EE0CF0DE5032
:10237000E126DD50E222E750EA6E26EE86F010EE0E
:102380000BF0DE50E126DD50E222E750E96E26EE4A
:1023900086F010EE0EF0DE50E126DD50E222E7502E
:1023A000E26E26EE86F010EE0DF0DE50E126DD50F6
:1023B000E222E750E16E26EE86F010EE10F0DE50DD
:1023C000E126DD50E222E750DA6E26EE86F010EECE
:1023D0000FF0DE50E126DD50E222E750D96E26EE06
:1023E00086F010EE15F0DE50E126DD50E222E750D7
:1023F000FA6E26EE86F010EE16F0DE50E126DD5085
:10240000E222E750FB6E26EE86F010EE0AF0DE5078
:10241000E126DD50E222E750F46E26EE86F010EE63
:1024200009F0DE50E126DD50E222E750F36E26EEA1
:1024300086F010EE11F0DE50E126DD50E222E7508A
:10244000F56E26EE86F010EE13F0DE50E126DD503C
:10245000E222E750F76E26EE86F010EE12F0DE5024
:10246000E126DD50E222E750F66E26EE86F010EE11
:1024700014F0DE50E126DD50E222E750F86E26EE41
:1024800086F010EE07F0DE50E126DD50E222E75044
:10249000D86E26EE86F010EE06F0DE50E126DD5016
:1024A000E222E75003010A6F0A51FC6A26EE86F029
:1024B00010EE2FF0DE50E126DD50E222E750D8B4D6
:1024C00064EF12F066EF12F0EFEF12F0050026EE67
:1024D00086F010EE2FF0DE50E126DD50E222E70616
:1024E00026EE86F010EE2FF0DE50E126DD50E222DF
:1024F000E75003010A6F0A51030DF3CF0BF3F4CF3A
:102500000CF326EE86F0DECF0DF3DDCF0EF30B518C
:102510000D250F6F0C510E21106F170E0F25D96E60
:10252000000E1021DA6EDF50FD6E26EE86F010EE02
:102530002FF0DE50E126DD50E222E7500A6F0A510B
:10254000030DF3CF0BF3F4CF0CF326EE86F0DECFC2
:102550000DF3DDCF0EF30B510D250F6F0C510E2136
:10256000106F180E0F25D96E000E1021DA6EDF5095
:10257000FE6E26EE86F010EE2FF0DE50E126DD50E6
:10258000E222E7500A6F0A51030DF3CF0BF3F4CFA9
:102590000CF326EE86F0DECF0DF3DDCF0EF30B51FC
:1025A0000D250F6F0C510E21106F190E0F25D96ECE
:1025B000000E1021DA6EDF50FF6E26EE86F010EE70
:1025C0002FF0DE50E126DD50E222E750D8A4EBEFF9
:1025D00012F0EDEF12F066EF12F034EF13F0050099
:1025E00026EE86F010EE02F0DE50E126DD50E2220B
:1025F000E750FD6E26EE86F010EE02F0DE50E1268A
:10260000DD50E222E6CF0AF3E5CF0BF30AC30CF369
:102610000BC30DF303010E6B0DC30CF30EC30DF3CF
:102620000E6B0C51FE6E100E0A6F26EE86F010EE49
:1026300002F0DE50E126DD50E222E6CF0BF3E5CFDB
:102640000CF30BC30DF30CC30EF30F6B0A29106FC1
:102650002EEF13F0D8900F330E330D33102F2AEFD7
:1026600013F003010D51FF6E140E476EF28E12002F
:102670000301026B036B056B74EF13F00551300D12
:10268000360EF324D96E050EF420DA6EDF50D8A48E
:102690004CEF13F04EEF13F073EF13F00351D8B477
:1026A00054EF13F056EF13F067EF13F00551300DB0
:1026B0003A0EF324D96E050EF420DA6EDE50025D78
:1026C000D8B065EF13F067EF13F073EF13F0055117
:1026D000300D3A0EF324D96E050EF420DA6EDF5079
:1026E000026F010E036F052B26EE85F0DE50055DAF
:1026F000D8A07DEF13F07FEF13F03EEF13F00351FE
:10270000D8A485EF13F087EF13F08AEF13F0000ED3
:10271000D3EF13F088C601F3046BC6EF13F0015139
:102720000425066F26EE85F0DE50065DD8A09BEFEF
:1027300013F09DEF13F0A1EF13F026EE85F0DF50BC
:10274000065F0651300D360EF324D96E050EF420C7
:10275000DA6EDF50D8A4AFEF13F0B1EF13F0C5EF8E
:1027600013F00651300D3A0EF324D96E050EF42005
:10277000DA6E0251DE18D8A4C0EF13F0C2EF13F0E6
:10278000C5EF13F00651D3EF13F0042B26EE85F0BE
:10279000DE50045DD8A0CFEF13F0D1EF13F08FEF30
:1027A00013F087EF13F012000201706B716B736B03
:1027B00010EF14F07351300D360EF324D96E050E60
:1027C000F420DA6EDF50D8A4E8EF13F0EAEF13F04C
:1027D0000FEF14F07151D8B4F0EF13F0F2EF13F0E3
:1027E00003EF14F07351300D3A0EF324D96E050E39
:1027F000F420DA6EDE50705DD8B001EF14F003EF14
:1028000014F00FEF14F07351300D3A0EF324D96E1B
:10281000050EF420DA6EDF50706F010E716F732BAE
:1028200026EE85F0DE50735DD8A019EF14F01BEF93
:1028300014F0DAEF13F07151D8A421EF14F023EF64
:1028400014F026EF14F0000E6FEF14F088C66FF24C
:10285000726B62EF14F06F517225746F26EE85F083
:10286000DE50745DD8A037EF14F039EF14F03DEF6F
:1028700014F026EE85F0DF50745F7451300D360E83
:10288000F324D96E050EF420DA6EDF50D8A44BEF96
:1028900014F04DEF14F061EF14F07451300D3A0E56
:1028A000F324D96E050EF420DA6E7051DE18D8A428
:1028B0005CEF14F05EEF14F061EF14F074516FEF01
:1028C00014F0722B26EE85F0DE50725DD8A06BEF0F
:1028D00014F06DEF14F02BEF14F023EF14F012004E
:1028E000046A056A076AABEF14F00750300D360E24
:1028F000F324D96E050EF420DA6EDF50D8A483EFEE
:1029000014F085EF14F0AAEF14F00550D8B48BEF53
:1029100014F08DEF14F09EEF14F00750300D3A0EC6
:10292000F324D96E050EF420DA6EDE50045CD8B0C4
:102930009CEF14F09EEF14F0AAEF14F00750300D46
:102940003A0EF324D96E050EF420DA6EDF50046ED1
:10295000010E056E072A26EE85F0DE50075CD8A032
:10296000B4EF14F0B6EF14F075EF14F00550D8A4DE
:10297000BCEF14F0BEEF14F0C1EF14F0000E0AEF3C
:1029800015F088C603F0066AFDEF14F00350062424
:10299000086E26EE85F0DE50085CD8A0D2EF14F069
:1029A000D4EF14F0D8EF14F026EE85F0DF50085E77
:1029B0000850300D360EF324D96E050EF420DA6E71
:1029C000DF50D8A4E6EF14F0E8EF14F0FCEF14F0B9
:1029D0000850300D3A0EF324D96E050EF420DA6E4D
:1029E0000450DE18D8A4F7EF14F0F9EF14F0FCEF60
:1029F00014F008500AEF15F0062A26EE85F0DE5096
:102A0000065CD8A006EF15F008EF15F0C6EF14F03D
:102A1000BEEF14F01200F29E01013051D96EDA6A55
:102A2000DF50D8B416EF15F018EF15F08AEF15F057
:102A300086C6D9FF87C6DAFF3051E16EE26A010E21
:102A4000E126DE50E618D8A428EF15F02AEF15F09D
:102A50008AEF15F03051D96EDA6A0A0ED926DF50A6
:102A6000D8B435EF15F037EF15F080EF15F0305191
:102A7000D96EDA6A090ED926DF50316F305131250F
:102A8000D96EDA6A020ED926DF50336F3351300D1A
:102A9000360EF324D96E050EF420DA6EDF6A30515B
:102AA000D96EDA6A090ED9263051E16EE26A090E52
:102AB000E126E750316F010E3125436F446B000E64
:102AC0004423466B060E456F8CEC15F00101435113
:102AD000DF6E3051D96EDA6A0A0ED926DF0633511D
:102AE000300D350EF324D96E050EF420DA6E305118
:102AF000E16EE26A010EE126DFCFE7FF8AEF15F013
:102B00003051D96EDA6ADF6A3051D96EDA6A0A0E4C
:102B1000D926DF6AF28E12000101486B44BF95EF9F
:102B200015F093EF15F09BEF15F0436D441FD8B0EF
:102B3000442B010E486F46BFA2EF15F0A0EF15F031
:102B4000A6EF15F0456D461FD8B0462B45514611EE
:102B5000D8B4ADEF15F0AFEF15F0D3EF15F0010ECF
:102B6000476FB7EF15F0D89045374637472B46AF3C
:102B7000BCEF15F0BEEF15F0B3EF15F04551435D16
:102B800046514459D8A0C7EF15F0C9EF15F0CDEF65
:102B900015F04551435F4651445BD8904633453369
:102BA000472FBEEF15F04851D8B4D9EF15F0DBEF41
:102BB00015F0DFEF15F0436D441FD8B0442B43C12F
:102BC00043F144C144F1120020EE8CF011EE3CF0D0
:102BD000050EDBCFE3FFE806FCE20101426B82BC9D
:102BE000F4EF15F0F7EF15F0010EF8EF15F0000E09
:102BF000FF0A01013B6F3B3B3B473B4782503B1980
:102C0000BF0B3B19826E600E386F3C0E4225D96EA9
:102C1000DA6A010EDA22DF50396F70EC17F0010E1C
:102C200001014225436F446B000E4423466B060EA0
:102C3000456F8CEC15F001014351426F830E496FD3
:102C400032EC16F0780E0101306F01EC08F0050E41
:102C500081EC0EF0780E0101306F0BEC15F0EFEF08
:102C600015F01200F29E01014951D96EDA6ADF2A8D
:102C70004951D96EDA6ADF50800A7F0FD8B043EF2E
:102C800016F045EF16F077EF16F04951D96EDA6A73
:102C9000080ED926DF504A6F49514A25D96EDA6AA3
:102CA000010ED926DF504B6F4B51300D360EF324F9
:102CB000D96E050EF420DA6EDF6A4951D96EDA6AF0
:102CC000080ED9264951E16EE26A080EE126E75066
:102CD0004A6F010E4A25436F446B000E4423466B36
:102CE000060E456F8CEC15F001014351DF6EF28E3C
:102CF00012000301046F04C305F30301096B02C34F
:102D00000AF300C307F301C308F3066B0D6B116BE5
:102D1000106B136B126B156B146B1A6B1B6B0F6BB9
:102D20000E6B0C6B166B186B176B196B0B6B346B94
:102D300023EE05F085C603F30351300D350EF32461
:102D4000E16E050EF420E26E2F0EDBCFE3FFE80606
:102D5000FCE285C6E8FF010FE8CF85F61200066E9B
:102D600006C007F00B6A04C00CF002C009F003C0F3
:102D70000AF0086A0F6A136A126A156A146A176AF7
:102D8000166A1C6A1D6A116A106A0E6A186A1A6A43
:102D9000196A1B6A0D6A366A20EE07F085C605F0CF
:102DA0000550300D350EF324E16E050EF420E26E71
:102DB0002F0EDBCFE3FFE806FCE285C6E8FF010F3C
:102DC000E8CF85F61200180EF66E320EF76E000E82
:102DD000F86E00EE8CF010EE06F00900F5CFEEFF75
:102DE000E550E150FAE11E0EF66E320EF76E000E5F
:102DF000F86E0900F5CF47F003EE35F013EE54F00E
:102E0000EE6AE550E150FCE1E250FAE100EE60F0DC
:102E10002C0EEE6AE806FDE1466A01900192000E72
:102E2000F86E000114EF17F01BEC18F0C80E030148
:102E3000006F2B0E016F010E026F020E79EC16F07F
:102E4000320E0301006F2F0E016F010E026F030E91
:102E500079EC16F0680E0301006F300E016F010E61
:102E6000026F040E79EC16F0F20E0301006F310EC2
:102E7000016F010E026F050E79EC16F08BEC11F06C
:102E800040EF17F090EF06F0010151510F0F496F1D
:102E90004BEC0BF001015151D96EDA6A050ED926BF
:102EA000DF50536F51515325D96EDA6A5251E16E9A
:102EB000E26ADFCFE7FF5151D96EDA6A050ED926F3
:102EC0005151E16EE26A050EE126E750536F532936
:102ED000030BDF6E5151060F496F32EC16F01200F2
:102EE00001013851060F496F4BEC0BF001013851CD
:102EF000D96EDA6A040ED926DF503A6F38513A2576
:102F0000D96EDA6A39C1DFFF3851D96EDA6A040E38
:102F1000D9263851E16EE26A040EE126E7503A6F95
:102F20003A29030BDF6E38510F0F496F32EC16F060
:102F30001200830E0101496F4BEC0BF0600E010192
:102F4000516F460E526F44EC17F04C0E4618D8A441
:102F5000ACEF17F0AEEF17F0B1EF17F0838099EFF9
:102F600017F0440E4618D8A4B8EF17F0BAEF17F0D0
:102F700099EF17F0839099EF17F0120093800F01EB
:102F80003991949C949E95903B913A9D3A9FF288FA
:102F9000F19CF292A3EC18F005EC19F0830E0301FA
:102FA000006F000E016FCBEC18F0600E0301026F92
:102FB000FEEC17F0780E0301006FE0EC17F0120042
:102FC00003010051D96EDA6ADF6A0051D96EDA6AFC
:102FD000010ED926DF6A0051D96EDA6A080ED926A9
:102FE000DF6A0051D96EDA6A090ED926DF6A00510C
:102FF000D96EDA6A0A0ED926DF6A1200030102517D
:10300000D96EDA6A040ED926DF6A0251D96EDA6AFD
:10301000050ED926DF6A0251060F006F040E016FFC
:10302000CBEC18F0030102510F0F006F000E016F7F
:10303000CBEC18F01200000EE8CF85F6350EE8CF85
:1030400086F6050EE8CF87F6000EE8CF88F6F20E7A
:103050000301006F300E016F000E026F010E79EC5C
:1030600016F0BEEC17F01200ECEC18F002015D5106
:1030700009E17B0E5C5DD8A040EF18F042EF18F03C
:1030800045EF18F0828E46EF18F0829E0A0E81EC12
:103090000EF034EF18F012006EC270F26FC271F2CF
:1030A0000201D89071337033D890713370337051FE
:1030B000BE6E6EC270F2030E7017703BBD50701979
:1030C000CF0B7019BD6E120038EC13F00301076FBF
:1030D00007C388F688C607F30751300D350EF32471
:1030E000086F050EF420096F08C386F609C387F63A
:1030F0001200949082B07FEF18F082EF18F0010E6A
:1031000083EF18F0000EFF0A0001926F82509219AF
:10311000FE0B9219826E7AEF18F01200D4EC13F0C5
:103120000201756F75C288F688C675F27551300D4B
:10313000350EF324766F050EF420776F76C286F68F
:1031400077C287F61200830EC216F30EC116FC0E6C
:10315000C116C08EC050C70B3009C06EC050F80BEE
:103160000409C06E92800F013881C280120070EC99
:1031700014F0096E09C088F688C609F00950300DB0
:10318000350EF3240A6E050EF4200B6E0AC086F687
:103190000BC087F6120003010051D96EDA6A01C331
:1031A000DFFF0051D96EDA6A070ED926DF6A0051B7
:1031B000D96EDA6A080ED926DF6A1200F28AF29412
:1031C000D58CD59AD596070ED512D58ED76A000E16
:1031D000D66EF28EF28C1200C282C2B2F2EF18F0FA
:1031E000F4EF18F0EDEF18F0C3CF5CF2C4CF5DF24E
:1031F000120002016F6B800E6E6F4CEC18F0050E22
:1032000081EC0EF0F9EF18F01200BB680C0EBD6EE9
:0F321000040EBA6E949412004C4C444C44441477
:00000001FF
