:040000008DEF03F08D
:100008000182E1CF3CF0E2CF3DF0D9CF3EF0DACF2C
:100018003FF0F3CF40F0F4CF41F0F2A416EF00F038
:1000280018EF00F07FEF03F0F294436A000E426E7F
:100038006EEF00F0750E4202F3CF35F0F4CF36F0D4
:100048004302F3503626E40E3524D96E020E3620CC
:10005800DA6EDF50D8B433EF00F035EF00F06CEF14
:1000680000F0750E4202F3CF35F0F4CF36F04302BC
:10007800F3503626E40E3524D96E020E3620DA6E99
:10008800DF06750E4202F3CF35F0F4CF36F04302A7
:10009800F3503626E40E3524D96E020E3620DA6E79
:1000A800DF50D8A45AEF00F05CEF00F06CEF00F0DE
:1000B800750E4202F3CF35F0F4CF36F04302F35019
:1000C8003626E10E3524D96E020E3620DA6EDF6A46
:1000D800424A432A24EEB4F0DF50356E366A355072
:1000E800425C4350800A376E3650800A3758D8A091
:1000F80080EF00F082EF00F01EEF00F04A064A5051
:10010800D8A489EF00F08BEF00F07FEF03F0140E16
:100118004A6E24EEB5F010EE01F0DE50E126DD5017
:10012800E222020EE618D8A49CEF00F09EEF00F041
:10013800DAEF01F024EEB5F010EE01F0DE50E12622
:10014800DD50E222E76A24EEB5F010EE08F0DE504A
:10015800E126DD50E222E0CFE7FF24EEB5F010EE15
:100168000CF0DE50E126DD50E222EACFE7FF24EE74
:10017800B5F010EE0BF0DE50E126DD50E222E9CFBB
:10018800E7FF24EEB5F010EE0EF0DE50E126DD506C
:10019800E222E2CFE7FF24EEB5F010EE0DF0DE50DC
:1001A800E126DD50E222E1CFE7FF24EEB5F010EEC4
:1001B80010F0DE50E126DD50E222DACFE7FF24EE30
:1001C800B5F010EE0FF0DE50E126DD50E222D9CF77
:1001D800E7FF24EEB5F010EE15F0DE50E126DD5015
:1001E800E222FACFE7FF24EEB5F010EE16F0DE506B
:1001F800E126DD50E222FBCFE7FF24EEB5F010EE5A
:100208000AF0DE50E126DD50E222F4CFE7FF24EECB
:10021800B5F010EE09F0DE50E126DD50E222F3CF12
:10022800E7FF24EEB5F010EE11F0DE50E126DD50C8
:10023800E222F5CFE7FF24EEB5F010EE13F0DE5022
:10024800E126DD50E222F7CFE7FF24EEB5F010EE0D
:1002580012F0DE50E126DD50E222F6CFE7FF24EE71
:10026800B5F010EE14F0DE50E126DD50E222F8CFB2
:10027800E7FF24EEB5F010EE06F0DE50E126DD5083
:10028800E222E8CFE7FF24EEB5F010EE07F0DE50EB
:10029800E126DD50E222D8CFE7FF24EEB5F010EEDC
:1002A80074F0DE50E126DD50E222E76AD2EF01F079
:1002B80024EEB5F010EE74F0DE50E126DD50E222B7
:1002C800E750356E3550030DF3CF36F0F4CF37F0E5
:1002D80024EEB5F0DECF38F0DDCF39F036503824D3
:1002E8003A6E375039203B6E170E3A24D96E000EFD
:1002F8003B20DA6EFDCFDFFF24EEB5F010EE74F090
:10030800DE50E126DD50E222E750356E3550030D10
:10031800F3CF36F0F4CF37F024EEB5F0DECF38F077
:10032800DDCF39F0365038243A6E375039203B6EDD
:10033800180E3A24D96E000E3B20DA6EFECFDFFF8E
:1003480024EEB5F010EE74F0DE50E126DD50E22226
:10035800E750356E3550030DF3CF36F0F4CF37F054
:1003680024EEB5F0DECF38F0DDCF39F03650382442
:100378003A6E375039203B6E190E3A24D96E000E6A
:100388003B20DA6EFFCFDFFF24EEB5F010EE74F0FD
:10039800DE50E126DD50E222E72A0600FC50D8A410
:1003A800D8EF01F0DAEF01F05CEF01F0DAEC10F0D1
:1003B80024EEB5F010EE01F0DE50E126DD50E22229
:1003C800E750D8A4EAEF01F0ECEF01F07FEF03F07B
:1003D80024EEB5F010EE01F0DE50E126DD50E22209
:1003E800020EE76E24EEB5F010EE08F0DE50E126BE
:1003F800DD50E222E750E06E24EEB5F010EE0CF08E
:10040800DE50E126DD50E222E750EA6E24EEB5F038
:1004180010EE0BF0DE50E126DD50E222E750E96EE7
:1004280024EEB5F010EE0EF0DE50E126DD50E222AB
:10043800E750E26E24EEB5F010EE0DF0DE50E12646
:10044800DD50E222E750E16E24EEB5F010EE10F038
:10045800DE50E126DD50E222E750DA6E24EEB5F0F8
:1004680010EE0FF0DE50E126DD50E222E750D96EA3
:1004780024EEB5F010EE15F0DE50E126DD50E22254
:10048800E750FA6E24EEB5F010EE16F0DE50E126D5
:10049800DD50E222E750FB6E24EEB5F010EE0AF0D4
:1004A800DE50E126DD50E222E750F46E24EEB5F08E
:1004B80010EE09F0DE50E126DD50E222E750F36E3F
:1004C80024EEB5F010EE11F0DE50E126DD50E22208
:1004D800E750F56E24EEB5F010EE13F0DE50E1268D
:1004E800DD50E222E750F76E24EEB5F010EE12F080
:1004F800DE50E126DD50E222E750F66E24EEB5F03C
:1005080010EE14F0DE50E126DD50E222E750F86EDE
:1005180024EEB5F010EE07F0DE50E126DD50E222C1
:10052800E750D86E24EEB5F010EE06F0DE50E12666
:10053800DD50E222E750356E3550FC6A24EEB5F006
:1005480010EE74F0DE50E126DD50E222E750D8B418
:10055800B0EF02F0B2EF02F03AEF03F0050024EE3C
:10056800B5F010EE74F0DE50E126DD50E222E70629
:1005780024EEB5F010EE74F0DE50E126DD50E222F4
:10058800E750356E3550030DF3CF36F0F4CF37F022
:1005980024EEB5F0DECF38F0DDCF39F03650382410
:1005A8003A6E375039203B6E170E3A24D96E000E3A
:1005B8003B20DA6EDF50FD6E24EEB5F010EE74F0DD
:1005C800DE50E126DD50E222E750356E3550030D4E
:1005D800F3CF36F0F4CF37F024EEB5F0DECF38F0B5
:1005E800DDCF39F0365038243A6E375039203B6E1B
:1005F800180E3A24D96E000E3B20DA6EDF50FE6EDC
:1006080024EEB5F010EE74F0DE50E126DD50E22263
:10061800E750356E3550030DF3CF36F0F4CF37F091
:1006280024EEB5F0DECF38F0DDCF39F0365038247F
:100638003A6E375039203B6E190E3A24D96E000EA7
:100648003B20DA6EDF50FF6E24EEB5F010EE74F04A
:10065800DE50E126DD50E222E750D8A436EF03F061
:1006680038EF03F0B2EF02F07DEF03F0050024EE5F
:10067800B5F010EE02F0DE50E126DD50E222E75040
:10068800FD6E24EEB5F010EE02F0DE50E126DD50EE
:10069800E222E6CF35F0E5CF36F035C037F036C088
:1006A80038F0396A38C037F039C038F0396A37500D
:1006B800FE6E100E356E24EEB5F010EE02F0DE5030
:1006C800E126DD50E222E6CF36F0E5CF37F036C03E
:1006D80038F037C039F03A6A35283B6E78EF03F0C6
:1006E800D8903A32393238323B2E74EF03F0385012
:1006F800FF6E140E4A6E41C0F4FF40C0F3FF3FC0C6
:10070800DAFF3EC0D9FF3DC0E2FF3CC0E1FF0192E5
:060718001100BAEF0FF022
:101000000000356EF29E24EEB5F010EE01F0DE50D9
:10101000E126DD50E222020EE618D8A412EF08F015
:1010200014EF08F052EF09F024EEB5F010EE01F0E5
:10103000DE50E126DD50E222010EE76E24EEB5F02F
:1010400010EE08F0DE50E126DD50E222E0CFE7FFAF
:1010500024EEB5F010EE0CF0DE50E126DD50E22279
:10106000EACFE7FF24EEB5F010EE0BF0DE50E126FC
:10107000DD50E222E9CFE7FF24EEB5F010EE0EF0EE
:10108000DE50E126DD50E222E2CFE7FF24EEB5F0AC
:1010900010EE0DF0DE50E126DD50E222E1CFE7FF59
:1010A00024EEB5F010EE10F0DE50E126DD50E22225
:1010B000DACFE7FF24EEB5F010EE0FF0DE50E126B8
:1010C000DD50E222D9CFE7FF24EEB5F010EE15F0A7
:1010D000DE50E126DD50E222FACFE7FF24EEB5F044
:1010E00010EE16F0DE50E126DD50E222FBCFE7FFE6
:1010F00024EEB5F010EE0AF0DE50E126DD50E222DB
:10110000F4CFE7FF24EEB5F010EE09F0DE50E12653
:10111000DD50E222F3CFE7FF24EEB5F010EE11F040
:10112000DE50E126DD50E222F5CFE7FF24EEB5F0F8
:1011300010EE13F0DE50E126DD50E222F7CFE7FF9C
:1011400024EEB5F010EE12F0DE50E126DD50E22282
:10115000F6CFE7FF24EEB5F010EE14F0DE50E126F6
:10116000DD50E222F8CFE7FF24EEB5F010EE06F0F6
:10117000DE50E126DD50E222E8CFE7FF24EEB5F0B5
:1011800010EE07F0DE50E126DD50E222D8CFE7FF77
:1011900024EEB5F010EE74F0DE50E126DD50E222D0
:1011A000E76A4AEF09F024EEB5F010EE74F0DE5075
:1011B000E126DD50E222E7500001606F6051030D2F
:1011C000F3CF61F0F4CF62F024EEB5F0DECF63F040
:1011D000DDCF64F061516325656F62516421666FF4
:1011E000170E6525D96E000E6621DA6EFDCFDFFF82
:1011F00024EEB5F010EE74F0DE50E126DD50E22270
:10120000E750606F6051030DF3CF61F0F4CF62F0EF
:1012100024EEB5F0DECF63F0DDCF64F061516325DD
:10122000656F62516421666F180E6525D96E000ED8
:101230006621DA6EFECFDFFF24EEB5F010EE74F01B
:10124000DE50E126DD50E222E750606F6051030D71
:10125000F3CF61F0F4CF62F024EEB5F0DECF63F0AF
:10126000DDCF64F061516325656F62516421666F63
:10127000190E6525D96E000E6621DA6EFFCFDFFFED
:1012800024EEB5F010EE74F0DE50E126DD50E222DF
:10129000E72A0600FC50D8A450EF09F052EF09F0FD
:1012A000D3EF08F0B7C460F000016051750DE40E93
:1012B000F324D96E020EF420DA6E35C0DFFFC6ECDF
:1012C00010F024EEB5F010EE01F0DE50E126DD5016
:1012D000E222E750D8A46FEF09F071EF09F008EFB0
:1012E0000BF024EEB5F010EE01F0DE50E126DD50FB
:1012F000E222020EE76E24EEB5F010EE08F0DE50AA
:10130000E126DD50E222E750E06E24EEB5F010EE6B
:101310000CF0DE50E126DD50E222E750EA6E24EECA
:10132000B5F010EE0BF0DE50E126DD50E222E75082
:10133000E96E24EEB5F010EE0EF0DE50E126DD5041
:10134000E222E750E26E24EEB5F010EE0DF0DE5032
:10135000E126DD50E222E750E16E24EEB5F010EE1A
:1013600010F0DE50E126DD50E222E750DA6E24EE86
:10137000B5F010EE0FF0DE50E126DD50E222E7502E
:10138000D96E24EEB5F010EE15F0DE50E126DD50FA
:10139000E222E750FA6E24EEB5F010EE16F0DE50C1
:1013A000E126DD50E222E750FB6E24EEB5F010EEB0
:1013B0000AF0DE50E126DD50E222E750F46E24EE22
:1013C000B5F010EE09F0DE50E126DD50E222E750E4
:1013D000F36E24EEB5F010EE11F0DE50E126DD5094
:1013E000E222E750F56E24EEB5F010EE13F0DE5079
:1013F000E126DD50E222E750F76E24EEB5F010EE64
:1014000012F0DE50E126DD50E222E750F66E24EEC7
:10141000B5F010EE14F0DE50E126DD50E222E75088
:10142000F86E24EEB5F010EE07F0DE50E126DD5048
:10143000E222E750D86E24EEB5F010EE06F0DE5052
:10144000E126DD50E222E7500001606F6051FC6A46
:1014500024EEB5F010EE74F0DE50E126DD50E2220D
:10146000E750D8B436EF0AF038EF0AF0C1EF0AF0CF
:10147000050024EEB5F010EE74F0DE50E126DD50EC
:10148000E222E70624EEB5F010EE74F0DE50E1261D
:10149000DD50E222E7500001606F6051030DF3CF91
:1014A00061F0F4CF62F024EEB5F0DECF63F0DDCF73
:1014B00064F061516325656F62516421666F170E98
:1014C0006525D96E000E6621DA6EDF50FD6E24EEC2
:1014D000B5F010EE74F0DE50E126DD50E222E75068
:1014E000606F6051030DF3CF61F0F4CF62F024EE32
:1014F000B5F0DECF63F0DDCF64F061516325656F39
:1015000062516421666F180E6525D96E000E662142
:10151000DA6EDF50FE6E24EEB5F010EE74F0DE50A1
:10152000E126DD50E222E750606F6051030DF3CFFA
:1015300061F0F4CF62F024EEB5F0DECF63F0DDCFE2
:1015400064F061516325656F62516421666F190E05
:101550006525D96E000E6621DA6EDF50FF6E24EE2F
:10156000B5F010EE74F0DE50E126DD50E222E750D7
:10157000D8A4BDEF0AF0BFEF0AF038EF0AF006EF8B
:101580000BF0050024EEB5F010EE02F0DE50E1267F
:10159000DD50E222E750FD6E24EEB5F010EE02F0D1
:1015A000DE50E126DD50E222E6CF60F0E5CF61F0CB
:1015B00060C062F061C063F00001646B63C062F000
:1015C00064C063F0646B6251FE6E100E606F24EEB7
:1015D000B5F010EE02F0DE50E126DD50E222E6CF5B
:1015E00061F0E5CF62F061C063F062C064F0656BEA
:1015F0006029666F00EF0BF0D89065336433633376
:10160000662FFCEF0AF000016351FF6E140E4A6E64
:10161000F28E120013EC11F09CEC10F024EEB5F0F9
:1016200010EE01F0DE50E126DD50E222E750D8A4B2
:101630001CEF0BF01EEF0BF0B5EF0CF024EEB5F045
:1016400010EE01F0DE50E126DD50E222020EE76EE0
:1016500024EEB5F010EE08F0DE50E126DD50E22277
:10166000E750E06E24EEB5F010EE0CF0DE50E1260F
:10167000DD50E222E750EA6E24EEB5F010EE0BF0FA
:10168000DE50E126DD50E222E750E96E24EEB5F0AF
:1016900010EE0EF0DE50E126DD50E222E750E26E61
:1016A00024EEB5F010EE0DF0DE50E126DD50E22222
:1016B000E750E16E24EEB5F010EE10F0DE50E126BA
:1016C000DD50E222E750DA6E24EEB5F010EE0FF0B6
:1016D000DE50E126DD50E222E750D96E24EEB5F06F
:1016E00010EE15F0DE50E126DD50E222E750FA6EF2
:1016F00024EEB5F010EE16F0DE50E126DD50E222C9
:10170000E750FB6E24EEB5F010EE0AF0DE50E12655
:10171000DD50E222E750F46E24EEB5F010EE09F051
:10172000DE50E126DD50E222E750F36E24EEB5F004
:1017300010EE11F0DE50E126DD50E222E750F56EAA
:1017400024EEB5F010EE13F0DE50E126DD50E2227B
:10175000E750F76E24EEB5F010EE12F0DE50E12601
:10176000DD50E222E750F66E24EEB5F010EE14F0F4
:10177000DE50E126DD50E222E750F86E24EEB5F0AF
:1017800010EE07F0DE50E126DD50E222E750D86E81
:1017900024EEB5F010EE06F0DE50E126DD50E22238
:1017A000E7500001756F7551FC6A24EEB5F010EE3C
:1017B00074F0DE50E126DD50E222E750D8B4E3EFCA
:1017C0000BF0E5EF0BF06EEF0CF0050024EEB5F03A
:1017D00010EE74F0DE50E126DD50E222E70624EE42
:1017E000B5F010EE74F0DE50E126DD50E222E75055
:1017F0000001756F7551030DF3CF76F0F4CF77F0DC
:1018000024EEB5F0DECF78F0DDCF79F07651782593
:101810007A6F775179217B6F170E7A25D96E000E7A
:101820007B21DA6EDF50FD6E24EEB5F010EE74F021
:10183000DE50E126DD50E222E750756F7551030D51
:10184000F3CF76F0F4CF77F024EEB5F0DECF78F07A
:10185000DDCF79F0765178257A6F775179217B6FDA
:10186000180E7A25D96E000E7B21DA6EDF50FE6EDF
:1018700024EEB5F010EE74F0DE50E126DD50E222E9
:10188000E750756F7551030DF3CF76F0F4CF77F015
:1018900024EEB5F0DECF78F0DDCF79F07651782503
:1018A0007A6F775179217B6F190E7A25D96E000EE8
:1018B0007B21DA6EDF50FF6E24EEB5F010EE74F08F
:1018C000DE50E126DD50E222E750D8A46AEF0CF0AA
:1018D0006CEF0CF0E5EF0BF0B3EF0CF0050024EE2D
:1018E000B5F010EE02F0DE50E126DD50E222E750C6
:1018F000FD6E24EEB5F010EE02F0DE50E126DD5074
:10190000E222E6CF75F0E5CF76F075C077F076C0CD
:1019100078F00001796B78C077F079C078F0796B56
:101920007751FE6E100E756F24EEB5F010EE02F0DA
:10193000DE50E126DD50E222E6CF76F0E5CF77F00B
:1019400076C078F077C079F07A6B75297B6FADEF50
:101950000CF0D8907A33793378337B2FA9EF0CF0E1
:1019600000017851FF6E140E4A6EF28E12000001D3
:101970006D6B6E6B716BF3EF0CF07151750DE10EC9
:10198000F324D96E020EF420DA6EDF50D8A4CBEF28
:101990000CF0CDEF0CF0F2EF0CF06E51D8B4D3EFA9
:1019A0000CF0D5EF0CF0E6EF0CF07151750DE50E73
:1019B000F324D96E020EF420DA6EDE506D5DD8B0DD
:1019C000E4EF0CF0E6EF0CF0F2EF0CF07151750D56
:1019D000E50EF324D96E020EF420DA6EDF506D6F3F
:1019E000010E6E6F712B24EEB4F0DE50715DD8A045
:1019F000FCEF0CF0FEEF0CF0BDEF0CF06E51D8A434
:101A000004EF0DF006EF0DF009EF0DF0000E4FEFB3
:101A10000DF0B7C46CF06F6B42EF0DF06C516F2599
:101A2000676F686B6837B4C46BF06B51696F6A6B32
:101A30007EEC0EF000016751706F7051750DE10E74
:101A4000F324D96E020EF420DA6EDF50D8A42BEF07
:101A50000DF02DEF0DF041EF0DF07051750DE50E0D
:101A6000F324D96E020EF420DA6E6D51DE18D8A47C
:101A70003CEF0DF03EEF0DF041EF0DF070514FEFE8
:101A80000DF06F2B24EEB4F0DE506F5DD8A04BEF5D
:101A90000DF04DEF0DF00EEF0DF006EF0DF0120012
:101AA0002D6A2E6A316A8BEF0DF03150750DE10E03
:101AB000F324D96E020EF420DA6EDF50D8A463EF5F
:101AC0000DF065EF0DF08AEF0DF02E50D8B46BEFEE
:101AD0000DF06DEF0DF07EEF0DF03150750DE50E50
:101AE000F324D96E020EF420DA6EDE502D5CD8B0ED
:101AF0007CEF0DF07EEF0DF08AEF0DF03150750D9B
:101B0000E50EF324D96E020EF420DA6EDF502D6E4E
:101B1000010E2E6E312A24EEB4F0DE50315CD8A0D6
:101B200094EF0DF096EF0DF055EF0DF02E50D8A478
:101B30009CEF0DF09EEF0DF0A1EF0DF0000EE6EF23
:101B40000DF0B7C42CF02F6AD9EF0DF02C502F24D4
:101B5000256E266A2636B4C42BF02B50276E286AD1
:101B6000D6EC0EF02550306E3050750DE10EF3249A
:101B7000D96E020EF420DA6EDF50D8A4C2EF0DF059
:101B8000C4EF0DF0D8EF0DF03050750DE50EF324D5
:101B9000D96E020EF420DA6E2D50DE18D8A4D3EFE1
:101BA0000DF0D5EF0DF0D8EF0DF03050E6EF0DF061
:101BB0002F2A24EEB4F0DE502F5CD8A0E2EF0DF017
:101BC000E4EF0DF0A6EF0DF09EEF0DF012002D6A80
:101BD0002E6A316A22EF0EF03150750DE10EF324BA
:101BE000D96E020EF420DA6EDF50D8A4FAEF0DF0B1
:101BF000FCEF0DF021EF0EF02E50D8B402EF0EF0F6
:101C000004EF0EF015EF0EF03150750DE50EF324D4
:101C1000D96E020EF420DA6EDE502D5CD8B013EFD0
:101C20000EF015EF0EF021EF0EF03150750DE50EB0
:101C3000F324D96E020EF420DA6EDF502D6E010E01
:101C40002E6E312A24EEB4F0DE50315CD8A02BEF9A
:101C50000EF02DEF0EF0ECEF0DF02E50D8A433EF78
:101C60000EF035EF0EF038EF0EF0000E7DEF0EF0B7
:101C7000B7C42CF02F6A70EF0EF02C502F24256E75
:101C8000266A2636B4C42BF02B50276E286A2DEC1A
:101C90000FF02550306E3050750DE10EF324D96EE3
:101CA000020EF420DA6EDF50D8A459EF0EF05BEF8D
:101CB0000EF06FEF0EF03050750DE50EF324D96E77
:101CC000020EF420DA6E2D50DE18D8A46AEF0EF062
:101CD0006CEF0EF06FEF0EF030507DEF0EF02F2A0C
:101CE00024EEB4F0DE502F5CD8A079EF0EF07BEF3D
:101CF0000EF03DEF0EF035EF0EF01200396A0001E4
:101D000068BF87EF0EF085EF0EF08DEF0EF0676D78
:101D1000681FD8B0682B010E396E6ABF94EF0EF0C1
:101D200092EF0EF098EF0EF0696D6A1FD8B06A2B33
:101D300069516A11D8B49FEF0EF0A1EF0EF0C5EF14
:101D40000EF0010E386EA9EF0EF0D89069376A37A1
:101D5000382A6AAFAEEF0EF0B0EF0EF0A5EF0EF03E
:101D60006951675D6A516859D8A0B9EF0EF0BBEFB1
:101D70000EF0BFEF0EF06951675F6A51685BD89053
:101D80006A336933382EB0EF0EF03950D8B4CBEF48
:101D90000EF0CDEF0EF0D1EF0EF0676D681FD8B0EA
:101DA000682B67C067F068C068F012002A6A26BE18
:101DB000DEEF0EF0DCEF0EF0E4EF0EF0256C261EE9
:101DC000D8B0262A010E2A6E28BEEBEF0EF0E9EFFE
:101DD0000EF0EFEF0EF0276C281ED8B0282A2750FF
:101DE0002810D8B4F6EF0EF0F8EF0EF01CEF0FF05D
:101DF000010E296E00EF0FF0D89027362836292AD9
:101E000028AE05EF0FF007EF0FF0FCEF0EF02750B4
:101E1000255C28502658D8A010EF0FF012EF0FF0D5
:101E200016EF0FF02750255E2850265AD8902832FA
:101E30002732292E07EF0FF02A50D8B422EF0FF0E7
:101E400024EF0FF028EF0FF0256C261ED8B0262ABD
:101E500025C025F026C026F012002A6A26BE35EFDE
:101E60000FF033EF0FF03BEF0FF0256C261ED8B0CC
:101E7000262A010E2A6E28BE42EF0FF040EF0FF027
:101E800046EF0FF0276C281ED8B0282A27502810BC
:101E9000D8B44DEF0FF04FEF0FF073EF0FF0010ECE
:101EA000296E57EF0FF0D89027362836292A28AE0A
:101EB0005CEF0FF05EEF0FF053EF0FF02750255C53
:101EC00028502658D8A067EF0FF069EF0FF06DEF9C
:101ED0000FF02750255E2850265AD89028322732F6
:101EE000292E5EEF0FF02A50D8B479EF0FF07BEF78
:101EF0000FF07FEF0FF0256C261ED8B0262A25C0E4
:101F000025F026C026F0120000016A6F6AC06BF04F
:101F100000016F6B69C070F067C06DF068C06EF053
:101F20006C6B736B776B766B796B786B7B6B7A6BA7
:101F3000806B816B756B746B726B7C6B7E6B7D6B76
:101F40007F6B716BDF6B20EE6BF0B4C438F03850F0
:101F5000750DE00EF324E16E020EF420E26E740EB5
:101F6000DBCFE3FFE806FCE2B4C4E8FF010FE8CFF3
:101F7000B4F412003E0EF66E220EF76E000EF86EEE
:101F800000EE44F010EE07F00900F5CFEEFFE5504B
:101F9000E150FAE100EEE0F013EED8F0EE6AE55021
:101FA000E150FCE1E250FAE100EE02F0230EEE6AAD
:101FB000E806FDE101900192000EF86E000101EFCC
:101FC00011F000016951D96EDA6A040ED926DF6A70
:101FD0006951D96EDA6A050ED926DF6A6951060F92
:101FE000386E040E396E84EC10F0000169510D0F4B
:101FF000386E000E396E84EC10F012003850D96E35
:10200000DA6ADF6A3850D96EDA6A010ED926DF6AD9
:102010003850D96EDA6A050ED926DF6A3850D96E83
:10202000DA6A060ED926DF6A3850D96EDA6A070EE8
:10203000D926DF6A1200000E6BEC10F025C036F0D6
:1020400026C037F0375009E1650E365CD8A02BEF7B
:1020500010F02DEF10F030EF10F0838031EF10F022
:1020600083900A0E01EC08F01BEF10F01200949C14
:10207000949E95900F013B913A9D3A9F1E0E386EAB
:10208000000E396E84EC10F0020E0001696FE1EC75
:102090000FF0160E386EFEEC0FF0EEEC10F023ECA5
:1020A00011F01200000EE8CFB4F4E00EE8CFB5F462
:1020B000020EE8CFB6F4000EE8CFB7F4620E0001CE
:1020C000676F210E686F000E696F010E84EC0FF0D0
:1020D00037EC10F01200296E29C027F0274627465A
:1020E000C2502718830B2718C26EC282C2B27BEF80
:1020F00010F07DEF10F076EF10F0C450276EC35053
:10210000256E27C026F0120039500001676F686BFA
:102110003850D96EDA6A67C0DEFF68C0DDFF38501C
:10212000D96EDA6A050ED926DF6A3850D96EDA6AB6
:10213000060ED926DF6A1200B7EC0CF00001726FB0
:1021400072C0B7F4B7C472F07251750DE00EF3248B
:10215000736F020EF420746F73C0B5F474C0B6F4DC
:102160001200949082B0B7EF10F0BAEF10F0010EA9
:10217000BBEF10F0000EFF0A0001606F8250601983
:10218000FE0B6019826EB2EF10F0120050EC0DF0F1
:10219000326E32C0B7F4B7C432F03250750DE00E73
:1021A000F324336E020EF420346E33C0B5F434C021
:1021B000B6F41200E7EC0DF0326E32C0B7F4B7C4DB
:1021C00032F03250750DE00EF324336E020EF4201F
:1021D000346E33C0B5F434C0B6F41200830EC216A8
:1021E000F30EC116FC0EC116C08EC050C70B3009CD
:1021F000C06EC050F80B0409C06E92800F01388188
:10220000120052EC10F0360E0001676F200E686F5E
:10221000050E696F020E84EC0FF00AEC0BF00FEF65
:1022200011F08DEF03F0F28AF294D58CD59AD59601
:10223000070ED512D58ED76A000ED66E12004C4C02
:05224000444C4444146D
:04224600C280120040
:00000001FF
