:040000009EEF03F07C
:100008000182E1CF4AF0E2CF4BF0D9CF4CF0DACF02
:100018004DF0F3CF4EF0F4CF4FF0F2A416EF00F00E
:1000280018EF00F07FEF03F0F294516A000E506E63
:100038006EEF00F03C0E5002F3CF43F0F4CF44F0E3
:100048005102F3504426450E4324D96E050E442030
:10005800DA6EDF50D8B433EF00F035EF00F06CEF14
:1000680000F03C0E5002F3CF43F0F4CF44F05102BD
:10007800F3504426450E4324D96E050E4420DA6E0B
:10008800DF063C0E5002F3CF43F0F4CF44F05102A8
:10009800F3504426450E4324D96E050E4420DA6EEB
:1000A800DF50D8A45AEF00F05CEF00F06CEF00F0DE
:1000B8003C0E5002F3CF43F0F4CF44F05102F3501A
:1000C8004426420E4324D96E050E4420DA6EDF6AB8
:1000D800504A512A26EEE5F0DF50436E446A4350F9
:1000E800505C5150800A456E4450800A4558D8A04B
:1000F80080EF00F082EF00F01EEF00F05C065C502D
:10010800D8A489EF00F08BEF00F07FEF03F0140E16
:100118005C6E26EEE6F010EE01F0DE50E126DD50D2
:10012800E222020EE618D8A49CEF00F09EEF00F041
:10013800DAEF01F026EEE6F010EE01F0DE50E126EF
:10014800DD50E222E76A26EEE6F010EE08F0DE5017
:10015800E126DD50E222E0CFE7FF26EEE6F010EEE2
:100168000CF0DE50E126DD50E222EACFE7FF26EE72
:10017800E6F010EE0BF0DE50E126DD50E222E9CF8A
:10018800E7FF26EEE6F010EE0EF0DE50E126DD5039
:10019800E222E2CFE7FF26EEE6F010EE0DF0DE50A9
:1001A800E126DD50E222E1CFE7FF26EEE6F010EE91
:1001B80010F0DE50E126DD50E222DACFE7FF26EE2E
:1001C800E6F010EE0FF0DE50E126DD50E222D9CF46
:1001D800E7FF26EEE6F010EE15F0DE50E126DD50E2
:1001E800E222FACFE7FF26EEE6F010EE16F0DE5038
:1001F800E126DD50E222FBCFE7FF26EEE6F010EE27
:100208000AF0DE50E126DD50E222F4CFE7FF26EEC9
:10021800E6F010EE09F0DE50E126DD50E222F3CFE1
:10022800E7FF26EEE6F010EE11F0DE50E126DD5095
:10023800E222F5CFE7FF26EEE6F010EE13F0DE50EF
:10024800E126DD50E222F7CFE7FF26EEE6F010EEDA
:1002580012F0DE50E126DD50E222F6CFE7FF26EE6F
:10026800E6F010EE14F0DE50E126DD50E222F8CF81
:10027800E7FF26EEE6F010EE06F0DE50E126DD5050
:10028800E222E8CFE7FF26EEE6F010EE07F0DE50B8
:10029800E126DD50E222D8CFE7FF26EEE6F010EEA9
:1002A8003BF0DE50E126DD50E222E76AD2EF01F0B2
:1002B80026EEE6F010EE3BF0DE50E126DD50E222BD
:1002C800E750436E4350030DF3CF44F0F4CF45F0AD
:1002D80026EEE6F0DECF46F0DDCF47F04450462468
:1002E800486E45504720496E170E4824D96E000EB7
:1002F8004920DA6EFDCFDFFF26EEE6F010EE3BF088
:10030800DE50E126DD50E222E750436E4350030DF4
:10031800F3CF44F0F4CF45F026EEE6F0DECF46F01A
:10032800DDCF47F044504624486E45504720496E7B
:10033800180E4824D96E000E4920DA6EFECFDFFF72
:1003480026EEE6F010EE3BF0DE50E126DD50E2222C
:10035800E750436E4350030DF3CF44F0F4CF45F01C
:1003680026EEE6F0DECF46F0DDCF47F044504624D7
:10037800486E45504720496E190E4824D96E000E24
:100388004920DA6EFFCFDFFF26EEE6F010EE3BF0F5
:10039800DE50E126DD50E222E72A0600FC50D8A410
:1003A800D8EF01F0DAEF01F05CEF01F0B7EC19F0EB
:1003B80026EEE6F010EE01F0DE50E126DD50E222F6
:1003C800E750D8A4EAEF01F0ECEF01F07FEF03F07B
:1003D80026EEE6F010EE01F0DE50E126DD50E222D6
:1003E800020EE76E26EEE6F010EE08F0DE50E1268B
:1003F800DD50E222E750E06E26EEE6F010EE0CF05B
:10040800DE50E126DD50E222E750EA6E26EEE6F005
:1004180010EE0BF0DE50E126DD50E222E750E96EE7
:1004280026EEE6F010EE0EF0DE50E126DD50E22278
:10043800E750E26E26EEE6F010EE0DF0DE50E12613
:10044800DD50E222E750E16E26EEE6F010EE10F005
:10045800DE50E126DD50E222E750DA6E26EEE6F0C5
:1004680010EE0FF0DE50E126DD50E222E750D96EA3
:1004780026EEE6F010EE15F0DE50E126DD50E22221
:10048800E750FA6E26EEE6F010EE16F0DE50E126A2
:10049800DD50E222E750FB6E26EEE6F010EE0AF0A1
:1004A800DE50E126DD50E222E750F46E26EEE6F05B
:1004B80010EE09F0DE50E126DD50E222E750F36E3F
:1004C80026EEE6F010EE11F0DE50E126DD50E222D5
:1004D800E750F56E26EEE6F010EE13F0DE50E1265A
:1004E800DD50E222E750F76E26EEE6F010EE12F04D
:1004F800DE50E126DD50E222E750F66E26EEE6F009
:1005080010EE14F0DE50E126DD50E222E750F86EDE
:1005180026EEE6F010EE07F0DE50E126DD50E2228E
:10052800E750D86E26EEE6F010EE06F0DE50E12633
:10053800DD50E222E750436E4350FC6A26EEE6F0B7
:1005480010EE3BF0DE50E126DD50E222E750D8B451
:10055800B0EF02F0B2EF02F03AEF03F0050026EE3A
:10056800E6F010EE3BF0DE50E126DD50E222E70631
:1005780026EEE6F010EE3BF0DE50E126DD50E222FA
:10058800E750436E4350030DF3CF44F0F4CF45F0EA
:1005980026EEE6F0DECF46F0DDCF47F044504624A5
:1005A800486E45504720496E170E4824D96E000EF4
:1005B8004920DA6EDF50FD6E26EEE6F010EE3BF0D5
:1005C800DE50E126DD50E222E750436E4350030D32
:1005D800F3CF44F0F4CF45F026EEE6F0DECF46F058
:1005E800DDCF47F044504624486E45504720496EB9
:1005F800180E4824D96E000E4920DA6EDF50FE6EC0
:1006080026EEE6F010EE3BF0DE50E126DD50E22269
:10061800E750436E4350030DF3CF44F0F4CF45F059
:1006280026EEE6F0DECF46F0DDCF47F04450462414
:10063800486E45504720496E190E4824D96E000E61
:100648004920DA6EDF50FF6E26EEE6F010EE3BF042
:10065800DE50E126DD50E222E750D8A436EF03F061
:1006680038EF03F0B2EF02F07DEF03F0050026EE5D
:10067800E6F010EE02F0DE50E126DD50E222E7500F
:10068800FD6E26EEE6F010EE02F0DE50E126DD50BB
:10069800E222E6CF43F0E5CF44F043C045F044C042
:1006A80046F0476A46C045F047C046F0476A45509D
:1006B800FE6E100E436E26EEE6F010EE02F0DE50EF
:1006C800E126DD50E222E6CF44F0E5CF45F044C014
:1006D80046F045C047F0486A4328496E78EF03F072
:1006E800D890483247324632492E74EF03F04650CC
:1006F800FF6E140E5C6EF2A284EF03F086EF03F037
:1007080090EF03F0F292960E026E330E036E050E12
:10071800046E060E17EC17F04FC0F4FF4EC0F3FF3F
:100728004DC0DAFF4CC0D9FF4BC0E2FF4AC0E1FF21
:0807380001921100F4EF17F02B
:101000000000F29E29C1D9FF2AC1DAFFDF50D8B40F
:101010000CEF08F00EEF08F046EF0BF026EEE8F0CC
:10102000010110EE08F02951E1262A51E222E75091
:101030002B6F2B5129252C6F000E2A212D6F020EAC
:101040002C25E16E000E2D21E26EDFCFE7FF20EEB2
:1010500008F02951D9262A51DA2210EE08F0295138
:10106000E1262A51E222E7502B6F010E2B250201C7
:10107000766F776B000E7723796B060E786FD7EC5F
:1010800015F002017651DF6E010120EE0AF02951C0
:10109000D9262A51DA22DF2A26EEE6F010EE01F0F8
:1010A000DE50E126DD50E222020EE618D8A45BEF06
:1010B00008F05DEF08F09BEF09F026EEE6F010EE89
:1010C00001F0DE50E126DD50E222010EE76E26EE51
:1010D000E6F010EE08F0DE50E126DD50E222E0CF2F
:1010E000E7FF26EEE6F010EE0CF0DE50E126DD50D4
:1010F000E222EACFE7FF26EEE6F010EE0BF0DE503C
:10110000E126DD50E222E9CFE7FF26EEE6F010EE21
:101110000EF0DE50E126DD50E222E2CFE7FF26EEC0
:10112000E6F010EE0DF0DE50E126DD50E222E1CFD8
:10113000E7FF26EEE6F010EE10F0DE50E126DD507F
:10114000E222DACFE7FF26EEE6F010EE0FF0DE50F7
:10115000E126DD50E222D9CFE7FF26EEE6F010EEE1
:1011600015F0DE50E126DD50E222FACFE7FF26EE51
:10117000E6F010EE16F0DE50E126DD50E222FBCF65
:10118000E7FF26EEE6F010EE0AF0DE50E126DD5035
:10119000E222F4CFE7FF26EEE6F010EE09F0DE5093
:1011A000E126DD50E222F3CFE7FF26EEE6F010EE77
:1011B00011F0DE50E126DD50E222F5CFE7FF26EE0A
:1011C000E6F010EE13F0DE50E126DD50E222F7CF1C
:1011D000E7FF26EEE6F010EE12F0DE50E126DD50DD
:1011E000E222F6CFE7FF26EEE6F010EE14F0DE5036
:1011F000E126DD50E222F8CFE7FF26EEE6F010EE22
:1012000006F0DE50E126DD50E222E8CFE7FF26EED1
:10121000E6F010EE07F0DE50E126DD50E222D8CFF6
:10122000E7FF26EEE6F010EE3BF0DE50E126DD5063
:10123000E222E76A93EF09F026EEE6F010EE3BF0CB
:10124000DE50E126DD50E222E75001012B6F2B51E9
:10125000030DF3CF2CF1F4CF2DF126EEE6F0DECF27
:101260002EF1DDCF2FF12C512E25306F2D512F2156
:10127000316F170E3025D96E000E3121DA6EFDCF99
:10128000DFFF26EEE6F010EE3BF0DE50E126DD500B
:10129000E222E7502B6F2B51030DF3CF2CF1F4CF4B
:1012A0002DF126EEE6F0DECF2EF1DDCF2FF12C5121
:1012B0002E25306F2D512F21316F180E3025D96E0C
:1012C000000E3121DA6EFECFDFFF26EEE6F010EEE3
:1012D0003BF0DE50E126DD50E222E7502B6F2B5130
:1012E000030DF3CF2CF1F4CF2DF126EEE6F0DECF97
:1012F0002EF1DDCF2FF12C512E25306F2D512F21C6
:10130000316F190E3025D96E000E3121DA6EFFCF04
:10131000DFFF26EEE6F010EE3BF0DE50E126DD507A
:10132000E222E72A0600FC50D8A499EF09F09BEFCF
:1013300009F01CEF09F08EEC19F026EEE6F010EE45
:1013400001F0DE50E126DD50E222E750D8A4ABEFF9
:1013500009F0ADEF09F059EF0BF026EEE6F010EED4
:1013600001F0DE50E126DD50E222020EE76E26EEAD
:10137000E6F010EE08F0DE50E126DD50E222E75004
:10138000E06E26EEE6F010EE0CF0DE50E126DD50C9
:10139000E222E750EA6E26EEE6F010EE0BF0DE50A9
:1013A000E126DD50E222E750E96E26EEE6F010EE8F
:1013B0000EF0DE50E126DD50E222E750E26E26EE2E
:1013C000E6F010EE0DF0DE50E126DD50E222E750AF
:1013D000E16E26EEE6F010EE10F0DE50E126DD5074
:1013E000E222E750DA6E26EEE6F010EE0FF0DE5065
:1013F000E126DD50E222E750D96E26EEE6F010EE4F
:1014000015F0DE50E126DD50E222E750FA6E26EEBE
:10141000E6F010EE16F0DE50E126DD50E222E75055
:10142000FB6E26EEE6F010EE0AF0DE50E126DD500F
:10143000E222E750F46E26EEE6F010EE09F0DE5000
:10144000E126DD50E222E750F36E26EEE6F010EEE4
:1014500011F0DE50E126DD50E222E750F56E26EE77
:10146000E6F010EE13F0DE50E126DD50E222E75008
:10147000F76E26EEE6F010EE12F0DE50E126DD50BB
:10148000E222E750F66E26EEE6F010EE14F0DE50A3
:10149000E126DD50E222E750F86E26EEE6F010EE8F
:1014A00007F0DE50E126DD50E222E750D86E26EE4E
:1014B000E6F010EE06F0DE50E126DD50E222E750C5
:1014C00001012B6F2B51FC6A26EEE6F010EE3BF08B
:1014D000DE50E126DD50E222E750D8B472EF0AF088
:1014E00074EF0AF0FDEF0AF0050026EEE6F010EECC
:1014F0003BF0DE50E126DD50E222E70626EEE6F084
:1015000010EE3BF0DE50E126DD50E222E750010113
:101510002B6F2B51030DF3CF2CF1F4CF2DF126EED1
:10152000E6F0DECF2EF1DDCF2FF12C512E25306FDE
:101530002D512F21316F170E3025D96E000E31211C
:10154000DA6EDF50FD6E26EEE6F010EE3BF0DE5078
:10155000E126DD50E222E7502B6F2B51030DF3CF34
:101560002CF1F4CF2DF126EEE6F0DECF2EF1DDCF1B
:101570002FF12C512E25306F2D512F21316F180E48
:101580003025D96E000E3121DA6EDF50FE6E26EE68
:10159000E6F010EE3BF0DE50E126DD50E222E750AF
:1015A0002B6F2B51030DF3CF2CF1F4CF2DF126EE41
:1015B000E6F0DECF2EF1DDCF2FF12C512E25306F4E
:1015C0002D512F21316F190E3025D96E000E31218A
:1015D000DA6EDF50FF6E26EEE6F010EE3BF0DE50E6
:1015E000E126DD50E222E750D8A4F9EF0AF0FBEF44
:1015F0000AF074EF0AF042EF0BF0050026EEE6F079
:1016000010EE02F0DE50E126DD50E222E750FD6EE2
:1016100026EEE6F010EE02F0DE50E126DD50E2228A
:10162000E6CF2BF1E5CF2CF12BC12DF12CC12EF102
:1016300001012F6B2EC12DF12FC12EF12F6B2D51DA
:10164000FE6E100E2B6F26EEE6F010EE02F0DE506E
:10165000E126DD50E222E6CF2CF1E5CF2DF12CC1C1
:101660002EF12DC12FF1306B2B29316F3CEF0BF098
:10167000D89030332F332E33312F38EF0BF0010158
:101680002E51FF6E140E5C6E59EF0BF029C1D9FF7D
:101690002AC1DAFF010EDF6EE6C6D9FFE7C6DAFF20
:1016A000010110EE01F02951E1262A51E222DFCF9B
:1016B000E7FFF28E12000201896FF29E0201805153
:1016C0008111D8A466EF0BF068EF0BF062EF0EF01B
:1016D00026EEE6F010EE01F0DE50E126DD50E222CB
:1016E000020EE618D8A477EF0BF079EF0BF0B7EF06
:1016F0000CF026EEE6F010EE01F0DE50E126DD50B3
:10170000E22289C2E7FF26EEE6F010EE08F0DE5096
:10171000E126DD50E222E0CFE7FF26EEE6F010EE14
:101720000CF0DE50E126DD50E222EACFE7FF26EEA4
:10173000E6F010EE0BF0DE50E126DD50E222E9CFBC
:10174000E7FF26EEE6F010EE0EF0DE50E126DD506B
:10175000E222E2CFE7FF26EEE6F010EE0DF0DE50DB
:10176000E126DD50E222E1CFE7FF26EEE6F010EEC3
:1017700010F0DE50E126DD50E222DACFE7FF26EE60
:10178000E6F010EE0FF0DE50E126DD50E222D9CF78
:10179000E7FF26EEE6F010EE15F0DE50E126DD5014
:1017A000E222FACFE7FF26EEE6F010EE16F0DE506A
:1017B000E126DD50E222FBCFE7FF26EEE6F010EE59
:1017C0000AF0DE50E126DD50E222F4CFE7FF26EEFC
:1017D000E6F010EE09F0DE50E126DD50E222F3CF14
:1017E000E7FF26EEE6F010EE11F0DE50E126DD50C8
:1017F000E222F5CFE7FF26EEE6F010EE13F0DE5022
:10180000E126DD50E222F7CFE7FF26EEE6F010EE0C
:1018100012F0DE50E126DD50E222F6CFE7FF26EEA1
:10182000E6F010EE14F0DE50E126DD50E222F8CFB3
:10183000E7FF26EEE6F010EE06F0DE50E126DD5082
:10184000E222E8CFE7FF26EEE6F010EE07F0DE50EA
:10185000E126DD50E222D8CFE7FF26EEE6F010EEDB
:101860003BF0DE50E126DD50E222E76AAFEF0CF0FC
:1018700026EEE6F010EE3BF0DE50E126DD50E222EF
:10188000E7500201826F8251030DF3CF83F2F4CF50
:1018900084F226EEE6F0DECF85F2DDCF86F28351CC
:1018A0008525876F84518621886F170E8725D96E0D
:1018B000000E8821DA6EFDCFDFFF26EEE6F010EE97
:1018C0003BF0DE50E126DD50E222E750826F82518C
:1018D000030DF3CF83F2F4CF84F226EEE6F0DECFF1
:1018E00085F2DDCF86F283518525876F845186216D
:1018F000886F180E8725D96E000E8821DA6EFECF0C
:10190000DFFF26EEE6F010EE3BF0DE50E126DD5084
:10191000E222E750826F8251030DF3CF83F2F4CFBE
:1019200084F226EEE6F0DECF85F2DDCF86F283513B
:101930008525876F84518621886F190E8725D96E7A
:10194000000E8821DA6EFFCFDFFF26EEE6F010EE04
:101950003BF0DE50E126DD50E222E72A0600FC5093
:10196000D8A4B5EF0CF0B7EF0CF038EF0CF08EEC1C
:1019700019F026EEE6F010EE01F0DE50E126DD5023
:10198000E222E750D8A4C7EF0CF0C9EF0CF06AEFE1
:101990000EF026EEE6F010EE01F0DE50E126DD500E
:1019A000E222020EE76E26EEE6F010EE08F0DE50C0
:1019B000E126DD50E222E750E06E26EEE6F010EE82
:1019C0000CF0DE50E126DD50E222E750EA6E26EE12
:1019D000E6F010EE0BF0DE50E126DD50E222E7509B
:1019E000E96E26EEE6F010EE0EF0DE50E126DD5058
:1019F000E222E750E26E26EEE6F010EE0DF0DE5049
:101A0000E126DD50E222E750E16E26EEE6F010EE30
:101A100010F0DE50E126DD50E222E750DA6E26EECD
:101A2000E6F010EE0FF0DE50E126DD50E222E75046
:101A3000D96E26EEE6F010EE15F0DE50E126DD5010
:101A4000E222E750FA6E26EEE6F010EE16F0DE50D7
:101A5000E126DD50E222E750FB6E26EEE6F010EEC6
:101A60000AF0DE50E126DD50E222E750F46E26EE69
:101A7000E6F010EE09F0DE50E126DD50E222E750FC
:101A8000F36E26EEE6F010EE11F0DE50E126DD50AA
:101A9000E222E750F56E26EEE6F010EE13F0DE508F
:101AA000E126DD50E222E750F76E26EEE6F010EE7A
:101AB00012F0DE50E126DD50E222E750F66E26EE0F
:101AC000E6F010EE14F0DE50E126DD50E222E750A1
:101AD000F86E26EEE6F010EE07F0DE50E126DD505F
:101AE000E222E750D86E26EEE6F010EE06F0DE5069
:101AF000E126DD50E222E7500201826F8251FC6A4A
:101B000026EEE6F010EE3BF0DE50E126DD50E2225C
:101B1000E750D8B48EEF0DF090EF0DF019EF0EF006
:101B2000050026EEE6F010EE3BF0DE50E126DD503B
:101B3000E222E70626EEE6F010EE3BF0DE50E1266C
:101B4000DD50E222E7500201826F8251030DF3CF94
:101B500083F2F4CF84F226EEE6F0DECF85F2DDCF1D
:101B600086F283518525876F84518621886F170EF1
:101B70008725D96E000E8821DA6EDF50FD6E26EEC5
:101B8000E6F010EE3BF0DE50E126DD50E222E750B9
:101B9000826F8251030DF3CF83F2F4CF84F226EEED
:101BA000E6F0DECF85F2DDCF86F283518525876FA3
:101BB00084518621886F180E8725D96E000E8821E2
:101BC000DA6EDF50FE6E26EEE6F010EE3BF0DE50F1
:101BD000E126DD50E222E750826F8251030DF3CF00
:101BE00083F2F4CF84F226EEE6F0DECF85F2DDCF8D
:101BF00086F283518525876F84518621886F190E5F
:101C00008725D96E000E8821DA6EDF50FF6E26EE32
:101C1000E6F010EE3BF0DE50E126DD50E222E75028
:101C2000D8A415EF0EF017EF0EF090EF0DF05EEF69
:101C30000EF0050026EEE6F010EE02F0DE50E12692
:101C4000DD50E222E750FD6E26EEE6F010EE02F0E7
:101C5000DE50E126DD50E222E6CF82F2E5CF83F2CC
:101C600082C284F283C285F20201866B85C284F24D
:101C700086C285F2866B8451FE6E100E826F26EE50
:101C8000E6F010EE02F0DE50E126DD50E222E6CF73
:101C900083F2E5CF84F283C285F284C286F2876B39
:101CA0008229886F58EF0EF0D890873386338533BA
:101CB000882F54EF0EF002018551FF6E140E5C6EFA
:101CC0006AEF0EF020EE01F08051D9268151DA2220
:101CD00089C2DFFFF28E12000201876FF29E26EEAC
:101CE000E6F010EE01F0DE50E126DD50E222020EB9
:101CF000E618D8A47EEF0EF080EF0EF0BEEF0FF0E6
:101D000026EEE6F010EE01F0DE50E126DD50E22294
:101D1000010EE76E26EEE6F010EE08F0DE50E1264A
:101D2000DD50E222E0CFE7FF26EEE6F010EE0CF009
:101D3000DE50E126DD50E222EACFE7FF26EEE6F0B4
:101D400010EE0BF0DE50E126DD50E222E9CFE7FF96
:101D500026EEE6F010EE0EF0DE50E126DD50E22237
:101D6000E2CFE7FF26EEE6F010EE0DF0DE50E126C2
:101D7000DD50E222E1CFE7FF26EEE6F010EE10F0B4
:101D8000DE50E126DD50E222DACFE7FF26EEE6F074
:101D900010EE0FF0DE50E126DD50E222D9CFE7FF52
:101DA00026EEE6F010EE15F0DE50E126DD50E222E0
:101DB000FACFE7FF26EEE6F010EE16F0DE50E12651
:101DC000DD50E222FBCFE7FF26EEE6F010EE0AF050
:101DD000DE50E126DD50E222F4CFE7FF26EEE6F00A
:101DE00010EE09F0DE50E126DD50E222F3CFE7FFEE
:101DF00026EEE6F010EE11F0DE50E126DD50E22294
:101E0000F5CFE7FF26EEE6F010EE13F0DE50E12608
:101E1000DD50E222F7CFE7FF26EEE6F010EE12F0FB
:101E2000DE50E126DD50E222F6CFE7FF26EEE6F0B7
:101E300010EE14F0DE50E126DD50E222F8CFE7FF8D
:101E400026EEE6F010EE06F0DE50E126DD50E2224E
:101E5000E8CFE7FF26EEE6F010EE07F0DE50E126D1
:101E6000DD50E222D8CFE7FF26EEE6F010EE3BF0A1
:101E7000DE50E126DD50E222E76AB6EF0FF026EEF3
:101E8000E6F010EE3BF0DE50E126DD50E222E750B6
:101E90000201806F8051030DF3CF81F2F4CF82F203
:101EA00026EEE6F0DECF83F2DDCF84F2815183258A
:101EB000856F82518421866F170E8525D96E000E9D
:101EC0008621DA6EFDCFDFFF26EEE6F010EE3BF066
:101ED000DE50E126DD50E222E750806F8051030D95
:101EE000F3CF81F2F4CF82F226EEE6F0DECF83F27A
:101EF000DDCF84F281518325856F82518421866FE5
:101F0000180E8525D96E000E8621DA6EFECFDFFF12
:101F100026EEE6F010EE3BF0DE50E126DD50E22248
:101F2000E750806F8051030DF3CF81F2F4CF82F23E
:101F300026EEE6F0DECF83F2DDCF84F281518325F9
:101F4000856F82518421866F190E8525D96E000E0A
:101F50008621DA6EFFCFDFFF26EEE6F010EE3BF0D3
:101F6000DE50E126DD50E222E72A0600FC50D8A42C
:101F7000BCEF0FF0BEEF0FF03FEF0FF0E8C680F2BE
:101F8000020180513C0D450EF324D96E050EF4205C
:101F9000DA6E87C2DFFF8EEC19F026EEE6F010EE67
:101FA00001F0DE50E126DD50E222E750D8A4DBEF5D
:101FB0000FF0DDEF0FF074EF11F026EEE6F010EE0B
:101FC00001F0DE50E126DD50E222020EE76E26EE41
:101FD000E6F010EE08F0DE50E126DD50E222E75098
:101FE000E06E26EEE6F010EE0CF0DE50E126DD505D
:101FF000E222E750EA6E26EEE6F010EE0BF0DE503D
:10200000E126DD50E222E750E96E26EEE6F010EE22
:102010000EF0DE50E126DD50E222E750E26E26EEC1
:10202000E6F010EE0DF0DE50E126DD50E222E75042
:10203000E16E26EEE6F010EE10F0DE50E126DD5007
:10204000E222E750DA6E26EEE6F010EE0FF0DE50F8
:10205000E126DD50E222E750D96E26EEE6F010EEE2
:1020600015F0DE50E126DD50E222E750FA6E26EE52
:10207000E6F010EE16F0DE50E126DD50E222E750E9
:10208000FB6E26EEE6F010EE0AF0DE50E126DD50A3
:10209000E222E750F46E26EEE6F010EE09F0DE5094
:1020A000E126DD50E222E750F36E26EEE6F010EE78
:1020B00011F0DE50E126DD50E222E750F56E26EE0B
:1020C000E6F010EE13F0DE50E126DD50E222E7509C
:1020D000F76E26EEE6F010EE12F0DE50E126DD504F
:1020E000E222E750F66E26EEE6F010EE14F0DE5037
:1020F000E126DD50E222E750F86E26EEE6F010EE23
:1021000007F0DE50E126DD50E222E750D86E26EEE1
:10211000E6F010EE06F0DE50E126DD50E222E75058
:102120000201806F8051FC6A26EEE6F010EE3BF073
:10213000DE50E126DD50E222E750D8B4A2EF10F0E5
:10214000A4EF10F02DEF11F0050026EEE6F010EEF2
:102150003BF0DE50E126DD50E222E70626EEE6F017
:1021600010EE3BF0DE50E126DD50E222E7500201A6
:10217000806F8051030DF3CF81F2F4CF82F226EE0F
:10218000E6F0DECF83F2DDCF84F281518325856FC7
:1021900082518421866F170E8525D96E000E862107
:1021A000DA6EDF50FD6E26EEE6F010EE3BF0DE500C
:1021B000E126DD50E222E750806F8051030DF3CF1E
:1021C00081F2F4CF82F226EEE6F0DECF83F2DDCFAD
:1021D00084F281518325856F82518421866F180E88
:1021E0008525D96E000E8621DA6EDF50FE6E26EE52
:1021F000E6F010EE3BF0DE50E126DD50E222E75043
:10220000806F8051030DF3CF81F2F4CF82F226EE7E
:10221000E6F0DECF83F2DDCF84F281518325856F36
:1022200082518421866F190E8525D96E000E862174
:10223000DA6EDF50FF6E26EEE6F010EE3BF0DE5079
:10224000E126DD50E222E750D8A429EF11F02BEF70
:1022500011F0A4EF10F072EF11F0050026EEE6F099
:1022600010EE02F0DE50E126DD50E222E750FD6E76
:1022700026EEE6F010EE02F0DE50E126DD50E2221E
:10228000E6CF80F2E5CF81F280C282F281C283F292
:102290000201846B83C282F284C283F2846B825116
:1022A000FE6E100E806F26EEE6F010EE02F0DE50AD
:1022B000E126DD50E222E6CF81F2E5CF82F281C253
:1022C00083F282C284F2856B8029866F6CEF11F0F5
:1022D000D890853384338333862F68EF11F0020161
:1022E0008351FF6E140E5C6EF28E1200DBEC19F05F
:1022F000F28E64EC19F026EEE6F010EE01F0DE50FE
:10230000E126DD50E222E750D8A489EF11F08BEFEF
:1023100011F022EF13F026EEE6F010EE01F0DE50A1
:10232000E126DD50E222020EE76E26EEE6F010EE28
:1023300008F0DE50E126DD50E222E750E06E26EEA6
:10234000E6F010EE0CF0DE50E126DD50E222E75020
:10235000EA6E26EEE6F010EE0BF0DE50E126DD50E0
:10236000E222E750E96E26EEE6F010EE0EF0DE50C7
:10237000E126DD50E222E750E26E26EEE6F010EEB6
:102380000DF0DE50E126DD50E222E750E16E26EE50
:10239000E6F010EE10F0DE50E126DD50E222E750CC
:1023A000DA6E26EEE6F010EE0FF0DE50E126DD509C
:1023B000E222E750D96E26EEE6F010EE15F0DE5080
:1023C000E126DD50E222E750FA6E26EEE6F010EE4E
:1023D00016F0DE50E126DD50E222E750FB6E26EEDD
:1023E000E6F010EE0AF0DE50E126DD50E222E75082
:1023F000F46E26EEE6F010EE09F0DE50E126DD5038
:10240000E222E750F36E26EEE6F010EE11F0DE5019
:10241000E126DD50E222E750F56E26EEE6F010EE02
:1024200013F0DE50E126DD50E222E750F76E26EE93
:10243000E6F010EE12F0DE50E126DD50E222E75029
:10244000F66E26EEE6F010EE14F0DE50E126DD50DA
:10245000E222E750F86E26EEE6F010EE07F0DE50CE
:10246000E126DD50E222E750D86E26EEE6F010EECF
:1024700006F0DE50E126DD50E222E75003010A6F4C
:102480000A51FC6A26EEE6F010EE3BF0DE50E12643
:10249000DD50E222E750D8B450EF12F052EF12F0C4
:1024A000DBEF12F0050026EEE6F010EE3BF0DE501A
:1024B000E126DD50E222E70626EEE6F010EE3BF0E4
:1024C000DE50E126DD50E222E75003010A6F0A5197
:1024D000030DF3CF0BF3F4CF0CF326EEE6F0DECFD3
:1024E0000DF3DDCF0EF30B510D250F6F0C510E21A7
:1024F000106F170E0F25D96E000E1021DA6EDF5007
:10250000FD6E26EEE6F010EE3BF0DE50E126DD50EB
:10251000E222E7500A6F0A51030DF3CF0BF3F4CF19
:102520000CF326EEE6F0DECF0DF3DDCF0EF30B510C
:102530000D250F6F0C510E21106F180E0F25D96E3F
:10254000000E1021DA6EDF50FE6E26EEE6F010EE81
:102550003BF0DE50E126DD50E222E7500A6F0A51DF
:10256000030DF3CF0BF3F4CF0CF326EEE6F0DECF42
:102570000DF3DDCF0EF30B510D250F6F0C510E2116
:10258000106F190E0F25D96E000E1021DA6EDF5074
:10259000FF6E26EEE6F010EE3BF0DE50E126DD5059
:1025A000E222E750D8A4D7EF12F0D9EF12F052EFA1
:1025B00012F020EF13F0050026EEE6F010EE02F028
:1025C000DE50E126DD50E222E750FD6E26EEE6F019
:1025D00010EE02F0DE50E126DD50E222E6CF0AF3F3
:1025E000E5CF0BF30AC30CF30BC30DF303010E6B22
:1025F0000DC30CF30EC30DF30E6B0C51FE6E100EDB
:102600000A6F26EEE6F010EE02F0DE50E126DD5015
:10261000E222E6CF0BF3E5CF0CF30BC30DF30CC3B3
:102620000EF30F6B0A29106F1AEF13F0D8900F33C7
:102630000E330D33102F16EF13F003010D51FF6E03
:10264000140E5C6E1200566A556A546A5EEF13F0FF
:1026500054503C0D420EF324D96E050EF420DA6E70
:10266000DF50D8A436EF13F038EF13F05DEF13F01E
:102670005550D8B43EEF13F040EF13F051EF13F084
:1026800054503C0D460EF324D96E050EF420DA6E3C
:10269000DE50565CD8B04FEF13F051EF13F05DEF02
:1026A00013F054503C0D460EF324D96E050EF42061
:1026B000DA6EDF50566E010E556E542A26EEE5F0A6
:1026C000DE50545CD8A067EF13F069EF13F028EFE9
:1026D00013F05550D8A46FEF13F071EF13F074EFAF
:1026E00013F0000EBBEF13F0E8C653F0546AAEEFE0
:1026F00013F0535054240301006F016B0137E5C6FA
:1027000006F30651026F036B7FEC15F003010051D5
:10271000526E52503C0D420EF324D96E050EF42039
:10272000DA6EDF50D8A497EF13F099EF13F0ADEF06
:1027300013F052503C0D460EF324D96E050EF420D2
:10274000DA6E5650DE18D8A4A8EF13F0AAEF13F0F3
:10275000ADEF13F05250BBEF13F0542A26EEE5F024
:10276000DE50545CD8A0B7EF13F0B9EF13F079EF57
:1027700013F071EF13F01200566A556A546AF7EFBE
:1027800013F054503C0D420EF324D96E050EF42084
:10279000DA6EDF50D8A4CFEF13F0D1EF13F0F6EFDD
:1027A00013F05550D8B4D7EF13F0D9EF13F0EAEF88
:1027B00013F054503C0D460EF324D96E050EF42050
:1027C000DA6EDE50565CD8B0E8EF13F0EAEF13F0A3
:1027D000F6EF13F054503C0D460EF324D96E050E5F
:1027E000F420DA6EDF50566E010E556E542A26EE36
:1027F000E5F0DE50545CD8A000EF14F002EF14F0C6
:10280000C1EF13F05550D8A408EF14F00AEF14F0FC
:102810000DEF14F0000E54EF14F0E8C653F0546AB4
:1028200047EF14F0535054240201766F776B7737DB
:10283000E5C67CF27C51786F796BD7EC15F002011C
:102840007651526E52503C0D420EF324D96E050E55
:10285000F420DA6EDF50D8A430EF14F032EF14F029
:1028600046EF14F052503C0D460EF324D96E050E7F
:10287000F420DA6E5650DE18D8A441EF14F043EF7E
:1028800014F046EF14F0525054EF14F0542A26EE90
:10289000E5F0DE50545CD8A050EF14F052EF14F085
:1028A00012EF14F00AEF14F01200566A556A546AD7
:1028B00090EF14F054503C0D420EF324D96E050EE7
:1028C000F420DA6EDF50D8A468EF14F06AEF14F049
:1028D0008FEF14F05550D8B470EF14F072EF14F07D
:1028E00083EF14F054503C0D460EF324D96E050EC0
:1028F000F420DA6EDE50565CD8B081EF14F083EF2E
:1029000014F08FEF14F054503C0D460EF324D96EA2
:10291000050EF420DA6EDF50566E010E556E542A05
:1029200026EEE5F0DE50545CD8A099EF14F09BEF52
:1029300014F05AEF14F05550D8A4A1EF14F0A3EFFF
:1029400014F0A6EF14F0000EEBEF14F0E8C653F00D
:10295000546ADEEF14F053505424026E036A0336B7
:10296000E5C608F00850046E056A2FEC16F0025018
:10297000526E52503C0D420EF324D96E050EF420D7
:10298000DA6EDF50D8A4C7EF14F0C9EF14F0DDEF12
:1029900014F052503C0D460EF324D96E050EF4206F
:1029A000DA6E5650DE18D8A4D8EF14F0DAEF14F02F
:1029B000DDEF14F05250EBEF14F0542A26EEE5F060
:1029C000DE50545CD8A0E7EF14F0E9EF14F0ABEF61
:1029D00014F0A3EF14F01200F29E29C1D9FF2AC10E
:1029E000DAFFDF50D8B4F7EF14F0F9EF14F07DEF11
:1029F00015F0E6C6D9FFE7C6DAFF010110EE01F0D7
:102A00002951E1262A51E222DE50E618D8A40BEF24
:102A100015F00DEF15F07DEF15F020EE0AF02951BD
:102A2000D9262A51DA22DF50D8B419EF15F01BEF5E
:102A300015F071EF15F020EE09F02951D9262A5131
:102A4000DA22DF502B6F2B5129252C6F000E2A2103
:102A50002D6F020E2C25D96E000E2D21DA6EDF505F
:102A60002E6F2E513C0D420EF324D96E050EF4202C
:102A7000DA6EDF6A20EE09F02951D9262A51DA22CE
:102A800010EE09F02951E1262A51E222E7502B6F7E
:102A9000010E2B250201766F776B000E7723796B81
:102AA000060E786FD7EC15F002017651DF6E01014A
:102AB00020EE0AF02951D9262A51DA22DF062E51BA
:102AC0003C0D410EF324D96E050EF420DA6E10EEA3
:102AD00001F02951E1262A51E222DFCFE7FF7DEF05
:102AE00015F029C1D9FF2AC1DAFFDF6A20EE0AF00A
:102AF0002951D9262A51DA22DF6AF28E1200030107
:102B0000056B01BF88EF15F086EF15F08EEF15F01D
:102B1000006D011FD8B0012B010E056F03BF95EFAB
:102B200015F093EF15F099EF15F0026D031FD8B073
:102B3000032B02510311D8B4A0EF15F0A2EF15F04A
:102B4000C6EF15F0010E046FAAEF15F0D89002370A
:102B50000337042B03AFAFEF15F0B1EF15F0A6EF7D
:102B600015F00251005D03510159D8A0BAEF15F0DC
:102B7000BCEF15F0C0EF15F00251005F0351015B8F
:102B8000D89003330233042FB1EF15F00551D8B4B8
:102B9000CCEF15F0CEEF15F0D2EF15F0006D011F60
:102BA000D8B0012B00C300F301C301F312000201EE
:102BB0007B6B77BFE0EF15F0DEEF15F0E6EF15F079
:102BC000766D771FD8B0772B010E7B6F79BFEDEF55
:102BD00015F0EBEF15F0F1EF15F0786D791FD8B027
:102BE000792B78517911D8B4F8EF15F0FAEF15F088
:102BF0001EEF16F0010E7A6F02EF16F0D8907837BC
:102C000079377A2B79AF07EF16F009EF16F0FEEF60
:102C100015F07851765D79517759D8A012EF16F0FA
:102C200014EF16F018EF16F07851765F7951775B54
:102C3000D890793378337A2F09EF16F07B51D8B4D6
:102C400024EF16F026EF16F02AEF16F0766D771FB8
:102C5000D8B0772B76C276F277C277F21200076A85
:102C600003BE37EF16F035EF16F03DEF16F0026CAD
:102C7000031ED8B0032A010E076E05BE44EF16F0FE
:102C800042EF16F048EF16F0046C051ED8B0052A86
:102C900004500510D8B44FEF16F051EF16F075EF51
:102CA00016F0010E066E59EF16F0D8900436053670
:102CB000062A05AE5EEF16F060EF16F055EF16F03F
:102CC0000450025C05500358D8A069EF16F06BEF72
:102CD00016F06FEF16F00450025E0550035AD890BC
:102CE00005320432062E60EF16F00750D8B47BEFA1
:102CF00016F07DEF16F081EF16F0026C031ED8B0CF
:102D0000032A02C002F003C003F01200F29E1FC1AA
:102D1000D9FF20C1DAFFDF2A1FC1D9FF20C1DAFFA6
:102D2000DF50D8A496EF16F098EF16F0D5EF16F016
:102D3000010120EE08F01F51D9262051DA22DF5080
:102D4000216F21511F25226F000E2021236F010EBC
:102D50002225D96E000E2321DA6EDF50246F245114
:102D60003C0D420EF324D96E050EF420DA6EDF6AB4
:102D700020EE08F01F51D9262051DA2210EE08F07B
:102D80001F51E1262051E222E750216F010E21253B
:102D90000201766F776B000E7723796B060E786FE2
:102DA000D7EC15F002017651DF6EF28E12000301AE
:102DB000046F04C305F30301096B02C30AF300C3E4
:102DC00007F301C308F3066B0D6B116B106B136BEC
:102DD000126B156B146B1A6B1B6B0F6B0E6B0C6B02
:102DE000166B186B176B196B0B6B406B26EEE5F0CF
:102DF000060EDF60FEEF16F000EF17F016EF17F08B
:102E000023EE05F0E5C603F303513C0D410EF32418
:102E1000E16E050EF420E26E3B0EDBCFE3FFE80629
:102E2000FCE2E5C6E8FF010FE8CFE5F61200066E0A
:102E300006C007F00B6A04C00CF002C009F003C022
:102E40000AF0086A0F6A136A126A156A146A176A26
:102E5000166A1C6A1D6A116A106A0E6A186A1A6A72
:102E6000196A1B6A0D6A426A26EEE5F0060EDF60FB
:102E70003CEF17F03EEF17F054EF17F020EE07F09D
:102E8000E5C605F005503C0D410EF324E16E050E3C
:102E9000F420E26E3B0EDBCFE3FFE806FCE2E5C682
:102EA000E8FF010FE8CFE5F6120025C186F00F0E0E
:102EB0000001862786C029F101012A6BE9EC19F08F
:102EC00001012551D96EDA6A050ED926DF500001BD
:102ED000866F0101255100018625D96EDA6A26C167
:102EE000E1FF27C1E2FFDFCFE7FF01012551D96EE6
:102EF000DA6A050ED9262551E16EE26A050EE12651
:102F0000E7500001866F8629030BDF6E25C186F02E
:102F1000060E862786C01FF10101206B86EC16F095
:102F2000120080C082F0060E0001822782C029F1C3
:102F300001012A6BE9EC19F000018051D96EDA6ABF
:102F4000040ED926DF50826F80518225D96EDA6A4D
:102F500081C0DFFF8051D96EDA6A040ED926805114
:102F6000E16EE26A040EE126E750826F8229030BCC
:102F7000DF6E80C082F00F0E822782C01FF1010138
:102F8000206B86EC16F01200D5EC18F00E0E030143
:102F9000006F320E016F030E026F020ED7EC16F0B7
:102FA0006E0E0301006F320E016F020E026F030EF0
:102FB000D7EC16F0400E0301006F300E016F020EC9
:102FC000026F040ED7EC16F0DC0E0301006F310E19
:102FD000016F040E026F050ED7EC16F076EC11F0BF
:102FE000F0EF17F09EEF03F0F00EF66E330EF76E73
:102FF000000EF86E0900F5CF5CF003EE41F013EE21
:10300000A8F0EE6AE550E150FCE1E250FAE101EE91
:1030100032F0150EEE6AE806FDE100EE60F0180EE3
:10302000EE6AE806FDE100EE52F00A0EEE6AE806EE
:10303000FDE101900192000EF86E0001C4EF17F05F
:103040003E0E0101296F010E2A6FE9EC19F0330ED3
:103050000101296F010E2A6F01EC08F001013251C4
:103060000201616F626BD89061376237D890613727
:10307000623761C229F162C22AF11FEC19F0330EE6
:103080000101296F010E2A6FECEC14F020EF18F00B
:103090001200956A0F0139919380949C949E9590AB
:1030A00095923B913A9D3A9FF288F19CF292A3EC63
:1030B00019F0F1EC19F0600E0301036F71EC18F0D8
:1030C000330E0301006F010E016F96EC18F03E0EF7
:1030D0000301006F010E016F000E026F4EEC19F03C
:1030E000120003010351D96EDA6A040ED926DF6A91
:1030F0000351D96EDA6A050ED926DF6A03C304F3D9
:10310000060E042704C300F3016B040E026F4EEC9D
:1031100019F003C304F30F0E0301042704C300F3E3
:10312000016B000E026F4EEC19F0120000C3D9FFC4
:1031300001C3DAFFDF6A030120EE01F00051D92656
:103140000151DA22DF6A20EE08F00051D926015140
:10315000DA22DF6A20EE09F00051D9260151DA2285
:10316000DF6A20EE0AF00051D9260151DA22DF6A27
:1031700012000001846F84C082F000018247824700
:10318000C2508219830B8219C26EC282C2B2CBEFC7
:1031900018F0CDEF18F0C6EF18F0C4500001826FA0
:1031A000C350806F82C081F01200000EE8CFE5F6B8
:1031B000410EE8CFE6F6050EE8CFE7F6000EE8CFC1
:1031C000E8F6F20E0301006F320E016F000E026F7F
:1031D000010ED7EC16F049EC18F012008CBEF3EF9C
:1031E00018F0F6EF18F0010EF7EF18F0000EFF0AD6
:1031F0000201756F753375338C5075197F0B751916
:103200008C6E0A0E6CEC0EF0EEEF18F01200000E51
:10321000B9EC18F00001D89081338033D890813315
:1032200080338051856F600E806F85C081F091EC96
:1032300017F00A0E6CEC0EF007EF19F0120029C11E
:103240002BF12AC12CF10101D8902C332B33D890CB
:103250002C332B332B51BE6E29C12BF1030E2B17B0
:103260002B3BBD502B19CF0B2B19BD6E1200600EDE
:103270000101256F280E266F010E276F55EC17F000
:1032800028C132F128C18CFF3E0E01011F6F010ED3
:10329000206F86EC16F037EF19F0120000C3D9FF4B
:1032A00001C3DAFF02C3DFFF030120EE07F0005184
:1032B000D9260151DA22DF6A20EE08F00051D92622
:1032C0000151DA22DF6A120023EC13F00301076FC9
:1032D00007C3E8F6E8C607F307513C0D410EF32497
:1032E000086F050EF420096F08C3E6F609C3E7F678
:1032F0001200949082B07FEF19F082EF19F0010E66
:1033000083EF19F0000EFF0A0001786F82507819E0
:10331000FE0B7819826E7AEF19F01200BCEC13F0F4
:1033200002017D6F7DC2E8F6E8C67DF27D513C0D5D
:10333000410EF3247E6F050EF4207F6F7EC2E6F609
:103340007FC2E7F61200830EC216F30EC116FC0E02
:10335000C116C08EC050C70B3009C06EC050F80BEC
:103360000409C06E92800F013881C280120055ECB2
:1033700014F0096E09C0E8F6E8C609F009503C0DE2
:10338000410EF3240A6E050EF4200B6E0AC0E6F619
:103390000BC0E7F6120083820A0E6CEC0EF08392EB
:1033A000000E0201806F000E816F010E5BEC0BF0CE
:1033B000D0EF19F01200F28AF294D58CD59AD596F6
:1033C000070ED512D58ED76A000ED66EF28EF28C0D
:1033D0001200F29E29C1D9FF2AC1DAFFDF06F28E60
:1033E0001200BB680C0EBD6E040EBA6E94941200EF
:0133F00014C8
:00000001FF
