:040000008DEF03F08D
:100008000182E1CF3CF0E2CF3DF0D9CF3EF0DACF2C
:100018003FF0F3CF40F0F4CF41F0F2A416EF00F038
:1000280018EF00F07FEF03F0F294436A000E426E7F
:100038006EEF00F0750E4202F3CF35F0F4CF36F0D4
:100048004302F3503626DD0E3524D96E020E3620D3
:10005800DA6EDF50D8B433EF00F035EF00F06CEF14
:1000680000F0750E4202F3CF35F0F4CF36F04302BC
:10007800F3503626DD0E3524D96E020E3620DA6EA0
:10008800DF06750E4202F3CF35F0F4CF36F04302A7
:10009800F3503626DD0E3524D96E020E3620DA6E80
:1000A800DF50D8A45AEF00F05CEF00F06CEF00F0DE
:1000B800750E4202F3CF35F0F4CF36F04302F35019
:1000C8003626DA0E3524D96E020E3620DA6EDF6A4D
:1000D800424A432A24EEADF0DF50356E366A355079
:1000E800425C4350800A376E3650800A3758D8A091
:1000F80080EF00F082EF00F01EEF00F0440644505D
:10010800D8A489EF00F08BEF00F07FEF03F0140E16
:10011800446E24EEAEF010EE01F0DE50E126DD5024
:10012800E222020EE618D8A49CEF00F09EEF00F041
:10013800DAEF01F024EEAEF010EE01F0DE50E12629
:10014800DD50E222E76A24EEAEF010EE08F0DE5051
:10015800E126DD50E222E0CFE7FF24EEAEF010EE1C
:100168000CF0DE50E126DD50E222EACFE7FF24EE74
:10017800AEF010EE0BF0DE50E126DD50E222E9CFC2
:10018800E7FF24EEAEF010EE0EF0DE50E126DD5073
:10019800E222E2CFE7FF24EEAEF010EE0DF0DE50E3
:1001A800E126DD50E222E1CFE7FF24EEAEF010EECB
:1001B80010F0DE50E126DD50E222DACFE7FF24EE30
:1001C800AEF010EE0FF0DE50E126DD50E222D9CF7E
:1001D800E7FF24EEAEF010EE15F0DE50E126DD501C
:1001E800E222FACFE7FF24EEAEF010EE16F0DE5072
:1001F800E126DD50E222FBCFE7FF24EEAEF010EE61
:100208000AF0DE50E126DD50E222F4CFE7FF24EECB
:10021800AEF010EE09F0DE50E126DD50E222F3CF19
:10022800E7FF24EEAEF010EE11F0DE50E126DD50CF
:10023800E222F5CFE7FF24EEAEF010EE13F0DE5029
:10024800E126DD50E222F7CFE7FF24EEAEF010EE14
:1002580012F0DE50E126DD50E222F6CFE7FF24EE71
:10026800AEF010EE14F0DE50E126DD50E222F8CFB9
:10027800E7FF24EEAEF010EE06F0DE50E126DD508A
:10028800E222E8CFE7FF24EEAEF010EE07F0DE50F2
:10029800E126DD50E222D8CFE7FF24EEAEF010EEE3
:1002A80074F0DE50E126DD50E222E76AD2EF01F079
:1002B80024EEAEF010EE74F0DE50E126DD50E222BE
:1002C800E750356E3550030DF3CF36F0F4CF37F0E5
:1002D80024EEAEF0DECF38F0DDCF39F036503824DA
:1002E8003A6E375039203B6E170E3A24D96E000EFD
:1002F8003B20DA6EFDCFDFFF24EEAEF010EE74F097
:10030800DE50E126DD50E222E750356E3550030D10
:10031800F3CF36F0F4CF37F024EEAEF0DECF38F07E
:10032800DDCF39F0365038243A6E375039203B6EDD
:10033800180E3A24D96E000E3B20DA6EFECFDFFF8E
:1003480024EEAEF010EE74F0DE50E126DD50E2222D
:10035800E750356E3550030DF3CF36F0F4CF37F054
:1003680024EEAEF0DECF38F0DDCF39F03650382449
:100378003A6E375039203B6E190E3A24D96E000E6A
:100388003B20DA6EFFCFDFFF24EEAEF010EE74F004
:10039800DE50E126DD50E222E72A0600FC50D8A410
:1003A800D8EF01F0DAEF01F05CEF01F002EC11F0A8
:1003B80024EEAEF010EE01F0DE50E126DD50E22230
:1003C800E750D8A4EAEF01F0ECEF01F07FEF03F07B
:1003D80024EEAEF010EE01F0DE50E126DD50E22210
:1003E800020EE76E24EEAEF010EE08F0DE50E126C5
:1003F800DD50E222E750E06E24EEAEF010EE0CF095
:10040800DE50E126DD50E222E750EA6E24EEAEF03F
:1004180010EE0BF0DE50E126DD50E222E750E96EE7
:1004280024EEAEF010EE0EF0DE50E126DD50E222B2
:10043800E750E26E24EEAEF010EE0DF0DE50E1264D
:10044800DD50E222E750E16E24EEAEF010EE10F03F
:10045800DE50E126DD50E222E750DA6E24EEAEF0FF
:1004680010EE0FF0DE50E126DD50E222E750D96EA3
:1004780024EEAEF010EE15F0DE50E126DD50E2225B
:10048800E750FA6E24EEAEF010EE16F0DE50E126DC
:10049800DD50E222E750FB6E24EEAEF010EE0AF0DB
:1004A800DE50E126DD50E222E750F46E24EEAEF095
:1004B80010EE09F0DE50E126DD50E222E750F36E3F
:1004C80024EEAEF010EE11F0DE50E126DD50E2220F
:1004D800E750F56E24EEAEF010EE13F0DE50E12694
:1004E800DD50E222E750F76E24EEAEF010EE12F087
:1004F800DE50E126DD50E222E750F66E24EEAEF043
:1005080010EE14F0DE50E126DD50E222E750F86EDE
:1005180024EEAEF010EE07F0DE50E126DD50E222C8
:10052800E750D86E24EEAEF010EE06F0DE50E1266D
:10053800DD50E222E750356E3550FC6A24EEAEF00D
:1005480010EE74F0DE50E126DD50E222E750D8B418
:10055800B0EF02F0B2EF02F03AEF03F0050024EE3C
:10056800AEF010EE74F0DE50E126DD50E222E70630
:1005780024EEAEF010EE74F0DE50E126DD50E222FB
:10058800E750356E3550030DF3CF36F0F4CF37F022
:1005980024EEAEF0DECF38F0DDCF39F03650382417
:1005A8003A6E375039203B6E170E3A24D96E000E3A
:1005B8003B20DA6EDF50FD6E24EEAEF010EE74F0E4
:1005C800DE50E126DD50E222E750356E3550030D4E
:1005D800F3CF36F0F4CF37F024EEAEF0DECF38F0BC
:1005E800DDCF39F0365038243A6E375039203B6E1B
:1005F800180E3A24D96E000E3B20DA6EDF50FE6EDC
:1006080024EEAEF010EE74F0DE50E126DD50E2226A
:10061800E750356E3550030DF3CF36F0F4CF37F091
:1006280024EEAEF0DECF38F0DDCF39F03650382486
:100638003A6E375039203B6E190E3A24D96E000EA7
:100648003B20DA6EDF50FF6E24EEAEF010EE74F051
:10065800DE50E126DD50E222E750D8A436EF03F061
:1006680038EF03F0B2EF02F07DEF03F0050024EE5F
:10067800AEF010EE02F0DE50E126DD50E222E75047
:10068800FD6E24EEAEF010EE02F0DE50E126DD50F5
:10069800E222E6CF35F0E5CF36F035C037F036C088
:1006A80038F0396A38C037F039C038F0396A37500D
:1006B800FE6E100E356E24EEAEF010EE02F0DE5037
:1006C800E126DD50E222E6CF36F0E5CF37F036C03E
:1006D80038F037C039F03A6A35283B6E78EF03F0C6
:1006E800D8903A32393238323B2E74EF03F0385012
:1006F800FF6E140E446E41C0F4FF40C0F3FF3FC0CC
:10070800DAFF3EC0D9FF3DC0E2FF3CC0E1FF0192E5
:060718001100E7EF0FF0F5
:1010000000003C6EF29E24EEAEF010EE01F0DE50D9
:10101000E126DD50E222020EE618D8A412EF08F015
:1010200014EF08F051EF09F024EEAEF010EE01F0ED
:10103000DE50E126DD50E222010EE76E24EEAEF036
:1010400010EE08F0DE50E126DD50E222E0CFE7FFAF
:1010500024EEAEF010EE0CF0DE50E126DD50E22280
:10106000EACFE7FF24EEAEF010EE0BF0DE50E12603
:10107000DD50E222E9CFE7FF24EEAEF010EE0EF0F5
:10108000DE50E126DD50E222E2CFE7FF24EEAEF0B3
:1010900010EE0DF0DE50E126DD50E222E1CFE7FF59
:1010A00024EEAEF010EE10F0DE50E126DD50E2222C
:1010B000DACFE7FF24EEAEF010EE0FF0DE50E126BF
:1010C000DD50E222D9CFE7FF24EEAEF010EE15F0AE
:1010D000DE50E126DD50E222FACFE7FF24EEAEF04B
:1010E00010EE16F0DE50E126DD50E222FBCFE7FFE6
:1010F00024EEAEF010EE0AF0DE50E126DD50E222E2
:10110000F4CFE7FF24EEAEF010EE09F0DE50E1265A
:10111000DD50E222F3CFE7FF24EEAEF010EE11F047
:10112000DE50E126DD50E222F5CFE7FF24EEAEF0FF
:1011300010EE13F0DE50E126DD50E222F7CFE7FF9C
:1011400024EEAEF010EE12F0DE50E126DD50E22289
:10115000F6CFE7FF24EEAEF010EE14F0DE50E126FD
:10116000DD50E222F8CFE7FF24EEAEF010EE06F0FD
:10117000DE50E126DD50E222E8CFE7FF24EEAEF0BC
:1011800010EE07F0DE50E126DD50E222D8CFE7FF77
:1011900024EEAEF010EE74F0DE50E126DD50E222D7
:1011A000E76A49EF09F024EEAEF010EE74F0DE507D
:1011B000E126DD50E222E750356E3550030DF3CFC6
:1011C00036F0F4CF37F024EEAEF0DECF38F0DDCFDE
:1011D00039F0365038243A6E375039203B6E170EAE
:1011E0003A24D96E000E3B20DA6EFDCFDFFF24EEED
:1011F000AEF010EE74F0DE50E126DD50E222E75052
:10120000356E3550030DF3CF36F0F4CF37F024EEC2
:10121000AEF0DECF38F0DDCF39F0365038243A6EFC
:10122000375039203B6E180E3A24D96E000E3B2001
:10123000DA6EFECFDFFF24EEAEF010EE74F0DE507B
:10124000E126DD50E222E750356E3550030DF3CF35
:1012500036F0F4CF37F024EEAEF0DECF38F0DDCF4D
:1012600039F0365038243A6E375039203B6E190E1B
:101270003A24D96E000E3B20DA6EFFCFDFFF24EE5A
:10128000AEF010EE74F0DE50E126DD50E222E72AE7
:101290000600FC50D8A44FEF09F051EF09F0D3EF4E
:1012A00008F0B0C435F03550750DDD0EF324D96E5D
:1012B000020EF420DA6E3CC0DFFFEEEC10F024EEFC
:1012C000AEF010EE01F0DE50E126DD50E222E750F4
:1012D000D8A46DEF09F06FEF09F002EF0BF024EEE8
:1012E000AEF010EE01F0DE50E126DD50E222020EFB
:1012F000E76E24EEAEF010EE08F0DE50E126DD5091
:10130000E222E750E06E24EEAEF010EE0CF0DE507C
:10131000E126DD50E222E750EA6E24EEAEF010EE58
:101320000BF0DE50E126DD50E222E750E96E24EEBC
:10133000AEF010EE0EF0DE50E126DD50E222E75076
:10134000E26E24EEAEF010EE0DF0DE50E126DD5040
:10135000E222E750E16E24EEAEF010EE10F0DE5027
:10136000E126DD50E222E750DA6E24EEAEF010EE18
:101370000FF0DE50E126DD50E222E750D96E24EE78
:10138000AEF010EE15F0DE50E126DD50E222E7501F
:10139000FA6E24EEAEF010EE16F0DE50E126DD50CF
:1013A000E222E750FB6E24EEAEF010EE0AF0DE50C3
:1013B000E126DD50E222E750F46E24EEAEF010EEAE
:1013C00009F0DE50E126DD50E222E750F36E24EE14
:1013D000AEF010EE11F0DE50E126DD50E222E750D3
:1013E000F56E24EEAEF010EE13F0DE50E126DD5087
:1013F000E222E750F76E24EEAEF010EE12F0DE506F
:10140000E126DD50E222E750F66E24EEAEF010EE5B
:1014100014F0DE50E126DD50E222E750F86E24EEB3
:10142000AEF010EE07F0DE50E126DD50E222E7508C
:10143000D86E24EEAEF010EE06F0DE50E126DD5060
:10144000E222E750356E3550FC6A24EEAEF010EE25
:1014500074F0DE50E126DD50E222E750D8B433EFDD
:101460000AF035EF0AF0BDEF0AF0050024EEAEF009
:1014700010EE74F0DE50E126DD50E222E70624EEA5
:10148000AEF010EE74F0DE50E126DD50E222E750BF
:10149000356E3550030DF3CF36F0F4CF37F024EE30
:1014A000AEF0DECF38F0DDCF39F0365038243A6E6A
:1014B000375039203B6E170E3A24D96E000E3B2070
:1014C000DA6EDF50FD6E24EEAEF010EE74F0DE50FA
:1014D000E126DD50E222E750356E3550030DF3CFA3
:1014E00036F0F4CF37F024EEAEF0DECF38F0DDCFBB
:1014F00039F0365038243A6E375039203B6E180E8A
:101500003A24D96E000E3B20DA6EDF50FE6E24EED8
:10151000AEF010EE74F0DE50E126DD50E222E7502E
:10152000356E3550030DF3CF36F0F4CF37F024EE9F
:10153000AEF0DECF38F0DDCF39F0365038243A6ED9
:10154000375039203B6E190E3A24D96E000E3B20DD
:10155000DA6EDF50FF6E24EEAEF010EE74F0DE5067
:10156000E126DD50E222E750D8A4B9EF0AF0BBEF44
:101570000AF035EF0AF000EF0BF0050024EEAEF0B4
:1015800010EE02F0DE50E126DD50E222E750FD6E63
:1015900024EEAEF010EE02F0DE50E126DD50E22245
:1015A000E6CF35F0E5CF36F035C037F036C038F04D
:1015B000396A38C037F039C038F0396A3750FE6EB2
:1015C000100E356E24EEAEF010EE02F0DE50E12685
:1015D000DD50E222E6CF36F0E5CF37F036C038F006
:1015E00037C039F03A6A35283B6EFBEF0AF0D890E5
:1015F0003A32393238323B2EF7EF0AF03850FF6E6C
:10160000140E446EF28E12003BEC11F0C4EC10F09C
:1016100024EEAEF010EE01F0DE50E126DD50E222C5
:10162000E750D8A416EF0BF018EF0BF0AFEF0CF06B
:1016300024EEAEF010EE01F0DE50E126DD50E222A5
:10164000020EE76E24EEAEF010EE08F0DE50E1265A
:10165000DD50E222E750E06E24EEAEF010EE0CF02A
:10166000DE50E126DD50E222E750EA6E24EEAEF0D5
:1016700010EE0BF0DE50E126DD50E222E750E96E7D
:1016800024EEAEF010EE0EF0DE50E126DD50E22248
:10169000E750E26E24EEAEF010EE0DF0DE50E126E3
:1016A000DD50E222E750E16E24EEAEF010EE10F0D5
:1016B000DE50E126DD50E222E750DA6E24EEAEF095
:1016C00010EE0FF0DE50E126DD50E222E750D96E39
:1016D00024EEAEF010EE15F0DE50E126DD50E222F1
:1016E000E750FA6E24EEAEF010EE16F0DE50E12672
:1016F000DD50E222E750FB6E24EEAEF010EE0AF071
:10170000DE50E126DD50E222E750F46E24EEAEF02A
:1017100010EE09F0DE50E126DD50E222E750F36ED4
:1017200024EEAEF010EE11F0DE50E126DD50E222A4
:10173000E750F56E24EEAEF010EE13F0DE50E12629
:10174000DD50E222E750F76E24EEAEF010EE12F01C
:10175000DE50E126DD50E222E750F66E24EEAEF0D8
:1017600010EE14F0DE50E126DD50E222E750F86E74
:1017700024EEAEF010EE07F0DE50E126DD50E2225E
:10178000E750D86E24EEAEF010EE06F0DE50E12603
:10179000DD50E222E75000016F6F6F51FC6A24EECA
:1017A000AEF010EE74F0DE50E126DD50E222E7509C
:1017B000D8B4DDEF0BF0DFEF0BF068EF0CF00500B5
:1017C00024EEAEF010EE74F0DE50E126DD50E222A1
:1017D000E70624EEAEF010EE74F0DE50E126DD50A8
:1017E000E222E75000016F6F6F51030DF3CF70F0ED
:1017F000F4CF71F024EEAEF0DECF72F0DDCF73F0F7
:1018000070517225746F71517321756F170E7425A5
:10181000D96E000E7521DA6EDF50FD6E24EEAEF04B
:1018200010EE74F0DE50E126DD50E222E7506F6FDB
:101830006F51030DF3CF70F0F4CF71F024EEAEF0E2
:10184000DECF72F0DDCF73F070517225746F71517D
:101850007321756F180E7425D96E000E7521DA6E1E
:10186000DF50FE6E24EEAEF010EE74F0DE50E12696
:10187000DD50E222E7506F6F6F51030DF3CF70F030
:10188000F4CF71F024EEAEF0DECF72F0DDCF73F066
:1018900070517225746F71517321756F190E742513
:1018A000D96E000E7521DA6EDF50FF6E24EEAEF0B9
:1018B00010EE74F0DE50E126DD50E222E750D8A4AD
:1018C00064EF0CF066EF0CF0DFEF0BF0ADEF0CF017
:1018D000050024EEAEF010EE02F0DE50E126DD5001
:1018E000E222E750FD6E24EEAEF010EE02F0DE5084
:1018F000E126DD50E222E6CF6FF0E5CF70F06FC059
:1019000071F070C072F00001736B72C071F073C03F
:1019100072F0736B7151FE6E100E6F6F24EEAEF0AD
:1019200010EE02F0DE50E126DD50E222E6CF70F04C
:10193000E5CF71F070C072F071C073F0746B6F29F5
:10194000756FA7EF0CF0D890743373337233752F23
:10195000A3EF0CF000017251FF6E140E446EF28E74
:1019600012000001676B686B6B6BEDEF0CF06B5155
:10197000750DDA0EF324D96E020EF420DA6EDF5004
:10198000D8A4C5EF0CF0C7EF0CF0ECEF0CF06851E9
:10199000D8B4CDEF0CF0CFEF0CF0E0EF0CF06B51C2
:1019A000750DDE0EF324D96E020EF420DA6EDE50D1
:1019B000675DD8B0DEEF0CF0E0EF0CF0ECEF0CF070
:1019C0006B51750DDE0EF324D96E020EF420DA6E23
:1019D000DF50676F010E686F6B2B24EEADF0DE50A9
:1019E0006B5DD8A0F6EF0CF0F8EF0CF0B7EF0CF051
:1019F0006851D8A4FEEF0CF000EF0DF003EF0DF0EE
:101A0000000E49EF0DF0B0C466F0696B3CEF0DF0CD
:101A100066516925606F616B6137ADC43FF03F501F
:101A2000626F636B78EC0EF0000160516A6F6A516F
:101A3000750DDA0EF324D96E020EF420DA6EDF5043
:101A4000D8A425EF0DF027EF0DF03BEF0DF06A5114
:101A5000750DDE0EF324D96E020EF420DA6E675196
:101A6000DE18D8A436EF0DF038EF0DF03BEF0DF097
:101A70006A5149EF0DF0692B24EEADF0DE50695D3F
:101A8000D8A045EF0DF047EF0DF008EF0DF000EF97
:101A90000DF012002D6A2E6A316A85EF0DF031507B
:101AA000750DDA0EF324D96E020EF420DA6EDF50D3
:101AB000D8A45DEF0DF05FEF0DF084EF0DF02E5028
:101AC000D8B465EF0DF067EF0DF078EF0DF0315001
:101AD000750DDE0EF324D96E020EF420DA6EDE50A0
:101AE0002D5CD8B076EF0DF078EF0DF084EF0DF0AF
:101AF0003150750DDE0EF324D96E020EF420DA6E2D
:101B0000DF502D6E010E2E6E312A24EEADF0DE5028
:101B1000315CD8A08EEF0DF090EF0DF04FEF0DF08F
:101B20002E50D8A496EF0DF098EF0DF09BEF0DF02E
:101B3000000EE0EF0DF0B0C42CF02F6AD3EF0DF0E3
:101B40002C502F24256E266A2636ADC42BF02B5040
:101B5000276E286AD0EC0EF02550306E3050750D8F
:101B6000DA0EF324D96E020EF420DA6EDF50D8A418
:101B7000BCEF0DF0BEEF0DF0D2EF0DF03050750D53
:101B8000DE0EF324D96E020EF420DA6E2D50DE182C
:101B9000D8A4CDEF0DF0CFEF0DF0D2EF0DF0305017
:101BA000E0EF0DF02F2A24EEADF0DE502F5CD8A030
:101BB000DCEF0DF0DEEF0DF0A0EF0DF098EF0DF083
:101BC00012002D6A2E6A316A1CEF0EF03150750D2D
:101BD000DA0EF324D96E020EF420DA6EDF50D8A4A8
:101BE000F4EF0DF0F6EF0DF01BEF0EF02E50D8B421
:101BF000FCEF0DF0FEEF0DF00FEF0EF03150750D14
:101C0000DE0EF324D96E020EF420DA6EDE502D5C67
:101C1000D8B00DEF0EF00FEF0EF01BEF0EF03150BD
:101C2000750DDE0EF324D96E020EF420DA6EDF504D
:101C30002D6E010E2E6E312A24EEADF0DE50315C99
:101C4000D8A025EF0EF027EF0EF0E6EF0DF02E50A6
:101C5000D8A42DEF0EF02FEF0EF032EF0EF0000EA5
:101C600077EF0EF0B0C42CF02F6A6AEF0EF02C5014
:101C70002F24256E266A2636ADC42BF02B50276EF6
:101C8000286A27EC0FF02550306E3050750DDA0EB3
:101C9000F324D96E020EF420DA6EDF50D8A453EF8D
:101CA0000EF055EF0EF069EF0EF03050750DDE0EB0
:101CB000F324D96E020EF420DA6E2D50DE18D8A46B
:101CC00064EF0EF066EF0EF069EF0EF0305077EF34
:101CD0000EF02F2A24EEADF0DE502F5CD8A073EF6B
:101CE0000EF075EF0EF037EF0EF02FEF0EF0120042
:101CF0000001656B61BF81EF0EF07FEF0EF087EFA3
:101D00000EF0606D611FD8B0612B010E656F63BF6F
:101D10008EEF0EF08CEF0EF092EF0EF0626D631FFF
:101D2000D8B0632B62516311D8B499EF0EF09BEFDA
:101D30000EF0BFEF0EF0010E646FA3EF0EF0D8901F
:101D400062376337642B63AFA8EF0EF0AAEF0EF093
:101D50009FEF0EF06251605D63516159D8A0B3EFFF
:101D60000EF0B5EF0EF0B9EF0EF06251605F635107
:101D7000615BD89063336233642FAAEF0EF0655134
:101D8000D8B4C5EF0EF0C7EF0EF0CBEF0EF0606DDC
:101D9000611FD8B0612B60C060F061C061F01200BB
:101DA0002A6A26BED8EF0EF0D6EF0EF0DEEF0EF068
:101DB000256C261ED8B0262A010E2A6E28BEE5EF15
:101DC0000EF0E3EF0EF0E9EF0EF0276C281ED8B00E
:101DD000282A27502810D8B4F0EF0EF0F2EF0EF0BA
:101DE00016EF0FF0010E296EFAEF0EF0D89027369D
:101DF0002836292A28AEFFEF0EF001EF0FF0F6EF9C
:101E00000EF02750255C28502658D8A00AEF0FF076
:101E10000CEF0FF010EF0FF02750255E2850265AD8
:101E2000D89028322732292E01EF0FF02A50D8B44B
:101E30001CEF0FF01EEF0FF022EF0FF0256C261EA7
:101E4000D8B0262A25C025F026C026F012002A6A1E
:101E500026BE2FEF0FF02DEF0FF035EF0FF0256CB2
:101E6000261ED8B0262A010E2A6E28BE3CEF0FF09F
:101E70003AEF0FF040EF0FF0276C281ED8B0282A59
:101E800027502810D8B447EF0FF049EF0FF06DEF4F
:101E90000FF0010E296E51EF0FF0D890273628363B
:101EA000292A28AE56EF0FF058EF0FF04DEF0FF044
:101EB0002750255C28502658D8A061EF0FF063EF1B
:101EC0000FF067EF0FF02750255E2850265AD89064
:101ED00028322732292E58EF0FF02A50D8B473EF4A
:101EE0000FF075EF0FF079EF0FF0256C261ED8B0CC
:101EF000262A25C025F026C026F012000001636FB7
:101F000063C064F00001686B62C069F060C066F095
:101F100061C067F0656B6C6B706B6F6B726B716B34
:101F2000746B736B796B7A6B6E6B6D6B6B6B756BC4
:101F3000776B766B786B6A6BD86B20EE64F0ADC410
:101F40003FF03F50750DD90EF324E16E020EF420E0
:101F5000E26E740EDBCFE3FFE806FCE2ADC4E8FFFF
:101F6000010FE8CFADF41200D90E0001606F000E32
:101F7000616F010E636F6269635109E1800E625DFA
:101F8000D8A0C5EF0FF0C7EF0FF0D9EF0FF060C08A
:101F9000D9FF61C0DAFF7F0EDF6E7F0E6027000E73
:101FA0006123810E6225626FFF0E6321636FBCEFB8
:101FB0000FF060C0D9FF61C0DAFF62C0DFFF62517D
:101FC0006025D96E63516121DA6EDF6A1200920ECC
:101FD000F66E220EF76E000EF86E0900F5CF44F093
:101FE00000EED9F013EED8F0EE6AE550E150FCE1D6
:101FF000E250FAE100EE02F0230EEE6AE806FDE19F
:1020000001900192000EF86E000129EF11F03F508F
:10201000D96EDA6A040ED926DF6A3F50D96EDA6AC1
:10202000050ED926DF6A3F50060F0001606F040ECF
:10203000616FACEC10F03F500D0F0001606F000EAF
:10204000616FACEC10F012003F50D96EDA6ADF6AB3
:102050003F50D96EDA6A010ED926DF6A3F50D96E39
:10206000DA6A050ED926DF6A3F50D96EDA6A060EA3
:10207000D926DF6A3F50D96EDA6A070ED926DF6AA1
:102080001200000E93EC10F025C03DF026C03EF08B
:102090003E5009E1650E3D5CD8A051EF10F053EFC2
:1020A00010F056EF10F0838057EF10F083900A0E77
:1020B00001EC08F041EF10F01200000EE8CFADF493
:1020C000D90EE8CFAEF4020EE8CFAFF4000EE8CFA1
:1020D000B0F4B4EC0FF0B20E0001606F210E616F2E
:1020E000000E626F010E7EEC0FF078EC10F0120023
:1020F000949C949E95900F013B913A9D3A9F1E0EA1
:102100000001606F000E616FACEC10F0020E3F6ECC
:1021100007EC10F0160E3F6E24EC10F016EC11F0E8
:1021200047EC11F01200296E29C027F027462746F8
:10213000C2502718830B2718C26EC282C2B2A3EF07
:1021400010F0A5EF10F09EEF10F0C450276EC350B2
:10215000256E27C026F0120000016151626F636B8B
:102160006051D96EDA6A62C0DEFF63C0DDFF605184
:10217000D96EDA6A050ED926DF6A6051D96EDA6A3D
:10218000060ED926DF6A1200B1EC0CF000016C6F6C
:102190006CC0B0F4B0C46CF06C51750DD90EF32462
:1021A0006D6F020EF4206E6F6DC0AEF46EC0AFF4B2
:1021B0001200949082B0DFEF10F0E2EF10F0010E09
:1021C000E3EF10F0000EFF0A0001606F825060190B
:1021D000FE0B6019826EDAEF10F012004AEC0DF07F
:1021E000326E32C0B0F4B0C432F03250750DD90E38
:1021F000F324336E020EF420346E33C0AEF434C0D8
:10220000AFF41200E1EC0DF0326E32C0B0F4B0C4A5
:1022100032F03250750DD90EF324336E020EF420D5
:10222000346E33C0AEF434C0AFF41200830EC21665
:10223000F30EC116FC0EC116C08EC050C70B30097C
:10224000C06EC050F80B0409C06E92800F01388137
:1022500012005DEC10F0820E0001606F200E616FC5
:10226000050E626F020E7EEC0FF004EC0BF037EF00
:1022700011F08DEF03F0F28AF294D58CD59AD596B1
:10228000070ED512D58ED76A000ED66E1200C28008
:0322900012001425
:00000001FF
