:040000008DEF03F08D
:100008000182E1CF16F0E2CF17F0D9CF18F0DACF9E
:1000180019F0F3CF1AF0F4CF1BF0F2A416EF00F0AA
:1000280018EF00F07FEF03F0F2941D6A000E1C6ECB
:100038006EEF00F0750E1C02F3CF0FF0F4CF10F046
:100048001D02F35010267E0E0F24D96E040E1020C8
:10005800DA6EDF50D8B433EF00F035EF00F06CEF14
:1000680000F0750E1C02F3CF0FF0F4CF10F01D0254
:10007800F35010267E0E0F24D96E040E1020DA6E6F
:10008800DF06750E1C02F3CF0FF0F4CF10F01D023F
:10009800F35010267E0E0F24D96E040E1020DA6E4F
:1000A800DF50D8A45AEF00F05CEF00F06CEF00F0DE
:1000B800750E1C02F3CF0FF0F4CF10F01D02F350B1
:1000C80010267B0E0F24D96E040E1020DA6EDF6A1C
:1000D8001C4A1D2A26EE4EF0DF500F6E106A0F5094
:1000E8001C5C1D50800A116E1050800A1158D8A04F
:1000F80080EF00F082EF00F01EEF00F0250625509B
:10010800D8A489EF00F08BEF00F07FEF03F0050E25
:10011800256E26EE4FF010EE01F0DE50E126DD50A0
:10012800E222020EE618D8A49CEF00F09EEF00F041
:10013800DAEF01F026EE4FF010EE01F0DE50E12686
:10014800DD50E222E76A26EE4FF010EE08F0DE50AE
:10015800E126DD50E222E0CFE7FF26EE4FF010EE79
:100168000CF0DE50E126DD50E222EACFE7FF26EE72
:100178004FF010EE0BF0DE50E126DD50E222E9CF21
:10018800E7FF26EE4FF010EE0EF0DE50E126DD50D0
:10019800E222E2CFE7FF26EE4FF010EE0DF0DE5040
:1001A800E126DD50E222E1CFE7FF26EE4FF010EE28
:1001B80010F0DE50E126DD50E222DACFE7FF26EE2E
:1001C8004FF010EE0FF0DE50E126DD50E222D9CFDD
:1001D800E7FF26EE4FF010EE15F0DE50E126DD5079
:1001E800E222FACFE7FF26EE4FF010EE16F0DE50CF
:1001F800E126DD50E222FBCFE7FF26EE4FF010EEBE
:100208000AF0DE50E126DD50E222F4CFE7FF26EEC9
:100218004FF010EE09F0DE50E126DD50E222F3CF78
:10022800E7FF26EE4FF010EE11F0DE50E126DD502C
:10023800E222F5CFE7FF26EE4FF010EE13F0DE5086
:10024800E126DD50E222F7CFE7FF26EE4FF010EE71
:1002580012F0DE50E126DD50E222F6CFE7FF26EE6F
:100268004FF010EE14F0DE50E126DD50E222F8CF18
:10027800E7FF26EE4FF010EE06F0DE50E126DD50E7
:10028800E222E8CFE7FF26EE4FF010EE07F0DE504F
:10029800E126DD50E222D8CFE7FF26EE4FF010EE40
:1002A80074F0DE50E126DD50E222E76AD2EF01F079
:1002B80026EE4FF010EE74F0DE50E126DD50E2221B
:1002C800E7500F6E0F50030DF3CF10F0F4CF11F07D
:1002D80026EE4FF0DECF12F0DDCF13F010501224CF
:1002E800146E11501320156E170E1424D96E000EBB
:1002F8001520DA6EFDCFDFFF26EE4FF010EE74F01A
:10030800DE50E126DD50E222E7500F6E0F50030D5C
:10031800F3CF10F0F4CF11F026EE4FF0DECF12F04D
:10032800DDCF13F010501224146E11501320156EE7
:10033800180E1424D96E000E1520DA6EFECFDFFFDA
:1003480026EE4FF010EE74F0DE50E126DD50E2228A
:10035800E7500F6E0F50030DF3CF10F0F4CF11F0EC
:1003680026EE4FF0DECF12F0DDCF13F0105012243E
:10037800146E11501320156E190E1424D96E000E28
:100388001520DA6EFFCFDFFF26EE4FF010EE74F087
:10039800DE50E126DD50E222E72A0600FC50D8A410
:1003A800D8EF01F0DAEF01F05CEF01F0F8EC17F0AC
:1003B80026EE4FF010EE01F0DE50E126DD50E2228D
:1003C800E750D8A4EAEF01F0ECEF01F07FEF03F07B
:1003D80026EE4FF010EE01F0DE50E126DD50E2226D
:1003E800020EE76E26EE4FF010EE08F0DE50E12622
:1003F800DD50E222E750E06E26EE4FF010EE0CF0F2
:10040800DE50E126DD50E222E750EA6E26EE4FF09C
:1004180010EE0BF0DE50E126DD50E222E750E96EE7
:1004280026EE4FF010EE0EF0DE50E126DD50E2220F
:10043800E750E26E26EE4FF010EE0DF0DE50E126AA
:10044800DD50E222E750E16E26EE4FF010EE10F09C
:10045800DE50E126DD50E222E750DA6E26EE4FF05C
:1004680010EE0FF0DE50E126DD50E222E750D96EA3
:1004780026EE4FF010EE15F0DE50E126DD50E222B8
:10048800E750FA6E26EE4FF010EE16F0DE50E12639
:10049800DD50E222E750FB6E26EE4FF010EE0AF038
:1004A800DE50E126DD50E222E750F46E26EE4FF0F2
:1004B80010EE09F0DE50E126DD50E222E750F36E3F
:1004C80026EE4FF010EE11F0DE50E126DD50E2226C
:1004D800E750F56E26EE4FF010EE13F0DE50E126F1
:1004E800DD50E222E750F76E26EE4FF010EE12F0E4
:1004F800DE50E126DD50E222E750F66E26EE4FF0A0
:1005080010EE14F0DE50E126DD50E222E750F86EDE
:1005180026EE4FF010EE07F0DE50E126DD50E22225
:10052800E750D86E26EE4FF010EE06F0DE50E126CA
:10053800DD50E222E7500F6E0F50FC6A26EE4FF0B6
:1005480010EE74F0DE50E126DD50E222E750D8B418
:10055800B0EF02F0B2EF02F03AEF03F0050026EE3A
:100568004FF010EE74F0DE50E126DD50E222E7068F
:1005780026EE4FF010EE74F0DE50E126DD50E22258
:10058800E7500F6E0F50030DF3CF10F0F4CF11F0BA
:1005980026EE4FF0DECF12F0DDCF13F0105012240C
:1005A800146E11501320156E170E1424D96E000EF8
:1005B8001520DA6EDF50FD6E26EE4FF010EE74F067
:1005C800DE50E126DD50E222E7500F6E0F50030D9A
:1005D800F3CF10F0F4CF11F026EE4FF0DECF12F08B
:1005E800DDCF13F010501224146E11501320156E25
:1005F800180E1424D96E000E1520DA6EDF50FE6E28
:1006080026EE4FF010EE74F0DE50E126DD50E222C7
:10061800E7500F6E0F50030DF3CF10F0F4CF11F029
:1006280026EE4FF0DECF12F0DDCF13F0105012247B
:10063800146E11501320156E190E1424D96E000E65
:100648001520DA6EDF50FF6E26EE4FF010EE74F0D4
:10065800DE50E126DD50E222E750D8A436EF03F061
:1006680038EF03F0B2EF02F07DEF03F0050026EE5D
:100678004FF010EE02F0DE50E126DD50E222E750A6
:10068800FD6E26EE4FF010EE02F0DE50E126DD5052
:10069800E222E6CF0FF0E5CF10F00FC011F010C046
:1006A80012F0136A12C011F013C012F0136A11503D
:1006B800FE6E100E0F6E26EE4FF010EE02F0DE50BA
:1006C800E126DD50E222E6CF10F0E5CF11F010C0B0
:1006D80012F011C013F0146A0F28156E78EF03F0AA
:1006E800D890143213321232152E74EF03F01250D0
:1006F800FF6E050E256E1BC0F4FF1AC0F3FF19C06C
:10070800DAFF18C0D9FF17C0E2FF16C0E1FF019257
:0607180011001CEF16F0B9
:101000000000F29E01017B51D96EDA6ADF50D8B43C
:101010000CEF08F00EEF08F039EF0BF026EE51F070
:101020007B51E16EE26A050EE126E7507C6F7B5151
:101030007C25E16EE26A020EE126DFCFE7FF7B51FD
:10104000D96EDA6A050ED9267B51E16EE26A050E89
:10105000E126E7507C6F010E7C256E6F6F6B000EF2
:101060006F23716B030E706F13EC14F001016E515E
:10107000DF6E7B51D96EDA6A070ED926DF2A26EE9B
:101080004FF010EE01F0DE50E126DD50E222020EBC
:10109000E618D8A44EEF08F050EF08F08EEF09F0F4
:1010A00026EE4FF010EE01F0DE50E126DD50E22298
:1010B000010EE76E26EE4FF010EE08F0DE50E1264E
:1010C000DD50E222E0CFE7FF26EE4FF010EE0CF00D
:1010D000DE50E126DD50E222EACFE7FF26EE4FF0B8
:1010E00010EE0BF0DE50E126DD50E222E9CFE7FF03
:1010F00026EE4FF010EE0EF0DE50E126DD50E2223B
:10110000E2CFE7FF26EE4FF010EE0DF0DE50E126C5
:10111000DD50E222E1CFE7FF26EE4FF010EE10F0B7
:10112000DE50E126DD50E222DACFE7FF26EE4FF077
:1011300010EE0FF0DE50E126DD50E222D9CFE7FFBE
:1011400026EE4FF010EE15F0DE50E126DD50E222E3
:10115000FACFE7FF26EE4FF010EE16F0DE50E12654
:10116000DD50E222FBCFE7FF26EE4FF010EE0AF053
:10117000DE50E126DD50E222F4CFE7FF26EE4FF00D
:1011800010EE09F0DE50E126DD50E222F3CFE7FF5A
:1011900026EE4FF010EE11F0DE50E126DD50E22297
:1011A000F5CFE7FF26EE4FF010EE13F0DE50E1260C
:1011B000DD50E222F7CFE7FF26EE4FF010EE12F0FF
:1011C000DE50E126DD50E222F6CFE7FF26EE4FF0BB
:1011D00010EE14F0DE50E126DD50E222F8CFE7FFFA
:1011E00026EE4FF010EE06F0DE50E126DD50E22252
:1011F000E8CFE7FF26EE4FF010EE07F0DE50E126D5
:10120000DD50E222D8CFE7FF26EE4FF010EE74F06B
:10121000DE50E126DD50E222E76A86EF09F026EE95
:101220004FF010EE74F0DE50E126DD50E222E75080
:1012300001017C6F7C51030DF3CF7DF1F4CF7EF182
:1012400026EE4FF0DECF7FF1DDCF80F17D517F259F
:10125000816F7E518021826F170E8125D96E000E1D
:101260008221DA6EFDCFDFFF26EE4FF010EE74F034
:10127000DE50E126DD50E222E7507C6F7C51030D09
:10128000F3CF7DF1F4CF7EF126EE4FF0DECF7FF18C
:10129000DDCF80F17D517F25816F7E518021826F6E
:1012A000180E8125D96E000E8221DA6EFECFDFFF87
:1012B00026EE4FF010EE74F0DE50E126DD50E22213
:1012C000E7507C6F7C51030DF3CF7DF1F4CF7EF1BD
:1012D00026EE4FF0DECF7FF1DDCF80F17D517F250F
:1012E000816F7E518021826F190E8125D96E000E8B
:1012F0008221DA6EFFCFDFFF26EE4FF010EE74F0A2
:10130000DE50E126DD50E222E72A0600FC50D8A498
:101310008CEF09F08EEF09F00FEF09F0CFEC17F02A
:1013200026EE4FF010EE01F0DE50E126DD50E22215
:10133000E750D8A49EEF09F0A0EF09F049EF0BF0B9
:1013400026EE4FF010EE01F0DE50E126DD50E222F5
:10135000020EE76E26EE4FF010EE08F0DE50E126AA
:10136000DD50E222E750E06E26EE4FF010EE0CF07A
:10137000DE50E126DD50E222E750EA6E26EE4FF025
:1013800010EE0BF0DE50E126DD50E222E750E96E70
:1013900026EE4FF010EE0EF0DE50E126DD50E22298
:1013A000E750E26E26EE4FF010EE0DF0DE50E12633
:1013B000DD50E222E750E16E26EE4FF010EE10F025
:1013C000DE50E126DD50E222E750DA6E26EE4FF0E5
:1013D00010EE0FF0DE50E126DD50E222E750D96E2C
:1013E00026EE4FF010EE15F0DE50E126DD50E22241
:1013F000E750FA6E26EE4FF010EE16F0DE50E126C2
:10140000DD50E222E750FB6E26EE4FF010EE0AF0C0
:10141000DE50E126DD50E222E750F46E26EE4FF07A
:1014200010EE09F0DE50E126DD50E222E750F36EC7
:1014300026EE4FF010EE11F0DE50E126DD50E222F4
:10144000E750F56E26EE4FF010EE13F0DE50E12679
:10145000DD50E222E750F76E26EE4FF010EE12F06C
:10146000DE50E126DD50E222E750F66E26EE4FF028
:1014700010EE14F0DE50E126DD50E222E750F86E67
:1014800026EE4FF010EE07F0DE50E126DD50E222AE
:10149000E750D86E26EE4FF010EE06F0DE50E12653
:1014A000DD50E222E75001017C6F7C51FC6A26EEA0
:1014B0004FF010EE74F0DE50E126DD50E222E750EE
:1014C000D8B465EF0AF067EF0AF0F0EF0AF0050014
:1014D00026EE4FF010EE74F0DE50E126DD50E222F1
:1014E000E70626EE4FF010EE74F0DE50E126DD50F8
:1014F000E222E75001017C6F7C51030DF3CF7DF1B7
:10150000F4CF7EF126EE4FF0DECF7FF1DDCF80F11C
:101510007D517F25816F7E518021826F170E81253D
:10152000D96E000E8221DA6EDF50FD6E26EE4FF08E
:1015300010EE74F0DE50E126DD50E222E7507C6FC1
:101540007C51030DF3CF7DF1F4CF7EF126EE4FF009
:10155000DECF7FF1DDCF80F17D517F25816F7E5120
:101560008021826F180E8125D96E000E8221DA6EDD
:10157000DF50FE6E26EE4FF010EE74F0DE50E126E6
:10158000DD50E222E7507C6F7C51030DF3CF7DF1FB
:10159000F4CF7EF126EE4FF0DECF7FF1DDCF80F18C
:1015A0007D517F25816F7E518021826F190E8125AB
:1015B000D96E000E8221DA6EDF50FF6E26EE4FF0FC
:1015C00010EE74F0DE50E126DD50E222E750D8A4A0
:1015D000ECEF0AF0EEEF0AF067EF0AF035EF0BF0F0
:1015E000050026EE4FF010EE02F0DE50E126DD5051
:1015F000E222E750FD6E26EE4FF010EE02F0DE50D4
:10160000E126DD50E222E6CF7CF1E5CF7DF17CC121
:101610007EF17DC17FF10101806B7FC17EF180C1D0
:101620007FF1806B7E51FE6E100E7C6F26EE4FF0C8
:1016300010EE02F0DE50E126DD50E222E6CF7DF131
:10164000E5CF7EF17DC17FF17EC180F1816B7C2988
:10165000826F2FEF0BF0D890813380337F33822F4E
:101660002BEF0BF001017F51FF6E050E256E49EF48
:101670000BF07B51D96EDA6A010EDF6E4FC6D9FFCF
:1016800050C6DAFF7B51E16EE26A010EE126DFCF40
:10169000E7FFF28E1200F29E01014C51D96EDA6A18
:1016A000DE06000EDD5A4C51D96EDA6A010EDBBE41
:1016B0005EEF0BF05CEF0BF081EF0EF026EE51F0D9
:1016C0004C51E16EE26A050EE126E7504D6F4C5138
:1016D0004D25E16EE26A020EE126DFCFE7FF4C51B5
:1016E000D96EDA6A050ED9264C51E16EE26A050E12
:1016F000E126E7504D6F010E4D256E6F6F6B000EAA
:101700006F23716B030E706F13EC14F001016E51B7
:10171000DF6E26EE4FF010EE01F0DE50E126DD50D8
:10172000E222020EE618D8A498EF0BF09AEF0BF025
:10173000D8EF0CF026EE4FF010EE01F0DE50E1266F
:10174000DD50E222030EE76E26EE4FF010EE08F0B9
:10175000DE50E126DD50E222E0CFE7FF26EE4FF03B
:1017600010EE0CF0DE50E126DD50E222EACFE7FF7A
:1017700026EE4FF010EE0BF0DE50E126DD50E222B7
:10178000E9CFE7FF26EE4FF010EE0EF0DE50E12637
:10179000DD50E222E2CFE7FF26EE4FF010EE0DF033
:1017A000DE50E126DD50E222E1CFE7FF26EE4FF0EA
:1017B00010EE10F0DE50E126DD50E222DACFE7FF36
:1017C00026EE4FF010EE0FF0DE50E126DD50E22263
:1017D000D9CFE7FF26EE4FF010EE15F0DE50E126F0
:1017E000DD50E222FACFE7FF26EE4FF010EE16F0C2
:1017F000DE50E126DD50E222FBCFE7FF26EE4FF080
:1018000010EE0AF0DE50E126DD50E222F4CFE7FFD1
:1018100026EE4FF010EE09F0DE50E126DD50E22218
:10182000F3CFE7FF26EE4FF010EE11F0DE50E12689
:10183000DD50E222F5CFE7FF26EE4FF010EE13F079
:10184000DE50E126DD50E222F7CFE7FF26EE4FF033
:1018500010EE12F0DE50E126DD50E222F6CFE7FF77
:1018600026EE4FF010EE14F0DE50E126DD50E222BD
:10187000F8CFE7FF26EE4FF010EE06F0DE50E1263F
:10188000DD50E222E8CFE7FF26EE4FF010EE07F042
:10189000DE50E126DD50E222D8CFE7FF26EE4FF002
:1018A00010EE74F0DE50E126DD50E222E76AD0EF60
:1018B0000CF026EE4FF010EE74F0DE50E126DD5015
:1018C000E222E75001014D6F4D51030DF3CF4EF170
:1018D000F4CF4FF126EE4FF0DECF50F1DDCF51F1D6
:1018E0004E515025526F4F515121536F170E5225B3
:1018F000D96E000E5321DA6EFDCFDFFF26EE4FF0DA
:1019000010EE74F0DE50E126DD50E222E7504D6F1C
:101910004D51030DF3CF4EF1F4CF4FF126EE4FF0C2
:10192000DECF50F1DDCF51F14E515025526F4F5166
:101930005121536F180E5225D96E000E5321DA6EC5
:10194000FECFDFFF26EE4FF010EE74F0DE50E12602
:10195000DD50E222E7504D6F4D51030DF3CF4EF1B4
:10196000F4CF4FF126EE4FF0DECF50F1DDCF51F145
:101970004E515025526F4F515121536F190E522520
:10198000D96E000E5321DA6EFFCFDFFF26EE4FF047
:1019900010EE74F0DE50E126DD50E222E72A060068
:1019A000FC50D8A4D6EF0CF0D8EF0CF059EF0CF0A7
:1019B000CFEC17F026EE4FF010EE01F0DE50E126EE
:1019C000DD50E222E750D8A4E8EF0CF0EAEF0CF08B
:1019D00081EF0EF026EE4FF010EE01F0DE50E12622
:1019E000DD50E222020EE76E26EE4FF010EE08F018
:1019F000DE50E126DD50E222E750E06E26EE4FF0A9
:101A000010EE0CF0DE50E126DD50E222E750EA6EE7
:101A100026EE4FF010EE0BF0DE50E126DD50E22214
:101A2000E750E96E26EE4FF010EE0EF0DE50E126A4
:101A3000DD50E222E750E26E26EE4FF010EE0DF0A0
:101A4000DE50E126DD50E222E750E16E26EE4FF057
:101A500010EE10F0DE50E126DD50E222E750DA6EA3
:101A600026EE4FF010EE0FF0DE50E126DD50E222C0
:101A7000E750D96E26EE4FF010EE15F0DE50E1265D
:101A8000DD50E222E750FA6E26EE4FF010EE16F02F
:101A9000DE50E126DD50E222E750FB6E26EE4FF0ED
:101AA00010EE0AF0DE50E126DD50E222E750F46E3F
:101AB00026EE4FF010EE09F0DE50E126DD50E22276
:101AC000E750F36E26EE4FF010EE11F0DE50E126F7
:101AD000DD50E222E750F56E26EE4FF010EE13F0E7
:101AE000DE50E126DD50E222E750F76E26EE4FF0A1
:101AF00010EE12F0DE50E126DD50E222E750F66EE5
:101B000026EE4FF010EE14F0DE50E126DD50E2221A
:101B1000E750F86E26EE4FF010EE07F0DE50E126AB
:101B2000DD50E222E750D86E26EE4FF010EE06F0C0
:101B3000DE50E126DD50E222E75001014D6F4D51AC
:101B4000FC6A26EE4FF010EE74F0DE50E126DD5018
:101B5000E222E750D8B4AFEF0DF0B1EF0DF03AEF5D
:101B60000EF0050026EE4FF010EE74F0DE50E12688
:101B7000DD50E222E70626EE4FF010EE74F0DE5064
:101B8000E126DD50E222E75001014D6F4D51030D7A
:101B9000F3CF4EF1F4CF4FF126EE4FF0DECF50F100
:101BA000DDCF51F14E515025526F4F515121536F9E
:101BB000170E5225D96E000E5321DA6EDF50FD6EDE
:101BC00026EE4FF010EE74F0DE50E126DD50E222FA
:101BD000E7504D6F4D51030DF3CF4EF1F4CF4FF160
:101BE00026EE4FF0DECF50F1DDCF51F14E515025B2
:101BF000526F4F515121536F180E5225D96E000E5E
:101C00005321DA6EDF50FE6E26EE4FF010EE74F0C8
:101C1000DE50E126DD50E222E7504D6F4D51030DBD
:101C2000F3CF4EF1F4CF4FF126EE4FF0DECF50F16F
:101C3000DDCF51F14E515025526F4F515121536F0D
:101C4000190E5225D96E000E5321DA6EDF50FF6E49
:101C500026EE4FF010EE74F0DE50E126DD50E22269
:101C6000E750D8A436EF0EF038EF0EF0B1EF0DF0DC
:101C70007FEF0EF0050026EE4FF010EE02F0DE5082
:101C8000E126DD50E222E750FD6E26EE4FF010EE29
:101C900002F0DE50E126DD50E222E6CF4DF1E5CF45
:101CA0004EF14DC14FF14EC150F10101516B50C188
:101CB0004FF151C150F1516B4F51FE6E100E4D6FEF
:101CC00026EE4FF010EE02F0DE50E126DD50E2226B
:101CD000E6CF4EF1E5CF4FF14EC150F14FC151F17A
:101CE000526B4D29536F79EF0EF0D8905233513328
:101CF0005033532F75EF0EF001015051FF6E050E5A
:101D0000256EF28E12000101826FF29E26EE4FF0D8
:101D100010EE01F0DE50E126DD50E222020EE61860
:101D2000D8A495EF0EF097EF0EF0D5EF0FF026EE5A
:101D30004FF010EE01F0DE50E126DD50E222010E00
:101D4000E76E26EE4FF010EE08F0DE50E126DD5093
:101D5000E222E0CFE7FF26EE4FF010EE0CF0DE506F
:101D6000E126DD50E222EACFE7FF26EE4FF010EE4B
:101D70000BF0DE50E126DD50E222E9CFE7FF26EE50
:101D80004FF010EE0EF0DE50E126DD50E222E2CF01
:101D9000E7FF26EE4FF010EE0DF0DE50E126DD50AD
:101DA000E222E1CFE7FF26EE4FF010EE10F0DE501A
:101DB000E126DD50E222DACFE7FF26EE4FF010EE0B
:101DC0000FF0DE50E126DD50E222D9CFE7FF26EE0C
:101DD0004FF010EE15F0DE50E126DD50E222FACF92
:101DE000E7FF26EE4FF010EE16F0DE50E126DD5054
:101DF000E222FBCFE7FF26EE4FF010EE0AF0DE50B6
:101E0000E126DD50E222F4CFE7FF26EE4FF010EEA0
:101E100009F0DE50E126DD50E222F3CFE7FF26EEA7
:101E20004FF010EE11F0DE50E126DD50E222F5CF4A
:101E3000E7FF26EE4FF010EE13F0DE50E126DD5006
:101E4000E222F7CFE7FF26EE4FF010EE12F0DE5061
:101E5000E126DD50E222F6CFE7FF26EE4FF010EE4E
:101E600014F0DE50E126DD50E222F8CFE7FF26EE47
:101E70004FF010EE06F0DE50E126DD50E222E8CF12
:101E8000E7FF26EE4FF010EE07F0DE50E126DD50C2
:101E9000E222D8CFE7FF26EE4FF010EE74F0DE50CE
:101EA000E126DD50E222E76ACDEF0FF026EE4FF09B
:101EB00010EE74F0DE50E126DD50E222E750010121
:101EC0007B6F7B51030DF3CF7CF1F4CF7DF126EED8
:101ED0004FF0DECF7EF1DDCF7FF17C517E25806F2C
:101EE0007D517F21816F170E8025D96E000E8121D3
:101EF000DA6EFDCFDFFF26EE4FF010EE74F0DE500D
:101F0000E126DD50E222E7507B6F7B51030DF3CFDA
:101F10007CF1F4CF7DF126EE4FF0DECF7EF1DDCF08
:101F20007FF17C517E25806F7D517F21816F180E5E
:101F30008025D96E000E8121DA6EFECFDFFF26EEFE
:101F40004FF010EE74F0DE50E126DD50E222E75053
:101F50007B6F7B51030DF3CF7CF1F4CF7DF126EE47
:101F60004FF0DECF7EF1DDCF7FF17C517E25806F9B
:101F70007D517F21816F190E8025D96E000E812140
:101F8000DA6EFFCFDFFF26EE4FF010EE74F0DE507A
:101F9000E126DD50E222E72A0600FC50D8A4D3EF68
:101FA0000FF0D5EF0FF056EF0FF051C67BF10101A6
:101FB0007B51750D7E0EF324D96E040EF420DA6E7B
:101FC00082C1DFFFCFEC17F026EE4FF010EE01F0EC
:101FD000DE50E126DD50E222E750D8A4F2EF0FF008
:101FE000F4EF0FF08BEF11F026EE4FF010EE01F052
:101FF000DE50E126DD50E222020EE76E26EE4FF0C3
:1020000010EE08F0DE50E126DD50E222E750E06EEF
:1020100026EE4FF010EE0CF0DE50E126DD50E2220D
:10202000E750EA6E26EE4FF010EE0BF0DE50E126A0
:10203000DD50E222E750E96E26EE4FF010EE0EF092
:10204000DE50E126DD50E222E750E26E26EE4FF050
:1020500010EE0DF0DE50E126DD50E222E750E16E99
:1020600026EE4FF010EE10F0DE50E126DD50E222B9
:10207000E750DA6E26EE4FF010EE0FF0DE50E1265C
:10208000DD50E222E750D96E26EE4FF010EE15F04B
:10209000DE50E126DD50E222E750FA6E26EE4FF0E8
:1020A00010EE16F0DE50E126DD50E222E750FB6E26
:1020B00026EE4FF010EE0AF0DE50E126DD50E2226F
:1020C000E750F46E26EE4FF010EE09F0DE50E126F8
:1020D000DD50E222E750F36E26EE4FF010EE11F0E5
:1020E000DE50E126DD50E222E750F56E26EE4FF09D
:1020F00010EE13F0DE50E126DD50E222E750F76EDD
:1021000026EE4FF010EE12F0DE50E126DD50E22216
:10211000E750F66E26EE4FF010EE14F0DE50E1269A
:10212000DD50E222E750F86E26EE4FF010EE07F099
:10213000DE50E126DD50E222E750D86E26EE4FF069
:1021400010EE06F0DE50E126DD50E222E7500101FC
:102150007B6F7B51FC6A26EE4FF010EE74F0DE5080
:10216000E126DD50E222E750D8B4B9EF10F0BBEF22
:1021700010F044EF11F0050026EE4FF010EE74F071
:10218000DE50E126DD50E222E70626EE4FF010EEAB
:1021900074F0DE50E126DD50E222E75001017B6F52
:1021A0007B51030DF3CF7CF1F4CF7DF126EE4FF0A0
:1021B000DECF7EF1DDCF7FF17C517E25806F7D51BA
:1021C0007F21816F170E8025D96E000E8121DA6E76
:1021D000DF50FD6E26EE4FF010EE74F0DE50E1267B
:1021E000DD50E222E7507B6F7B51030DF3CF7CF192
:1021F000F4CF7DF126EE4FF0DECF7EF1DDCF7FF123
:102200007C517E25806F7D517F21816F180E802546
:10221000D96E000E8121DA6EDF50FE6E26EE4FF091
:1022200010EE74F0DE50E126DD50E222E7507B6FC5
:102230007B51030DF3CF7CF1F4CF7DF126EE4FF00F
:10224000DECF7EF1DDCF7FF17C517E25806F7D5129
:102250007F21816F190E8025D96E000E8121DA6EE3
:10226000DF50FF6E26EE4FF010EE74F0DE50E126E8
:10227000DD50E222E750D8A440EF11F042EF11F018
:10228000BBEF10F089EF11F0050026EE4FF010EED5
:1022900002F0DE50E126DD50E222E750FD6E26EE30
:1022A0004FF010EE02F0DE50E126DD50E222E6CFE4
:1022B0007BF1E5CF7CF17BC17DF17CC17EF1010139
:1022C0007F6B7EC17DF17FC17EF17F6B7D51FE6EA4
:1022D000100E7B6F26EE4FF010EE02F0DE50E1267E
:1022E000DD50E222E6CF7CF1E5CF7DF17CC17EF1CD
:1022F0007DC17FF1806B7B29816F83EF11F0D890D6
:1023000080337F337E33812F7FEF11F001017E51C7
:10231000FF6E050E256EF28E120030EC18F0BAEC4E
:1023200017F026EE4FF010EE01F0DE50E126DD5002
:10233000E222E750D8A49FEF11F0A1EF11F038EF9F
:1023400013F026EE4FF010EE01F0DE50E126DD50E6
:10235000E222020EE76E26EE4FF010EE08F0DE509D
:10236000E126DD50E222E750E06E26EE4FF010EE5F
:102370000CF0DE50E126DD50E222E750EA6E26EE58
:102380004FF010EE0BF0DE50E126DD50E222E75078
:10239000E96E26EE4FF010EE0EF0DE50E126DD5035
:1023A000E222E750E26E26EE4FF010EE0DF0DE5026
:1023B000E126DD50E222E750E16E26EE4FF010EE0E
:1023C00010F0DE50E126DD50E222E750DA6E26EE14
:1023D0004FF010EE0FF0DE50E126DD50E222E75024
:1023E000D96E26EE4FF010EE15F0DE50E126DD50EE
:1023F000E222E750FA6E26EE4FF010EE16F0DE50B5
:10240000E126DD50E222E750FB6E26EE4FF010EEA3
:102410000AF0DE50E126DD50E222E750F46E26EEAF
:102420004FF010EE09F0DE50E126DD50E222E750D9
:10243000F36E26EE4FF010EE11F0DE50E126DD5087
:10244000E222E750F56E26EE4FF010EE13F0DE506C
:10245000E126DD50E222E750F76E26EE4FF010EE57
:1024600012F0DE50E126DD50E222E750F66E26EE55
:102470004FF010EE14F0DE50E126DD50E222E7507E
:10248000F86E26EE4FF010EE07F0DE50E126DD503C
:10249000E222E750D86E26EE4FF010EE06F0DE5046
:1024A000E126DD50E222E75002010D6F0D51FC6A7A
:1024B00026EE4FF010EE74F0DE50E126DD50E22201
:1024C000E750D8B466EF12F068EF12F0F1EF12F0B7
:1024D000050026EE4FF010EE74F0DE50E126DD50E0
:1024E000E222E70626EE4FF010EE74F0DE50E12611
:1024F000DD50E222E75002010D6F0D51030DF3CFC5
:102500000EF2F4CF0FF226EE4FF0DECF10F2DDCF59
:1025100011F20E511025126F0F511121136F170E6A
:102520001225D96E000E1321DA6EDF50FD6E26EEF5
:102530004FF010EE74F0DE50E126DD50E222E7505D
:102540000D6F0D51030DF3CF0EF2F4CF0FF226EE07
:102550004FF0DECF10F2DDCF11F20E511025126FC9
:102560000F511121136F180E1225D96E000E132171
:10257000DA6EDF50FE6E26EE4FF010EE74F0DE5095
:10258000E126DD50E222E7500D6F0D51030DF3CF30
:102590000EF2F4CF0FF226EE4FF0DECF10F2DDCFC9
:1025A00011F20E511025126F0F511121136F190ED8
:1025B0001225D96E000E1321DA6EDF50FF6E26EE63
:1025C0004FF010EE74F0DE50E126DD50E222E750CD
:1025D000D8A4EDEF12F0EFEF12F068EF12F036EF43
:1025E00013F0050026EE4FF010EE02F0DE50E1266B
:1025F000DD50E222E750FD6E26EE4FF010EE02F0C5
:10260000DE50E126DD50E222E6CF0DF2E5CF0EF2FC
:102610000DC20FF20EC210F20201116B10C20FF2C6
:1026200011C210F2116B0F51FE6E100E0D6F26EEDF
:102630004FF010EE02F0DE50E126DD50E222E6CF50
:102640000EF2E5CF0FF20EC210F20FC211F2126BB2
:102650000D29136F30EF13F0D8901233113310336C
:10266000132F2CEF13F002011051FF6E050E256E93
:10267000F28E1200F29E01017451D96EDA6ADF50B7
:10268000D8B445EF13F047EF13F0B9EF13F04FC68E
:10269000D9FF50C6DAFF7451E16EE26A010EE126FD
:1026A000DE50E618D8A457EF13F059EF13F0B9EF46
:1026B00013F07451D96EDA6A070ED926DF50D8B4F8
:1026C00064EF13F066EF13F0AFEF13F07451D96EAF
:1026D000DA6A060ED926DF50756F74517525D96EEA
:1026E000DA6A020ED926DF50776F7751750D7B0EAF
:1026F000F324D96E040EF420DA6EDF6A7451D96EB9
:10270000DA6A060ED9267451E16EE26A060EE126F7
:10271000E750756F010E75256E6F6F6B000E6F239E
:10272000716B030E706F13EC14F001016E51DF6ECC
:102730007451D96EDA6A070ED926DF067751750D06
:102740007A0EF324D96E040EF420DA6E7451E16E21
:10275000E26A010EE126DFCFE7FFB9EF13F0745113
:10276000D96EDA6ADF6A7451D96EDA6A070ED92631
:10277000DF6AF28E12000201056B01BFC4EF13F095
:10278000C2EF13F0CAEF13F0006D011FD8B0012B98
:10279000010E056F03BFD1EF13F0CFEF13F0D5EFAC
:1027A00013F0026D031FD8B0032B02510311D8B4EC
:1027B000DCEF13F0DEEF13F002EF14F0010E046F04
:1027C000E6EF13F0D89002370337042B03AFEBEF9B
:1027D00013F0EDEF13F0E2EF13F00251005D03513F
:1027E0000159D8A0F6EF13F0F8EF13F0FCEF13F057
:1027F0000251005F0351015BD89003330233042F71
:10280000EDEF13F00551D8B408EF14F00AEF14F00F
:102810000EEF14F0006D011FD8B0012B00C200F2C2
:1028200001C201F212000101736B6FBF1CEF14F0C3
:102830001AEF14F022EF14F06E6D6F1FD8B06F2BEB
:10284000010E736F71BF29EF14F027EF14F02DEF15
:1028500014F0706D711FD8B0712B70517111D8B414
:1028600034EF14F036EF14F05AEF14F0010E726FDB
:102870003EEF14F0D89070377137722B71AF43EF81
:1028800014F045EF14F03AEF14F070516E5D715191
:102890006F59D8A04EEF14F050EF14F054EF14F02D
:1028A00070516E5F71516F5BD89071337033722FBE
:1028B00045EF14F07351D8B460EF14F062EF14F0E8
:1028C00066EF14F06E6D6F1FD8B06F2B6EC16EF196
:1028D0006FC16FF11200076A03BE73EF14F071EF5E
:1028E00014F079EF14F0026C031ED8B0032A010E25
:1028F000076E05BE80EF14F07EEF14F084EF14F045
:10290000046C051ED8B0052A04500510D8B48BEF0E
:1029100014F08DEF14F0B1EF14F0010E066E95EF88
:1029200014F0D89004360536062A05AE9AEF14F056
:102930009CEF14F091EF14F00450025C0550035822
:10294000D8A0A5EF14F0A7EF14F0ABEF14F00450EB
:10295000025E0550035AD89005320432062E9CEFD1
:1029600014F00750D8B4B7EF14F0B9EF14F0BDEF7E
:1029700014F0026C031ED8B0032A02C002F003C098
:1029800003F01200F29E01014551D96EDA6ADE2A87
:10299000000EDD224551D96EDA6A010EDBBEDCEF96
:1029A00014F0010EDB5006E1DE04D8B0DAEF14F0CB
:1029B000DCEF14F00EEF15F04551D96EDA6A060E11
:1029C000D926DF50466F45514625D96EDA6A020E88
:1029D000D926DF50476F4751750D7B0EF324D96E12
:1029E000040EF420DA6EDF6A4551D96EDA6A060EFB
:1029F000D9264551E16EE26A060EE126E750466FA0
:102A0000010E46256E6F6F6B000E6F23716B030E08
:102A1000706F13EC14F001016E51DF6EF28E120034
:102A200051C609F20201086B010E0925006F016B06
:102A3000000E01234EC606F20651026F036BBBEC7B
:102A400013F002010051096F082B030E08652BEFEC
:102A500015F02DEF15F030EF15F0000E55EF15F0D5
:102A60000951750D7B0EF324D96E040EF420DA6E35
:102A7000DF50D8A43EEF15F040EF15F014EF15F03D
:102A80000951750D7C0EF324D96E040EF420DA6E14
:102A9000C80EDE1809E12F0EDE18D8B452EF15F07B
:102AA00054EF15F014EF15F00951120051C677F1EB
:102AB0000101766B010E77256E6F6F6B000E6F2331
:102AC0004EC674F17451706F716B13EC14F0010108
:102AD0006E51776F762B030E766571EF15F073EFFD
:102AE00015F076EF15F0000E9BEF15F07751750D90
:102AF0007B0EF324D96E040EF420DA6EDF50D8A4D6
:102B000084EF15F086EF15F05AEF15F07751750D3B
:102B10007C0EF324D96E040EF420DA6EC80EDE1893
:102B200009E12F0EDE18D8B498EF15F09AEF15F0E2
:102B30005AEF15F07751120051C60BF00A6A010ED8
:102B40000B24026E036A000E03224EC608F00850E2
:102B5000046E056A6BEC14F002500B6E0A2A030E29
:102B60000A64B5EF15F0B7EF15F0BAEF15F0000EE7
:102B7000DFEF15F00B50750D7B0EF324D96E040EAC
:102B8000F420DA6EDF50D8A4C8EF15F0CAEF15F0C4
:102B90009FEF15F00B50750D7C0EF324D96E040ECB
:102BA000F420DA6EC80EDE1809E12F0EDE18D8B454
:102BB000DCEF15F0DEEF15F09FEF15F00B50120073
:102BC00020EE88F010EE80F0050EDBCFE3FFE80684
:102BD000FCE20001866B82BCF0EF15F0F3EF15F01C
:102BE000010EF4EF15F0000EFF0A7F6F7F3B7F4769
:102BF0007F4782507F19BF0B7F19826E600E7C6FFA
:102C00008651800FD96EDA6ADF507D6FB5EC16F011
:102C1000010E0001862501016E6F6F6B000E6F23A0
:102C2000716B060E706F13EC14F001016E51000110
:102C3000866FEBEF15F01200780EF66E300EF76E21
:102C4000000EF86E00EE88F010EE06F00900F5CFE9
:102C5000EEFFE550E150FAE17E0EF66E300EF76EB3
:102C6000000EF86E0900F5CF25F002EE7AF013EEB3
:102C7000D8F0EE6AE550E150FCE1E250FAE100EEF6
:102C800060F01C0EEE6AE806FDE100EE1EF0070E95
:102C9000EE6AE806FDE101900192000EF86E000177
:102CA0003EEF17F00201046F04C205F20201096B46
:102CB00002C20AF200C207F201C208F2066B0D6BF3
:102CC000116B106B136B126B156B146B1A6B1B6B08
:102CD0000F6B0E6B0C6B166B186B176B196B0B6B0A
:102CE000796B22EE05F04EC603F20351750D7A0E94
:102CF000F324E16E040EF420E26E740EDBCFE3FFEA
:102D0000E806FCE24EC6E8FF010FE8CF4EF61200DF
:102D1000010154510D0F4C6F4BEC0BF0010154515C
:102D2000D96EDA6A050ED926DF50576F54515725F0
:102D3000D96EDA6A55C1E1FF56C1E2FFDFCFE7FF86
:102D40005451D96EDA6A050ED9265451E16EE26A01
:102D5000050EE126E750576F5729030BDF6E5451DC
:102D6000060F456FC2EC14F0120000017C51060FF3
:102D700001014C6F4BEC0BF000017C51D96EDA6A0B
:102D8000040ED926DF507E6F7C517E25D96EDA6A1B
:102D90007DC0DFFF7C51D96EDA6A040ED9267C51E2
:102DA000E16EE26A040EE126E7507E6F7E29030B96
:102DB000DF6E7C510D0F0101456FC2EC14F0120063
:102DC000600E0101546F580E556F010E566F88EC5E
:102DD00016F04C0E01015819D8A4F1EF16F0F3EFDC
:102DE00016F0F6EF16F08380E0EF16F0440E581957
:102DF000D8A4FDEF16F0FFEF16F0E0EF16F0839089
:102E0000E0EF16F0120002010051D96EDA6ADF6AB3
:102E10000051D96EDA6A010ED926DF6A0051D96EE7
:102E2000DA6A050ED926DF6A0051D96EDA6A060E13
:102E3000D926DF6A0051D96EDA6A070ED926DF6A11
:102E4000120002010451D96EDA6A040ED926DF6A33
:102E50000451D96EDA6A050ED926DF6A0451060FCD
:102E6000006F040E016F8CEC17F0020104510D0F7E
:102E7000006F000E016F8CEC17F012005AEC17F087
:102E8000180E0201006F300E016F050E026F010E69
:102E900052EC16F03C0E0201006F300E016F050E71
:102EA000026F020E52EC16F08DEC11F056EF17F097
:102EB0008DEF03F0000EE8CF4EF67A0EE8CF4FF616
:102EC000040EE8CF50F6000EE8CF51F6C80E02010E
:102ED000006F2F0E016F000E026F010E52EC16F004
:102EE00073EC17F01200949C949E95900F013B9107
:102EF0003A9D3A9F1E0E0201006F000E016F8CEC8E
:102F000017F0600E0201046F21EC17F0740E02013D
:102F1000006F03EC17F0120002010151026F036B06
:102F20000051D96EDA6A02C2DEFF03C2DDFF005132
:102F3000D96EDA6A050ED926DF6A0051D96EDA6ACF
:102F4000060ED926DF6A120082BEA9EF17F0ACEF99
:102F500017F0010EADEF17F0000EFF0A0001876FAA
:102F600087338733825087197F0B8719826EA4EFCE
:102F700017F0120010EC15F002010A6F0AC251F6A8
:102F800051C60AF20A51750D7A0EF3240B6F040E26
:102F9000F4200C6F0BC24FF60CC250F6120056EC28
:102FA00015F00101786F78C151F651C678F178516A
:102FB000750D7A0EF324796F040EF4207A6F79C1BF
:102FC0004FF67AC150F61200949082B0EAEF17F0F3
:102FD000EDEF17F0010EEEEF17F0000EFF0A026E94
:102FE00082500218FE0B0218826EE5EF17F01200F5
:102FF0009CEC15F00C6E0CC051F651C60CF00C5048
:10300000750D7A0EF3240D6E040EF4200E6E0DC0B5
:103010004FF60EC050F61200740E01017B6F01ECEA
:1030200008F0828C050E83EC0EF0829C740E010178
:10303000746F3AEC13F00CEF18F01200740E0101EB
:103040007B6F01EC08F0828E050E83EC0EF0829E01
:10305000740E0101746F3AEC13F01EEF18F01200B9
:10306000F28AF294D58CD59AD596070ED512D58EC4
:0F307000D76A000ED66E12004C4C444C444405F7
:00000001FF
