:04000000A7EF03F073
:100008000182E1CF13F0E2CF14F0D9CF15F0DACFA7
:1000180016F0F3CF17F0F4CF18F0F2A416EF00F0B3
:1000280018EF00F07FEF03F0F2941A6A000E196ED1
:100038006EEF00F0300E1902F3CF0CF0F4CF0DF094
:100048001A02F3500D26390E0C24D96E050E0D2018
:10005800DA6EDF50D8B433EF00F035EF00F06CEF14
:1000680000F0300E1902F3CF0CF0F4CF0DF01A02A5
:10007800F3500D26390E0C24D96E050E0D20DA6EBC
:10008800DF06300E1902F3CF0CF0F4CF0DF01A0290
:10009800F3500D26390E0C24D96E050E0D20DA6E9C
:1000A800DF50D8A45AEF00F05CEF00F06CEF00F0DE
:1000B800300E1902F3CF0CF0F4CF0DF01A02F35002
:1000C8000D26360E0C24D96E050E0D20DA6EDF6A69
:1000D800194A1A2A26EE85F0DF500C6E0D6A0C506C
:1000E800195C1A50800A0E6E0D50800A0E58D8A05E
:1000F80080EF00F082EF00F01EEF00F01C061C50AD
:10010800D8A489EF00F08BEF00F07FEF03F0140E16
:100118001C6E26EE86F010EE01F0DE50E126DD5072
:10012800E222020EE618D8A49CEF00F09EEF00F041
:10013800DAEF01F026EE86F010EE01F0DE50E1264F
:10014800DD50E222E76A26EE86F010EE08F0DE5077
:10015800E126DD50E222E0CFE7FF26EE86F010EE42
:100168000CF0DE50E126DD50E222EACFE7FF26EE72
:1001780086F010EE0BF0DE50E126DD50E222E9CFEA
:10018800E7FF26EE86F010EE0EF0DE50E126DD5099
:10019800E222E2CFE7FF26EE86F010EE0DF0DE5009
:1001A800E126DD50E222E1CFE7FF26EE86F010EEF1
:1001B80010F0DE50E126DD50E222DACFE7FF26EE2E
:1001C80086F010EE0FF0DE50E126DD50E222D9CFA6
:1001D800E7FF26EE86F010EE15F0DE50E126DD5042
:1001E800E222FACFE7FF26EE86F010EE16F0DE5098
:1001F800E126DD50E222FBCFE7FF26EE86F010EE87
:100208000AF0DE50E126DD50E222F4CFE7FF26EEC9
:1002180086F010EE09F0DE50E126DD50E222F3CF41
:10022800E7FF26EE86F010EE11F0DE50E126DD50F5
:10023800E222F5CFE7FF26EE86F010EE13F0DE504F
:10024800E126DD50E222F7CFE7FF26EE86F010EE3A
:1002580012F0DE50E126DD50E222F6CFE7FF26EE6F
:1002680086F010EE14F0DE50E126DD50E222F8CFE1
:10027800E7FF26EE86F010EE06F0DE50E126DD50B0
:10028800E222E8CFE7FF26EE86F010EE07F0DE5018
:10029800E126DD50E222D8CFE7FF26EE86F010EE09
:1002A8002FF0DE50E126DD50E222E76AD2EF01F0BE
:1002B80026EE86F010EE2FF0DE50E126DD50E22229
:1002C800E7500C6E0C50030DF3CF0DF0F4CF0EF089
:1002D80026EE86F0DECF0FF0DDCF10F00D500F24A4
:1002E800116E0E501020126E170E1124D96E000ECA
:1002F8001220DA6EFDCFDFFF26EE86F010EE2FF02B
:10030800DE50E126DD50E222E7500C6E0C50030D62
:10031800F3CF0DF0F4CF0EF026EE86F0DECF0FF01F
:10032800DDCF10F00D500F24116E0E501020126EFC
:10033800180E1124D96E000E1220DA6EFECFDFFFE0
:1003480026EE86F010EE2FF0DE50E126DD50E22298
:10035800E7500C6E0C50030DF3CF0DF0F4CF0EF0F8
:1003680026EE86F0DECF0FF0DDCF10F00D500F2413
:10037800116E0E501020126E190E1124D96E000E37
:100388001220DA6EFFCFDFFF26EE86F010EE2FF098
:10039800DE50E126DD50E222E72A0600FC50D8A410
:1003A800D8EF01F0DAEF01F05CEF01F0AAEC18F0F9
:1003B80026EE86F010EE01F0DE50E126DD50E22256
:1003C800E750D8A4EAEF01F0ECEF01F07FEF03F07B
:1003D80026EE86F010EE01F0DE50E126DD50E22236
:1003E800020EE76E26EE86F010EE08F0DE50E126EB
:1003F800DD50E222E750E06E26EE86F010EE0CF0BB
:10040800DE50E126DD50E222E750EA6E26EE86F065
:1004180010EE0BF0DE50E126DD50E222E750E96EE7
:1004280026EE86F010EE0EF0DE50E126DD50E222D8
:10043800E750E26E26EE86F010EE0DF0DE50E12673
:10044800DD50E222E750E16E26EE86F010EE10F065
:10045800DE50E126DD50E222E750DA6E26EE86F025
:1004680010EE0FF0DE50E126DD50E222E750D96EA3
:1004780026EE86F010EE15F0DE50E126DD50E22281
:10048800E750FA6E26EE86F010EE16F0DE50E12602
:10049800DD50E222E750FB6E26EE86F010EE0AF001
:1004A800DE50E126DD50E222E750F46E26EE86F0BB
:1004B80010EE09F0DE50E126DD50E222E750F36E3F
:1004C80026EE86F010EE11F0DE50E126DD50E22235
:1004D800E750F56E26EE86F010EE13F0DE50E126BA
:1004E800DD50E222E750F76E26EE86F010EE12F0AD
:1004F800DE50E126DD50E222E750F66E26EE86F069
:1005080010EE14F0DE50E126DD50E222E750F86EDE
:1005180026EE86F010EE07F0DE50E126DD50E222EE
:10052800E750D86E26EE86F010EE06F0DE50E12693
:10053800DD50E222E7500C6E0C50FC6A26EE86F085
:1005480010EE2FF0DE50E126DD50E222E750D8B45D
:10055800B0EF02F0B2EF02F03AEF03F0050026EE3A
:1005680086F010EE2FF0DE50E126DD50E222E7069D
:1005780026EE86F010EE2FF0DE50E126DD50E22266
:10058800E7500C6E0C50030DF3CF0DF0F4CF0EF0C6
:1005980026EE86F0DECF0FF0DDCF10F00D500F24E1
:1005A800116E0E501020126E170E1124D96E000E07
:1005B8001220DA6EDF50FD6E26EE86F010EE2FF078
:1005C800DE50E126DD50E222E7500C6E0C50030DA0
:1005D800F3CF0DF0F4CF0EF026EE86F0DECF0FF05D
:1005E800DDCF10F00D500F24116E0E501020126E3A
:1005F800180E1124D96E000E1220DA6EDF50FE6E2E
:1006080026EE86F010EE2FF0DE50E126DD50E222D5
:10061800E7500C6E0C50030DF3CF0DF0F4CF0EF035
:1006280026EE86F0DECF0FF0DDCF10F00D500F2450
:10063800116E0E501020126E190E1124D96E000E74
:100648001220DA6EDF50FF6E26EE86F010EE2FF0E5
:10065800DE50E126DD50E222E750D8A436EF03F061
:1006680038EF03F0B2EF02F07DEF03F0050026EE5D
:1006780086F010EE02F0DE50E126DD50E222E7506F
:10068800FD6E26EE86F010EE02F0DE50E126DD501B
:10069800E222E6CF0CF0E5CF0DF00CC00EF00DC055
:1006A8000FF0106A0FC00EF010C00FF0106A0E5055
:1006B800FE6E100E0C6E26EE86F010EE02F0DE5086
:1006C800E126DD50E222E6CF0DF0E5CF0EF00DC0B9
:1006D8000FF00EC010F0116A0C28126E78EF03F0BC
:1006E800D890113210320F32122E74EF03F00F50DF
:1006F800FF6E140E1C6EF2A284EF03F086EF03F077
:1007080099EF03F0F29282BE8CEF03F08FEF03F0C3
:10071800010E90EF03F0000EFF0A0C6E0C320C3243
:1007280082500C187F0B0C18826E18C0F4FF17C08B
:10073800F3FF16C0DAFF15C0D9FF14C0E2FF13C0DB
:0A074800E1FF01921100BDEF16F071
:101000000000F29E00019F51D96EDA6ADF50D8B419
:101010000CEF08F00EEF08F03BEF0BF026EE88F037
:101020009F51E16EE26A080EE126E750A06F9F51E2
:10103000A025E16EE26A020EE126DFCFE7FF9F51B5
:10104000D96EDA6A080ED9269F51E16EE26A080E5F
:10105000E126E750A06F010EA02501012F6F306B34
:10106000000E3023326B060E316F92EC15F0010149
:101070002F51DF6E00019F51D96EDA6A0A0ED92610
:10108000DF2A26EE86F010EE01F0DE50E126DD507C
:10109000E222020EE618D8A450EF08F052EF08F052
:1010A00090EF09F026EE86F010EE01F0DE50E1261A
:1010B000DD50E222010EE76E26EE86F010EE08F01B
:1010C000DE50E126DD50E222E0CFE7FF26EE86F09B
:1010D00010EE0CF0DE50E126DD50E222EACFE7FF11
:1010E00026EE86F010EE0BF0DE50E126DD50E22217
:1010F000E9CFE7FF26EE86F010EE0EF0DE50E12697
:10110000DD50E222E2CFE7FF26EE86F010EE0DF092
:10111000DE50E126DD50E222E1CFE7FF26EE86F049
:1011200010EE10F0DE50E126DD50E222DACFE7FFCC
:1011300026EE86F010EE0FF0DE50E126DD50E222C2
:10114000D9CFE7FF26EE86F010EE15F0DE50E1264F
:10115000DD50E222FACFE7FF26EE86F010EE16F021
:10116000DE50E126DD50E222FBCFE7FF26EE86F0DF
:1011700010EE0AF0DE50E126DD50E222F4CFE7FF68
:1011800026EE86F010EE09F0DE50E126DD50E22278
:10119000F3CFE7FF26EE86F010EE11F0DE50E126E9
:1011A000DD50E222F5CFE7FF26EE86F010EE13F0D9
:1011B000DE50E126DD50E222F7CFE7FF26EE86F093
:1011C00010EE12F0DE50E126DD50E222F6CFE7FF0E
:1011D00026EE86F010EE14F0DE50E126DD50E2221D
:1011E000F8CFE7FF26EE86F010EE06F0DE50E1269F
:1011F000DD50E222E8CFE7FF26EE86F010EE07F0A2
:10120000DE50E126DD50E222D8CFE7FF26EE86F061
:1012100010EE2FF0DE50E126DD50E222E76A88EF83
:1012200009F026EE86F010EE2FF0DE50E126DD50BC
:10123000E222E7500001A06FA051030DF3CFA1F00F
:10124000F4CFA2F026EE86F0DECFA3F0DDCFA4F03F
:10125000A151A325A56FA251A421A66F170EA52504
:10126000D96E000EA621DA6EFDCFDFFF26EE86F0E6
:1012700010EE2FF0DE50E126DD50E222E750A06FA5
:10128000A051030DF3CFA1F0F4CFA2F026EE86F02B
:10129000DECFA3F0DDCFA4F0A151A325A56FA2510D
:1012A000A421A66F180EA525D96E000EA621DA6E10
:1012B000FECFDFFF26EE86F010EE2FF0DE50E126A7
:1012C000DD50E222E750A06FA051030DF3CFA1F053
:1012D000F4CFA2F026EE86F0DECFA3F0DDCFA4F0AF
:1012E000A151A325A56FA251A421A66F190EA52572
:1012F000D96E000EA621DA6EFFCFDFFF26EE86F054
:1013000010EE2FF0DE50E126DD50E222E72A060043
:10131000FC50D8A48EEF09F090EF09F011EF09F01E
:101320006DEC18F026EE86F010EE01F0DE50E126AE
:10133000DD50E222E750D8A4A0EF09F0A2EF09F0B7
:101340004BEF0BF026EE86F010EE01F0DE50E126BA
:10135000DD50E222020EE76E26EE86F010EE08F077
:10136000DE50E126DD50E222E750E06E26EE86F008
:1013700010EE0CF0DE50E126DD50E222E750EA6E7E
:1013800026EE86F010EE0BF0DE50E126DD50E22274
:10139000E750E96E26EE86F010EE0EF0DE50E12604
:1013A000DD50E222E750E26E26EE86F010EE0DF000
:1013B000DE50E126DD50E222E750E16E26EE86F0B7
:1013C00010EE10F0DE50E126DD50E222E750DA6E3A
:1013D00026EE86F010EE0FF0DE50E126DD50E22220
:1013E000E750D96E26EE86F010EE15F0DE50E126BD
:1013F000DD50E222E750FA6E26EE86F010EE16F08F
:10140000DE50E126DD50E222E750FB6E26EE86F04C
:1014100010EE0AF0DE50E126DD50E222E750F46ED5
:1014200026EE86F010EE09F0DE50E126DD50E222D5
:10143000E750F36E26EE86F010EE11F0DE50E12656
:10144000DD50E222E750F56E26EE86F010EE13F046
:10145000DE50E126DD50E222E750F76E26EE86F000
:1014600010EE12F0DE50E126DD50E222E750F66E7B
:1014700026EE86F010EE14F0DE50E126DD50E2227A
:10148000E750F86E26EE86F010EE07F0DE50E1260B
:10149000DD50E222E750D86E26EE86F010EE06F020
:1014A000DE50E126DD50E222E7500001A06FA0519E
:1014B000FC6A26EE86F010EE2FF0DE50E126DD50BD
:1014C000E222E750D8B467EF0AF069EF0AF0F2EFD2
:1014D0000AF0050026EE86F010EE2FF0DE50E12631
:1014E000DD50E222E70626EE86F010EE2FF0DE5009
:1014F000E126DD50E222E7500001A06FA051030D6C
:10150000F3CFA1F0F4CFA2F026EE86F0DECFA3F069
:10151000DDCFA4F0A151A325A56FA251A421A66FF0
:10152000170EA525D96E000EA621DA6EDF50FD6ECE
:1015300026EE86F010EE2FF0DE50E126DD50E2229E
:10154000E750A06FA051030DF3CFA1F0F4CFA2F0AC
:1015500026EE86F0DECFA3F0DDCFA4F0A151A325C7
:10156000A56FA251A421A66F180EA525D96E000E55
:10157000A621DA6EDF50FE6E26EE86F010EE2FF01A
:10158000DE50E126DD50E222E750A06FA051030DAE
:10159000F3CFA1F0F4CFA2F026EE86F0DECFA3F0D9
:1015A000DDCFA4F0A151A325A56FA251A421A66F60
:1015B000190EA525D96E000EA621DA6EDF50FF6E3A
:1015C00026EE86F010EE2FF0DE50E126DD50E2220E
:1015D000E750D8A4EEEF0AF0F0EF0AF069EF0AF056
:1015E00037EF0BF0050026EE86F010EE02F0DE502D
:1015F000E126DD50E222E750FD6E26EE86F010EE89
:1016000002F0DE50E126DD50E222E6CFA0F0E5CF89
:10161000A1F0A0C0A2F0A1C0A3F00001A46BA3C0E0
:10162000A2F0A4C0A3F0A46BA251FE6E100EA06F96
:1016300026EE86F010EE02F0DE50E126DD50E222CA
:10164000E6CFA1F0E5CFA2F0A1C0A3F0A2C0A4F024
:10165000A56BA029A66F31EF0BF0D890A533A4336A
:10166000A333A62F2DEF0BF00001A351FF6E140E34
:101670001C6E4BEF0BF09F51D96EDA6A010EDF6ED4
:1016800086C6D9FF87C6DAFF9F51E16EE26A010E76
:10169000E126DFCFE7FFF28E1200F29E0101355105
:1016A000D96EDA6ADE06000EDD5A3551D96EDA6A75
:1016B000010EDBBE60EF0BF05EEF0BF083EF0EF080
:1016C00026EE88F03551E16EE26A080EE126E75019
:1016D000366F35513625E16EE26A020EE126DFCF24
:1016E000E7FF3551D96EDA6A080ED9263551E16E19
:1016F000E26A080EE126E750366F010E36252F6F9D
:10170000306B000E3023326B060E316F92EC15F009
:1017100001012F51DF6E26EE86F010EE01F0DE5053
:10172000E126DD50E222020EE618D8A49AEF0BF073
:101730009CEF0BF0DAEF0CF026EE86F010EE01F0E5
:10174000DE50E126DD50E222030EE76E26EE86F043
:1017500010EE08F0DE50E126DD50E222E0CFE7FF98
:1017600026EE86F010EE0CF0DE50E126DD50E2228F
:10177000EACFE7FF26EE86F010EE0BF0DE50E12612
:10178000DD50E222E9CFE7FF26EE86F010EE0EF004
:10179000DE50E126DD50E222E2CFE7FF26EE86F0C2
:1017A00010EE0DF0DE50E126DD50E222E1CFE7FF42
:1017B00026EE86F010EE10F0DE50E126DD50E2223B
:1017C000DACFE7FF26EE86F010EE0FF0DE50E126CE
:1017D000DD50E222D9CFE7FF26EE86F010EE15F0BD
:1017E000DE50E126DD50E222FACFE7FF26EE86F05A
:1017F00010EE16F0DE50E126DD50E222FBCFE7FFCF
:1018000026EE86F010EE0AF0DE50E126DD50E222F0
:10181000F4CFE7FF26EE86F010EE09F0DE50E12669
:10182000DD50E222F3CFE7FF26EE86F010EE11F056
:10183000DE50E126DD50E222F5CFE7FF26EE86F00E
:1018400010EE13F0DE50E126DD50E222F7CFE7FF85
:1018500026EE86F010EE12F0DE50E126DD50E22298
:10186000F6CFE7FF26EE86F010EE14F0DE50E1260C
:10187000DD50E222F8CFE7FF26EE86F010EE06F00C
:10188000DE50E126DD50E222E8CFE7FF26EE86F0CB
:1018900010EE07F0DE50E126DD50E222D8CFE7FF60
:1018A00026EE86F010EE2FF0DE50E126DD50E2222B
:1018B000E76AD2EF0CF026EE86F010EE2FF0DE5045
:1018C000E126DD50E222E7500101366F3651030D6B
:1018D000F3CF37F1F4CF38F126EE86F0DECF39F1D1
:1018E000DDCF3AF1375139253B6F38513A213C6F02
:1018F000170E3B25D96E000E3C21DA6EFDCFDFFFBF
:1019000026EE86F010EE2FF0DE50E126DD50E222CA
:10191000E750366F3651030DF3CF37F1F4CF38F17E
:1019200026EE86F0DECF39F1DDCF3AF13751392599
:101930003B6F38513A213C6F180E3B25D96E000E93
:101940003C21DA6EFECFDFFF26EE86F010EE2FF0A0
:10195000DE50E126DD50E222E750366F3651030DAE
:10196000F3CF37F1F4CF38F126EE86F0DECF39F140
:10197000DDCF3AF1375139253B6F38513A213C6F71
:10198000190E3B25D96E000E3C21DA6EFFCFDFFF2A
:1019900026EE86F010EE2FF0DE50E126DD50E2223A
:1019A000E72A0600FC50D8A4D8EF0CF0DAEF0CF0D0
:1019B0005BEF0CF06DEC18F026EE86F010EE01F007
:1019C000DE50E126DD50E222E750D8A4EAEF0CF029
:1019D000ECEF0CF083EF0EF026EE86F010EE01F047
:1019E000DE50E126DD50E222020EE76E26EE86F0A2
:1019F00010EE08F0DE50E126DD50E222E750E06E06
:101A000026EE86F010EE0CF0DE50E126DD50E222EC
:101A1000E750EA6E26EE86F010EE0BF0DE50E1267F
:101A2000DD50E222E750E96E26EE86F010EE0EF071
:101A3000DE50E126DD50E222E750E26E26EE86F02F
:101A400010EE0DF0DE50E126DD50E222E750E16EAF
:101A500026EE86F010EE10F0DE50E126DD50E22298
:101A6000E750DA6E26EE86F010EE0FF0DE50E1263B
:101A7000DD50E222E750D96E26EE86F010EE15F02A
:101A8000DE50E126DD50E222E750FA6E26EE86F0C7
:101A900010EE16F0DE50E126DD50E222E750FB6E3C
:101AA00026EE86F010EE0AF0DE50E126DD50E2224E
:101AB000E750F46E26EE86F010EE09F0DE50E126D7
:101AC000DD50E222E750F36E26EE86F010EE11F0C4
:101AD000DE50E126DD50E222E750F56E26EE86F07C
:101AE00010EE13F0DE50E126DD50E222E750F76EF3
:101AF00026EE86F010EE12F0DE50E126DD50E222F6
:101B0000E750F66E26EE86F010EE14F0DE50E12679
:101B1000DD50E222E750F86E26EE86F010EE07F078
:101B2000DE50E126DD50E222E750D86E26EE86F048
:101B300010EE06F0DE50E126DD50E222E750010112
:101B4000366F3651FC6A26EE86F010EE2FF0DE502E
:101B5000E126DD50E222E750D8B4B1EF0DF0B3EF4B
:101B60000DF03CEF0EF0050026EE86F010EE2FF0A3
:101B7000DE50E126DD50E222E70626EE86F010EE8A
:101B80002FF0DE50E126DD50E222E7500101366FF2
:101B90003651030DF3CF37F1F4CF38F126EE86F04E
:101BA000DECF39F1DDCF3AF1375139253B6F38516E
:101BB0003A213C6F170E3B25D96E000E3C21DA6EA0
:101BC000DF50FD6E26EE86F010EE2FF0DE50E1269F
:101BD000DD50E222E750366F3651030DF3CF37F177
:101BE000F4CF38F126EE86F0DECF39F1DDCF3AF1D1
:101BF000375139253B6F38513A213C6F180E3B2540
:101C0000D96E000E3C21DA6EDF50FE6E26EE86F0B5
:101C100010EE2FF0DE50E126DD50E222E750366F65
:101C20003651030DF3CF37F1F4CF38F126EE86F0BD
:101C3000DECF39F1DDCF3AF1375139253B6F3851DD
:101C40003A213C6F190E3B25D96E000E3C21DA6E0D
:101C5000DF50FF6E26EE86F010EE2FF0DE50E1260C
:101C6000DD50E222E750D8A438EF0EF03AEF0EF044
:101C7000B3EF0DF081EF0EF0050026EE86F010EECA
:101C800002F0DE50E126DD50E222E750FD6E26EE46
:101C900086F010EE02F0DE50E126DD50E222E6CFC3
:101CA00036F1E5CF37F136C138F137C139F10101ED
:101CB0003A6B39C138F13AC139F13A6B3851FE6E9D
:101CC000100E366F26EE86F010EE02F0DE50E126A2
:101CD000DD50E222E6CF37F1E5CF38F137C139F1F7
:101CE00038C13AF13B6B36293C6F7BEF0EF0D89050
:101CF0003B333A3339333C2F77EF0EF00101395142
:101D0000FF6E140E1C6EF28E120002017F6FF29EA7
:101D100026EE86F010EE01F0DE50E126DD50E222E4
:101D2000020EE618D8A497EF0EF099EF0EF0D7EF59
:101D30000FF026EE86F010EE01F0DE50E126DD50C9
:101D4000E222010EE76E26EE86F010EE08F0DE507D
:101D5000E126DD50E222E0CFE7FF26EE86F010EE2E
:101D60000CF0DE50E126DD50E222EACFE7FF26EE5E
:101D700086F010EE0BF0DE50E126DD50E222E9CFD6
:101D8000E7FF26EE86F010EE0EF0DE50E126DD5085
:101D9000E222E2CFE7FF26EE86F010EE0DF0DE50F5
:101DA000E126DD50E222E1CFE7FF26EE86F010EEDD
:101DB00010F0DE50E126DD50E222DACFE7FF26EE1A
:101DC00086F010EE0FF0DE50E126DD50E222D9CF92
:101DD000E7FF26EE86F010EE15F0DE50E126DD502E
:101DE000E222FACFE7FF26EE86F010EE16F0DE5084
:101DF000E126DD50E222FBCFE7FF26EE86F010EE73
:101E00000AF0DE50E126DD50E222F4CFE7FF26EEB5
:101E100086F010EE09F0DE50E126DD50E222F3CF2D
:101E2000E7FF26EE86F010EE11F0DE50E126DD50E1
:101E3000E222F5CFE7FF26EE86F010EE13F0DE503B
:101E4000E126DD50E222F7CFE7FF26EE86F010EE26
:101E500012F0DE50E126DD50E222F6CFE7FF26EE5B
:101E600086F010EE14F0DE50E126DD50E222F8CFCD
:101E7000E7FF26EE86F010EE06F0DE50E126DD509C
:101E8000E222E8CFE7FF26EE86F010EE07F0DE5004
:101E9000E126DD50E222D8CFE7FF26EE86F010EEF5
:101EA0002FF0DE50E126DD50E222E76ACFEF0FF09F
:101EB00026EE86F010EE2FF0DE50E126DD50E22215
:101EC000E7500201786F7851030DF3CF79F2F4CF28
:101ED0007AF226EE86F0DECF7BF2DDCF7CF279510E
:101EE0007B257D6F7A517C217E6F170E7D25D96E03
:101EF000000E7E21DA6EFDCFDFFF26EE86F010EEBB
:101F00002FF0DE50E126DD50E222E750786F785165
:101F1000030DF3CF79F2F4CF7AF226EE86F0DECF1E
:101F20007BF2DDCF7CF279517B257D6F7A517C216C
:101F30007E6F180E7D25D96E000E7E21DA6EFECFE3
:101F4000DFFF26EE86F010EE2FF0DE50E126DD50AA
:101F5000E222E750786F7851030DF3CF79F2F4CF96
:101F60007AF226EE86F0DECF7BF2DDCF7CF279517D
:101F70007B257D6F7A517C217E6F190E7D25D96E70
:101F8000000E7E21DA6EFFCFDFFF26EE86F010EE28
:101F90002FF0DE50E126DD50E222E72A0600FC5059
:101FA000D8A4D5EF0FF0D7EF0FF058EF0FF088C699
:101FB00078F202017851300D390EF324D96E050EF6
:101FC000F420DA6E7FC2DFFF6DEC18F026EE86F0AB
:101FD00010EE01F0DE50E126DD50E222E750D8A4F9
:101FE000F4EF0FF0F6EF0FF08DEF11F026EE86F024
:101FF00010EE01F0DE50E126DD50E222020EE76E27
:1020000026EE86F010EE08F0DE50E126DD50E222EA
:10201000E750E06E26EE86F010EE0CF0DE50E12682
:10202000DD50E222E750EA6E26EE86F010EE0BF06D
:10203000DE50E126DD50E222E750E96E26EE86F022
:1020400010EE0EF0DE50E126DD50E222E750E26EA7
:1020500026EE86F010EE0DF0DE50E126DD50E22295
:10206000E750E16E26EE86F010EE10F0DE50E1262D
:10207000DD50E222E750DA6E26EE86F010EE0FF029
:10208000DE50E126DD50E222E750D96E26EE86F0E2
:1020900010EE15F0DE50E126DD50E222E750FA6E38
:1020A00026EE86F010EE16F0DE50E126DD50E2223C
:1020B000E750FB6E26EE86F010EE0AF0DE50E126C9
:1020C000DD50E222E750F46E26EE86F010EE09F0C5
:1020D000DE50E126DD50E222E750F36E26EE86F078
:1020E00010EE11F0DE50E126DD50E222E750F56EF1
:1020F00026EE86F010EE13F0DE50E126DD50E222EF
:10210000E750F76E26EE86F010EE12F0DE50E12674
:10211000DD50E222E750F66E26EE86F010EE14F067
:10212000DE50E126DD50E222E750F86E26EE86F022
:1021300010EE07F0DE50E126DD50E222E750D86EC7
:1021400026EE86F010EE06F0DE50E126DD50E222AB
:10215000E7500201786F7851FC6A26EE86F010EEA7
:102160002FF0DE50E126DD50E222E750D8B4BBEF7D
:1021700010F0BDEF10F046EF11F0050026EE86F0EE
:1021800010EE2FF0DE50E126DD50E222E70626EECB
:1021900086F010EE2FF0DE50E126DD50E222E7500F
:1021A0000201786F7851030DF3CF79F2F4CF7AF210
:1021B00026EE86F0DECF7BF2DDCF7CF279517B25F7
:1021C0007D6F7A517C217E6F170E7D25D96E000EB2
:1021D0007E21DA6EDF50FD6E26EE86F010EE2FF0D7
:1021E000DE50E126DD50E222E750786F7851030D92
:1021F000F3CF79F2F4CF7AF226EE86F0DECF7BF2DF
:10220000DDCF7CF279517B257D6F7A517C217E6F09
:10221000180E7D25D96E000E7E21DA6EDF50FE6E1F
:1022200026EE86F010EE2FF0DE50E126DD50E222A1
:10223000E750786F7851030DF3CF79F2F4CF7AF24B
:1022400026EE86F0DECF7BF2DDCF7CF279517B2566
:102250007D6F7A517C217E6F190E7D25D96E000E1F
:102260007E21DA6EDF50FF6E26EE86F010EE2FF044
:10227000DE50E126DD50E222E750D8A442EF11F013
:1022800044EF11F0BDEF10F08BEF11F0050026EEDA
:1022900086F010EE02F0DE50E126DD50E222E7503B
:1022A000FD6E26EE86F010EE02F0DE50E126DD50E7
:1022B000E222E6CF78F2E5CF79F278C27AF279C2FB
:1022C0007BF202017C6B7BC27AF27CC27BF27C6B7C
:1022D0007A51FE6E100E786F26EE86F010EE02F048
:1022E000DE50E126DD50E222E6CF79F2E5CF7AF248
:1022F00079C27BF27AC27CF27D6B78297E6F85EFA2
:1023000011F0D8907D337C337B337E2F81EF11F039
:1023100002017B51FF6E140E1C6EF28E1200BEEC99
:1023200018F058EC18F026EE86F010EE01F0DE50B2
:10233000E126DD50E222E750D8A4A1EF11F0A3EF8F
:1023400011F03AEF13F026EE86F010EE01F0DE50B9
:10235000E126DD50E222020EE76E26EE86F010EE58
:1023600008F0DE50E126DD50E222E750E06E26EE76
:1023700086F010EE0CF0DE50E126DD50E222E75050
:10238000EA6E26EE86F010EE0BF0DE50E126DD5010
:10239000E222E750E96E26EE86F010EE0EF0DE50F7
:1023A000E126DD50E222E750E26E26EE86F010EEE6
:1023B0000DF0DE50E126DD50E222E750E16E26EE20
:1023C00086F010EE10F0DE50E126DD50E222E750FC
:1023D000DA6E26EE86F010EE0FF0DE50E126DD50CC
:1023E000E222E750D96E26EE86F010EE15F0DE50B0
:1023F000E126DD50E222E750FA6E26EE86F010EE7E
:1024000016F0DE50E126DD50E222E750FB6E26EEAC
:1024100086F010EE0AF0DE50E126DD50E222E750B1
:10242000F46E26EE86F010EE09F0DE50E126DD5067
:10243000E222E750F36E26EE86F010EE11F0DE5049
:10244000E126DD50E222E750F56E26EE86F010EE32
:1024500013F0DE50E126DD50E222E750F76E26EE63
:1024600086F010EE12F0DE50E126DD50E222E75059
:10247000F66E26EE86F010EE14F0DE50E126DD500A
:10248000E222E750F86E26EE86F010EE07F0DE50FE
:10249000E126DD50E222E750D86E26EE86F010EEFF
:1024A00006F0DE50E126DD50E222E75003010A6F1C
:1024B0000A51FC6A26EE86F010EE2FF0DE50E1267F
:1024C000DD50E222E750D8B468EF12F06AEF12F064
:1024D000F3EF12F0050026EE86F010EE2FF0DE503E
:1024E000E126DD50E222E70626EE86F010EE2FF020
:1024F000DE50E126DD50E222E75003010A6F0A5167
:10250000030DF3CF0BF3F4CF0CF326EE86F0DECF02
:102510000DF3DDCF0EF30B510D250F6F0C510E2176
:10252000106F170E0F25D96E000E1021DA6EDF50D6
:10253000FD6E26EE86F010EE2FF0DE50E126DD5027
:10254000E222E7500A6F0A51030DF3CF0BF3F4CFE9
:102550000CF326EE86F0DECF0DF3DDCF0EF30B513C
:102560000D250F6F0C510E21106F180E0F25D96E0F
:10257000000E1021DA6EDF50FE6E26EE86F010EEB1
:102580002FF0DE50E126DD50E222E7500A6F0A51BB
:10259000030DF3CF0BF3F4CF0CF326EE86F0DECF72
:1025A0000DF3DDCF0EF30B510D250F6F0C510E21E6
:1025B000106F190E0F25D96E000E1021DA6EDF5044
:1025C000FF6E26EE86F010EE2FF0DE50E126DD5095
:1025D000E222E750D8A4EFEF12F0F1EF12F06AEF29
:1025E00012F038EF13F0050026EE86F010EE02F040
:1025F000DE50E126DD50E222E750FD6E26EE86F049
:1026000010EE02F0DE50E126DD50E222E6CF0AF3C2
:10261000E5CF0BF30AC30CF30BC30DF303010E6BF1
:102620000DC30CF30EC30DF30E6B0C51FE6E100EAA
:102630000A6F26EE86F010EE02F0DE50E126DD5045
:10264000E222E6CF0BF3E5CF0CF30BC30DF30CC383
:102650000EF30F6B0A29106F32EF13F0D8900F337F
:102660000E330D33102F2EEF13F003010D51FF6EBB
:10267000140E1C6EF28E12000301026B036B056BCD
:1026800078EF13F00551300D360EF324D96E050E98
:10269000F420DA6EDF50D8A450EF13F052EF13F0AD
:1026A00077EF13F00351D8B458EF13F05AEF13F04B
:1026B0006BEF13F00551300D3A0EF324D96E050E71
:1026C000F420DA6EDE50025DD8B069EF13F06BEFE4
:1026D00013F077EF13F00551300D3A0EF324D96E55
:1026E000050EF420DA6EDF50026F010E036F052B2A
:1026F00026EE85F0DE50055DD8A081EF13F083EF64
:1027000013F042EF13F00351D8A489EF13F08BEFCD
:1027100013F08EEF13F0000ED7EF13F088C601F31D
:10272000046BCAEF13F001510425066F26EE85F005
:10273000DE50065DD8A09FEF13F0A1EF13F0A5EFD8
:1027400013F026EE85F0DF50065F0651300D360E91
:10275000F324D96E050EF420DA6EDF50D8A4B3EF5F
:1027600013F0B5EF13F0C9EF13F00651300D3A0E28
:10277000F324D96E050EF420DA6E0251DE18D8A4C7
:10278000C4EF13F0C6EF13F0C9EF13F00651D7EF03
:1027900013F0042B26EE85F0DE50045DD8A0D3EFB5
:1027A00013F0D5EF13F093EF13F08BEF13F012004B
:1027B0000201706B716B736B14EF14F07351300D79
:1027C000360EF324D96E050EF420DA6EDF50D8A44D
:1027D000ECEF13F0EEEF13F013EF14F07151D8B4E7
:1027E000F4EF13F0F6EF13F007EF14F07351300D20
:1027F0003A0EF324D96E050EF420DA6EDE50705DC9
:10280000D8B005EF14F007EF14F013EF14F0735184
:10281000300D3A0EF324D96E050EF420DA6EDF5037
:10282000706F010E716F732B26EE85F0DE50735DB5
:10283000D8A01DEF14F01FEF14F0DEEF13F071516C
:10284000D8A425EF14F027EF14F02AEF14F0000EAF
:1028500073EF14F088C66FF2726B66EF14F06F516D
:102860007225746F26EE85F0DE50745DD8A03BEFC4
:1028700014F03DEF14F041EF14F026EE85F0DF5038
:10288000745F7451300D360EF324D96E050EF420AA
:10289000DA6EDF50D8A44FEF14F051EF14F065EF6B
:1028A00014F07451300D3A0EF324D96E050EF42055
:1028B000DA6E7051DE18D8A460EF14F062EF14F0F5
:1028C00065EF14F0745173EF14F0722B26EE85F05F
:1028D000DE50725DD8A06FEF14F071EF14F02FEF9F
:1028E00014F027EF14F01200046A056A076AAFEFCC
:1028F00014F00750300D360EF324D96E050EF42077
:10290000DA6EDF50D8A487EF14F089EF14F0AEEF41
:1029100014F00550D8B48FEF14F091EF14F0A2EF3B
:1029200014F00750300D3A0EF324D96E050EF42042
:10293000DA6EDE50045CD8B0A0EF14F0A2EF14F011
:10294000AEEF14F00750300D3A0EF324D96E050E99
:10295000F420DA6EDF50046E010E056E072A26EEB3
:1029600085F0DE50075CD8A0B8EF14F0BAEF14F091
:1029700079EF14F00550D8A4C0EF14F0C2EF14F0B2
:10298000C5EF14F0000E0EEF15F088C603F0066ACE
:1029900001EF15F003500624086E26EE85F0DE5098
:1029A000085CD8A0D6EF14F0D8EF14F0DCEF14F0E8
:1029B00026EE85F0DF50085E0850300D360EF32409
:1029C000D96E050EF420DA6EDF50D8A4EAEF14F0C9
:1029D000ECEF14F000EF15F00850300D3A0EF32430
:1029E000D96E050EF420DA6E0450DE18D8A4FBEF81
:1029F00014F0FDEF14F000EF15F008500EEF15F095
:102A0000062A26EE85F0DE50065CD8A00AEF15F007
:102A10000CEF15F0CAEF14F0C2EF14F01200F29EA2
:102A200000019F51D96EDA6ADF50D8B41AEF15F061
:102A30001CEF15F090EF15F086C6D9FF87C6DAFFB8
:102A40009F51E16EE26A010EE126DE50E618D8A43D
:102A50002CEF15F02EEF15F090EF15F09F51D96E79
:102A6000DA6A0A0ED926DF50D8B439EF15F03BEFF9
:102A700015F086EF15F09F51D96EDA6A090ED92646
:102A8000DF50A06F9F51A025D96EDA6A020ED926B9
:102A9000DF50A26FA251300D360EF324D96E050E11
:102AA000F420DA6EDF6A9F51D96EDA6A090ED926F0
:102AB0009F51E16EE26A090EE126E750A06F010E18
:102AC000A02501012F6F306B000E3023326B060EF4
:102AD000316F92EC15F001012F51DF6E00019F5113
:102AE000D96EDA6A0A0ED926DF06A251300D350EEC
:102AF000F324D96E050EF420DA6E9F51E16EE26A7E
:102B0000010EE126DFCFE7FF90EF15F09F51D96E60
:102B1000DA6ADF6A9F51D96EDA6A0A0ED926DF6A4D
:102B2000F28E12000101346B30BF9BEF15F099EF6C
:102B300015F0A1EF15F02F6D301FD8B0302B010E1E
:102B4000346F32BFA8EF15F0A6EF15F0ACEF15F01B
:102B5000316D321FD8B0322B31513211D8B4B3EFAE
:102B600015F0B5EF15F0D9EF15F0010E336FBDEF8D
:102B700015F0D89031373237332B32AFC2EF15F022
:102B8000C4EF15F0B9EF15F031512F5D32513059C6
:102B9000D8A0CDEF15F0CFEF15F0D3EF15F03151F0
:102BA0002F5F3251305BD89032333133332FC4EF43
:102BB00015F03451D8B4DFEF15F0E1EF15F0E5EF83
:102BC00015F02F6D301FD8B0302B2FC12FF130C131
:102BD00030F1120020EEAFF010EEA8F0050EDBCFC2
:102BE000E3FFE806FCE20001AE6B82BCFAEF15F0F1
:102BF000FDEF15F0010EFEEF15F0000EFF0A0001CB
:102C0000A76FA73BA747A7478250A719BF0BA719D4
:102C1000826E600E9F6FAE51A80FD96EDA6ADF50D8
:102C2000A06F4AEC17F0010E0001AE2501012F6FD5
:102C3000306B000E3023326B060E316F92EC15F0C4
:102C400001012F510001AE6F850E0101356F39EC86
:102C500016F07A0E00019F6F01EC08F0050E85EC6E
:102C60000EF07A0E00019F6F0FEC15F0F5EF15F0E6
:102C70001200F29E01013551D96EDA6ADE2A000E89
:102C8000DD223551D96EDA6A010EDBBE53EF16F044
:102C9000010EDB5006E1DE04D8B051EF16F053EF21
:102CA00016F085EF16F03551D96EDA6A090ED9267D
:102CB000DF50366F35513625D96EDA6A020ED926C5
:102CC000DF50376F3751300D360EF324D96E050EB5
:102CD000F420DA6EDF6A3551D96EDA6A090ED92628
:102CE0003551E16EE26A090EE126E750366F010EBA
:102CF00036252F6F306B000E3023326B060E316F8E
:102D000092EC15F001012F51DF6EF28E12000301DB
:102D1000046F04C305F30301096B02C30AF300C384
:102D200007F301C308F3066B0D6B116B106B136B8C
:102D3000126B156B146B1A6B1B6B0F6B0E6B0C6BA2
:102D4000166B186B176B196B0B6B346B23EE05F05E
:102D500085C603F30351300D350EF324E16E050EE5
:102D6000F420E26E2F0EDBCFE3FFE806FCE285C61F
:102D7000E8FF010FE8CF85F61200D80EF66E310E8F
:102D8000F76E000EF86E00EEAFF010EE06F00900E0
:102D9000F5CFEEFFE550E150FAE1DE0EF66E310EB2
:102DA000F76E000EF86E0900F5CF1CF003EE35F05B
:102DB00013EE54F0EE6AE550E150FCE1E250FAE126
:102DC00000EE60F02F0EEE6AE806FDE11B6A01904E
:102DD0000192000EF86E0001EEEF16F0F7EC17F01E
:102DE000D40E0301006F2B0E016F010E026F020E55
:102DF00087EC16F0EA0E0301006F2E0E016F010E34
:102E0000026F030E87EC16F0500E0301006F300EB8
:102E1000016F010E026F040E87EC16F0B20E030173
:102E2000006F310E016F010E026F050E87EC16F078
:102E30008FEC11F01AEF17F0A7EF03F001013D51ED
:102E4000100F356F4DEC0BF001013D51D96EDA6A70
:102E5000050ED926DF503F6F3D513F25D96EDA6A06
:102E60003E51E16EE26ADFCFE7FF3D51D96EDA6A8B
:102E7000050ED9263D51E16EE26A050EE126E750C6
:102E80003F6F3F29030BDF6E3D51060F356F39EC65
:102E900016F0120000019F51060F0101356F4DEC35
:102EA0000BF000019F51D96EDA6A040ED926DF506B
:102EB000A16F9F51A125D96EDA6AA0C0DFFF9F5193
:102EC000D96EDA6A040ED9269F51E16EE26A040EC9
:102ED000E126E750A16FA129030BDF6E9F51100F70
:102EE0000101356F39EC16F01200850E0101356FC6
:102EF0004DEC0BF0600E01013D6F1B0E3E6F1EECA2
:102F000017F04C0E1B18D8A488EF17F08AEF17F0B3
:102F10008DEF17F0838075EF17F0440E1B18D8A4BF
:102F200094EF17F096EF17F075EF17F0839075EFA9
:102F300017F0120093800F013991949C949E959004
:102F40003B913A9D3A9FF288F19CF29282EC18F004
:102F5000E5EC18F0850E0301006F000E016F10EC18
:102F600018F0600E0301046FDAEC17F07A0E03011B
:102F7000006FBCEC17F0120003010051D96EDA6A41
:102F8000DF6A0051D96EDA6A010ED926DF6A005174
:102F9000D96EDA6A080ED926DF6A0051D96EDA6A6C
:102FA000090ED926DF6A0051D96EDA6A0A0ED926CF
:102FB000DF6A120003010451D96EDA6A040ED926C1
:102FC000DF6A0451D96EDA6A050ED926DF6A045128
:102FD000060F006F040E016F10EC18F0030104518E
:102FE000100F006F000E016F10EC18F01200000EB1
:102FF000E8CF85F6350EE8CF86F6050EE8CF87F6E2
:10300000000EE8CF88F62C0E0301006F310E016F21
:10301000000E026F010E87EC16F09AEC17F012000A
:1030200003010151026F036B0051D96EDA6A02C3CA
:10303000DEFF03C3DDFF0051D96EDA6A080ED92620
:10304000DF6A0051D96EDA6A090ED926DF6A1200EA
:10305000CCEC18F00101415109E17B0E405DD8A094
:1030600034EF18F036EF18F039EF18F0828E3AEF9F
:1030700018F0829E0A0E85EC0EF028EF18F0120070
:103080006EC270F26FC271F20201D8907133703368
:10309000D890713370337051BE6E6EC270F2030EF1
:1030A0007017703BBD507019CF0B7019BD6E1200B8
:1030B0003CEC13F00301076F07C388F688C607F3DB
:1030C0000751300D350EF324086F050EF420096FFB
:1030D00008C386F609C387F61200D8EC13F0020184
:1030E000756F75C288F688C675F27551300D350E4C
:1030F000F324766F050EF420776F76C286F677C2DA
:1031000087F61200830EC216F30EC116FC0EC1160E
:10311000C08EC050C70B3009C06EC050F80B0409F8
:10312000C06E92800F013881C2801200949082B0EC
:103130009CEF18F09FEF18F0010EA0EF18F0000EB2
:10314000FF0A026E82500218FE0B0218826E97EF81
:1031500018F0120074EC14F0096E09C088F688C6E5
:1031600009F00950300D350EF3240A6E050EF420D7
:103170000B6E0AC086F60BC087F61200F28AF29434
:10318000D58CD59AD596070ED512D58ED76A000E56
:10319000D66EF28EF28C1200C282C2B2D2EF18F05A
:1031A000D4EF18F0CDEF18F0C3CF40F1C4CF41F108
:1031B000120002016F6B800E6E6F40EC18F0050E6E
:1031C00085EC0EF0D9EF18F01200BB680C0EBD6E46
:0F31D000040EBA6E949412004C4C444C444414B8
:00000001FF
