:040000008DEF03F08D
:100008000182E1CF19F0E2CF1AF0D9CF1BF0DACF95
:100018001CF0F3CF1DF0F4CF1EF0F2A416EF00F0A1
:1000280018EF00F07FEF03F0F294206A000E1F6EC5
:100038006EEF00F0750E1F02F3CF12F0F4CF13F03D
:100048002002F35013267A0E1224D96E040E1320C0
:10005800DA6EDF50D8B433EF00F035EF00F06CEF14
:1000680000F0750E1F02F3CF12F0F4CF13F0200248
:10007800F35013267A0E1224D96E040E1320DA6E6A
:10008800DF06750E1F02F3CF12F0F4CF13F0200233
:10009800F35013267A0E1224D96E040E1320DA6E4A
:1000A800DF50D8A45AEF00F05CEF00F06CEF00F0DE
:1000B800750E1F02F3CF12F0F4CF13F02002F350A5
:1000C8001326770E1224D96E040E1320DA6EDF6A17
:1000D8001F4A202A26EE4AF0DF50126E136A125089
:1000E8001F5C2050800A146E1350800A1458D8A040
:1000F80080EF00F082EF00F01EEF00F03606365079
:10010800D8A489EF00F08BEF00F07FEF03F0140E16
:10011800366E26EE4BF010EE01F0DE50E126DD5093
:10012800E222020EE618D8A49CEF00F09EEF00F041
:10013800DAEF01F026EE4BF010EE01F0DE50E1268A
:10014800DD50E222E76A26EE4BF010EE08F0DE50B2
:10015800E126DD50E222E0CFE7FF26EE4BF010EE7D
:100168000CF0DE50E126DD50E222EACFE7FF26EE72
:100178004BF010EE0BF0DE50E126DD50E222E9CF25
:10018800E7FF26EE4BF010EE0EF0DE50E126DD50D4
:10019800E222E2CFE7FF26EE4BF010EE0DF0DE5044
:1001A800E126DD50E222E1CFE7FF26EE4BF010EE2C
:1001B80010F0DE50E126DD50E222DACFE7FF26EE2E
:1001C8004BF010EE0FF0DE50E126DD50E222D9CFE1
:1001D800E7FF26EE4BF010EE15F0DE50E126DD507D
:1001E800E222FACFE7FF26EE4BF010EE16F0DE50D3
:1001F800E126DD50E222FBCFE7FF26EE4BF010EEC2
:100208000AF0DE50E126DD50E222F4CFE7FF26EEC9
:100218004BF010EE09F0DE50E126DD50E222F3CF7C
:10022800E7FF26EE4BF010EE11F0DE50E126DD5030
:10023800E222F5CFE7FF26EE4BF010EE13F0DE508A
:10024800E126DD50E222F7CFE7FF26EE4BF010EE75
:1002580012F0DE50E126DD50E222F6CFE7FF26EE6F
:100268004BF010EE14F0DE50E126DD50E222F8CF1C
:10027800E7FF26EE4BF010EE06F0DE50E126DD50EB
:10028800E222E8CFE7FF26EE4BF010EE07F0DE5053
:10029800E126DD50E222D8CFE7FF26EE4BF010EE44
:1002A80074F0DE50E126DD50E222E76AD2EF01F079
:1002B80026EE4BF010EE74F0DE50E126DD50E2221F
:1002C800E750126E1250030DF3CF13F0F4CF14F071
:1002D80026EE4BF0DECF15F0DDCF16F013501524C7
:1002E800176E14501620186E170E1724D96E000EAC
:1002F8001820DA6EFDCFDFFF26EE4BF010EE74F01B
:10030800DE50E126DD50E222E750126E1250030D56
:10031800F3CF13F0F4CF14F026EE4BF0DECF15F048
:10032800DDCF16F013501524176E14501620186ED2
:10033800180E1724D96E000E1820DA6EFECFDFFFD4
:1003480026EE4BF010EE74F0DE50E126DD50E2228E
:10035800E750126E1250030DF3CF13F0F4CF14F0E0
:1003680026EE4BF0DECF15F0DDCF16F01350152436
:10037800176E14501620186E190E1724D96E000E19
:100388001820DA6EFFCFDFFF26EE4BF010EE74F088
:10039800DE50E126DD50E222E72A0600FC50D8A410
:1003A800D8EF01F0DAEF01F05CEF01F001EC11F0A9
:1003B80026EE4BF010EE01F0DE50E126DD50E22291
:1003C800E750D8A4EAEF01F0ECEF01F07FEF03F07B
:1003D80026EE4BF010EE01F0DE50E126DD50E22271
:1003E800020EE76E26EE4BF010EE08F0DE50E12626
:1003F800DD50E222E750E06E26EE4BF010EE0CF0F6
:10040800DE50E126DD50E222E750EA6E26EE4BF0A0
:1004180010EE0BF0DE50E126DD50E222E750E96EE7
:1004280026EE4BF010EE0EF0DE50E126DD50E22213
:10043800E750E26E26EE4BF010EE0DF0DE50E126AE
:10044800DD50E222E750E16E26EE4BF010EE10F0A0
:10045800DE50E126DD50E222E750DA6E26EE4BF060
:1004680010EE0FF0DE50E126DD50E222E750D96EA3
:1004780026EE4BF010EE15F0DE50E126DD50E222BC
:10048800E750FA6E26EE4BF010EE16F0DE50E1263D
:10049800DD50E222E750FB6E26EE4BF010EE0AF03C
:1004A800DE50E126DD50E222E750F46E26EE4BF0F6
:1004B80010EE09F0DE50E126DD50E222E750F36E3F
:1004C80026EE4BF010EE11F0DE50E126DD50E22270
:1004D800E750F56E26EE4BF010EE13F0DE50E126F5
:1004E800DD50E222E750F76E26EE4BF010EE12F0E8
:1004F800DE50E126DD50E222E750F66E26EE4BF0A4
:1005080010EE14F0DE50E126DD50E222E750F86EDE
:1005180026EE4BF010EE07F0DE50E126DD50E22229
:10052800E750D86E26EE4BF010EE06F0DE50E126CE
:10053800DD50E222E750126E1250FC6A26EE4BF0B4
:1005480010EE74F0DE50E126DD50E222E750D8B418
:10055800B0EF02F0B2EF02F03AEF03F0050026EE3A
:100568004BF010EE74F0DE50E126DD50E222E70693
:1005780026EE4BF010EE74F0DE50E126DD50E2225C
:10058800E750126E1250030DF3CF13F0F4CF14F0AE
:1005980026EE4BF0DECF15F0DDCF16F01350152404
:1005A800176E14501620186E170E1724D96E000EE9
:1005B8001820DA6EDF50FD6E26EE4BF010EE74F068
:1005C800DE50E126DD50E222E750126E1250030D94
:1005D800F3CF13F0F4CF14F026EE4BF0DECF15F086
:1005E800DDCF16F013501524176E14501620186E10
:1005F800180E1724D96E000E1820DA6EDF50FE6E22
:1006080026EE4BF010EE74F0DE50E126DD50E222CB
:10061800E750126E1250030DF3CF13F0F4CF14F01D
:1006280026EE4BF0DECF15F0DDCF16F01350152473
:10063800176E14501620186E190E1724D96E000E56
:100648001820DA6EDF50FF6E26EE4BF010EE74F0D5
:10065800DE50E126DD50E222E750D8A436EF03F061
:1006680038EF03F0B2EF02F07DEF03F0050026EE5D
:100678004BF010EE02F0DE50E126DD50E222E750AA
:10068800FD6E26EE4BF010EE02F0DE50E126DD5056
:10069800E222E6CF12F0E5CF13F012C014F013C037
:1006A80015F0166A15C014F016C015F0166A145025
:1006B800FE6E100E126E26EE4BF010EE02F0DE50BB
:1006C800E126DD50E222E6CF13F0E5CF14F013C0A7
:1006D80015F014C016F0176A1228186E78EF03F098
:1006E800D890173216321532182E74EF03F01550C1
:1006F800FF6E140E366E1EC0F4FF1DC0F3FF1CC043
:10070800DAFF1BC0D9FF1AC0E2FF19C0E1FF01924E
:06071800110011EF10F0CA
:10100000000000019B6FF29E26EE4BF010EE01F007
:10101000DE50E126DD50E222020EE618D8A413EFDE
:1010200008F015EF08F053EF09F026EE4BF010EE44
:1010300001F0DE50E126DD50E222010EE76E26EEE1
:101040004BF010EE08F0DE50E126DD50E222E0CF5A
:10105000E7FF26EE4BF010EE0CF0DE50E126DD50FF
:10106000E222EACFE7FF26EE4BF010EE0BF0DE5067
:10107000E126DD50E222E9CFE7FF26EE4BF010EE4D
:101080000EF0DE50E126DD50E222E2CFE7FF26EE51
:101090004BF010EE0DF0DE50E126DD50E222E1CF04
:1010A000E7FF26EE4BF010EE10F0DE50E126DD50AB
:1010B000E222DACFE7FF26EE4BF010EE0FF0DE5023
:1010C000E126DD50E222D9CFE7FF26EE4BF010EE0D
:1010D00015F0DE50E126DD50E222FACFE7FF26EEE2
:1010E0004BF010EE16F0DE50E126DD50E222FBCF91
:1010F000E7FF26EE4BF010EE0AF0DE50E126DD5061
:10110000E222F4CFE7FF26EE4BF010EE09F0DE50BE
:10111000E126DD50E222F3CFE7FF26EE4BF010EEA2
:1011200011F0DE50E126DD50E222F5CFE7FF26EE9A
:101130004BF010EE13F0DE50E126DD50E222F7CF47
:10114000E7FF26EE4BF010EE12F0DE50E126DD5008
:10115000E222F6CFE7FF26EE4BF010EE14F0DE5061
:10116000E126DD50E222F8CFE7FF26EE4BF010EE4D
:1011700006F0DE50E126DD50E222E8CFE7FF26EE62
:101180004BF010EE07F0DE50E126DD50E222D8CF22
:10119000E7FF26EE4BF010EE74F0DE50E126DD5056
:1011A000E222E76A4BEF09F026EE4BF010EE74F006
:1011B000DE50E126DD50E222E75001014D6F4D5136
:1011C000030DF3CF4EF1F4CF4FF126EE4BF0DECF0F
:1011D00050F1DDCF51F14E515025526F4F515121F9
:1011E000536F170E5225D96E000E5321DA6EFDCFC4
:1011F000DFFF26EE4BF010EE74F0DE50E126DD50FE
:10120000E222E7504D6F4D51030DF3CF4EF1F4CF75
:101210004FF126EE4BF0DECF50F1DDCF51F14E51C4
:101220005025526F4F515121536F180E5225D96ED0
:10123000000E5321DA6EFECFDFFF26EE4BF010EEEC
:1012400074F0DE50E126DD50E222E7504D6F4D5143
:10125000030DF3CF4EF1F4CF4FF126EE4BF0DECF7E
:1012600050F1DDCF51F14E515025526F4F51512168
:10127000536F190E5225D96E000E5321DA6EFFCF2F
:10128000DFFF26EE4BF010EE74F0DE50E126DD506D
:10129000E222E72A0600FC50D8A451EF09F053EFF0
:1012A00009F0D4EF08F04DC64DF101014D51750D17
:1012B0007A0EF324D96E040EF420DA6E9BC0DFFFA1
:1012C000D8EC10F026EE4BF010EE01F0DE50E126E7
:1012D000DD50E222E750D8A470EF09F072EF09F078
:1012E00009EF0BF026EE4BF010EE01F0DE50E12698
:1012F000DD50E222020EE76E26EE4BF010EE08F013
:10130000DE50E126DD50E222E750E06E26EE4BF0A3
:1013100010EE0CF0DE50E126DD50E222E750EA6EDE
:1013200026EE4BF010EE0BF0DE50E126DD50E2220F
:10133000E750E96E26EE4BF010EE0EF0DE50E1269F
:10134000DD50E222E750E26E26EE4BF010EE0DF09B
:10135000DE50E126DD50E222E750E16E26EE4BF052
:1013600010EE10F0DE50E126DD50E222E750DA6E9A
:1013700026EE4BF010EE0FF0DE50E126DD50E222BB
:10138000E750D96E26EE4BF010EE15F0DE50E12658
:10139000DD50E222E750FA6E26EE4BF010EE16F02A
:1013A000DE50E126DD50E222E750FB6E26EE4BF0E8
:1013B00010EE0AF0DE50E126DD50E222E750F46E36
:1013C00026EE4BF010EE09F0DE50E126DD50E22271
:1013D000E750F36E26EE4BF010EE11F0DE50E126F2
:1013E000DD50E222E750F56E26EE4BF010EE13F0E2
:1013F000DE50E126DD50E222E750F76E26EE4BF09C
:1014000010EE12F0DE50E126DD50E222E750F66EDB
:1014100026EE4BF010EE14F0DE50E126DD50E22215
:10142000E750F86E26EE4BF010EE07F0DE50E126A6
:10143000DD50E222E750D86E26EE4BF010EE06F0BB
:10144000DE50E126DD50E222E75001014D6F4D51A3
:10145000FC6A26EE4BF010EE74F0DE50E126DD5013
:10146000E222E750D8B437EF0AF039EF0AF0C2EFC2
:101470000AF0050026EE4BF010EE74F0DE50E12687
:10148000DD50E222E70626EE4BF010EE74F0DE505F
:10149000E126DD50E222E75001014D6F4D51030D71
:1014A000F3CF4EF1F4CF4FF126EE4BF0DECF50F1FB
:1014B000DDCF51F14E515025526F4F515121536F95
:1014C000170E5225D96E000E5321DA6EDF50FD6ED5
:1014D00026EE4BF010EE74F0DE50E126DD50E222F5
:1014E000E7504D6F4D51030DF3CF4EF1F4CF4FF157
:1014F00026EE4BF0DECF50F1DDCF51F14E515025AD
:10150000526F4F515121536F180E5225D96E000E54
:101510005321DA6EDF50FE6E26EE4BF010EE74F0C3
:10152000DE50E126DD50E222E7504D6F4D51030DB4
:10153000F3CF4EF1F4CF4FF126EE4BF0DECF50F16A
:10154000DDCF51F14E515025526F4F515121536F04
:10155000190E5225D96E000E5321DA6EDF50FF6E40
:1015600026EE4BF010EE74F0DE50E126DD50E22264
:10157000E750D8A4BEEF0AF0C0EF0AF039EF0AF046
:1015800007EF0BF0050026EE4BF010EE02F0DE50F8
:10159000E126DD50E222E750FD6E26EE4BF010EE24
:1015A00002F0DE50E126DD50E222E6CF4DF1E5CF3C
:1015B0004EF14DC14FF14EC150F10101516B50C17F
:1015C0004FF151C150F1516B4F51FE6E100E4D6FE6
:1015D00026EE4BF010EE02F0DE50E126DD50E22266
:1015E000E6CF4EF1E5CF4FF14EC150F14FC151F171
:1015F000526B4D29536F01EF0BF0D890523351339A
:101600005033532FFDEF0AF001015051FF6E140EBD
:10161000366EF28E120015EC11F0C3EC10F026EECF
:101620004BF010EE01F0DE50E126DD50E222E750F3
:10163000D8A41DEF0BF01FEF0BF0B6EF0CF026EE69
:101640004BF010EE01F0DE50E126DD50E222020EFA
:10165000E76E26EE4BF010EE08F0DE50E126DD508E
:10166000E222E750E06E26EE4BF010EE0CF0DE507A
:10167000E126DD50E222E750EA6E26EE4BF010EE56
:101680000BF0DE50E126DD50E222E750E96E26EE57
:101690004BF010EE0EF0DE50E126DD50E222E75076
:1016A000E26E26EE4BF010EE0DF0DE50E126DD503E
:1016B000E222E750E16E26EE4BF010EE10F0DE5025
:1016C000E126DD50E222E750DA6E26EE4BF010EE16
:1016D0000FF0DE50E126DD50E222E750D96E26EE13
:1016E0004BF010EE15F0DE50E126DD50E222E7501F
:1016F000FA6E26EE4BF010EE16F0DE50E126DD50CD
:10170000E222E750FB6E26EE4BF010EE0AF0DE50C0
:10171000E126DD50E222E750F46E26EE4BF010EEAB
:1017200009F0DE50E126DD50E222E750F36E26EEAE
:101730004BF010EE11F0DE50E126DD50E222E750D2
:10174000F56E26EE4BF010EE13F0DE50E126DD5084
:10175000E222E750F76E26EE4BF010EE12F0DE506C
:10176000E126DD50E222E750F66E26EE4BF010EE59
:1017700014F0DE50E126DD50E222E750F86E26EE4E
:101780004BF010EE07F0DE50E126DD50E222E7508C
:10179000D86E26EE4BF010EE06F0DE50E126DD505E
:1017A000E222E7500101646F6451FC6A26EE4BF0BF
:1017B00010EE74F0DE50E126DD50E222E750D8B49E
:1017C000E4EF0BF0E6EF0BF06FEF0CF0050026EE08
:1017D0004BF010EE74F0DE50E126DD50E222E70619
:1017E00026EE4BF010EE74F0DE50E126DD50E222E2
:1017F000E7500101646F6451030DF3CF65F1F4CF3D
:1018000066F126EE4BF0DECF67F1DDCF68F1655172
:101810006725696F665168216A6F170E6925D96E51
:10182000000E6A21DA6EDF50FD6E26EE4BF010EEF0
:1018300074F0DE50E126DD50E222E750646F64511F
:10184000030DF3CF65F1F4CF66F126EE4BF0DECF5A
:1018500067F1DDCF68F165516725696F66516821D1
:101860006A6F180E6925D96E000E6A21DA6EDF5094
:10187000FE6E26EE4BF010EE74F0DE50E126DD50E9
:10188000E222E750646F6451030DF3CF65F1F4CFAA
:1018900066F126EE4BF0DECF67F1DDCF68F16551E2
:1018A0006725696F665168216A6F190E6925D96EBF
:1018B000000E6A21DA6EDF50FF6E26EE4BF010EE5E
:1018C00074F0DE50E126DD50E222E750D8A46BEF41
:1018D0000CF06DEF0CF0E6EF0BF0B4EF0CF0050040
:1018E00026EE4BF010EE02F0DE50E126DD50E22253
:1018F000E750FD6E26EE4BF010EE02F0DE50E126D2
:10190000DD50E222E6CF64F1E5CF65F164C166F116
:1019100065C167F10101686B67C166F168C167F174
:10192000686B6651FE6E100E646F26EE4BF010EE83
:1019300002F0DE50E126DD50E222E6CF65F1E5CF90
:1019400066F165C167F166C168F1696B64296A6F08
:10195000AEEF0CF0D8906933683367336A2FAAEF83
:101960000CF001016751FF6E140E366EF28E1200FC
:101970000001966B976B9A6BF4EF0CF09A51750D12
:10198000770EF324D96E040EF420DA6EDF50D8A45B
:10199000CCEF0CF0CEEF0CF0F3EF0CF09751D8B485
:1019A000D4EF0CF0D6EF0CF0E7EF0CF09A51750D78
:1019B0007B0EF324D96E040EF420DA6EDE50965DB1
:1019C000D8B0E5EF0CF0E7EF0CF0F3EF0CF09A5124
:1019D000750D7B0EF324D96E040EF420DA6EDF5001
:1019E000966F010E976F9A2B26EE4AF0DE509A5DA5
:1019F000D8A0FDEF0CF0FFEF0CF0BEEF0CF097510C
:101A0000D8A405EF0DF007EF0DF00AEF0DF0000E72
:101A100054EF0DF04DC695F0986B47EF0DF09551D2
:101A200098250101466F476B47374AC694F000017D
:101A300094510101486F496B85EC0EF0010146514C
:101A40000001996F9951750D770EF324D96E040E2C
:101A5000F420DA6EDF50D8A430EF0DF032EF0DF045
:101A600046EF0DF09951750D7B0EF324D96E040EDF
:101A7000F420DA6E9651DE18D8A441EF0DF043EF52
:101A80000DF046EF0DF0995154EF0DF0982B26EE26
:101A90004AF0DE50985DD8A050EF0DF052EF0DF0F7
:101AA0000FEF0DF007EF0DF0120001015C6B5D6BA5
:101AB000606B91EF0DF06051750D770EF324D96EC8
:101AC000040EF420DA6EDF50D8A469EF0DF06BEF4E
:101AD0000DF090EF0DF05D51D8B471EF0DF073EF94
:101AE0000DF084EF0DF06051750D7B0EF324D96E6F
:101AF000040EF420DA6EDE505C5DD8B082EF0DF09B
:101B000084EF0DF090EF0DF06051750D7B0EF32416
:101B1000D96E040EF420DA6EDF505C6F010E5D6F3B
:101B2000602B26EE4AF0DE50605DD8A09AEF0DF0F3
:101B30009CEF0DF05BEF0DF05D51D8A4A2EF0DF01E
:101B4000A4EF0DF0A7EF0DF0000EEDEF0DF04DC678
:101B50005BF15E6BE0EF0DF05B515E25546F556BF2
:101B600055374AC65AF15A51566F576BE7EC0EF08B
:101B7000010154515F6F5F51750D770EF324D96EDB
:101B8000040EF420DA6EDF50D8A4C9EF0DF0CBEFCD
:101B90000DF0DFEF0DF05F51750D7B0EF324D96E64
:101BA000040EF420DA6E5C51DE18D8A4DAEF0DF0E2
:101BB000DCEF0DF0DFEF0DF05F51EDEF0DF05E2B80
:101BC00026EE4AF0DE505E5DD8A0E9EF0DF0EBEFB7
:101BD0000DF0ACEF0DF0A4EF0DF012000A6A0B6AE5
:101BE0000E6A29EF0EF00E50750D770EF324D96EA4
:101BF000040EF420DA6EDF50D8A401EF0EF003EFEC
:101C00000EF028EF0EF00B50D8B409EF0EF00BEFEA
:101C10000EF01CEF0EF00E50750D7B0EF324D96EF6
:101C2000040EF420DA6EDE500A5CD8B01AEF0EF023
:101C30001CEF0EF028EF0EF00E50750D7B0EF32406
:101C4000D96E040EF420DA6EDF500A6E010E0B6EB0
:101C50000E2A26EE4AF0DE500E5CD8A032EF0EF0CF
:101C600034EF0EF0F3EF0DF00B50D8A43AEF0EF076
:101C70003CEF0EF03FEF0EF0000E84EF0EF04DC67D
:101C800009F00C6A77EF0EF009500C24026E036A1B
:101C900003364AC608F00850046E056A3FEC0FF0A0
:101CA00002500D6E0D50750D770EF324D96E040E93
:101CB000F420DA6EDF50D8A460EF0EF062EF0EF081
:101CC00076EF0EF00D50750D7B0EF324D96E040ED9
:101CD000F420DA6E0A50DE18D8A471EF0EF073EF1C
:101CE0000EF076EF0EF00D5084EF0EF00C2A26EE7B
:101CF0004AF0DE500C5CD8A080EF0EF082EF0EF0C0
:101D000044EF0EF03CEF0EF012000001936B010166
:101D100047BF8FEF0EF08DEF0EF096EF0EF0466D91
:101D2000471FD8B0472B010E0001936F010149BF37
:101D30009EEF0EF09CEF0EF0A2EF0EF0486D491FE3
:101D4000D8B0492B48514911D8B4A9EF0EF0ABEFE8
:101D50000EF0D4EF0EF0010E0001926FB5EF0EF011
:101D6000D890483749370001922B010149AFBBEFAA
:101D70000EF0BDEF0EF0B0EF0EF001014851465DE0
:101D800049514759D8A0C7EF0EF0C9EF0EF0CDEF7B
:101D90000EF04851465F4951475BD890493348336C
:101DA0000001922FBDEF0EF000019351D8B4DBEF8C
:101DB0000EF0DDEF0EF0E2EF0EF00101466D471F71
:101DC000D8B0472B46C146F147C147F11200010187
:101DD000596B55BFF0EF0EF0EEEF0EF0F6EF0EF090
:101DE000546D551FD8B0552B010E596F57BFFDEFDD
:101DF0000EF0FBEF0EF001EF0FF0566D571FD8B04D
:101E0000572B56515711D8B408EF0FF00AEF0FF0C7
:101E10002EEF0FF0010E586F12EF0FF0D8905637DB
:101E20005737582B57AF17EF0FF019EF0FF00EEF92
:101E30000FF05651545D57515559D8A022EF0FF06D
:101E400024EF0FF028EF0FF05651545F5751555BB8
:101E5000D89057335633582F19EF0FF05951D8B443
:101E600034EF0FF036EF0FF03AEF0FF0546D551FCF
:101E7000D8B0552B54C154F155C155F11200076A21
:101E800003BE47EF0FF045EF0FF04DEF0FF0026C80
:101E9000031ED8B0032A010E076E05BE54EF0FF0E3
:101EA00052EF0FF058EF0FF0046C051ED8B0052A62
:101EB00004500510D8B45FEF0FF061EF0FF085EF1D
:101EC0000FF0010E066E69EF0FF0D890043605365C
:101ED000062A05AE6EEF0FF070EF0FF065EF0FF012
:101EE0000450025C05500358D8A079EF0FF07BEF47
:101EF0000FF07FEF0FF00450025E0550035AD890A8
:101F000005320432062E70EF0FF00750D8B48BEF75
:101F10000FF08DEF0FF091EF0FF0026C031ED8B0B1
:101F2000032A02C002F003C003F0120079EC10F0A3
:101F3000000E0101546F000E556F050E566F020E14
:101F4000DAEC0FF0000E0101546F000E556F050E14
:101F5000566F030EDAEC0FF0000E0101546F000E05
:101F6000556F050E566F040EDAEC0FF0420E0101AC
:101F7000546F220E556F030E566F020EDAEC0FF0FF
:101F8000520E0101546F220E556F030E566F030E51
:101F9000DAEC0FF0620E0101546F220E556F030E42
:101FA000566F040EDAEC0FF00BEC0BF0D6EF0FF0DF
:101FB0008DEF03F00201006F00C201F20201056B18
:101FC00056C106F254C103F255C104F2026B096B0B
:101FD0000D6B0C6B0F6B0E6B116B106B166B176B25
:101FE0000B6B0A6B086B126B146B136B156B076B27
:101FF000756B22EE01F04AC657F101015751750D7C
:10200000760EF324E16E040EF420E26E740EDBCF44
:10201000E3FFE806FCE24AC6E8FF010FE8CF4AF614
:102020001200720EF66E220EF76E000EF86E00EEC3
:1020300030F010EE07F00900F5CFEEFFE550E1506B
:10204000FAE102EE76F013EED8F0EE6AE550E150D8
:10205000FCE1E250FAE100EE9CF0140EEE6AE806B4
:10206000FDE100EE21F00F0EEE6AE806FDE10190C1
:102070000192000EF86E000196EF0FF0010154512D
:10208000D96EDA6ADF6A5451D96EDA6A010ED9263E
:10209000DF6A5451D96EDA6A050ED926DF6A5451C7
:1020A000D96EDA6A060ED926DF6A5451D96EDA6A19
:1020B000070ED926DF6A120001015851D96EDA6A7B
:1020C000040ED926DF6A5851D96EDA6A050ED92670
:1020D000DF6A5851060F546F040E556FABEC10F0C9
:1020E000010158510D0F546F000E556FABEC10F0FD
:1020F0001200000EE8CF4AF6760EE8CF4BF6040E3B
:10210000E8CF4CF6000EE8CF4DF6DA0E0101546F21
:10211000210E556F000E566F010EDAEC0FF092ECA7
:1021200010F01200949C949E95900F013B913A9D63
:102130003A9F290E0101546F000E556FABEC10F061
:102140009C0E0101586F5CEC10F0210E0101546FE0
:102150003EEC10F0120001015551566F576B54516F
:10216000D96EDA6A56C1DEFF57C1DDFF5451D96E10
:10217000DA6A050ED926DF6A5451D96EDA6A060E7C
:10218000D926DF6A120055EC0DF00101616F61C1C3
:102190004DF64DC661F16151750D760EF324626FF7
:1021A000040EF420636F62C14BF663C14CF612005B
:1021B000B8EC0CF001014A6F4AC14DF64DC64AF128
:1021C0004A51750D760EF3244B6F040EF4204C6FBC
:1021D0004BC14BF64CC14CF61200949082B0F3EF19
:1021E00010F0F6EF10F0010EF7EF10F0000EFF0AFE
:1021F000026E82500218FE0B0218826EEEEF10F093
:102200001200EEEC0DF00F6E0FC04DF64DC60FF044
:102210000F50750D760EF324106E040EF420116E1F
:1022200010C04BF611C04CF61200F28AF294D58C15
:10223000D59AD596070ED512D58ED76A000ED66ED2
:102240001200828C050E01EC08F0829C21EF11F047
:102250001200828E050E01EC08F0829E29EF11F02B
:1022600012008380050E01EC08F0839031EF11F02D
:0922700012004C4C444C4444148F
:00000001FF
