:040000006CEF02F0AF
:100008000182E1CF0EF0E2CF0FF0D9CF10F0DACFB6
:1000180011F0F3CF12F0F4CF13F0F2A416EF00F0C2
:1000280018EF00F04DEF02F0F294156A000E146E0E
:100038007FEF00F0230E1402F3CF09F0F4CF0AF09B
:100048001502F3500A26030E0924D96E010E0A2060
:10005800DA6EDF50D8B433EF00F035EF00F07DEF03
:1000680000F0230E1402F3CF09F0F4CF0AF01502C2
:10007800F3500A26030E0924D96E010E0A20DA6EFF
:10008800DF06230E1402F3CF09F0F4CF0AF01502AD
:10009800F3500A26030E0924D96E010E0A20DA6EDF
:1000A800DF50D8A45AEF00F05CEF00F07DEF00F0CD
:1000B800230E1402F3CF09F0F4CF0AF01502F3501F
:1000C8000A26040E0924D96E010E0A20DA6E230EC0
:1000D8001402F3CF0BF0F4CF0CF01502F3500C26FA
:1000E800040E0B24E16E010E0C20E26EE750FC0BAF
:1000F800DF6E144A152A0101D251096E0A6A0950A5
:10010800145C1550800A0B6E0A50800A0B58D8A050
:1001180090EF00F092EF00F01EEF00F02006205064
:10012800D8A499EF00F09BEF00F04DEF02F0140E09
:10013800206ED351230D040EF324D96E010EF42042
:10014800DA6EDF50030B020AD8A4ADEF00F0AFEF70
:1001580000F072EF01F0D351230D040EF324D96E91
:10016800010EF420DA6ED351230D040EF324E16E50
:10017800010EF420E26EE750FC0BDF6ED351230D25
:10018800070EF324D96E010EF420DA6EE0CFDFFFFC
:10019800D351230D050EF324D96E010EF420DA6E27
:1001A800E8CFDFFFD351230D060EF324D96E010EDD
:1001B800F420DA6ED8CFDFFFD351230D090EF324D4
:1001C800D96E010EF420DA6EEACFDFFFD351230D8A
:1001D800080EF324D96E010EF420DA6EE9CFDFFFA2
:1001E800D351230D220EF324D96E010EF420DA6EBA
:1001F800DF6A6AEF01F00101D351230D220EF324C7
:10020800D96E010EF420DA6EDF50096E0950030D25
:10021800F3CF0AF0F4CF0BF0D351230D0A0EF324D9
:100228000C6E010EF4200D6E0A500C24D96E0B5082
:100238000D20DA6EFDCFDFFFD351230D220EF324FC
:10024800D96E010EF420DA6EDF50096E0950030DE5
:10025800F3CF0AF0F4CF0BF0D351230D0B0EF32498
:100268000C6E010EF4200D6E0A500C24D96E0B5042
:100278000D20DA6EFECFDFFFD351230D220EF324BB
:10028800D96E010EF420DA6EDF50096E0950030DA5
:10029800F3CF0AF0F4CF0BF0D351230D0C0EF32457
:1002A8000C6E010EF4200D6E0A500C24D96E0B5002
:1002B8000D20DA6EFFCFDFFFD351230D220EF3247A
:1002C800D96E010EF420DA6EDF2A0600FC50D8A49D
:1002D80070EF01F072EF01F0FFEF00F0C0EC17F0E3
:1002E8000101D351230D040EF324D96E010EF4201D
:1002F800DA6EDF50096E030E0916D8A486EF01F0F6
:1003080088EF01F04DEF02F0D351230D040EF324D2
:10031800D96E010EF420DA6ED351230D040EF324A6
:10032800E16E010EF420E26EE750FC0B0209DF6E6D
:10033800D351230D070EF324D96E010EF420DA6E83
:10034800DF50E06ED351230D050EF324D96E010E54
:10035800F420DA6EDF50096E0950D351230D060ED2
:10036800F324D96E010EF420DA6EDF50D86ED35123
:10037800230D090EF324D96E010EF420DA6EDF5036
:10038800EA6ED351230D080EF324D96E010EF42022
:10039800DA6EDF50E96E3BEF02F0D351230D220EE7
:1003A800F324D96E010EF420DA6EDF06D351230D43
:1003B800220EF324D96E010EF420DA6EDF50096E96
:1003C8000950030DF3CF0AF0F4CF0BF0D351230DEE
:1003D8000A0EF3240C6E010EF4200D6E0A500C2444
:1003E800D96E0B500D20DA6EDF50FD6ED351230D00
:1003F800220EF324D96E010EF420DA6EDF50096E56
:100408000950030DF3CF0AF0F4CF0BF0D351230DAD
:100418000B0EF3240C6E010EF4200D6E0A500C2402
:10042800D96E0B500D20DA6EDF50FE6ED351230DBE
:10043800220EF324D96E010EF420DA6EDF50096E15
:100448000950030DF3CF0AF0F4CF0BF0D351230D6D
:100458000C0EF3240C6E010EF4200D6E0A500C24C1
:10046800D96E0B500D20DA6EDF50FF6E05000101CA
:10047800D351230D220EF324D96E010EF420DA6E27
:10048800DF50D8A44AEF02F04CEF02F0D1EF01F0B0
:100498001200F2A252EF02F054EF02F05EEF02F007
:1004A800F292220E026E2F0E036E060E046E060ED8
:1004B80095EC13F013C0F4FF12C0F3FF11C0DAFF7C
:1004C80010C0D9FF0FC0E2FF0EC0E1FF019211007A
:0404D8001AEF16F011
:101000000000F29E02013C51D96EDA6ADF50D8B47A
:101010000CEF08F00EEF08F01CEF0AF03C51D96E0F
:10102000DA6A070ED926DF503D6F3C513D25D96E57
:10103000DA6A020ED926D3C1DFFF3C51D96EDA6AD3
:10104000070ED926DF2A3C51D96EDA6A070ED92657
:10105000040EDF642EEF08F030EF08F036EF08F0F2
:101060003C51D96EDA6A070ED926DF6A3C51D96E37
:10107000DA6A090ED926DF2A0101D351230D040EA5
:10108000F324D96E010EF420DA6EDF50030B020A4E
:10109000D8A44DEF08F04FEF08F01FEF09F0D3513F
:1010A000230D040EF324D96E010EF420DA6ED35111
:1010B000230D040EF324E16E010EF420E26EE750DE
:1010C000FC0B0109DF6ED351230D070EF324D96EFB
:1010D000010EF420DA6EE0CFDFFFD351230D050EB1
:1010E000F324D96E010EF420DA6EE8CFDFFFD3517E
:1010F000230D060EF324D96E010EF420DA6ED8CF3C
:10110000DFFFD351230D090EF324D96E010EF42015
:10111000DA6EEACFDFFFD351230D080EF324D96E28
:10112000010EF420DA6EE9CFDFFFD351230D220E3A
:10113000F324D96E010EF420DA6EDF6A17EF09F09E
:101140000101D351230D220EF324D96E010EF42098
:10115000DA6EDF5002013D6F3D51030DF3CF3EF2D9
:10116000F4CF3FF20101D351230D0A0EF324020103
:10117000406F010EF420416F3E514025D96E3F5122
:101180004121DA6EFDCFDFFF0101D351230D220E85
:10119000F324D96E010EF420DA6EDF5002013D6FA8
:1011A0003D51030DF3CF3EF2F4CF3FF20101D35195
:1011B000230D0B0EF3240201406F010EF420416F4A
:1011C0003E514025D96E3F514121DA6EFECFDFFFFF
:1011D0000101D351230D220EF324D96E010EF42008
:1011E000DA6EDF5002013D6F3D51030DF3CF3EF249
:1011F000F4CF3FF20101D351230D0C0EF324020171
:10120000406F010EF420416F3E514025D96E3F5191
:101210004121DA6EFFCFDFFF0101D351230D220EF2
:10122000F324D96E010EF420DA6EDF2A0600FC509A
:10123000D8A41DEF09F01FEF09F0A0EF08F0BBECF8
:1012400017F00101D351230D040EF324D96E010EC2
:10125000F420DA6EDF5002013D6F030E3D17D8A473
:1012600034EF09F036EF09F009EF0AF00101D3512C
:10127000230D040EF324D96E010EF420DA6ED3513F
:10128000230D040EF324E16E010EF420E26EE7500C
:10129000FC0B0209DF6ED351230D070EF324D96E28
:1012A000010EF420DA6EDF50E06ED351230D050EEF
:1012B000F324D96E010EF420DA6EDF5002013D6F87
:1012C0003D510101D351230D060EF324D96E010EB9
:1012D000F420DA6EDF50D86ED351230D090EF324BB
:1012E000D96E010EF420DA6EDF50EA6ED351230D71
:1012F000080EF324D96E010EF420DA6EDF50E96E89
:10130000F7EF09F0D351230D220EF324D96E010E0D
:10131000F420DA6EDF06D351230D220EF324D96EAA
:10132000010EF420DA6EDF5002013D6F3D51030DD6
:10133000F3CF3EF2F4CF3FF20101D351230D0A0E59
:10134000F3240201406F010EF420416F3E5140250D
:10135000D96E3F514121DA6EDF50FD6E0101D3514C
:10136000230D220EF324D96E010EF420DA6EDF5025
:1013700002013D6F3D51030DF3CF3EF2F4CF3FF23A
:101380000101D351230D0B0EF3240201406F010E16
:10139000F420416F3E514025D96E3F514121DA6E14
:1013A000DF50FE6E0101D351230D220EF324D96EBE
:1013B000010EF420DA6EDF5002013D6F3D51030D46
:1013C000F3CF3EF2F4CF3FF20101D351230D0C0EC7
:1013D000F3240201406F010EF420416F3E5140257D
:1013E000D96E3F514121DA6EDF50FF6E05000101D9
:1013F000D351230D220EF324D96E010EF420DA6EA0
:10140000DF50D8A406EF0AF008EF0AF082EF09F0E7
:1014100012000101D351230D000EF324D96E010EE9
:10142000F420DA6E02013C51E16EE26A010EE1261F
:10143000DFCFE7FF32EF0AF03C51D96EDA6A010ED6
:10144000DF6E0101D351230D000EF324D96E010E7E
:10145000F420DA6E02013C51E16EE26A010EE126EF
:10146000DFCFE7FFF28E1200F29E02013C51D96EEF
:10147000DA6ADF063C51D96EDA6A000EDBBE45EF50
:101480000AF043EF0AF03AEF0CF03C51D96EDA6AF9
:10149000060ED926DF503D6F3C513D25D96EDA6AE4
:1014A000010ED926D3C1DFFF3C51D96EDA6A060E90
:1014B000D926DF2A3C51D96EDA6A060ED926040EE7
:1014C000DF6465EF0AF067EF0AF06DEF0AF03C5158
:1014D000D96EDA6A060ED926DF6A0101D351230DCF
:1014E000040EF324D96E010EF420DA6EDF50030BE4
:1014F000020AD8A47EEF0AF080EF0AF050EF0BF05A
:10150000D351230D040EF324D96E010EF420DA6EAC
:10151000D351230D040EF324E16E010EF420E26E8C
:10152000E750FC0B0309DF6ED351230D070EF324A4
:10153000D96E010EF420DA6EE0CFDFFFD351230D18
:10154000050EF324D96E010EF420DA6EE8CFDFFF2A
:10155000D351230D060EF324D96E010EF420DA6E5A
:10156000D8CFDFFFD351230D090EF324D96E010E1E
:10157000F420DA6EEACFDFFFD351230D080EF324F7
:10158000D96E010EF420DA6EE9CFDFFFD351230DBF
:10159000220EF324D96E010EF420DA6EDF6A48EFD2
:1015A0000BF00101D351230D220EF324D96E010E4D
:1015B000F420DA6EDF5002013D6F3D51030DF3CF91
:1015C0003EF2F4CF3FF20101D351230D0A0EF32472
:1015D0000201406F010EF420416F3E514025D96E4B
:1015E0003F514121DA6EFDCFDFFF0101D351230DC1
:1015F000220EF324D96E010EF420DA6EDF500201C0
:101600003D6F3D51030DF3CF3EF2F4CF3FF20101A8
:10161000D351230D0B0EF3240201406F010EF42071
:10162000416F3E514025D96E3F514121DA6EFECFC8
:10163000DFFF0101D351230D220EF324D96E010ED9
:10164000F420DA6EDF5002013D6F3D51030DF3CF00
:101650003EF2F4CF3FF20101D351230D0C0EF324DF
:101660000201406F010EF420416F3E514025D96EBA
:101670003F514121DA6EFFCFDFFF0101D351230D2E
:10168000220EF324D96E010EF420DA6EDF2A060052
:10169000FC50D8A44EEF0BF050EF0BF0D1EF0AF056
:1016A000BBEC17F00101D351230D040EF324D96EC6
:1016B000010EF420DA6EDF5002013D6F030E3D177C
:1016C000D8A465EF0BF067EF0BF03AEF0CF00101D7
:1016D000D351230D040EF324D96E010EF420DA6EDB
:1016E000D351230D040EF324E16E010EF420E26EBB
:1016F000E750FC0B0209DF6ED351230D070EF324D4
:10170000D96E010EF420DA6EDF50E06ED351230D56
:10171000050EF324D96E010EF420DA6EDF500201BB
:101720003D6F3D510101D351230D060EF324D96EB7
:10173000010EF420DA6EDF50D86ED351230D090E5E
:10174000F324D96E010EF420DA6EDF50EA6ED35125
:10175000230D080EF324D96E010EF420DA6EDF504B
:10176000E96E28EF0CF0D351230D220EF324D96E2D
:10177000010EF420DA6EDF06D351230D220EF3247E
:10178000D96E010EF420DA6EDF5002013D6F3D513B
:10179000030DF3CF3EF2F4CF3FF20101D351230DFD
:1017A0000A0EF3240201406F010EF420416F3E51F6
:1017B0004025D96E3F514121DA6EDF50FD6E0101A7
:1017C000D351230D220EF324D96E010EF420DA6ECC
:1017D000DF5002013D6F3D51030DF3CF3EF2F4CFD8
:1017E0003FF20101D351230D0B0EF3240201406F90
:1017F000010EF420416F3E514025D96E3F514121E9
:10180000DA6EDF50FE6E0101D351230D220EF32458
:10181000D96E010EF420DA6EDF5002013D6F3D51AA
:10182000030DF3CF3EF2F4CF3FF20101D351230D6C
:101830000C0EF3240201406F010EF420416F3E5163
:101840004025D96E3F514121DA6EDF50FF6E050011
:101850000101D351230D220EF324D96E010EF42081
:10186000DA6EDF50D8A437EF0CF039EF0CF0B3EF9D
:101870000BF01200F28E12000201546FF29E020170
:101880004D514E11D8A447EF0CF049EF0CF01AEF70
:101890000EF00101D351230D040EF324D96E010E75
:1018A000F420DA6EDF50030B020AD8A45AEF0CF0D2
:1018B0005CEF0CF02EEF0DF0D351230D040EF3244A
:1018C000D96E010EF420DA6ED351230D040EF324E9
:1018D000E16E010EF420E26EE750FC0B02015411A0
:1018E000DF6E0101D351230D070EF324D96E010ED3
:1018F000F420DA6EE0CFDFFFD351230D050EF32481
:10190000D96E010EF420DA6EE8CFDFFFD351230D3C
:10191000060EF324D96E010EF420DA6ED8CFDFFF65
:10192000D351230D090EF324D96E010EF420DA6E83
:10193000EACFDFFFD351230D080EF324D96E010E39
:10194000F420DA6EE9CFDFFFD351230D220EF3240A
:10195000D96E010EF420DA6EDF6A26EF0DF0010178
:10196000D351230D220EF324D96E010EF420DA6E2A
:10197000DF5002014F6F4F51030DF3CF50F2F4CF00
:1019800051F20101D351230D0A0EF3240201526FCB
:10199000010EF420536F50515225D96E51515321ED
:1019A000DA6EFDCFDFFF0101D351230D220EF324A8
:1019B000D96E010EF420DA6EDF5002014F6F4F51E5
:1019C000030DF3CF50F2F4CF51F20101D351230DA7
:1019D0000B0EF3240201526F010EF420536F50518D
:1019E0005225D96E51515321DA6EFECFDFFF01012E
:1019F000D351230D220EF324D96E010EF420DA6E9A
:101A0000DF5002014F6F4F51030DF3CF50F2F4CF6F
:101A100051F20101D351230D0C0EF3240201526F38
:101A2000010EF420536F50515225D96E515153215C
:101A3000DA6EFFCFDFFF0101D351230D220EF32415
:101A4000D96E010EF420DA6EDF2A0600FC50D8A40D
:101A50002CEF0DF02EEF0DF0AFEF0CF0BBEC17F00C
:101A60000101D351230D040EF324D96E010EF4208D
:101A7000DA6EDF5002014F6F030E4F17D8A443EF09
:101A80000DF045EF0DF02AEF0EF00101D351230DBB
:101A9000040EF324D96E010EF420DA6ED351230D17
:101AA000040EF324E16E010EF420E26EE750FC0B0D
:101AB0000209DF6ED351230D070EF324D96E010EF8
:101AC000F420DA6EDF50E06ED351230D050EF324BF
:101AD000D96E010EF420DA6EDF5002014F6F4F51C4
:101AE0000101D351230D060EF324D96E010EF4200B
:101AF000DA6EDF50D86ED351230D090EF324D96E60
:101B0000010EF420DA6EDF50EA6ED351230D080E79
:101B1000F324D96E010EF420DA6EDF50E96E06EF81
:101B20000EF0D351230D220EF324D96E010EF420B2
:101B3000DA6EDF06D351230D220EF324D96E010E87
:101B4000F420DA6EDF5002014F6F4F51030DF3CFD7
:101B500050F2F4CF51F20101D351230D0A0EF324B8
:101B60000201526F010EF420536F50515225D96E6D
:101B700051515321DA6EDF50FD6E0101D351230D17
:101B8000220EF324D96E010EF420DA6EDF5002012A
:101B90004F6F4F51030DF3CF50F2F4CF51F20101CB
:101BA000D351230D0B0EF3240201526F010EF420CA
:101BB000536F50515225D96E51515321DA6EDF5077
:101BC000FE6E0101D351230D220EF324D96E010EB6
:101BD000F420DA6EDF5002014F6F4F51030DF3CF47
:101BE00050F2F4CF51F20101D351230D0C0EF32426
:101BF0000201526F010EF420536F50515225D96EDD
:101C000051515321DA6EDF50FF6E05000101D351AF
:101C1000230D220EF324D96E010EF420DA6EDF506C
:101C2000D8A415EF0EF017EF0EF091EF0DF01200A3
:101C30002AEF0EF020EE04F04D51D9264E51DA2253
:101C400010EE04F04D51E1264E51E222E750FC0B1C
:101C50005411DF6EF28E12000201526FF29E0101EA
:101C6000D351230D040EF324D96E010EF420DA6E45
:101C7000DF50030B020AD8A440EF0EF042EF0EF043
:101C800012EF0FF0D351230D040EF324D96E010E81
:101C9000F420DA6ED351230D040EF324E16E010E0D
:101CA000F420E26EE750FC0B0109DF6ED351230DE7
:101CB000070EF324D96E010EF420DA6EE0CFDFFFB9
:101CC000D351230D050EF324D96E010EF420DA6EE4
:101CD000E8CFDFFFD351230D060EF324D96E010E9A
:101CE000F420DA6ED8CFDFFFD351230D090EF32491
:101CF000D96E010EF420DA6EEACFDFFFD351230D47
:101D0000080EF324D96E010EF420DA6EE9CFDFFF5E
:101D1000D351230D220EF324D96E010EF420DA6E76
:101D2000DF6A0AEF0FF00101D351230D220EF324D5
:101D3000D96E010EF420DA6EDF5002014D6F4D5165
:101D4000030DF3CF4EF2F4CF4FF20101D351230D27
:101D50000A0EF3240201506F010EF420516F4E5110
:101D60005025D96E4F515121DA6EFDCFDFFF0101B1
:101D7000D351230D220EF324D96E010EF420DA6E16
:101D8000DF5002014D6F4D51030DF3CF4EF2F4CFF2
:101D90004FF20101D351230D0B0EF3240201506FBA
:101DA000010EF420516F4E515025D96E4F515121E3
:101DB000DA6EFECFDFFF0101D351230D220EF32493
:101DC000D96E010EF420DA6EDF5002014D6F4D51D5
:101DD000030DF3CF4EF2F4CF4FF20101D351230D97
:101DE0000C0EF3240201506F010EF420516F4E517E
:101DF0005025D96E4F515121DA6EFFCFDFFF01011F
:101E0000D351230D220EF324D96E010EF420DA6E85
:101E1000DF2A0600FC50D8A410EF0FF012EF0FF0ED
:101E200093EF0EF00101D351230D030EF324D96E6D
:101E3000010EF420DA6E52C2DFFFBBEC17F0010195
:101E4000D351230D040EF324D96E010EF420DA6E63
:101E5000DF5002014D6F030E4D17D8A432EF0FF083
:101E600034EF0FF007EF10F00101D351230D040EF2
:101E7000F324D96E010EF420DA6ED351230D040E33
:101E8000F324E16E010EF420E26EE750FC0B020930
:101E9000DF6ED351230D070EF324D96E010EF4200B
:101EA000DA6EDF50E06ED351230D050EF324D96EA8
:101EB000010EF420DA6EDF5002014D6F4D51010129
:101EC000D351230D060EF324D96E010EF420DA6EE1
:101ED000DF50D86ED351230D090EF324D96E010EB5
:101EE000F420DA6EDF50EA6ED351230D080EF3248E
:101EF000D96E010EF420DA6EDF50E96EF5EF0FF0C7
:101F0000D351230D220EF324D96E010EF420DA6E84
:101F1000DF06D351230D220EF324D96E010EF420D7
:101F2000DA6EDF5002014D6F4D51030DF3CF4EF2CB
:101F3000F4CF4FF20101D351230D0A0EF324020115
:101F4000506F010EF420516F4E515025D96E4F51F4
:101F50005121DA6EDF50FD6E0101D351230D220EA7
:101F6000F324D96E010EF420DA6EDF5002014D6FBA
:101F70004D51030DF3CF4EF2F4CF4FF20101D35187
:101F8000230D0B0EF3240201506F010EF420516F4C
:101F90004E515025D96E4F515121DA6EDF50FE6EF1
:101FA0000101D351230D220EF324D96E010EF4202A
:101FB000DA6EDF5002014D6F4D51030DF3CF4EF23B
:101FC000F4CF4FF20101D351230D0C0EF324020183
:101FD000506F010EF420516F4E515025D96E4F5164
:101FE0005121DA6EDF50FF6E05000101D351230D40
:101FF000220EF324D96E010EF420DA6EDF50D8A43D
:1020000004EF10F006EF10F080EF0FF01200F28EE8
:102010001200A1EC17F0F28EB6EC17F00101D351CB
:10202000230D040EF324D96E010EF420DA6EDF5076
:102030000201566F030E5617D8A421EF10F023EFBC
:1020400010F0F6EF10F00101D351230D040EF3242C
:10205000D96E010EF420DA6ED351230D040EF32451
:10206000E16E010EF420E26EE750FC0B0209DF6E18
:10207000D351230D070EF324D96E010EF420DA6E2E
:10208000DF50E06ED351230D050EF324D96E010EFF
:10209000F420DA6EDF500201566F56510101D35120
:1020A000230D060EF324D96E010EF420DA6EDF50F4
:1020B000D86ED351230D090EF324D96E010EF420EE
:1020C000DA6EDF50EA6ED351230D080EF324D96E79
:1020D000010EF420DA6EDF50E96EE4EF10F0D35118
:1020E000230D220EF324D96E010EF420DA6EDF06E2
:1020F000D351230D220EF324D96E010EF420DA6E93
:10210000DF500201566F5651030DF3CF57F2F4CF53
:1021100058F20101D351230D0A0EF3240201596F25
:10212000010EF4205A6F57515925D96E58515A2132
:10213000DA6EDF50FD6E0101D351230D220EF32420
:10214000D96E010EF420DA6EDF500201566F56513F
:10215000030DF3CF57F2F4CF58F20101D351230D01
:102160000B0EF3240201596F010EF4205A6F5751E0
:102170005925D96E58515A21DA6EDF50FE6E010191
:10218000D351230D220EF324D96E010EF420DA6E02
:10219000DF500201566F5651030DF3CF57F2F4CFC3
:1021A00058F20101D351230D0C0EF3240201596F93
:1021B000010EF4205A6F57515925D96E58515A21A2
:1021C000DA6EDF50FF6E05000101D351230D220EA0
:1021D000F324D96E010EF420DA6EDF50D8A4F3EFA9
:1021E00010F0F5EF10F06FEF10F0120012001A6A05
:1021F000196A186A41EF11F01850230D040EF324E8
:10220000D96E010EF420DA6EDF500201556F030E15
:102210005517D8A40EEF11F010EF11F040EF11F0A8
:102220001950D8B416EF11F018EF11F02EEF11F08D
:102230001850230D040EF324D96E010EF420DA6E2B
:10224000DF50556FD8905533D8905531070B1A6031
:102250002CEF11F02EEF11F040EF11F01850230D7C
:10226000040EF324D96E010EF420DA6EDF50556FA0
:10227000D8905533D8905531070B1A6E010E196E50
:10228000182A0101D251185CD8A049EF11F04BEF88
:1022900011F0FCEF10F01950D8A451EF11F053EFEA
:1022A00011F056EF11F0000EA4EF11F0D3C117F0AA
:1022B000186A98EF11F017501824166ED251165C58
:1022C000D8A065EF11F067EF11F069EF11F0D2516E
:1022D000165E1850230D040EF324D96E010EF4205F
:1022E000DA6EDF500201556F030E5517D8A47BEF4D
:1022F00011F07DEF11F097EF11F01850230D040E3F
:10230000F324D96E010EF420DA6EDF50556FD890A9
:102310005533D8905531070B1A18D8A492EF11F005
:1023200094EF11F097EF11F01650A4EF11F0182A66
:102330000101D251185CD8A0A0EF11F0A2EF11F06A
:102340005BEF11F053EF11F012001A6A196A186A64
:10235000EFEF11F01850230D040EF324D96E010E87
:10236000F420DA6EDF5002014C6F030E4C17D8A434
:10237000BCEF11F0BEEF11F0EEEF11F01950D8B430
:10238000C4EF11F0C6EF11F0DCEF11F01850230D7F
:10239000040EF324D96E010EF420DA6EDF504C6F78
:1023A000D8904C33D8904C31070B1A60DAEF11F00B
:1023B000DCEF11F0EEEF11F01850230D040EF324B2
:1023C000D96E010EF420DA6EDF504C6FD8904C338A
:1023D000D8904C31070B1A6E010E196E182A0101A4
:1023E000D251185CD8A0F7EF11F0F9EF11F0AAEF75
:1023F00011F01950D8A4FFEF11F001EF12F004EF23
:1024000012F0000E52EF12F0D3C117F0186A46EF27
:1024100012F017501824166ED251165CD8A013EF84
:1024200012F015EF12F017EF12F0D251165E18509D
:10243000230D040EF324D96E010EF420DA6EDF5062
:1024400002014C6F030E4C17D8A429EF12F02BEFAA
:1024500012F045EF12F01850230D040EF324D96E3C
:10246000010EF420DA6EDF504C6FD8904C33D890C8
:102470004C31070B1A18D8A440EF12F042EF12F0BB
:1024800045EF12F0165052EF12F0182A0101D25106
:10249000185CD8A04EEF12F050EF12F009EF12F0D6
:1024A00001EF12F012001A6A196A186A9CEF12F012
:1024B0001850230D040EF324D96E010EF420DA6EA9
:1024C000DF50026E030E0216D8A469EF12F06BEF14
:1024D00012F09BEF12F01950D8B471EF12F073EFB5
:1024E00012F089EF12F01850230D040EF324D96E68
:1024F000010EF420DA6EDF50026ED8900232D890CE
:102500000230070B1A6087EF12F089EF12F09BEF91
:1025100012F01850230D040EF324D96E010EF4208E
:10252000DA6EDF50026ED8900232D8900230070B7C
:102530001A6E010E196E182A0101D251185CD8A02A
:10254000A4EF12F0A6EF12F058EF12F01950D8A431
:10255000ACEF12F0AEEF12F0B1EF12F0000EFDEFA3
:1025600012F0D3C117F0186AF2EF12F017501824C6
:10257000166ED251165CD8A0C0EF12F0C2EF12F066
:10258000C4EF12F0D251165E1850230D040EF3243E
:10259000D96E010EF420DA6EDF50026E030E0216C1
:1025A000D8A4D5EF12F0D7EF12F0F1EF12F01850D7
:1025B000230D040EF324D96E010EF420DA6EDF50E1
:1025C000026ED8900232D8900230070B1A18D8A4A5
:1025D000ECEF12F0EEEF12F0F1EF12F01650FDEF0B
:1025E00012F0182AD251185CD8A0F9EF12F0FBEFC4
:1025F00012F0B6EF12F0AEEF12F012000201596FB6
:10260000050E0101D26507EF13F009EF13F00BEF90
:1026100013F094EF13F0D251230D000EF3240201B6
:102620005A6F010EF4205B6F5AC2D9FF5BC2DAFF0A
:1026300059C2DFFF20EE03F05A51D9265B51DA224E
:10264000DF6A20EE01F05A51D9265B51DA2255C2D9
:10265000DEFF56C2DDFF20EE04F05A51D9265B5151
:10266000DA2210EE04F05A51E1265B51E222E750E3
:10267000FC0BDF6E20EE04F05A51D9265B51DA22B2
:1026800057C258F2D8905837D890583710EE04F007
:102690005A51E1265B51E222E750030B5811DF6EDD
:1026A00020EE07F05A51D9265B51DA22DF6A20EE7C
:1026B00006F05A51D9265B51DA22DF6A20EE05F086
:1026C0005A51D9265B51DA22DF6A20EE09F05A51BD
:1026D000D9265B51DA22DF6A20EE08F05A51D9265A
:1026E0005B51DA22DF6A20EE0AF05A51D9265B519B
:1026F000DA2255C2DFFF20EE0BF05A51D9265B518A
:10270000DA225651DF6E20EE0CF05A51D9265B5179
:10271000DA22DF6A20EE22F05A51D9265B51DA2202
:10272000010EDF6E0101D22B1200066E050E0101B3
:10273000D2659DEF13F09FEF13F0A1EF13F028EF98
:1027400014F0D251230D000EF324076E010EF42075
:10275000086E07C0D9FF08C0DAFF06C0DFFF20EE11
:1027600003F00750D9260850DA22DF6A20EE01F084
:102770000750D9260850DA2202C0DEFF03C0DDFF71
:1027800020EE04F00750D9260850DA2210EE04F0AB
:102790000750E1260850E222E750FC0BDF6E20EEE6
:1027A00004F00750D9260850DA2204C005F0D8906A
:1027B0000536D890053610EE04F00750E126085093
:1027C000E222E750030B0510DF6E20EE07F0075002
:1027D000D9260850DA22DF6A20EE06F00750D92603
:1027E0000850DA22DF6A20EE05F00750D92608509B
:1027F000DA22DF6A20EE09F00750D9260850DA22E3
:10280000DF6A20EE08F00750D9260850DA22DF6A86
:1028100020EE0AF00750D9260850DA2202C0DFFF66
:1028200020EE0BF00750D9260850DA220350DF6E55
:1028300020EE0CF00750D9260850DA22DF6A20EE8D
:1028400022F00750D9260850DA22010EDF6ED22B73
:102850001200F29E02013B51D96EDA6ADF50D8B401
:1028600034EF14F036EF14F0B1EF14F00101D3514E
:10287000230D000EF324D96E010EF420DA6E02014E
:102880003B51E16EE26A010EE126DE50E618D8A463
:102890004CEF14F04EEF14F0B1EF14F03B51D96E41
:1028A000DA6A090ED926DF50D8B459EF14F05BEF7D
:1028B00014F0ADEF14F03B51D96EDA6A080ED92648
:1028C000DF503C6F3B513C25D96EDA6A020ED926A7
:1028D000DF503E6F3E51230D040EF324D96E010EDE
:1028E000F420DA6E3E51230D040EF324E16E010E46
:1028F000F420E26EE750FC0BDF6E3B51D96EDA6AD2
:10290000070ED926DF2A3B51D96EDA6A070ED9267F
:10291000040EDF648EEF14F090EF14F096EF14F0D5
:102920003B51D96EDA6A070ED926DF6A3B51D96E60
:10293000DA6A090ED926DF063E51230D000EF32474
:10294000D96E010EF420DA6E3B51E16EE26A010E9F
:10295000E126DFCFE7FFB1EF14F03B51D96EDA6A21
:10296000DF6AF28E1200F29E00019851D96EDA6A87
:10297000DF2A9851D96EDA6ADF50800A7F0FD8B00B
:10298000C4EF14F0C6EF14F01AEF15F09851D96E99
:10299000DA6A070ED926DF500201326F0001985122
:1029A00002013225D96EDA6A010ED926DF50336F63
:1029B0003351230D040EF324D96E010EF420DA6E88
:1029C00000019851E16EE26A070EE126E75002012C
:1029D000346F0001985102013425E16EE26A010E64
:1029E000E126E750356F3551230D040EF324E16ED7
:1029F000010EF420E26EE750FC0BDF6E00019851EF
:102A0000D96EDA6A070ED9269851E16EE26A070E8E
:102A1000E126E7500201326F010E32252E6F2F6B37
:102A2000000E2F23316B050E306F1CEC15F00201E8
:102A30002E51DF6EF28E12000001976B02012FBF44
:102A400026EF15F024EF15F02DEF15F02E6D2F1F4A
:102A5000D8B02F2B010E0001976F020131BF35EF67
:102A600015F033EF15F039EF15F0306D311FD8B098
:102A7000312B30513111D8B440EF15F042EF15F041
:102A80006BEF15F0010E0001966F4CEF15F0D8902A
:102A9000303731370001962B020131AF52EF15F07C
:102AA00054EF15F047EF15F0020130512E5D315112
:102AB0002F59D8A05EEF15F060EF15F064EF15F018
:102AC00030512E5F31512F5BD890313330330001BC
:102AD000962F54EF15F000019751D8B472EF15F00E
:102AE00074EF15F079EF15F002012E6D2F1FD8B09D
:102AF0002F2B2EC22EF22FC22FF2120002013651BE
:102B00000E0F3C6F34EC0AF002013651D96EDA6ACE
:102B1000050ED926DF50396F36513925D96EDA6A5C
:102B200037C2E1FF38C2E2FFDFCFE7FF3651D96E8F
:102B3000DA6A040ED926DF2A3651D96EDA6A040E13
:102B4000D926030EDF64A7EF15F0A9EF15F0AFEF5C
:102B500015F03651D96EDA6A040ED926DF6A36517D
:102B6000060F0001986FB3EC14F0120000019451AD
:102B7000060F02013C6F34EC0AF000019451D96E4B
:102B8000DA6A040ED926DF50076E94510724D96EF5
:102B9000DA6A95C0DFFF9451D96EDA6A040ED9263D
:102BA000DF2A9451D96EDA6A040ED926030EDF6447
:102BB000DCEF15F0DEEF15F0E4EF15F09451D96E6F
:102BC000DA6A040ED926DF6A94510E0F986FB3ECBF
:102BD00014F0120081EC17F02C0E0201556F2E0E2E
:102BE000566F030E576F020EFEEC12F08C0E0201B0
:102BF000556F2D0E566F020E576F030EFEEC12F03E
:102C0000D00E0201556F2C0E566F020E576F040E38
:102C1000FEEC12F0FA0E0201556F2D0E566F040EE7
:102C2000576F050EFEEC12F009EC10F016EF16F0DF
:102C30006CEF02F08A0EF66E2F0EF76E000EF86E35
:102C40000900F5CF20F002EE5CF012EE00F0EE6A23
:102C5000E550E150FCE1E250FAE101EE00F0D40E63
:102C6000EE6AE806FDE100EE60F0290EEE6AE80685
:102C7000FDE100EE16F00A0EEE6AE806FDE10190B5
:102C800001920001EAEF15F0956A0F0139919380E6
:102C9000949C949E959095923B913A9D3A9FF28890
:102CA000F19CF29246EC17F0AFEC17F0610E0201C6
:102CB000576FA9EC16F0770E0201556F8BEC16F0EA
:102CC000810E0201556F000E566F6EEC17F0120068
:102CD000810E02013C6F34EC0AF0770E02013C6F6A
:102CE00001EC08F0000160510201426F436BD89083
:102CF00042374337D8904237433742C23BF243C250
:102D00003CF22EEC17F0770E02013B6F29EC14F029
:102D100068EF16F0120002015551D96EDA6ADF6AC7
:102D20005551D96EDA6A010ED926DF6A5551D96E2E
:102D3000DA6A070ED926DF6A5551D96EDA6A080EAB
:102D4000D926DF6A5551D96EDA6A090ED926DF6AAB
:102D5000120002015751D96EDA6A040ED926DF6AD1
:102D60005751D96EDA6A050ED926DF6A5751060F18
:102D7000556F040E566F6EEC17F0020157510E0F8F
:102D8000556F000E566F6EEC17F01200610E0201C7
:102D9000366F3A0E376F020E386F7EEC15F03AC27E
:102DA00060F03AC28CFF810E0001986FB3EC14F012
:102DB000000E02014D6F000E4E6F000E3CEC0CF049
:102DC000C6EF16F01200096E09C007F00746074665
:102DD000C2500718830B0718C26EC282C2B2F3EF4B
:102DE00016F0F5EF16F0EEEF16F0C450076EC35074
:102DF0000001916F07C092F012008CBE02EF17F035
:102E000005EF17F0010E06EF17F0000EFF0A0201A2
:102E10004B6F4B334B338C504B197F0B4B198C6ED4
:102E2000050E2CEC0EF0FDEF16F01200000EE3EC98
:102E300016F00001D89092339133D89092339133A9
:102E400091510A6E610E946F0AC095F0B6EC15F0C0
:102E50000A0E2CEC0EF016EF17F012003BC23DF2FA
:102E60003CC23EF20201D8903E333D33D8903E330F
:102E70003D333D51BE6E3BC23DF2030E3D173D3B1F
:102E8000BD503D19CF0B3D19BD6E1200830EC21609
:102E9000F30EC116FC0EC116C08EC050C70B300910
:102EA000C06EC050F80B0409C06E92800F013881CB
:102EB000C2801200949082B060EF17F063EF17F0B9
:102EC000010E64EF17F0000EFF0A026E8250021826
:102ED000FE0B0218826E5BEF17F0120002015551D3
:102EE000D96EDA6A56C2DFFF5551D96EDA6A060E1C
:102EF000D926DF6A5551D96EDA6A070ED926DF6AFC
:102F000012000101D26BD36BB40E0201556F2E0E6D
:102F1000566F000E576F010EFEEC12F044EC16F0E7
:102F200012008C820A0E2CEC0EF08C92000E020124
:102F30004D6F000E4E6F010E3CEC0CF091EF17F050
:102F40001200F28AF294D58CD59AD596070ED51236
:102F5000D58ED76A000ED66EF28EF28C1200BB6848
:102F60000C0EBD6E040EBA6E94941200F7EC10F0C5
:102F70000101D36F1200A5EC11F00101D36F120013
:0B2F800053EC12F00101D36F1200149B
:00000001FF
