:04000000A0EF03F07A
:100008000182E1CF56F0E2CF57F0D9CF58F0DACFDE
:1000180059F0F3CF5AF0F4CF5BF0F2A416EF00F0EA
:1000280018EF00F081EF03F0F2945D6A000E5C6E49
:100038006EEF00F0480E5C02F3CF4FF0F4CF50F0B3
:100048005D02F3505026510E4F24D96E050E5020F4
:10005800DA6EDF50D8B433EF00F035EF00F06CEF14
:1000680000F0480E5C02F3CF4FF0F4CF50F05D0281
:10007800F3505026510E4F24D96E050E5020DA6EDB
:10008800DF06480E5C02F3CF4FF0F4CF50F05D026C
:10009800F3505026510E4F24D96E050E5020DA6EBB
:1000A800DF50D8A45AEF00F05CEF00F06CEF00F0DE
:1000B800480E5C02F3CF4FF0F4CF50F05D02F350DE
:1000C80050264E0E4F24D96E050E5020DA6EDF6A88
:1000D8005C4A5D2A27EE45F0DF504F6E506A4F505C
:1000E8005C5C5D50800A516E5050800A5158D8A00F
:1000F80080EF00F082EF00F01EEF00F0000195079E
:100108009551D8A48AEF00F08CEF00F081EF03F04E
:10011800140E956F27EE46F010EE01F0DE50E12642
:10012800DD50E222020EE618D8A49DEF00F09FEF02
:1001380000F0DBEF01F027EE46F010EE01F0DE50A4
:10014800E126DD50E222E76A27EE46F010EE08F0DD
:10015800DE50E126DD50E222E0CFE7FF27EE46F051
:1001680010EE0CF0DE50E126DD50E222EACFE7FF88
:1001780027EE46F010EE0BF0DE50E126DD50E222CD
:10018800E9CFE7FF27EE46F010EE0EF0DE50E1264D
:10019800DD50E222E2CFE7FF27EE46F010EE0DF049
:1001A800DE50E126DD50E222E1CFE7FF27EE46F000
:1001B80010EE10F0DE50E126DD50E222DACFE7FF44
:1001C80027EE46F010EE0FF0DE50E126DD50E22279
:1001D800D9CFE7FF27EE46F010EE15F0DE50E12606
:1001E800DD50E222FACFE7FF27EE46F010EE16F0D8
:1001F800DE50E126DD50E222FBCFE7FF27EE46F096
:1002080010EE0AF0DE50E126DD50E222F4CFE7FFDF
:1002180027EE46F010EE09F0DE50E126DD50E2222E
:10022800F3CFE7FF27EE46F010EE11F0DE50E1269F
:10023800DD50E222F5CFE7FF27EE46F010EE13F08F
:10024800DE50E126DD50E222F7CFE7FF27EE46F049
:1002580010EE12F0DE50E126DD50E222F6CFE7FF85
:1002680027EE46F010EE14F0DE50E126DD50E222D3
:10027800F8CFE7FF27EE46F010EE06F0DE50E12655
:10028800DD50E222E8CFE7FF27EE46F010EE07F058
:10029800DE50E126DD50E222D8CFE7FF27EE46F018
:1002A80010EE47F0DE50E126DD50E222E76AD3EF98
:1002B80001F027EE46F010EE47F0DE50E126DD5063
:1002C800E222E7504F6E4F50030DF3CF50F0F4CFBA
:1002D80051F027EE46F0DECF52F0DDCF53F050500C
:1002E8005224546E51505320556E170E5424D96E13
:1002F800000E5520DA6EFDCFDFFF27EE46F010EE38
:1003080047F0DE50E126DD50E222E7504F6E4F50B5
:10031800030DF3CF50F0F4CF51F027EE46F0DECFC7
:1003280052F0DDCF53F050505224546E51505320A8
:10033800556E180E5424D96E000E5520DA6EFECF75
:10034800DFFF27EE46F010EE47F0DE50E126DD50E5
:10035800E222E7504F6E4F50030DF3CF50F0F4CF29
:1003680051F027EE46F0DECF52F0DDCF53F050507B
:100378005224546E51505320556E190E5424D96E80
:10038800000E5520DA6EFFCFDFFF27EE46F010EEA5
:1003980047F0DE50E126DD50E222E72A0600FC5055
:1003A800D8A4D9EF01F0DBEF01F05DEF01F04FECDD
:1003B80019F027EE46F010EE01F0DE50E126DD5090
:1003C800E222E750D8A4EBEF01F0EDEF01F081EF66
:1003D80003F027EE46F010EE01F0DE50E126DD5086
:1003E800E222020EE76E27EE46F010EE08F0DE502D
:1003F800E126DD50E222E750E06E27EE46F010EEEF
:100408000CF0DE50E126DD50E222E750EA6E27EEDE
:1004180046F010EE0BF0DE50E126DD50E222E75008
:10042800E96E27EE46F010EE0EF0DE50E126DD50C4
:10043800E222E750E26E27EE46F010EE0DF0DE50B5
:10044800E126DD50E222E750E16E27EE46F010EE9D
:1004580010F0DE50E126DD50E222E750DA6E27EE9A
:1004680046F010EE0FF0DE50E126DD50E222E750B4
:10047800D96E27EE46F010EE15F0DE50E126DD507D
:10048800E222E750FA6E27EE46F010EE16F0DE5044
:10049800E126DD50E222E750FB6E27EE46F010EE33
:1004A8000AF0DE50E126DD50E222E750F46E27EE36
:1004B80046F010EE09F0DE50E126DD50E222E7506A
:1004C800F36E27EE46F010EE11F0DE50E126DD5017
:1004D800E222E750F56E27EE46F010EE13F0DE50FC
:1004E800E126DD50E222E750F76E27EE46F010EEE7
:1004F80012F0DE50E126DD50E222E750F66E27EEDC
:1005080046F010EE14F0DE50E126DD50E222E7500E
:10051800F86E27EE46F010EE07F0DE50E126DD50CB
:10052800E222E750D86E27EE46F010EE06F0DE50D5
:10053800E126DD50E222E7504F6E4F50FC6A27EE6D
:1005480046F010EE47F0DE50E126DD50E222E7509B
:10055800D8B4B1EF02F0B3EF02F03BEF03F00500BF
:1005680027EE46F010EE47F0DE50E126DD50E2229D
:10057800E70627EE46F010EE47F0DE50E126DD50A4
:10058800E222E7504F6E4F50030DF3CF50F0F4CFF7
:1005980051F027EE46F0DECF52F0DDCF53F0505049
:1005A8005224546E51505320556E170E5424D96E50
:1005B800000E5520DA6EDF50FD6E27EE46F010EE85
:1005C80047F0DE50E126DD50E222E7504F6E4F50F3
:1005D800030DF3CF50F0F4CF51F027EE46F0DECF05
:1005E80052F0DDCF53F050505224546E51505320E6
:1005F800556E180E5424D96E000E5520DA6EDF5051
:10060800FE6E27EE46F010EE47F0DE50E126DD5094
:10061800E222E7504F6E4F50030DF3CF50F0F4CF66
:1006280051F027EE46F0DECF52F0DDCF53F05050B8
:100638005224546E51505320556E190E5424D96EBD
:10064800000E5520DA6EDF50FF6E27EE46F010EEF2
:1006580047F0DE50E126DD50E222E750D8A437EF1C
:1006680003F039EF03F0B3EF02F07EEF03F005007B
:1006780027EE46F010EE02F0DE50E126DD50E222D1
:10068800E750FD6E27EE46F010EE02F0DE50E12650
:10069800DD50E222E6CF4FF0E5CF50F04FC051F0E9
:1006A80050C052F0536A52C051F053C052F0536ACE
:1006B8005150FE6E100E4F6E27EE46F010EE02F00F
:1006C800DE50E126DD50E222E6CF50F0E5CF51F0D2
:1006D80050C052F051C053F0546A4F28556E79EF0C
:1006E80003F0D890543253325232552E75EF03F03E
:1006F8005250FF6E140E0001956FF2A286EF03F0C0
:1007080088EF03F092EF03F0F292EC0E026E320ED5
:10071800036E050E046E060E01EC17F05BC0F4FFC5
:100728005AC0F3FF59C0DAFF58C0D9FF57C0E2FFDB
:0C07380056C0E1FF019211000CEF18F018
:101000000000F29E01012851D96EDA6ADF50D8B48F
:101010000CEF08F00EEF08F03CEF0BF027EE48F075
:101020002851E16EE26A080EE126E750296F285147
:101030002925E16EE26A020EE126DFCFE7FF2851A3
:10104000D96EDA6A080ED9262851E16EE26A080ED6
:10105000E126E750296F010E29250201726F736B9B
:10106000000E7323756B060E746FCCEC15F0020145
:101070007251DF6E01012851D96EDA6A0A0ED92643
:10108000DF2A27EE46F010EE01F0DE50E126DD50BB
:10109000E222020EE618D8A450EF08F052EF08F052
:1010A00090EF09F027EE46F010EE01F0DE50E12659
:1010B000DD50E222010EE76E27EE46F010EE08F05A
:1010C000DE50E126DD50E222E0CFE7FF27EE46F0DA
:1010D00010EE0CF0DE50E126DD50E222EACFE7FF11
:1010E00027EE46F010EE0BF0DE50E126DD50E22256
:1010F000E9CFE7FF27EE46F010EE0EF0DE50E126D6
:10110000DD50E222E2CFE7FF27EE46F010EE0DF0D1
:10111000DE50E126DD50E222E1CFE7FF27EE46F088
:1011200010EE10F0DE50E126DD50E222DACFE7FFCC
:1011300027EE46F010EE0FF0DE50E126DD50E22201
:10114000D9CFE7FF27EE46F010EE15F0DE50E1268E
:10115000DD50E222FACFE7FF27EE46F010EE16F060
:10116000DE50E126DD50E222FBCFE7FF27EE46F01E
:1011700010EE0AF0DE50E126DD50E222F4CFE7FF68
:1011800027EE46F010EE09F0DE50E126DD50E222B7
:10119000F3CFE7FF27EE46F010EE11F0DE50E12628
:1011A000DD50E222F5CFE7FF27EE46F010EE13F018
:1011B000DE50E126DD50E222F7CFE7FF27EE46F0D2
:1011C00010EE12F0DE50E126DD50E222F6CFE7FF0E
:1011D00027EE46F010EE14F0DE50E126DD50E2225C
:1011E000F8CFE7FF27EE46F010EE06F0DE50E126DE
:1011F000DD50E222E8CFE7FF27EE46F010EE07F0E1
:10120000DE50E126DD50E222D8CFE7FF27EE46F0A0
:1012100010EE47F0DE50E126DD50E222E76A88EF6B
:1012200009F027EE46F010EE47F0DE50E126DD50E3
:10123000E222E7500101296F2951030DF3CF2AF172
:10124000F4CF2BF127EE46F0DECF2CF1DDCF2DF1E0
:101250002A512C252E6F2B512D212F6F170E2E2545
:10126000D96E000E2F21DA6EFDCFDFFF27EE46F09C
:1012700010EE47F0DE50E126DD50E222E750296F04
:101280002951030DF3CF2AF1F4CF2BF127EE46F0CD
:10129000DECF2CF1DDCF2DF12A512C252E6F2B51D5
:1012A0002D212F6F180E2E25D96E000E2F21DA6EEC
:1012B000FECFDFFF27EE46F010EE47F0DE50E126CE
:1012C000DD50E222E750296F2951030DF3CF2AF1B7
:1012D000F4CF2BF127EE46F0DECF2CF1DDCF2DF150
:1012E0002A512C252E6F2B512D212F6F190E2E25B3
:1012F000D96E000E2F21DA6EFFCFDFFF27EE46F00A
:1013000010EE47F0DE50E126DD50E222E72A06002B
:10131000FC50D8A48EEF09F090EF09F011EF09F01E
:1013200011EC19F027EE46F010EE01F0DE50E12648
:10133000DD50E222E750D8A4A0EF09F0A2EF09F0B7
:101340004CEF0BF027EE46F010EE01F0DE50E126F8
:10135000DD50E222020EE76E27EE46F010EE08F0B6
:10136000DE50E126DD50E222E750E06E27EE46F047
:1013700010EE0CF0DE50E126DD50E222E750EA6E7E
:1013800027EE46F010EE0BF0DE50E126DD50E222B3
:10139000E750E96E27EE46F010EE0EF0DE50E12643
:1013A000DD50E222E750E26E27EE46F010EE0DF03F
:1013B000DE50E126DD50E222E750E16E27EE46F0F6
:1013C00010EE10F0DE50E126DD50E222E750DA6E3A
:1013D00027EE46F010EE0FF0DE50E126DD50E2225F
:1013E000E750D96E27EE46F010EE15F0DE50E126FC
:1013F000DD50E222E750FA6E27EE46F010EE16F0CE
:10140000DE50E126DD50E222E750FB6E27EE46F08B
:1014100010EE0AF0DE50E126DD50E222E750F46ED5
:1014200027EE46F010EE09F0DE50E126DD50E22214
:10143000E750F36E27EE46F010EE11F0DE50E12695
:10144000DD50E222E750F56E27EE46F010EE13F085
:10145000DE50E126DD50E222E750F76E27EE46F03F
:1014600010EE12F0DE50E126DD50E222E750F66E7B
:1014700027EE46F010EE14F0DE50E126DD50E222B9
:10148000E750F86E27EE46F010EE07F0DE50E1264A
:10149000DD50E222E750D86E27EE46F010EE06F05F
:1014A000DE50E126DD50E222E7500101296F29518B
:1014B000FC6A27EE46F010EE47F0DE50E126DD50E4
:1014C000E222E750D8B467EF0AF069EF0AF0F2EFD2
:1014D0000AF0050027EE46F010EE47F0DE50E12658
:1014E000DD50E222E70627EE46F010EE47F0DE5030
:1014F000E126DD50E222E7500101296F2951030D59
:10150000F3CF2AF1F4CF2BF127EE46F0DECF2CF10A
:10151000DDCF2DF12A512C252E6F2B512D212F6F30
:10152000170E2E25D96E000E2F21DA6EDF50FD6EBC
:1015300027EE46F010EE47F0DE50E126DD50E222C5
:10154000E750296F2951030DF3CF2AF1F4CF2BF186
:1015500027EE46F0DECF2CF1DDCF2DF12A512C25E0
:101560002E6F2B512D212F6F180E2E25D96E000EA8
:101570002F21DA6EDF50FE6E27EE46F010EE47F0B8
:10158000DE50E126DD50E222E750296F2951030D9C
:10159000F3CF2AF1F4CF2BF127EE46F0DECF2CF17A
:1015A000DDCF2DF12A512C252E6F2B512D212F6FA0
:1015B000190E2E25D96E000E2F21DA6EDF50FF6E28
:1015C00027EE46F010EE47F0DE50E126DD50E22235
:1015D000E750D8A4EEEF0AF0F0EF0AF069EF0AF056
:1015E00037EF0BF0050027EE46F010EE02F0DE506C
:1015F000E126DD50E222E750FD6E27EE46F010EEC8
:1016000002F0DE50E126DD50E222E6CF29F1E5CFFF
:101610002AF129C12BF12AC12CF101012D6B2CC11A
:101620002BF12DC12CF12D6B2B51FE6E100E296F5D
:1016300027EE46F010EE02F0DE50E126DD50E22209
:10164000E6CF2AF1E5CF2BF12AC12CF12BC12DF1E8
:101650002E6B29292F6F31EF0BF0D8902E332D33BD
:101660002C332F2F2DEF0BF001012C51FF6E140E98
:101670000001956F4CEF0BF02851D96EDA6A010E1C
:10168000DF6E46C7D9FF47C7DAFF2851E16EE26A2D
:10169000010EE126DFCFE7FFF28E12000201856F17
:1016A000F29E02017C517D11D8A459EF0BF05BEF43
:1016B0000BF056EF0EF027EE46F010EE01F0DE5084
:1016C000E126DD50E222020EE618D8A46AEF0BF004
:1016D0006CEF0BF0AAEF0CF027EE46F010EE01F0E5
:1016E000DE50E126DD50E22285C2E7FF27EE46F01C
:1016F00010EE08F0DE50E126DD50E222E0CFE7FFF9
:1017000027EE46F010EE0CF0DE50E126DD50E2222E
:10171000EACFE7FF27EE46F010EE0BF0DE50E126B1
:10172000DD50E222E9CFE7FF27EE46F010EE0EF0A3
:10173000DE50E126DD50E222E2CFE7FF27EE46F061
:1017400010EE0DF0DE50E126DD50E222E1CFE7FFA2
:1017500027EE46F010EE10F0DE50E126DD50E222DA
:10176000DACFE7FF27EE46F010EE0FF0DE50E1266D
:10177000DD50E222D9CFE7FF27EE46F010EE15F05C
:10178000DE50E126DD50E222FACFE7FF27EE46F0F9
:1017900010EE16F0DE50E126DD50E222FBCFE7FF2F
:1017A00027EE46F010EE0AF0DE50E126DD50E22290
:1017B000F4CFE7FF27EE46F010EE09F0DE50E12609
:1017C000DD50E222F3CFE7FF27EE46F010EE11F0F6
:1017D000DE50E126DD50E222F5CFE7FF27EE46F0AE
:1017E00010EE13F0DE50E126DD50E222F7CFE7FFE6
:1017F00027EE46F010EE12F0DE50E126DD50E22238
:10180000F6CFE7FF27EE46F010EE14F0DE50E126AB
:10181000DD50E222F8CFE7FF27EE46F010EE06F0AB
:10182000DE50E126DD50E222E8CFE7FF27EE46F06A
:1018300010EE07F0DE50E126DD50E222D8CFE7FFC0
:1018400027EE46F010EE47F0DE50E126DD50E222B2
:10185000E76AA2EF0CF027EE46F010EE47F0DE50FC
:10186000E126DD50E222E75002017E6F7E51030D3A
:10187000F3CF7FF2F4CF80F227EE46F0DECF81F295
:10188000DDCF82F27F518125836F80518221846F69
:10189000170E8325D96E000E8421DA6EFDCFDFFF8F
:1018A00027EE46F010EE47F0DE50E126DD50E22252
:1018B000E7507E6F7E51030DF3CF7FF2F4CF80F2BD
:1018C00027EE46F0DECF81F2DDCF82F27F51812517
:1018D000836F80518221846F180E8325D96E000E8C
:1018E0008421DA6EFECFDFFF27EE46F010EE47F0E0
:1018F000DE50E126DD50E222E7507E6F7E51030D7F
:10190000F3CF7FF2F4CF80F227EE46F0DECF81F204
:10191000DDCF82F27F518125836F80518221846FD8
:10192000190E8325D96E000E8421DA6EFFCFDFFFFA
:1019300027EE46F010EE47F0DE50E126DD50E222C1
:10194000E72A0600FC50D8A4A8EF0CF0AAEF0CF090
:101950002BEF0CF011EC19F027EE46F010EE01F031
:10196000DE50E126DD50E222E750D8A4BAEF0CF0B9
:10197000BCEF0CF05EEF0EF027EE46F010EE01F03B
:10198000DE50E126DD50E222020EE76E27EE46F041
:1019900010EE08F0DE50E126DD50E222E750E06E66
:1019A00027EE46F010EE0CF0DE50E126DD50E2228C
:1019B000E750EA6E27EE46F010EE0BF0DE50E1261F
:1019C000DD50E222E750E96E27EE46F010EE0EF011
:1019D000DE50E126DD50E222E750E26E27EE46F0CF
:1019E00010EE0DF0DE50E126DD50E222E750E16E10
:1019F00027EE46F010EE10F0DE50E126DD50E22238
:101A0000E750DA6E27EE46F010EE0FF0DE50E126DA
:101A1000DD50E222E750D96E27EE46F010EE15F0C9
:101A2000DE50E126DD50E222E750FA6E27EE46F066
:101A300010EE16F0DE50E126DD50E222E750FB6E9C
:101A400027EE46F010EE0AF0DE50E126DD50E222ED
:101A5000E750F46E27EE46F010EE09F0DE50E12676
:101A6000DD50E222E750F36E27EE46F010EE11F063
:101A7000DE50E126DD50E222E750F56E27EE46F01B
:101A800010EE13F0DE50E126DD50E222E750F76E53
:101A900027EE46F010EE12F0DE50E126DD50E22295
:101AA000E750F66E27EE46F010EE14F0DE50E12619
:101AB000DD50E222E750F86E27EE46F010EE07F018
:101AC000DE50E126DD50E222E750D86E27EE46F0E8
:101AD00010EE06F0DE50E126DD50E222E750020172
:101AE0007E6F7E51FC6A27EE46F010EE47F0DE5026
:101AF000E126DD50E222E750D8B481EF0DF083EF0C
:101B00000DF00CEF0EF0050027EE46F010EE47F05A
:101B1000DE50E126DD50E222E70627EE46F010EE29
:101B200047F0DE50E126DD50E222E75002017E6FF1
:101B30007E51030DF3CF7FF2F4CF80F227EE46F013
:101B4000DECF81F2DDCF82F27F518125836F80511C
:101B50008221846F170E8325D96E000E8421DA6EE0
:101B6000DF50FD6E27EE46F010EE47F0DE50E12626
:101B7000DD50E222E7507E6F7E51030DF3CF7FF2FE
:101B8000F4CF80F227EE46F0DECF81F2DDCF82F295
:101B90007F518125836F80518221846F180E8325A8
:101BA000D96E000E8421DA6EDF50FE6E27EE46F00D
:101BB00010EE47F0DE50E126DD50E222E7507E6F66
:101BC0007E51030DF3CF7FF2F4CF80F227EE46F083
:101BD000DECF81F2DDCF82F27F518125836F80518C
:101BE0008221846F190E8325D96E000E8421DA6E4E
:101BF000DF50FF6E27EE46F010EE47F0DE50E12694
:101C0000DD50E222E750D8A408EF0EF00AEF0EF004
:101C100083EF0DF051EF0EF0050027EE46F010EEC9
:101C200002F0DE50E126DD50E222E750FD6E27EEA5
:101C300046F010EE02F0DE50E126DD50E222E6CF63
:101C40007EF2E5CF7FF27EC280F27FC281F2020196
:101C5000826B81C280F282C281F2826B8051FE6E01
:101C6000100E7E6F27EE46F010EE02F0DE50E126F9
:101C7000DD50E222E6CF7FF2E5CF80F27FC281F233
:101C800080C282F2836B7E29846F4BEF0EF0D89076
:101C9000833382338133842F47EF0EF00201815169
:101CA000FF6E140E0001956F5EEF0EF020EE01F056
:101CB0007C51D9267D51DA2285C2DFFFF28E1200D7
:101CC0000201836FF29E27EE46F010EE01F0DE5027
:101CD000E126DD50E222020EE618D8A472EF0EF0E3
:101CE00074EF0EF0B2EF0FF027EE46F010EE01F0B9
:101CF000DE50E126DD50E222010EE76E27EE46F0CF
:101D000010EE08F0DE50E126DD50E222E0CFE7FFE2
:101D100027EE46F010EE0CF0DE50E126DD50E22218
:101D2000EACFE7FF27EE46F010EE0BF0DE50E1269B
:101D3000DD50E222E9CFE7FF27EE46F010EE0EF08D
:101D4000DE50E126DD50E222E2CFE7FF27EE46F04B
:101D500010EE0DF0DE50E126DD50E222E1CFE7FF8C
:101D600027EE46F010EE10F0DE50E126DD50E222C4
:101D7000DACFE7FF27EE46F010EE0FF0DE50E12657
:101D8000DD50E222D9CFE7FF27EE46F010EE15F046
:101D9000DE50E126DD50E222FACFE7FF27EE46F0E3
:101DA00010EE16F0DE50E126DD50E222FBCFE7FF19
:101DB00027EE46F010EE0AF0DE50E126DD50E2227A
:101DC000F4CFE7FF27EE46F010EE09F0DE50E126F3
:101DD000DD50E222F3CFE7FF27EE46F010EE11F0E0
:101DE000DE50E126DD50E222F5CFE7FF27EE46F098
:101DF00010EE13F0DE50E126DD50E222F7CFE7FFD0
:101E000027EE46F010EE12F0DE50E126DD50E22221
:101E1000F6CFE7FF27EE46F010EE14F0DE50E12695
:101E2000DD50E222F8CFE7FF27EE46F010EE06F095
:101E3000DE50E126DD50E222E8CFE7FF27EE46F054
:101E400010EE07F0DE50E126DD50E222D8CFE7FFAA
:101E500027EE46F010EE47F0DE50E126DD50E2229C
:101E6000E76AAAEF0FF027EE46F010EE47F0DE50DB
:101E7000E126DD50E222E75002017C6F7C51030D28
:101E8000F3CF7DF2F4CF7EF227EE46F0DECF7FF285
:101E9000DDCF80F27D517F25816F7E518021826F61
:101EA000170E8125D96E000E8221DA6EFDCFDFFF7D
:101EB00027EE46F010EE47F0DE50E126DD50E2223C
:101EC000E7507C6F7C51030DF3CF7DF2F4CF7EF2AF
:101ED00027EE46F0DECF7FF2DDCF80F27D517F2509
:101EE000816F7E518021826F180E8125D96E000E80
:101EF0008221DA6EFECFDFFF27EE46F010EE47F0CC
:101F0000DE50E126DD50E222E7507C6F7C51030D6C
:101F1000F3CF7DF2F4CF7EF227EE46F0DECF7FF2F4
:101F2000DDCF80F27D517F25816F7E518021826FD0
:101F3000190E8125D96E000E8221DA6EFFCFDFFFE8
:101F400027EE46F010EE47F0DE50E126DD50E222AB
:101F5000E72A0600FC50D8A4B0EF0FF0B2EF0FF064
:101F600033EF0FF048C77CF202017C51480D510E4F
:101F7000F324D96E050EF420DA6E83C2DFFF11EC74
:101F800019F027EE46F010EE01F0DE50E126DD50AC
:101F9000E222E750D8A4CFEF0FF0D1EF0FF069EFB6
:101FA00011F027EE46F010EE01F0DE50E126DD5094
:101FB000E222020EE76E27EE46F010EE08F0DE5049
:101FC000E126DD50E222E750E06E27EE46F010EE0B
:101FD0000CF0DE50E126DD50E222E750EA6E27EEFB
:101FE00046F010EE0BF0DE50E126DD50E222E75025
:101FF000E96E27EE46F010EE0EF0DE50E126DD50E1
:10200000E222E750E26E27EE46F010EE0DF0DE50D1
:10201000E126DD50E222E750E16E27EE46F010EEB9
:1020200010F0DE50E126DD50E222E750DA6E27EEB6
:1020300046F010EE0FF0DE50E126DD50E222E750D0
:10204000D96E27EE46F010EE15F0DE50E126DD5099
:10205000E222E750FA6E27EE46F010EE16F0DE5060
:10206000E126DD50E222E750FB6E27EE46F010EE4F
:102070000AF0DE50E126DD50E222E750F46E27EE52
:1020800046F010EE09F0DE50E126DD50E222E75086
:10209000F36E27EE46F010EE11F0DE50E126DD5033
:1020A000E222E750F56E27EE46F010EE13F0DE5018
:1020B000E126DD50E222E750F76E27EE46F010EE03
:1020C00012F0DE50E126DD50E222E750F66E27EEF8
:1020D00046F010EE14F0DE50E126DD50E222E7502B
:1020E000F86E27EE46F010EE07F0DE50E126DD50E8
:1020F000E222E750D86E27EE46F010EE06F0DE50F2
:10210000E126DD50E222E75002017C6F7C51FC6A3F
:1021100027EE46F010EE47F0DE50E126DD50E222D9
:10212000E750D8B496EF10F098EF10F021EF11F0CF
:10213000050027EE46F010EE47F0DE50E126DD50B8
:10214000E222E70627EE46F010EE47F0DE50E126E9
:10215000DD50E222E75002017C6F7C51030DF3CF8A
:102160007DF2F4CF7EF227EE46F0DECF7FF2DDCFB8
:1021700080F27D517F25816F7E518021826F170E05
:102180008125D96E000E8221DA6EDF50FD6E27EEBA
:1021900046F010EE47F0DE50E126DD50E222E75037
:1021A0007C6F7C51030DF3CF7DF2F4CF7EF227EEEE
:1021B00046F0DECF7FF2DDCF80F27D517F25816F4B
:1021C0007E518021826F180E8125D96E000E8221EA
:1021D000DA6EDF50FE6E27EE46F010EE47F0DE506E
:1021E000E126DD50E222E7507C6F7C51030DF3CFF6
:1021F0007DF2F4CF7EF227EE46F0DECF7FF2DDCF28
:1022000080F27D517F25816F7E518021826F190E72
:102210008125D96E000E8221DA6EDF50FF6E27EE27
:1022200046F010EE47F0DE50E126DD50E222E750A6
:10223000D8A41DEF11F01FEF11F098EF10F066EF2A
:1022400011F0050027EE46F010EE02F0DE50E12618
:10225000DD50E222E750FD6E27EE46F010EE02F070
:10226000DE50E126DD50E222E6CF7CF2E5CF7DF2C2
:102270007CC27EF27DC27FF20201806B7FC27EF261
:1022800080C27FF2806B7E51FE6E100E7C6F27EE57
:1022900046F010EE02F0DE50E126DD50E222E6CFFD
:1022A0007DF2E5CF7EF27DC27FF27EC280F2816B4D
:1022B0007C29826F60EF11F0D890813380337F33B7
:1022C000822F5CEF11F002017F51FF6E140E0001AE
:1022D000956FF28E120086EC19F0F28EE7EC18F092
:1022E00027EE46F010EE01F0DE50E126DD50E2224E
:1022F000E750D8A47EEF11F080EF11F018EF13F043
:1023000027EE46F010EE01F0DE50E126DD50E2222D
:10231000020EE76E27EE46F010EE08F0DE50E126E2
:10232000DD50E222E750E06E27EE46F010EE0CF0B2
:10233000DE50E126DD50E222E750EA6E27EE46F05D
:1023400010EE0BF0DE50E126DD50E222E750E96EA0
:1023500027EE46F010EE0EF0DE50E126DD50E222D0
:10236000E750E26E27EE46F010EE0DF0DE50E1266B
:10237000DD50E222E750E16E27EE46F010EE10F05D
:10238000DE50E126DD50E222E750DA6E27EE46F01D
:1023900010EE0FF0DE50E126DD50E222E750D96E5C
:1023A00027EE46F010EE15F0DE50E126DD50E22279
:1023B000E750FA6E27EE46F010EE16F0DE50E126FA
:1023C000DD50E222E750FB6E27EE46F010EE0AF0F9
:1023D000DE50E126DD50E222E750F46E27EE46F0B3
:1023E00010EE09F0DE50E126DD50E222E750F36EF8
:1023F00027EE46F010EE11F0DE50E126DD50E2222D
:10240000E750F56E27EE46F010EE13F0DE50E126B1
:10241000DD50E222E750F76E27EE46F010EE12F0A4
:10242000DE50E126DD50E222E750F66E27EE46F060
:1024300010EE14F0DE50E126DD50E222E750F86E97
:1024400027EE46F010EE07F0DE50E126DD50E222E6
:10245000E750D86E27EE46F010EE06F0DE50E1268B
:10246000DD50E222E75003010A6F0A51FC6A27EEB1
:1024700046F010EE47F0DE50E126DD50E222E75054
:10248000D8B445EF12F047EF12F0D0EF12F005008C
:1024900027EE46F010EE47F0DE50E126DD50E22256
:1024A000E70627EE46F010EE47F0DE50E126DD505D
:1024B000E222E75003010A6F0A51030DF3CF0BF339
:1024C000F4CF0CF327EE46F0DECF0DF3DDCF0EF3A5
:1024D0000B510D250F6F0C510E21106F170E0F258C
:1024E000D96E000E1021DA6EDF50FD6E27EE46F039
:1024F00010EE47F0DE50E126DD50E222E7500A6F91
:102500000A51030DF3CF0BF3F4CF0CF327EE46F093
:10251000DECF0DF3DDCF0EF30B510D250F6F0C51F8
:102520000E21106F180E0F25D96E000E1021DA6ED5
:10253000DF50FE6E27EE46F010EE47F0DE50E1264B
:10254000DD50E222E7500A6F0A51030DF3CF0BF37F
:10255000F4CF0CF327EE46F0DECF0DF3DDCF0EF314
:102560000B510D250F6F0C510E21106F190E0F25F9
:10257000D96E000E1021DA6EDF50FF6E27EE46F0A6
:1025800010EE47F0DE50E126DD50E222E750D8A4FD
:10259000CCEF12F0CEEF12F047EF12F015EF13F080
:1025A000050027EE46F010EE02F0DE50E126DD5089
:1025B000E222E750FD6E27EE46F010EE02F0DE500C
:1025C000E126DD50E222E6CF0AF3E5CF0BF30AC3A2
:1025D0000CF30BC30DF303010E6B0DC30CF30EC311
:1025E0000DF30E6B0C51FE6E100E0A6F27EE46F0C7
:1025F00010EE02F0DE50E126DD50E222E6CF0BF3D2
:10260000E5CF0CF30BC30DF30CC30EF30F6B0A29CC
:10261000106F0FEF13F0D8900F330E330D33102FD0
:102620000BEF13F003010D51FF6E140E0001956FB7
:1026300012000001626B616B5F6A56EF13F05F502E
:10264000480D4E0EF324D96E050EF420DA6EDF50DD
:10265000D8A42DEF13F02FEF13F055EF13F0000176
:102660006151D8B436EF13F038EF13F049EF13F09F
:102670005F50480D520EF324D96E050EF420DA6E29
:10268000DE50625DD8B047EF13F049EF13F055EF1D
:1026900013F05F50480D520EF324D96E050EF4204E
:1026A000DA6EDF50626F010E616F5F2A27EE45F030
:1026B000DE505F5CD8A05FEF13F061EF13F01FEF07
:1026C00013F000016151D8A468EF13F06AEF13F022
:1026D0006DEF13F0000EB6EF13F048C760F05F6ABD
:1026E000A9EF13F0000160515F240301006F016B3B
:1026F000013745C706F30651026F036B74EC15F002
:10270000030100515E6E5E50480D4E0EF324D96EEB
:10271000050EF420DA6EDF50D8A491EF13F093EF9A
:1027200013F0A8EF13F05E50480D520EF324D96E4B
:10273000050EF420DA6E00016251DE18D8A4A3EF72
:1027400013F0A5EF13F0A8EF13F05E50B6EF13F0FF
:102750005F2A27EE45F0DE505F5CD8A0B2EF13F0A1
:10276000B4EF13F072EF13F06AEF13F012000001F0
:10277000626B616B5F6AF4EF13F05F50480D4E0EB1
:10278000F324D96E050EF420DA6EDF50D8A4CBEF17
:1027900013F0CDEF13F0F3EF13F000016151D8B453
:1027A000D4EF13F0D6EF13F0E7EF13F05F50480DBE
:1027B000520EF324D96E050EF420DA6EDE50625DFF
:1027C000D8B0E5EF13F0E7EF13F0F3EF13F05F503D
:1027D000480D520EF324D96E050EF420DA6EDF5048
:1027E000626F010E616F5F2A27EE45F0DE505F5C7D
:1027F000D8A0FDEF13F0FFEF13F0BDEF13F00001D1
:102800006151D8A406EF14F008EF14F00BEF14F0A8
:10281000000E54EF14F048C760F05F6A47EF14F001
:10282000000160515F240201726F736B733745C7FB
:1028300078F27851746F756BCCEC15F0020172511F
:102840005E6E5E50480D4E0EF324D96E050EF420D8
:10285000DA6EDF50D8A42FEF14F031EF14F046EF0A
:1028600014F05E50480D520EF324D96E050EF4207C
:10287000DA6E00016251DE18D8A441EF14F043EF84
:1028800014F046EF14F05E5054EF14F05F2A27EE78
:1028900045F0DE505F5CD8A050EF14F052EF14F01A
:1028A00010EF14F008EF14F012000001626B616B7E
:1028B0005F6A92EF14F05F50480D4E0EF324D96E0C
:1028C000050EF420DA6EDF50D8A469EF14F06BEF38
:1028D00014F091EF14F000016151D8B472EF14F0CC
:1028E00074EF14F085EF14F05F50480D520EF3248E
:1028F000D96E050EF420DA6EDE50625DD8B083EF3B
:1029000014F085EF14F091EF14F05F50480D520E63
:10291000F324D96E050EF420DA6EDF50626F010EDB
:10292000616F5F2A27EE45F0DE505F5CD8A09BEF19
:1029300014F09DEF14F05BEF14F000016151D8A486
:10294000A4EF14F0A6EF14F0A9EF14F0000EF0EFCE
:1029500014F048C760F05F6AE3EF14F000016051C3
:102960005F24026E036A033645C708F00850046E00
:10297000056A24EC16F002505E6E5E50480D4E0E55
:10298000F324D96E050EF420DA6EDF50D8A4CBEF15
:1029900014F0CDEF14F0E2EF14F05E50480D520E3B
:1029A000F324D96E050EF420DA6E00016251DE18B0
:1029B000D8A4DDEF14F0DFEF14F0E2EF14F05E5076
:1029C000F0EF14F05F2A27EE45F0DE505F5CD8A0F0
:1029D000ECEF14F0EEEF14F0AEEF14F0A6EF14F0FD
:1029E0001200F29E01012851D96EDA6ADF50D8B484
:1029F000FCEF14F0FEEF14F072EF15F046C7D9FFAC
:102A000047C7DAFF2851E16EE26A010EE126DE5087
:102A1000E618D8A40EEF15F010EF15F072EF15F0D0
:102A20002851D96EDA6A0A0ED926DF50D8B41BEFC6
:102A300015F01DEF15F068EF15F02851D96EDA6A20
:102A4000090ED926DF50296F28512925D96EDA6A57
:102A5000020ED926DF502B6F2B51480D4E0EF3245A
:102A6000D96E050EF420DA6EDF6A2851D96EDA6A63
:102A7000090ED9262851E16EE26A090EE126E750D7
:102A8000296F010E29250201726F736B000E7323EB
:102A9000756B060E746FCCEC15F002017251DF6E8F
:102AA00001012851D96EDA6A0A0ED926DF062B51A8
:102AB000480D4D0EF324D96E050EF420DA6E285120
:102AC000E16EE26A010EE126DFCFE7FF72EF15F05B
:102AD0002851D96EDA6ADF6A2851D96EDA6A0A0E8D
:102AE000D926DF6AF28E12000301056B01BF7DEF6C
:102AF00015F07BEF15F083EF15F0006D011FD8B0D6
:102B0000012B010E056F03BF8AEF15F088EF15F05A
:102B10008EEF15F0026D031FD8B0032B0251031185
:102B2000D8B495EF15F097EF15F0BBEF15F0010E47
:102B3000046F9FEF15F0D89002370337042B03AFD3
:102B4000A4EF15F0A6EF15F09BEF15F00251005D14
:102B500003510159D8A0AFEF15F0B1EF15F0B5EF63
:102B600015F00251005F0351015BD890033302332B
:102B7000042FA6EF15F00551D8B4C1EF15F0C3EF3F
:102B800015F0C7EF15F0006D011FD8B0012B00C381
:102B900000F301C301F312000201776B73BFD5EF9D
:102BA00015F0D3EF15F0DBEF15F0726D731FD8B091
:102BB000732B010E776F75BFE2EF15F0E0EF15F0A4
:102BC000E6EF15F0746D751FD8B0752B7451751143
:102BD000D8B4EDEF15F0EFEF15F013EF16F0010E8E
:102BE000766FF7EF15F0D89074377537762B75AF91
:102BF000FCEF15F0FEEF15F0F3EF15F07451725D78
:102C000075517359D8A007EF16F009EF16F00DEFC4
:102C100016F07451725F7551735BD89075337433CD
:102C2000762FFEEF15F07751D8B419EF16F01BEFA1
:102C300016F01FEF16F0726D731FD8B0732B72C2AF
:102C400072F273C273F21200076A03BE2CEF16F021
:102C50002AEF16F032EF16F0026C031ED8B0032AEA
:102C6000010E076E05BE39EF16F037EF16F03DEF97
:102C700016F0046C051ED8B0052A04500510D8B40F
:102C800044EF16F046EF16F06AEF16F0010E066EEE
:102C90004EEF16F0D89004360536062A05AE53EFEF
:102CA00016F055EF16F04AEF16F00450025C05508E
:102CB0000358D8A05EEF16F060EF16F064EF16F040
:102CC0000450025E0550035AD89005320432062E95
:102CD00055EF16F00750D8B470EF16F072EF16F0FB
:102CE00076EF16F0026C031ED8B0032A02C002F081
:102CF00003C003F01200F29E01012051D96EDA6A7E
:102D0000DF2A2051D96EDA6ADF50D8A48AEF16F094
:102D10008CEF16F0BFEF16F02051D96EDA6A080E6C
:102D2000D926DF50216F20512125D96EDA6A010E94
:102D3000D926DF50226F2251480D4E0EF324D96E52
:102D4000050EF420DA6EDF6A2051D96EDA6A080EB9
:102D5000D9262051E16EE26A080EE126E750216F84
:102D6000010E21250201726F736B000E7323756BC8
:102D7000060E746FCCEC15F002017251DF6EF28E0C
:102D800012000301046F04C305F30301096B02C3BE
:102D90000AF300C307F301C308F3066B0D6B116B55
:102DA000106B136B126B156B146B1A6B1B6B0F6B29
:102DB0000E6B0C6B166B186B176B196B0B6B4C6BEC
:102DC00027EE45F0060EDF60E8EF16F0EAEF16F0AA
:102DD00000EF17F023EE05F045C703F30351480D4C
:102DE0004D0EF324E16E050EF420E26E470EDBCFAC
:102DF000E3FFE806FCE245C7E8FF010FE8CF45F72F
:102E00001200066E06C007F00B6A04C00CF002C088
:102E100009F003C00AF0086A0F6A136A126A156A99
:102E2000146A176A166A1C6A1D6A116A106A0E6AA9
:102E3000186A1A6A196A1B6A0D6A4E6A27EE45F00B
:102E4000060EDF6026EF17F028EF17F03EEF17F0C1
:102E500020EE07F045C705F00550480D4D0EF32450
:102E6000E16E050EF420E26E470EDBCFE3FFE806CD
:102E7000FCE245C7E8FF010FE8CF45F7120085ECFB
:102E800018F06E0E0301006F310E016F010E026F1C
:102E9000020EC1EC16F04C0E0301006F320E016FF2
:102EA000020E026F030EC1EC16F0D20E0301006F8A
:102EB0002F0E016F030E026F040EC1EC16F03C0ED4
:102EC0000301006F310E016F040E026F050EC1EC9D
:102ED00016F06BEC11F06BEF17F0A0EF03F00101AF
:102EE00023510F0F286F94EC19F001012351D96E73
:102EF000DA6A050ED926DF50266F23512625D96EB2
:102F0000DA6A24C1E1FF25C1E2FFDFCFE7FF2351E9
:102F1000D96EDA6A050ED9262351E16EE26A050EF2
:102F2000E126E750266F2629030BDF6E2351060F9B
:102F3000206F7BEC16F0120001011C51060F286F68
:102F400094EC19F001011C51D96EDA6A040ED926ED
:102F5000DF501E6F1C511E25D96EDA6A1DC1DFFFBE
:102F60001C51D96EDA6A040ED9261C51E16EE26A50
:102F7000040EE126E7501E6F1E29030BDF6E1C5165
:102F80000F0F206F7BEC16F01200956A0F0139913C
:102F90009380949C949E959095923B913A9D3A9FF4
:102FA000F288F19CF2923BEC19F09CEC19F0690E5E
:102FB0000301026F4CEC18F0810E0301006F2EEC40
:102FC00018F08C0E0301006F000E016F63EC19F016
:102FD00012008C0E0101286F94EC19F0810E010192
:102FE000286F01EC08F0000168510101306F316B6E
:102FF000D89030373137D8903037313730C128F159
:1030000031C129F1CFEC18F0810E0101286FF1ECEC
:1030100014F0E9EF17F01200460EF66E330EF76E5D
:10302000000EF86E0900F5CF95F003EE4DF013EEAB
:10303000FCF0EE6AE550E150FCE1E250FAE100EE0E
:1030400060F0350EEE6AE806FDE15F6A5E6A0190A7
:103050000192000EF86E00013FEF17F003010051DE
:10306000D96EDA6ADF6A0051D96EDA6A010ED926A2
:10307000DF6A0051D96EDA6A080ED926DF6A00517C
:10308000D96EDA6A090ED926DF6A0051D96EDA6A7A
:103090000A0ED926DF6A120003010251D96EDA6ADC
:1030A000040ED926DF6A0251D96EDA6A050ED926D6
:1030B000DF6A0251060F006F040E016F63EC19F016
:1030C000030102510F0F006F000E016F63EC19F046
:1030D000120001011D6F1DC11BF101011B471B47A0
:1030E000C2501B19830B1B19C26EC282C2B27BEF86
:1030F00018F07DEF18F076EF18F0C45001011B6F47
:10310000C350196F1BC11AF11200000EE8CF45F72A
:103110004D0EE8CF46F7050EE8CF47F7000EE8CF93
:1031200048F7F80E0301006F310E016F000E026FB9
:10313000010EC1EC16F0C5EC17F012008CBEA3EF27
:1031400018F0A6EF18F0010EA7EF18F0000EFF0A16
:103150000201716F713371338C5071197F0B7119CA
:103160008C6E0A0E60EC0EF09EEF18F01200000E4E
:1031700069EC18F00101D8901A331933D8901A333A
:10318000193319511F6F690E1C6F1FC11DF19CEC83
:1031900017F00A0E60EC0EF0B7EF18F0120028C11D
:1031A0002AF129C12BF10101D8902B332A33D89071
:1031B0002B332A332A51BE6E28C12AF1030E2A1757
:1031C0002A3BBD502A19CF0B2A19BD6E120019ECEB
:1031D00013F00301076F07C348F748C707F3075108
:1031E000480D4D0EF324086F050EF420096F08C337
:1031F00046F709C347F71200949082B002EF19F026
:1032000005EF19F0010E06EF19F0000EFF0A00019C
:10321000966F82509619FE0B9619826EFDEF18F08C
:103220001200B7EC13F00201796F79C248F748C772
:1032300079F27951480D4D0EF3247A6F050EF42082
:103240007B6F7AC246F77BC247F71200690E010115
:10325000236F270E246F010E256F6FEC17F027C127
:1032600068F027C18CFF8C0E0101206F7BEC16F0FB
:1032700026EF19F01200830EC216F30EC116FC0ED3
:10328000C116C08EC050C70B3009C06EC050F80BBD
:103290000409C06E92800F013881C280120055EC83
:1032A00014F0096E09C048F748C709F00950480DE5
:1032B0004D0EF3240A6E050EF4200B6E0AC046F77D
:1032C0000BC047F7120003010051D96EDA6A01C33F
:1032D000DFFF0051D96EDA6A070ED926DF6A005186
:1032E000D96EDA6A080ED926DF6A120083820A0EC6
:1032F00060EC0EF08392000E02017C6F000E7D6F79
:10330000010E4EEC0BF07BEF19F01200F28AF294F2
:10331000D58CD59AD596070ED512D58ED76A000EC4
:10332000D66EF28EF28C1200F29E01012851D96EF7
:10333000DA6ADF06F28E1200BB680C0EBD6E040E58
:07334000BA6E949412001410
:00000001FF
