:040000009DEF01F07F
:100008000182E1CF0DF0E2CF0EF0D9CF0FF0DACFB9
:1000180010F0F3CF11F0F4CF12F0F2A416EF00F0C5
:1000280018EF00F07EEF01F0F294146A000E136EE0
:100038007FEF00F0230E1302F3CF09F0F4CF0AF09C
:100048001402F3500A26030E0924D96E010E0A2061
:10005800DA6EDF50D8B433EF00F035EF00F07DEF03
:1000680000F0230E1302F3CF09F0F4CF0AF01402C4
:10007800F3500A26030E0924D96E010E0A20DA6EFF
:10008800DF06230E1302F3CF09F0F4CF0AF01402AF
:10009800F3500A26030E0924D96E010E0A20DA6EDF
:1000A800DF50D8A45AEF00F05CEF00F07DEF00F0CD
:1000B800230E1302F3CF09F0F4CF0AF01402F35021
:1000C8000A26040E0924D96E010E0A20DA6E230EC0
:1000D8001302F3CF0BF0F4CF0CF01402F3500C26FC
:1000E800040E0B24E16E010E0C20E26EE750FC0BAF
:1000F800DF6E134A142A0101D251096E0A6A0950A7
:10010800135C1450800A0B6E0A50800A0B58D8A052
:1001180090EF00F092EF00F01EEF00F02D062D504A
:10012800D8A499EF00F09BEF00F07EEF01F0140ED9
:100138002D6ED351230D040EF324D96E010EF42035
:10014800DA6ED351230D040EF324E16E010EF42070
:10015800E26EE750FC0BDF6ED351230D070EF3243C
:10016800D96E010EF420DA6EE0CFDFFFD351230DF4
:10017800050EF324D96E010EF420DA6EE8CFDFFF06
:10018800D351230D060EF324D96E010EF420DA6E36
:10019800D8CFDFFFD351230D090EF324D96E010EFA
:1001A800F420DA6EEACFDFFFD351230D080EF324D3
:1001B800D96E010EF420DA6EE9CFDFFFD351230D9B
:1001C8000A0EF324D96E010EF420DA6EFDCFDFFF9C
:1001D800D351230D0B0EF324D96E010EF420DA6EE1
:1001E800FECFDFFFD351230D0C0EF324D96E010E81
:1001F800F420DA6EFFCFDFFFA9EC13F00101D35131
:10020800230D040EF324D96E010EF420DA6EDF50AC
:10021800096E030E0916D8A414EF01F016EF01F0C9
:100228002AEF01F0D351230D040EF324D96E010EE9
:10023800F420DA6ED351230D040EF324E16E010E7F
:10024800F420E26EE750FC0B0209DF6ED351230D58
:10025800070EF324D96E010EF420DA6EDF50E06E3B
:10026800D351230D050EF324D96E010EF420DA6E56
:10027800DF50096E0950D351230D060EF324D96EB1
:10028800010EF420DA6EDF50D86ED351230D090E1B
:10029800F324D96E010EF420DA6EDF50EA6ED351E2
:1002A800230D080EF324D96E010EF420DA6EDF5008
:1002B800E96ED351230D0A0EF324D96E010EF420F2
:1002C800DA6EDF50FD6ED351230D0B0EF324D96E79
:1002D800010EF420DA6EDF50FE6ED351230D0C0EA2
:1002E800F324D96E010EF420DA6EDF50FF6E010E92
:1002F800FC6E1200F2A283EF01F085EF01F08FEFA0
:1003080001F0F292F20E026E260E036E060E046ED5
:10031800060E12EC0FF012C0F4FF11C0F3FF10C06C
:10032800DAFF0FC0D9FF0EC0E2FF0DC0E1FF019256
:06033800110008EF12F0B5
:101000000000F29E00018751D96EDA6ADF50D8B431
:101010000CEF08F00EEF08F037EF09F08751D96EAA
:10102000DA6A070ED926DF50886F87518825D96E76
:10103000DA6A020ED926D3C1DFFF8751D96EDA6A88
:10104000070ED926DF2A8751D96EDA6A070ED9260C
:10105000040EDF642EEF08F030EF08F036EF08F0F2
:101060008751D96EDA6A070ED926DF6A8751D96EA1
:10107000DA6A090ED926DF2A0101D351230D040EA5
:10108000F324D96E010EF420DA6ED351230D040E31
:10109000F324E16E010EF420E26EE750FC0B01092F
:1010A000DF6ED351230D070EF324D96E010EF42009
:1010B000DA6EE0CFDFFFD351230D050EF324D96E96
:1010C000010EF420DA6EE8CFDFFFD351230D060EB8
:1010D000F324D96E010EF420DA6ED8CFDFFFD3519E
:1010E000230D090EF324D96E010EF420DA6EEACF37
:1010F000DFFFD351230D080EF324D96E010EF42027
:10110000DA6EE9CFDFFFD351230D0A0EF324D96E37
:10111000010EF420DA6EFDCFDFFFD351230D0B0E4D
:10112000F324D96E010EF420DA6EFECFDFFFD35127
:10113000230D0C0EF324D96E010EF420DA6EFFCFCE
:10114000DFFFA4EC13F00101D351230D040EF324AF
:10115000D96E010EF420DA6EDF500001886F030EA5
:101160008817D8A4B6EF08F0B8EF08F0CDEF08F074
:101170000101D351230D040EF324D96E010EF42086
:10118000DA6ED351230D040EF324E16E010EF42028
:10119000E26EE750FC0B0209DF6E0101D351230D13
:1011A000070EF324D96E010EF420DA6EDF50E06EE4
:1011B000D351230D050EF324D96E010EF420DA6EFF
:1011C000DF500001886F88510101D351230D060EB5
:1011D000F324D96E010EF420DA6EDF50D86ED351AD
:1011E000230D090EF324D96E010EF420DA6EDF50C0
:1011F000EA6ED351230D080EF324D96E010EF420AC
:10120000DA6EDF50E96ED351230D0A0EF324D96E46
:10121000010EF420DA6EDF50FD6ED351230D0B0E5C
:10122000F324D96E010EF420DA6EDF50FE6ED35136
:10123000230D0C0EF324D96E010EF420DA6EDF506C
:10124000FF6E010EFC6E12000101D351230D000E42
:10125000F324D96E010EF420DA6E00018751E16E9D
:10126000E26A010EE126DFCFE7FF4DEF09F087517B
:10127000D96EDA6A010EDF6E0101D351230D000E23
:10128000F324D96E010EF420DA6E00018751E16E6D
:10129000E26A010EE126DFCFE7FFF28E1200F29E36
:1012A00000018751D96EDA6ADF068751D96EDA6A92
:1012B000000EDBBE60EF09F05EEF09F070EF0AF0A0
:1012C0008751D96EDA6A060ED926DF50886F8751AA
:1012D0008825D96EDA6A010ED926D3C1DFFF87517E
:1012E000D96EDA6A060ED926DF2A8751D96EDA6AF4
:1012F000060ED926040EDF6480EF09F082EF09F0B4
:1013000088EF09F08751D96EDA6A060ED926DF6AAE
:101310000101D351230D040EF324D96E010EF420E4
:10132000DA6ED351230D040EF324E16E010EF42086
:10133000E26EE750FC0B0309DF6ED351230D070E5D
:10134000F324D96E010EF420DA6EE0CFDFFFD35123
:10135000230D050EF324D96E010EF420DA6EE8CFCA
:10136000DFFFD351230D060EF324D96E010EF420B6
:10137000DA6ED8CFDFFFD351230D090EF324D96ED7
:10138000010EF420DA6EEACFDFFFD351230D080EF1
:10139000F324D96E010EF420DA6EE9CFDFFFD351CA
:1013A000230D0A0EF324D96E010EF420DA6EFDCF60
:1013B000DFFFD351230D0B0EF324D96E010EF42061
:1013C000DA6EFECFDFFFD351230D0C0EF324D96E5E
:1013D000010EF420DA6EFFCFDFFFA4EC13F0010161
:1013E000D351230D040EF324D96E010EF420DA6ECE
:1013F000DF500001886F030E8817D8A402EF0AF0AF
:1014000004EF0AF019EF0AF00101D351230D040E85
:10141000F324D96E010EF420DA6ED351230D040E9D
:10142000F324E16E010EF420E26EE750FC0B02099A
:10143000DF6E0101D351230D070EF324D96E010E87
:10144000F420DA6EDF50E06ED351230D050EF32445
:10145000D96E010EF420DA6EDF500001886F8851DA
:101460000101D351230D060EF324D96E010EF42091
:10147000DA6EDF50D86ED351230D090EF324D96EE6
:10148000010EF420DA6EDF50EA6ED351230D080E00
:10149000F324D96E010EF420DA6EDF50E96ED351D9
:1014A000230D0A0EF324D96E010EF420DA6EDF50FC
:1014B000FD6ED351230D0B0EF324D96E010EF420D3
:1014C000DA6EDF50FE6ED351230D0C0EF324D96E6D
:1014D000010EF420DA6EDF50FF6E010EFC6E12007A
:1014E000F28E12000001946FF29E00019151921150
:1014F000D8A47DEF0AF07FEF0AF06BEF0BF001014B
:10150000D351230D040EF324D96E010EF420DA6EAC
:10151000D351230D040EF324E16E010EF420E26E8C
:10152000E750FC0B00019411DF6E0101D351230D34
:10153000070EF324D96E010EF420DA6EE0CFDFFF40
:10154000D351230D050EF324D96E010EF420DA6E6B
:10155000E8CFDFFFD351230D060EF324D96E010E21
:10156000F420DA6ED8CFDFFFD351230D090EF32418
:10157000D96E010EF420DA6EEACFDFFFD351230DCE
:10158000080EF324D96E010EF420DA6EE9CFDFFFE6
:10159000D351230D0A0EF324D96E010EF420DA6E16
:1015A000FDCFDFFFD351230D0B0EF324D96E010EB7
:1015B000F420DA6EFECFDFFFD351230D0C0EF3249F
:1015C000D96E010EF420DA6EFFCFDFFFA4EC13F02A
:1015D0000101D351230D040EF324D96E010EF42022
:1015E000DA6EDF500001936F030E9317D8A4FBEF60
:1015F0000AF0FDEF0AF012EF0BF00101D351230DB9
:10160000040EF324D96E010EF420DA6ED351230DAB
:10161000040EF324E16E010EF420E26EE750FC0BA1
:101620000209DF6E0101D351230D070EF324D96E99
:10163000010EF420DA6EDF50E06ED351230D050E5B
:10164000F324D96E010EF420DA6EDF500001936F9F
:1016500093510101D351230D060EF324D96E010ECF
:10166000F420DA6EDF50D86ED351230D090EF32427
:10167000D96E010EF420DA6EDF50EA6ED351230DDD
:10168000080EF324D96E010EF420DA6EDF50E96EF5
:10169000D351230D0A0EF324D96E010EF420DA6E15
:1016A000DF50FD6ED351230D0B0EF324D96E010EC6
:1016B000F420DA6EDF50FE6ED351230D0C0EF324AE
:1016C000D96E010EF420DA6EDF50FF6E010EFC6E53
:1016D00012007BEF0BF020EE04F09151D9269251CD
:1016E000DA2210EE04F09151E1269251E222E75005
:1016F000FC0B9411DF6EF28E12000001926FF29ECD
:101700000101D351230D040EF324D96E010EF420F0
:10171000DA6ED351230D040EF324E16E010EF42092
:10172000E26EE750FC0B0109DF6ED351230D070E6B
:10173000F324D96E010EF420DA6EE0CFDFFFD3512F
:10174000230D050EF324D96E010EF420DA6EE8CFD6
:10175000DFFFD351230D060EF324D96E010EF420C2
:10176000DA6ED8CFDFFFD351230D090EF324D96EE3
:10177000010EF420DA6EEACFDFFFD351230D080EFD
:10178000F324D96E010EF420DA6EE9CFDFFFD351D6
:10179000230D0A0EF324D96E010EF420DA6EFDCF6C
:1017A000DFFFD351230D0B0EF324D96E010EF4206D
:1017B000DA6EFECFDFFFD351230D0C0EF324D96E6A
:1017C000010EF420DA6EFFCFDFFFD351230D030E9D
:1017D000F324D96E010EF420DA6E92C0DFFFA4EC80
:1017E00013F00101D351230D040EF324D96E010E21
:1017F000F420DA6EDF500001916F030E9117D8A428
:1018000004EF0CF006EF0CF01BEF0CF00101D351CC
:10181000230D040EF324D96E010EF420DA6ED35199
:10182000230D040EF324E16E010EF420E26EE75066
:10183000FC0B0209DF6E0101D351230D070EF324C7
:10184000D96E010EF420DA6EDF50E06ED351230D15
:10185000050EF324D96E010EF420DA6EDF5000017C
:10186000916F91510101D351230D060EF324D96ECE
:10187000010EF420DA6EDF50D86ED351230D090E1D
:10188000F324D96E010EF420DA6EDF50EA6ED351E4
:10189000230D080EF324D96E010EF420DA6EDF500A
:1018A000E96ED351230D0A0EF324D96E010EF420F4
:1018B000DA6EDF50FD6ED351230D0B0EF324D96E7B
:1018C000010EF420DA6EDF50FE6ED351230D0C0EA4
:1018D000F324D96E010EF420DA6EDF50FF6E010E94
:1018E000FC6E1200F28E1200276A266A256ABEEF8D
:1018F0000CF02550230D040EF324D96E010EF420B4
:10190000DA6EDF500001956F030E9517D8A48BEFA8
:101910000CF08DEF0CF0BDEF0CF02650D8B493EF27
:101920000CF095EF0CF0ABEF0CF02550230D040EEE
:10193000F324D96E010EF420DA6EDF50956FD89043
:101940009533D8909531070B2760A9EF0CF0ABEFDA
:101950000CF0BDEF0CF02550230D040EF324D96ECE
:10196000010EF420DA6EDF50956FD8909533D89041
:101970009531070B276E010E266E252A0101D251E3
:10198000255CD8A0C6EF0CF0C8EF0CF079EF0CF096
:101990002650D8A4CEEF0CF0D0EF0CF0D3EF0CF023
:1019A000000E21EF0DF0D3C124F0256A15EF0DF0E4
:1019B00024502524236ED251235CD8A0E2EF0CF0F2
:1019C000E4EF0CF0E6EF0CF0D251235E2550230D2E
:1019D000040EF324D96E010EF420DA6EDF500001FC
:1019E000956F030E9517D8A4F8EF0CF0FAEF0CF0F2
:1019F00014EF0DF02550230D040EF324D96E010EC3
:101A0000F420DA6EDF50956FD8909533D8909531E9
:101A1000070B2718D8A40FEF0DF011EF0DF014EFFE
:101A20000DF0235021EF0DF0252A0101D251255C44
:101A3000D8A01DEF0DF01FEF0DF0D8EF0CF0D0EF98
:101A40000CF01200276A266A256A6CEF0DF025500B
:101A5000230D040EF324D96E010EF420DA6EDF504C
:101A60000001906F030E9017D8A439EF0DF03BEFF3
:101A70000DF06BEF0DF02650D8B441EF0DF043EFB1
:101A80000DF059EF0DF02550230D040EF324D96EFF
:101A9000010EF420DA6EDF50906FD8909033D8901A
:101AA0009031070B276057EF0DF059EF0DF06BEFFA
:101AB0000DF02550230D040EF324D96E010EF420F1
:101AC000DA6EDF50906FD8909033D8909031070B3A
:101AD000276E010E266E252A0101D251255CD8A061
:101AE00074EF0DF076EF0DF027EF0DF02650D8A42F
:101AF0007CEF0DF07EEF0DF081EF0DF0000ECFEFDB
:101B00000DF0D3C124F0256AC3EF0DF02450252435
:101B1000236ED251235CD8A090EF0DF092EF0DF020
:101B200094EF0DF0D251235E2550230D040EF324C3
:101B3000D96E010EF420DA6EDF500001906F030EB3
:101B40009017D8A4A6EF0DF0A8EF0DF0C2EF0DF09E
:101B50002550230D040EF324D96E010EF420DA6E05
:101B6000DF50906FD8909033D8909031070B2718A2
:101B7000D8A4BDEF0DF0BFEF0DF0C2EF0DF0235074
:101B8000CFEF0DF0252A0101D251255CD8A0CBEF73
:101B90000DF0CDEF0DF086EF0DF07EEF0DF01200A1
:101BA000276A266A256A19EF0EF02550230D040EC8
:101BB000F324D96E010EF420DA6EDF50026E030EAC
:101BC0000216D8A4E6EF0DF0E8EF0DF018EF0EF0D6
:101BD0002650D8B4EEEF0DF0F0EF0DF006EF0EF05A
:101BE0002550230D040EF324D96E010EF420DA6E75
:101BF000DF50026ED8900232D8900230070B276077
:101C000004EF0EF006EF0EF018EF0EF02550230D46
:101C1000040EF324D96E010EF420DA6EDF50026E4A
:101C2000D8900232D8900230070B276E010E266E34
:101C3000252A0101D251255CD8A021EF0EF023EF17
:101C40000EF0D5EF0DF02650D8A429EF0EF02BEFB3
:101C50000EF02EEF0EF0000E7AEF0EF0D3C124F04E
:101C6000256A6FEF0EF024502524236ED251235C99
:101C7000D8A03DEF0EF03FEF0EF041EF0EF0D25145
:101C8000235E2550230D040EF324D96E010EF4209B
:101C9000DA6EDF50026E030E0216D8A452EF0EF079
:101CA00054EF0EF06EEF0EF02550230D040EF324CA
:101CB000D96E010EF420DA6EDF50026ED890023237
:101CC000D8900230070B2718D8A469EF0EF06BEFFD
:101CD0000EF06EEF0EF023507AEF0EF0252AD2515F
:101CE000255CD8A076EF0EF078EF0EF033EF0EF013
:101CF0002BEF0EF012000001996F050E0101D26565
:101D000084EF0EF086EF0EF088EF0EF011EF0FF07B
:101D1000D251230D000EF32400019A6F010EF4201E
:101D20009B6F9AC0D9FF9BC0DAFF99C0DFFF20EEFE
:101D300003F09A51D9269B51DA22DF6A20EE01F096
:101D40009A51D9269B51DA2295C0DEFF96C0DDFF5D
:101D500020EE04F09A51D9269B51DA2210EE04F0BD
:101D60009A51E1269B51E222E750FC0BDF6E20EEF8
:101D700004F09A51D9269B51DA2297C098F0D89056
:101D80009837D890983710EE04F09A51E1269B517D
:101D9000E222E750030B9811DF6E20EE07F09A5114
:101DA000D9269B51DA22DF6A20EE06F09A51D92615
:101DB0009B51DA22DF6A20EE05F09A51D9269B5119
:101DC000DA22DF6A20EE09F09A51D9269B51DA22F5
:101DD000DF6A20EE08F09A51D9269B51DA22DF6A99
:101DE00020EE0AF09A51D9269B51DA2295C0DFFFE6
:101DF00020EE0BF09A51D9269B51DA229651DF6ED4
:101E000020EE0CF09A51D9269B51DA22DF6A20EE9F
:101E100022F09A51D9269B51DA22010EDF6E010180
:101E2000D22B1200066E050E0101D2651AEF0FF0DB
:101E30001CEF0FF01EEF0FF0A5EF0FF0D251230DA6
:101E4000000EF324076E010EF420086E07C0D9FFC0
:101E500008C0DAFF06C0DFFF20EE03F00750D926E6
:101E60000850DA22DF6A20EE01F00750D926085028
:101E7000DA2202C0DEFF03C0DDFF20EE04F00750CF
:101E8000D9260850DA2210EE04F00750E126085057
:101E9000E222E750FC0BDF6E20EE04F00750D9265B
:101EA0000850DA2204C005F0D8900536D8900536DF
:101EB00010EE04F00750E1260850E222E750030B31
:101EC0000510DF6E20EE07F00750D9260850DA2201
:101ED000DF6A20EE06F00750D9260850DA22DF6AC2
:101EE00020EE05F00750D9260850DA22DF6A20EEEE
:101EF00009F00750D9260850DA22DF6A20EE08F0F0
:101F00000750D9260850DA22DF6A20EE0AF007507F
:101F1000D9260850DA2202C0DFFF20EE0BF007506E
:101F2000D9260850DA220350DF6E20EE0CF007505D
:101F3000D9260850DA22DF6A20EE22F00750D9268F
:101F40000850DA22010EDF6ED22B1200F29E000141
:101F50008651D96EDA6ADF50D8B4B1EF0FF0B3EF23
:101F60000FF02EEF10F00101D351230D000EF324DA
:101F7000D96E010EF420DA6E00018651E16EE26A3C
:101F8000010EE126DE50E618D8A4C9EF0FF0CBEF22
:101F90000FF02EEF10F08651D96EDA6A090ED926AD
:101FA000DF50D8B4D6EF0FF0D8EF0FF02AEF10F0D3
:101FB0008651D96EDA6A080ED926DF50876F8651AE
:101FC0008725D96EDA6A020ED926DF50896F8951CA
:101FD000230D040EF324D96E010EF420DA6E89511C
:101FE000230D040EF324E16E010EF420E26EE7509F
:101FF000FC0BDF6E8651D96EDA6A070ED926DF2A0E
:102000008651D96EDA6A070ED926040EDF640BEF0B
:1020100010F00DEF10F013EF10F08651D96EDA6A60
:10202000070ED926DF6A8651D96EDA6A090ED926DB
:10203000DF068951230D000EF324D96E010EF42022
:10204000DA6E8651E16EE26A010EE126DFCFE7FF2C
:102050002EEF10F08651D96EDA6ADF6AF28E120026
:1020600089EC13F09FEC13F00101D351230D040E02
:10207000F324D96E010EF420DA6EDF500001966F62
:10208000030E9617D8A447EF10F049EF10F05EEF5B
:1020900010F00101D351230D040EF324D96E010E6B
:1020A000F420DA6ED351230D040EF324E16E010EF9
:1020B000F420E26EE750FC0B0209DF6E0101D35100
:1020C000230D070EF324D96E010EF420DA6EDF50D3
:1020D000E06ED351230D050EF324D96E010EF420CA
:1020E000DA6EDF500001966F96510101D351230D36
:1020F000060EF324D96E010EF420DA6EDF50D86E8E
:10210000D351230D090EF324D96E010EF420DA6E9B
:10211000DF50EA6ED351230D080EF324D96E010E61
:10212000F420DA6EDF50E96ED351230D0A0EF3244A
:10213000D96E010EF420DA6EDF50FD6ED351230DFF
:102140000B0EF324D96E010EF420DA6EDF50FE6E12
:10215000D351230D0C0EF324D96E010EF420DA6E48
:10216000DF50FF6E010EFC6E1200F28E1200F29E26
:1021700000018351D96EDA6ADF2A8351D96EDA6A97
:10218000DF50800A7F0FD8B0C8EF10F0CAEF10F010
:1021900015EF11F08351D96EDA6A070ED926DF5098
:1021A0001D6E83511D24D96EDA6A010ED926DF50C7
:1021B0001E6E1E50230D040EF324D96E010EF42062
:1021C000DA6E8351E16EE26A070EE126E7501F6E78
:1021D00083511F24E16EE26A010EE126E750206E72
:1021E0002050230D040EF324E16E010EF420E26E64
:1021F000E750FC0BDF6E8351D96EDA6A070ED926E1
:102200008351E16EE26A070EE126E7501D6E010E72
:102210001D247F6F806B000E8023826B050E816F03
:1022200017EC11F000017F51DF6EF28E12001C6A74
:10223000000180BF20EF11F01EEF11F026EF11F02A
:102240007F6D801FD8B0802B010E1C6E82BF2DEFDA
:1022500011F02BEF11F031EF11F0816D821FD8B02A
:10226000822B81518211D8B438EF11F03AEF11F07E
:102270005EEF11F0010E1B6E42EF11F0D890813726
:1022800082371B2A82AF47EF11F049EF11F03EEF82
:1022900011F081517F5D82518059D8A052EF11F029
:1022A00054EF11F058EF11F081517F5F8251805B44
:1022B000D890823381331B2E49EF11F01C50D8B4D3
:1022C00064EF11F066EF11F06AEF11F07F6D801F7F
:1022D000D8B0802B7FC07FF080C080F0120000015A
:1022E00084510E0F876F4FEC09F000018451D96EB5
:1022F000DA6A050ED926DF50216E84512124D96E69
:10230000DA6A8551E16EE26ADFCFE7FF8451D96E68
:10231000DA6A040ED926DF2A8451D96EDA6A040EED
:10232000D926030EDF6497EF11F099EF11F09FEFBC
:1023300011F08451D96EDA6A040ED926DF6A84510D
:10234000060F836FB7EC10F0120000017D51060FED
:10235000876F4FEC09F000017D51D96EDA6A040EE7
:10236000D926DF50196E7D511924D96EDA6A7EC0E4
:10237000DFFF7D51D96EDA6A040ED926DF2A7D513E
:10238000D96EDA6A040ED926030EDF64CAEF11F0A3
:10239000CCEF11F0D2EF11F07D51D96EDA6A040E54
:1023A000D926DF6A7D510E0F836FB7EC10F0120053
:1023B00069EC13F0CE0E0001956F250E966F030E9B
:1023C000976F020E7BEC0EF0660E0001956F250EE6
:1023D000966F020E976F030E7BEC0EF0AC0E0001B1
:1023E000956F240E966F020E976F040E7BEC0EF025
:1023F0002E0E0001956F260E966F040E976F050E38
:102400007BEC0EF030EC10F004EF12F09DEF01F0D9
:102410005C0EF66E270EF76E000EF86E0900F5CF13
:102420002DF001EED4F012EE00F0EE6AE550E1502E
:10243000FCE1E250FAE101EE00F0D40EEE6AE806AB
:10244000FDE100EE9CF0290EEE6AE806FDE100EEEB
:1024500023F00A0EEE6AE806FDE101900192000108
:10246000D8EF11F0956A0F0139919380949C949E56
:10247000959095923B913A9D3A9FF288F19CF29209
:102480002EEC13F098EC13F09D0E0001976F96EC74
:1024900012F0B30E0001956F78EC12F0BD0E000142
:1024A000956F000E966F56EC13F01200BD0E0001F2
:1024B000876F4FEC09F0B30E0001876F01EC08F055
:1024C00000019C518A6F8B6BD8908A378B37D890DC
:1024D0008A378B378AC086F08BC087F0FFEC12F00A
:1024E000B30E0001866FA6EC0FF056EF12F012004B
:1024F00000019551D96EDA6ADF6A9551D96EDA6AB0
:10250000010ED926DF6A9551D96EDA6A070ED926EF
:10251000DF6A9551D96EDA6A080ED926DF6A9551BD
:10252000D96EDA6A090ED926DF6A120000019751C6
:10253000D96EDA6A040ED926DF6A9751D96EDA6A43
:10254000050ED926DF6A9751060F956F040E966F18
:1025500056EC13F0000197510E0F956F000E966F19
:1025600056EC13F012009D0E0001846F220E856F51
:102570006FEC11F022C09CF022C08CFFBD0E000158
:10258000836FB7EC10F0000E0001916F000E926F98
:10259000000E72EC0AF0B3EF12F01200176E17C0C3
:1025A00015F015461546C2501518830B1518C26E46
:1025B000C282C2B2DEEF12F0E0EF12F0D9EF12F0F9
:1025C000C450156EC350136E15C014F01200000EE7
:1025D000CEEC12F0D89014321332D8901432133259
:1025E00013501A6E9D0E00017D6F1AC07EF0A5EC8F
:1025F00011F00A0E7DEC0BF0E7EF12F0120086C02E
:1026000088F087C089F00001D89089338833D8904A
:10261000893388338851BE6E86C088F0030E8817D0
:10262000883BBD508819CF0B8819BD6E12008CB045
:102630001CEF13F01FEF13F0010E20EF13F0000E4C
:10264000FF0A00018F6F8C508F19FE0B8F198C6E53
:10265000050E7DEC0BF017EF13F01200830EC2167F
:10266000F30EC116FC0EC116C08EC050C70B300948
:10267000C06EC050F80B0409C06E92800F01388103
:10268000C2801200949082B048EF13F04BEF13F029
:10269000010E4CEF13F0000EFF0A026E825002187A
:1026A000FE0B0218826E43EF13F0120000019551E9
:1026B000D96EDA6A96C0DFFF9551D96EDA6A060ED6
:1026C000D926DF6A9551D96EDA6A070ED926DF6AF4
:1026D00012000101D26BD36B840E0001956F260EA0
:1026E000966F000E976F010E7BEC0EF032EC12F03D
:1026F00012008C820A0E7DEC0BF08C92000E000111
:10270000916F000E926F010E72EC0AF079EF13F0E8
:102710001200F28AF294D58CD59AD596070ED5126E
:10272000D58ED76A000ED66EF28EF28C949012007F
:10273000BB680C0EBD6E040EBA6E9494120074EC5D
:102740000CF00101D36F120022EC0DF00101D36FE8
:0D2750001200D0EC0DF00101D36F12001447
:00000001FF
