:0400000096EF03F084
:100008000182E1CF19F0E2CF1AF0D9CF1BF0DACF95
:100018001CF0F3CF1DF0F4CF1EF0F2A416EF00F0A1
:1000280018EF00F07FEF03F0F294206A000E1F6EC5
:100038006EEF00F0750E1F02F3CF12F0F4CF13F03D
:100048002002F35013267A0E1224D96E030E1320C1
:10005800DA6EDF50D8B433EF00F035EF00F06CEF14
:1000680000F0750E1F02F3CF12F0F4CF13F0200248
:10007800F35013267A0E1224D96E030E1320DA6E6B
:10008800DF06750E1F02F3CF12F0F4CF13F0200233
:10009800F35013267A0E1224D96E030E1320DA6E4B
:1000A800DF50D8A45AEF00F05CEF00F06CEF00F0DE
:1000B800750E1F02F3CF12F0F4CF13F02002F350A5
:1000C8001326770E1224D96E030E1320DA6EDF6A18
:1000D8001F4A202A25EE4AF0DF50126E136A12508A
:1000E8001F5C2050800A146E1350800A1458D8A040
:1000F80080EF00F082EF00F01EEF00F03606365079
:10010800D8A489EF00F08BEF00F07FEF03F0140E16
:10011800366E25EE4BF010EE01F0DE50E126DD5094
:10012800E222020EE618D8A49CEF00F09EEF00F041
:10013800DAEF01F025EE4BF010EE01F0DE50E1268B
:10014800DD50E222E76A25EE4BF010EE08F0DE50B3
:10015800E126DD50E222E0CFE7FF25EE4BF010EE7E
:100168000CF0DE50E126DD50E222EACFE7FF25EE73
:100178004BF010EE0BF0DE50E126DD50E222E9CF25
:10018800E7FF25EE4BF010EE0EF0DE50E126DD50D5
:10019800E222E2CFE7FF25EE4BF010EE0DF0DE5045
:1001A800E126DD50E222E1CFE7FF25EE4BF010EE2D
:1001B80010F0DE50E126DD50E222DACFE7FF25EE2F
:1001C8004BF010EE0FF0DE50E126DD50E222D9CFE1
:1001D800E7FF25EE4BF010EE15F0DE50E126DD507E
:1001E800E222FACFE7FF25EE4BF010EE16F0DE50D4
:1001F800E126DD50E222FBCFE7FF25EE4BF010EEC3
:100208000AF0DE50E126DD50E222F4CFE7FF25EECA
:100218004BF010EE09F0DE50E126DD50E222F3CF7C
:10022800E7FF25EE4BF010EE11F0DE50E126DD5031
:10023800E222F5CFE7FF25EE4BF010EE13F0DE508B
:10024800E126DD50E222F7CFE7FF25EE4BF010EE76
:1002580012F0DE50E126DD50E222F6CFE7FF25EE70
:100268004BF010EE14F0DE50E126DD50E222F8CF1C
:10027800E7FF25EE4BF010EE06F0DE50E126DD50EC
:10028800E222E8CFE7FF25EE4BF010EE07F0DE5054
:10029800E126DD50E222D8CFE7FF25EE4BF010EE45
:1002A80074F0DE50E126DD50E222E76AD2EF01F079
:1002B80025EE4BF010EE74F0DE50E126DD50E22220
:1002C800E750126E1250030DF3CF13F0F4CF14F071
:1002D80025EE4BF0DECF15F0DDCF16F013501524C8
:1002E800176E14501620186E170E1724D96E000EAC
:1002F8001820DA6EFDCFDFFF25EE4BF010EE74F01C
:10030800DE50E126DD50E222E750126E1250030D56
:10031800F3CF13F0F4CF14F025EE4BF0DECF15F049
:10032800DDCF16F013501524176E14501620186ED2
:10033800180E1724D96E000E1820DA6EFECFDFFFD4
:1003480025EE4BF010EE74F0DE50E126DD50E2228F
:10035800E750126E1250030DF3CF13F0F4CF14F0E0
:1003680025EE4BF0DECF15F0DDCF16F01350152437
:10037800176E14501620186E190E1724D96E000E19
:100388001820DA6EFFCFDFFF25EE4BF010EE74F089
:10039800DE50E126DD50E222E72A0600FC50D8A410
:1003A800D8EF01F0DAEF01F05CEF01F0A4EC13F004
:1003B80025EE4BF010EE01F0DE50E126DD50E22292
:1003C800E750D8A4EAEF01F0ECEF01F07FEF03F07B
:1003D80025EE4BF010EE01F0DE50E126DD50E22272
:1003E800020EE76E25EE4BF010EE08F0DE50E12627
:1003F800DD50E222E750E06E25EE4BF010EE0CF0F7
:10040800DE50E126DD50E222E750EA6E25EE4BF0A1
:1004180010EE0BF0DE50E126DD50E222E750E96EE7
:1004280025EE4BF010EE0EF0DE50E126DD50E22214
:10043800E750E26E25EE4BF010EE0DF0DE50E126AF
:10044800DD50E222E750E16E25EE4BF010EE10F0A1
:10045800DE50E126DD50E222E750DA6E25EE4BF061
:1004680010EE0FF0DE50E126DD50E222E750D96EA3
:1004780025EE4BF010EE15F0DE50E126DD50E222BD
:10048800E750FA6E25EE4BF010EE16F0DE50E1263E
:10049800DD50E222E750FB6E25EE4BF010EE0AF03D
:1004A800DE50E126DD50E222E750F46E25EE4BF0F7
:1004B80010EE09F0DE50E126DD50E222E750F36E3F
:1004C80025EE4BF010EE11F0DE50E126DD50E22271
:1004D800E750F56E25EE4BF010EE13F0DE50E126F6
:1004E800DD50E222E750F76E25EE4BF010EE12F0E9
:1004F800DE50E126DD50E222E750F66E25EE4BF0A5
:1005080010EE14F0DE50E126DD50E222E750F86EDE
:1005180025EE4BF010EE07F0DE50E126DD50E2222A
:10052800E750D86E25EE4BF010EE06F0DE50E126CF
:10053800DD50E222E750126E1250FC6A25EE4BF0B5
:1005480010EE74F0DE50E126DD50E222E750D8B418
:10055800B0EF02F0B2EF02F03AEF03F0050025EE3B
:100568004BF010EE74F0DE50E126DD50E222E70693
:1005780025EE4BF010EE74F0DE50E126DD50E2225D
:10058800E750126E1250030DF3CF13F0F4CF14F0AE
:1005980025EE4BF0DECF15F0DDCF16F01350152405
:1005A800176E14501620186E170E1724D96E000EE9
:1005B8001820DA6EDF50FD6E25EE4BF010EE74F069
:1005C800DE50E126DD50E222E750126E1250030D94
:1005D800F3CF13F0F4CF14F025EE4BF0DECF15F087
:1005E800DDCF16F013501524176E14501620186E10
:1005F800180E1724D96E000E1820DA6EDF50FE6E22
:1006080025EE4BF010EE74F0DE50E126DD50E222CC
:10061800E750126E1250030DF3CF13F0F4CF14F01D
:1006280025EE4BF0DECF15F0DDCF16F01350152474
:10063800176E14501620186E190E1724D96E000E56
:100648001820DA6EDF50FF6E25EE4BF010EE74F0D6
:10065800DE50E126DD50E222E750D8A436EF03F061
:1006680038EF03F0B2EF02F07DEF03F0050025EE5E
:100678004BF010EE02F0DE50E126DD50E222E750AA
:10068800FD6E25EE4BF010EE02F0DE50E126DD5057
:10069800E222E6CF12F0E5CF13F012C014F013C037
:1006A80015F0166A15C014F016C015F0166A145025
:1006B800FE6E100E126E25EE4BF010EE02F0DE50BC
:1006C800E126DD50E222E6CF13F0E5CF14F013C0A7
:1006D80015F014C016F0176A1228186E78EF03F098
:1006E800D890173216321532182E74EF03F01550C1
:1006F800FF6E140E366EF2A284EF03F086EF03F05D
:1007080088EF03F0F29283821EC0F4FF1DC0F3FF4E
:100718001CC0DAFF1BC0D9FF1AC0E2FF19C0E1FFF5
:080728000192110009EF13F02A
:1010000000000001776FF29E00016E516F11D8A4AD
:101010000CEF08F00EEF08F008EF0BF025EE4BF0A8
:1010200010EE01F0DE50E126DD50E222020EE6185D
:10103000D8A41DEF08F01FEF08F05DEF09F025EED2
:101040004BF010EE01F0DE50E126DD50E22277C0D9
:10105000E7FF25EE4BF010EE08F0DE50E126DD5004
:10106000E222E0CFE7FF25EE4BF010EE0CF0DE5071
:10107000E126DD50E222EACFE7FF25EE4BF010EE4D
:101080000BF0DE50E126DD50E222E9CFE7FF25EE4E
:101090004BF010EE0EF0DE50E126DD50E222E2CF02
:1010A000E7FF25EE4BF010EE0DF0DE50E126DD50AF
:1010B000E222E1CFE7FF25EE4BF010EE10F0DE501C
:1010C000E126DD50E222DACFE7FF25EE4BF010EE0D
:1010D0000FF0DE50E126DD50E222D9CFE7FF25EE0A
:1010E0004BF010EE15F0DE50E126DD50E222FACF93
:1010F000E7FF25EE4BF010EE16F0DE50E126DD5056
:10110000E222FBCFE7FF25EE4BF010EE0AF0DE50B7
:10111000E126DD50E222F4CFE7FF25EE4BF010EEA2
:1011200009F0DE50E126DD50E222F3CFE7FF25EEA5
:101130004BF010EE11F0DE50E126DD50E222F5CF4B
:10114000E7FF25EE4BF010EE13F0DE50E126DD5008
:10115000E222F7CFE7FF25EE4BF010EE12F0DE5063
:10116000E126DD50E222F6CFE7FF25EE4BF010EE50
:1011700014F0DE50E126DD50E222F8CFE7FF25EE45
:101180004BF010EE06F0DE50E126DD50E222E8CF13
:10119000E7FF25EE4BF010EE07F0DE50E126DD50C4
:1011A000E222D8CFE7FF25EE4BF010EE74F0DE50D0
:1011B000E126DD50E222E76A55EF09F025EE4BF01B
:1011C00010EE74F0DE50E126DD50E222E75000011F
:1011D000706F7051030DF3CF71F0F4CF72F025EE04
:1011E0004BF0DECF73F0DDCF74F071517325756F66
:1011F00072517421766F170E7525D96E000E762107
:10120000DA6EFDCFDFFF25EE4BF010EE74F0DE500E
:10121000E126DD50E222E750706F7051030DF3CFED
:1012200071F0F4CF72F025EE4BF0DECF73F0DDCF2E
:1012300074F071517325756F72517421766F180EA9
:101240007525D96E000E7621DA6EFECFDFFF25EE12
:101250004BF010EE74F0DE50E126DD50E222E75054
:10126000706F7051030DF3CF71F0F4CF72F025EE73
:101270004BF0DECF73F0DDCF74F071517325756FD5
:1012800072517421766F190E7525D96E000E762174
:10129000DA6EFFCFDFFF25EE4BF010EE74F0DE507C
:1012A000E126DD50E222E72A0600FC50D8A45BEFDD
:1012B00009F05DEF09F0DEEF08F07BEC13F025EEAE
:1012C0004BF010EE01F0DE50E126DD50E222E75057
:1012D000D8A46DEF09F06FEF09F010EF0BF025EED9
:1012E0004BF010EE01F0DE50E126DD50E222020E5E
:1012F000E76E25EE4BF010EE08F0DE50E126DD50F3
:10130000E222E750E06E25EE4BF010EE0CF0DE50DE
:10131000E126DD50E222E750EA6E25EE4BF010EEBA
:101320000BF0DE50E126DD50E222E750E96E25EEBB
:101330004BF010EE0EF0DE50E126DD50E222E750D9
:10134000E26E25EE4BF010EE0DF0DE50E126DD50A2
:10135000E222E750E16E25EE4BF010EE10F0DE5089
:10136000E126DD50E222E750DA6E25EE4BF010EE7A
:101370000FF0DE50E126DD50E222E750D96E25EE77
:101380004BF010EE15F0DE50E126DD50E222E75082
:10139000FA6E25EE4BF010EE16F0DE50E126DD5031
:1013A000E222E750FB6E25EE4BF010EE0AF0DE5025
:1013B000E126DD50E222E750F46E25EE4BF010EE10
:1013C00009F0DE50E126DD50E222E750F36E25EE13
:1013D0004BF010EE11F0DE50E126DD50E222E75036
:1013E000F56E25EE4BF010EE13F0DE50E126DD50E9
:1013F000E222E750F76E25EE4BF010EE12F0DE50D1
:10140000E126DD50E222E750F66E25EE4BF010EEBD
:1014100014F0DE50E126DD50E222E750F86E25EEB2
:101420004BF010EE07F0DE50E126DD50E222E750EF
:10143000D86E25EE4BF010EE06F0DE50E126DD50C2
:10144000E222E7500001706F7051FC6A25EE4BF00C
:1014500010EE74F0DE50E126DD50E222E750D8B401
:1014600034EF0AF036EF0AF0BFEF0AF0050025EE80
:101470004BF010EE74F0DE50E126DD50E222E7067C
:1014800025EE4BF010EE74F0DE50E126DD50E22246
:10149000E7500001706F7051030DF3CF71F0F4CF7E
:1014A00072F025EE4BF0DECF73F0DDCF74F07151AA
:1014B0007325756F72517421766F170E7525D96E6D
:1014C000000E7621DA6EDF50FD6E25EE4BF010EE49
:1014D00074F0DE50E126DD50E222E750706F70516B
:1014E000030DF3CF71F0F4CF72F025EE4BF0DECFA9
:1014F00073F0DDCF74F071517325756F72517421E3
:10150000766F180E7525D96E000E7621DA6EDF50D3
:10151000FE6E25EE4BF010EE74F0DE50E126DD504D
:10152000E222E750706F7051030DF3CF71F0F4CFEA
:1015300072F025EE4BF0DECF73F0DDCF74F0715119
:101540007325756F72517421766F190E7525D96EDA
:10155000000E7621DA6EDF50FF6E25EE4BF010EEB6
:1015600074F0DE50E126DD50E222E750D8A4BBEF54
:101570000AF0BDEF0AF036EF0AF004EF0BF00500B9
:1015800025EE4BF010EE02F0DE50E126DD50E222B7
:10159000E750FD6E25EE4BF010EE02F0DE50E12636
:1015A000DD50E222E6CF70F0E5CF71F070C072F04E
:1015B00071C073F00001746B73C072F074C073F08B
:1015C000746B7251FE6E100E706F25EE4BF010EEC4
:1015D00002F0DE50E126DD50E222E6CF71F0E5CFE9
:1015E00072F071C073F072C074F0756B7029766F11
:1015F000FEEF0AF0D890753374337333762FFAEF19
:101600000AF000017351FF6E140E366E10EF0BF0EE
:1016100020EE01F06E51D9266F51DA2277C0DFFF3C
:10162000F28E12000001756FF29E25EE4BF010EE67
:1016300001F0DE50E126DD50E222020EE618D8A4C9
:1016400024EF0BF026EF0BF064EF0CF025EE4BF0DF
:1016500010EE01F0DE50E126DD50E222010EE76ED1
:1016600025EE4BF010EE08F0DE50E126DD50E222D0
:10167000E0CFE7FF25EE4BF010EE0CF0DE50E12658
:10168000DD50E222EACFE7FF25EE4BF010EE0BF043
:10169000DE50E126DD50E222E9CFE7FF25EE4BF0F8
:1016A00010EE0EF0DE50E126DD50E222E2CFE7FF41
:1016B00025EE4BF010EE0DF0DE50E126DD50E2227B
:1016C000E1CFE7FF25EE4BF010EE10F0DE50E12603
:1016D000DD50E222DACFE7FF25EE4BF010EE0FF0FF
:1016E000DE50E126DD50E222D9CFE7FF25EE4BF0B8
:1016F00010EE15F0DE50E126DD50E222FACFE7FFD2
:1017000025EE4BF010EE16F0DE50E126DD50E22221
:10171000FBCFE7FF25EE4BF010EE0AF0DE50E1269E
:10172000DD50E222F4CFE7FF25EE4BF010EE09F09A
:10173000DE50E126DD50E222F3CFE7FF25EE4BF04D
:1017400010EE11F0DE50E126DD50E222F5CFE7FF8A
:1017500025EE4BF010EE13F0DE50E126DD50E222D4
:10176000F7CFE7FF25EE4BF010EE12F0DE50E1264A
:10177000DD50E222F6CFE7FF25EE4BF010EE14F03D
:10178000DE50E126DD50E222F8CFE7FF25EE4BF0F8
:1017900010EE06F0DE50E126DD50E222E8CFE7FF52
:1017A00025EE4BF010EE07F0DE50E126DD50E22290
:1017B000D8CFE7FF25EE4BF010EE74F0DE50E126B7
:1017C000DD50E222E76A5CEF0CF025EE4BF010EE04
:1017D00074F0DE50E126DD50E222E75000016E6F2A
:1017E0006E51030DF3CF6FF0F4CF70F025EE4BF098
:1017F000DECF71F0DDCF72F06F517125736F7051D4
:101800007221746F170E7325D96E000E7421DA6E73
:10181000FDCFDFFF25EE4BF010EE74F0DE50E12639
:10182000DD50E222E7506E6F6E51030DF3CF6FF083
:10183000F4CF70F025EE4BF0DECF71F0DDCF72F01B
:101840006F517125736F70517221746F180E73256B
:10185000D96E000E7421DA6EFECFDFFF25EE4BF05D
:1018600010EE74F0DE50E126DD50E222E7506E6F9C
:101870006E51030DF3CF6FF0F4CF70F025EE4BF007
:10188000DECF71F0DDCF72F06F517125736F705143
:101890007221746F190E7325D96E000E7421DA6EE1
:1018A000FFCFDFFF25EE4BF010EE74F0DE50E126A7
:1018B000DD50E222E72A0600FC50D8A462EF0CF0CB
:1018C00064EF0CF0E5EF0BF04DC56EF000016E51CA
:1018D000750D7A0EF324D96E030EF420DA6E75C0FE
:1018E000DFFF7BEC13F025EE4BF010EE01F0DE5045
:1018F000E126DD50E222E750D8A481EF0CF083EF1F
:101900000CF01AEF0EF025EE4BF010EE01F0DE5069
:10191000E126DD50E222020EE76E25EE4BF010EEDE
:1019200008F0DE50E126DD50E222E750E06E25EEC1
:101930004BF010EE0CF0DE50E126DD50E222E750D5
:10194000EA6E25EE4BF010EE0BF0DE50E126DD5096
:10195000E222E750E96E25EE4BF010EE0EF0DE507D
:10196000E126DD50E222E750E26E25EE4BF010EE6C
:101970000DF0DE50E126DD50E222E750E16E25EE6B
:101980004BF010EE10F0DE50E126DD50E222E75081
:10199000DA6E25EE4BF010EE0FF0DE50E126DD5052
:1019A000E222E750D96E25EE4BF010EE15F0DE5036
:1019B000E126DD50E222E750FA6E25EE4BF010EE04
:1019C00016F0DE50E126DD50E222E750FB6E25EEF8
:1019D0004BF010EE0AF0DE50E126DD50E222E75037
:1019E000F46E25EE4BF010EE09F0DE50E126DD50EE
:1019F000E222E750F36E25EE4BF010EE11F0DE50D0
:101A0000E126DD50E222E750F56E25EE4BF010EEB8
:101A100013F0DE50E126DD50E222E750F76E25EEAE
:101A20004BF010EE12F0DE50E126DD50E222E750DE
:101A3000F66E25EE4BF010EE14F0DE50E126DD5090
:101A4000E222E750F86E25EE4BF010EE07F0DE5084
:101A5000E126DD50E222E750D86E25EE4BF010EE85
:101A600006F0DE50E126DD50E222E75000016E6F05
:101A70006E51FC6A25EE4BF010EE74F0DE50E1265C
:101A8000DD50E222E750D8B448EF0DF04AEF0DF0F8
:101A9000D3EF0DF0050025EE4BF010EE74F0DE50A4
:101AA000E126DD50E222E70625EE4BF010EE74F061
:101AB000DE50E126DD50E222E75000016E6F6E51EC
:101AC000030DF3CF6FF0F4CF70F025EE4BF0DECFC7
:101AD00071F0DDCF72F06F517125736F705172210B
:101AE000746F170E7325D96E000E7421DA6EDF50F5
:101AF000FD6E25EE4BF010EE74F0DE50E126DD5069
:101B0000E222E7506E6F6E51030DF3CF6FF0F4CF0A
:101B100070F025EE4BF0DECF71F0DDCF72F06F513B
:101B20007125736F70517221746F180E7325D96E01
:101B3000000E7421DA6EDF50FE6E25EE4BF010EED3
:101B400074F0DE50E126DD50E222E7506E6F6E51F8
:101B5000030DF3CF6FF0F4CF70F025EE4BF0DECF36
:101B600071F0DDCF72F06F517125736F705172217A
:101B7000746F190E7325D96E000E7421DA6EDF5062
:101B8000FF6E25EE4BF010EE74F0DE50E126DD50D6
:101B9000E222E750D8A4CFEF0DF0D1EF0DF04AEFDD
:101BA0000DF018EF0EF0050025EE4BF010EE02F0F0
:101BB000DE50E126DD50E222E750FD6E25EE4BF0CF
:101BC00010EE02F0DE50E126DD50E222E6CF6EF0AC
:101BD000E5CF6FF06EC070F06FC071F00001726BF6
:101BE00071C070F072C071F0726B7051FE6E100EA9
:101BF0006E6F25EE4BF010EE02F0DE50E126DD5068
:101C0000E222E6CF6FF0E5CF70F06FC071F070C0E8
:101C100072F0736B6E29746F12EF0EF0D8907333FD
:101C200072337133742F0EEF0EF000017151FF6E9D
:101C3000140E366EF28E1200EDEC13F066EC13F01B
:101C400025EE4BF010EE01F0DE50E126DD50E222F1
:101C5000E750D8A42EEF0EF030EF0EF0C7EF0FF0E4
:101C600025EE4BF010EE01F0DE50E126DD50E222D1
:101C7000020EE76E25EE4BF010EE08F0DE50E12686
:101C8000DD50E222E750E06E25EE4BF010EE0CF056
:101C9000DE50E126DD50E222E750EA6E25EE4BF001
:101CA00010EE0BF0DE50E126DD50E222E750E96E47
:101CB00025EE4BF010EE0EF0DE50E126DD50E22274
:101CC000E750E26E25EE4BF010EE0DF0DE50E1260F
:101CD000DD50E222E750E16E25EE4BF010EE10F001
:101CE000DE50E126DD50E222E750DA6E25EE4BF0C1
:101CF00010EE0FF0DE50E126DD50E222E750D96E03
:101D000025EE4BF010EE15F0DE50E126DD50E2221C
:101D1000E750FA6E25EE4BF010EE16F0DE50E1269D
:101D2000DD50E222E750FB6E25EE4BF010EE0AF09C
:101D3000DE50E126DD50E222E750F46E25EE4BF056
:101D400010EE09F0DE50E126DD50E222E750F36E9E
:101D500025EE4BF010EE11F0DE50E126DD50E222D0
:101D6000E750F56E25EE4BF010EE13F0DE50E12655
:101D7000DD50E222E750F76E25EE4BF010EE12F048
:101D8000DE50E126DD50E222E750F66E25EE4BF004
:101D900010EE14F0DE50E126DD50E222E750F86E3E
:101DA00025EE4BF010EE07F0DE50E126DD50E2228A
:101DB000E750D86E25EE4BF010EE06F0DE50E1262F
:101DC000DD50E222E7500001886F8851FC6A25EE61
:101DD0004BF010EE74F0DE50E126DD50E222E750C9
:101DE000D8B4F5EF0EF0F7EF0EF080EF0FF005002E
:101DF00025EE4BF010EE74F0DE50E126DD50E222CD
:101E0000E70625EE4BF010EE74F0DE50E126DD50D3
:101E1000E222E7500001886F8851030DF3CF89F06B
:101E2000F4CF8AF025EE4BF0DECF8BF0DDCF8CF0D7
:101E300089518B258D6F8A518C218E6F170E8D25C0
:101E4000D96E000E8E21DA6EDF50FD6E25EE4BF05E
:101E500010EE74F0DE50E126DD50E222E750886F8C
:101E60008851030DF3CF89F0F4CF8AF025EE4BF0C3
:101E7000DECF8BF0DDCF8CF089518B258D6F8A51B1
:101E80008C218E6F180E8D25D96E000E8E21DA6E84
:101E9000DF50FE6E25EE4BF010EE74F0DE50E126C2
:101EA000DD50E222E750886F8851030DF3CF89F0AF
:101EB000F4CF8AF025EE4BF0DECF8BF0DDCF8CF047
:101EC00089518B258D6F8A518C218E6F190E8D252E
:101ED000D96E000E8E21DA6EDF50FF6E25EE4BF0CC
:101EE00010EE74F0DE50E126DD50E222E750D8A477
:101EF0007CEF0FF07EEF0FF0F7EF0EF0C5EF0FF075
:101F0000050025EE4BF010EE02F0DE50E126DD502C
:101F1000E222E750FD6E25EE4BF010EE02F0DE50AF
:101F2000E126DD50E222E6CF88F0E5CF89F088C0D7
:101F30008AF089C08BF000018C6B8BC08AF08CC05A
:101F40008BF08C6B8A51FE6E100E886F25EE4BF075
:101F500010EE02F0DE50E126DD50E222E6CF89F0FD
:101F6000E5CF8AF089C08BF08AC08CF08D6B882910
:101F70008E6FBFEF0FF0D8908D338C338B338E2F55
:101F8000BBEF0FF000018B51FF6E140E366EF28E18
:101F900012000001806B816B846B05EF10F084519F
:101FA000750D770EF324D96E030EF420DA6EDF5030
:101FB000D8A4DDEF0FF0DFEF0FF004EF10F0815148
:101FC000D8B4E5EF0FF0E7EF0FF0F8EF0FF0845122
:101FD000750D7B0EF324D96E030EF420DA6EDE50FD
:101FE000805DD8B0F6EF0FF0F8EF0FF004EF10F0CF
:101FF0008451750D7B0EF324D96E030EF420DA6E36
:10200000DF50806F010E816F842B25EE4AF0DE5089
:10201000845DD8A00EEF10F010EF10F0CFEF0FF0AE
:102020008151D8A416EF10F018EF10F01BEF10F04C
:10203000000E61EF10F04DC57FF0826B54EF10F091
:102040007F518225786F796B79374AC57EF07E5152
:102050007A6F7B6B90EC11F000017851836F8351A4
:10206000750D770EF324D96E030EF420DA6EDF506F
:10207000D8A43DEF10F03FEF10F053EF10F0835174
:10208000750D7B0EF324D96E030EF420DA6E8051A9
:10209000DE18D8A44EEF10F050EF10F053EF10F010
:1020A000835161EF10F0822B25EE4AF0DE50825D05
:1020B000D8A05DEF10F05FEF10F020EF10F018EFF8
:1020C00010F012001A6A1B6A1E6A9DEF10F01E5073
:1020D000750D770EF324D96E030EF420DA6EDF50FF
:1020E000D8A475EF10F077EF10F09CEF10F01B50B4
:1020F000D8B47DEF10F07FEF10F090EF10F01E508D
:10210000750D7B0EF324D96E030EF420DA6EDE50CB
:102110001A5CD8B08EEF10F090EF10F09CEF10F03A
:102120001E50750D7B0EF324D96E030EF420DA6E6B
:10213000DF501A6E010E1B6E1E2A25EE4AF0DE508D
:102140001E5CD8A0A6EF10F0A8EF10F067EF10F01B
:102150001B50D8A4AEEF10F0B0EF10F0B3EF10F0BA
:10216000000EF8EF10F04DC519F01C6AEBEF10F0FF
:1021700019501C24126E136A13364AC518F01850F1
:10218000146E156AE8EC11F012501D6E1D50750D9D
:10219000770EF324D96E030EF420DA6EDF50D8A444
:1021A000D4EF10F0D6EF10F0EAEF10F01D50750DDF
:1021B0007B0EF324D96E030EF420DA6E1A50DE186B
:1021C000D8A4E5EF10F0E7EF10F0EAEF10F01D50A3
:1021D000F8EF10F01C2A25EE4AF0DE501C5CD8A067
:1021E000F4EF10F0F6EF10F0B8EF10F0B0EF10F0E1
:1021F00012000A6A0B6A0E6A34EF11F00E50750D68
:10220000770EF324D96E030EF420DA6EDF50D8A4D3
:102210000CEF11F00EEF11F033EF11F00B50D8B4BA
:1022200014EF11F016EF11F027EF11F00E50750DAD
:102230007B0EF324D96E030EF420DA6EDE500A5CB6
:10224000D8B025EF11F027EF11F033EF11F00E5059
:10225000750D7B0EF324D96E030EF420DA6EDF5079
:102260000A6E010E0B6E0E2A25EE4AF0DE500E5C51
:10227000D8A03DEF11F03FEF11F0FEEF10F00B5042
:10228000D8A445EF11F047EF11F04AEF11F0000E1E
:102290008FEF11F04DC509F00C6A82EF11F0095073
:1022A0000C24026E036A03364AC508F00850046E17
:1022B000056A3FEC12F002500D6E0D50750D770E51
:1022C000F324D96E030EF420DA6EDF50D8A46BEF3E
:1022D00011F06DEF11F081EF11F00D50750D7B0EC7
:1022E000F324D96E030EF420DA6E0A50DE18D8A457
:1022F0007CEF11F07EEF11F081EF11F00D508FEFB8
:1023000011F00C2A25EE4AF0DE500C5CD8A08BEFC1
:1023100011F08DEF11F04FEF11F047EF11F01200B7
:1023200000017D6B79BF99EF11F097EF11F09FEFEE
:1023300011F0786D791FD8B0792B010E7D6F7BBFBE
:10234000A6EF11F0A4EF11F0AAEF11F07A6D7B1F48
:10235000D8B07B2B7A517B11D8B4B1EF11F0B3EF29
:1023600011F0D7EF11F0010E7C6FBBEF11F0D89098
:102370007A377B377C2B7BAFC0EF11F0C2EF11F0C7
:10238000B7EF11F07A51785D7B517959D8A0CBEF36
:1023900011F0CDEF11F0D1EF11F07A51785F7B5150
:1023A000795BD8907B337A337C2FC2EF11F07D516B
:1023B000D8B4DDEF11F0DFEF11F0E3EF11F0786D3D
:1023C000791FD8B0792B78C078F079C079F01200F5
:1023D000176A13BEF0EF11F0EEEF11F0F6EF11F007
:1023E000126C131ED8B0132A010E176E15BEFDEF26
:1023F00011F0FBEF11F001EF12F0146C151ED8B0C4
:10240000152A14501510D8B408EF12F00AEF12F084
:102410002EEF12F0010E166E12EF12F0D890143655
:102420001536162A15AE17EF12F019EF12F00EEF4F
:1024300012F01450125C15501358D8A022EF12F06D
:1024400024EF12F028EF12F01450125E1550135AB8
:10245000D89015321432162E19EF12F01750D8B446
:1024600034EF12F036EF12F03AEF12F0126C131E46
:10247000D8B0132A12C012F013C013F01200076A6A
:1024800003BE47EF12F045EF12F04DEF12F0026C71
:10249000031ED8B0032A010E076E05BE54EF12F0DA
:1024A00052EF12F058EF12F0046C051ED8B0052A56
:1024B00004500510D8B45FEF12F061EF12F085EF11
:1024C00012F0010E066E69EF12F0D8900436053650
:1024D000062A05AE6EEF12F070EF12F065EF12F003
:1024E0000450025C05500358D8A079EF12F07BEF3E
:1024F00012F07FEF12F00450025E0550035AD8909C
:1025000005320432062E70EF12F00750D8B48BEF6C
:1025100012F08DEF12F091EF12F0026C031ED8B0A2
:10252000032A02C002F003C003F01200116A000E79
:10253000106E010E0F6E10C002F011C003F04FECD0
:1025400013F00F04D8A4A7EF12F0A9EF12F0BBEF1D
:1025500012F00A0E1026000E1122E80E105C030E77
:102560001158D8A0B6EF12F0B8EF12F0CCEF12F07D
:102570000F68CCEF12F00A0E105E000E115A1150C7
:1025800007E10B0E105CD8B0C8EF12F0CAEF12F0E2
:10259000CCEF12F0010E0F6E050E12EC0BF09BEF5C
:1025A00012F012000101006F00C101F10101056B81
:1025B0007AC006F178C003F179C004F1026B096BAF
:1025C0000D6B0C6B0F6B0E6B116B106B166B176B2F
:1025D0000B6B0A6B086B126B146B136B156B076B31
:1025E000756B21EE01F04AC57BF000017B51750D42
:1025F000760EF324E16E030EF420E26E740EDBCF50
:10260000E3FFE806FCE24AC5E8FF010FE8CF4AF520
:102610001200040EF66E280EF76E000EF86E00EE35
:1026200030F010EE07F00900F5CFEEFFE550E15075
:10263000FAE101EE76F013EED8F0EE6AE550E150E3
:10264000FCE1E250FAE100EE8FF0140EEE6AE806CB
:10265000FDE100EE21F00F0EEE6AE806FDE10190CB
:102660000192000EF86E0001CBEF13F0000EE8CFE0
:102670004AF5760EE8CF4BF5030EE8CF4CF5000E89
:10268000E8CF4DF5200E0001786F270E796F000E10
:102690007A6F010ED2EC12F0DDEC13F0120002C0E2
:1026A00004F003C005F0D89005320432D89005320A
:1026B00004320450BE6E02C004F0030E0416043A45
:1026C000BD500418CF0B0418BD6E1200C9EC0FF0FA
:1026D0000001856F85C04DF54DC585F08551750D9F
:1026E000760EF324866F030EF420876F86C04BF5B9
:1026F00087C04CF5120062EC10F000016B6F6BC0EC
:102700004DF54DC56BF06B51750D760EF3246C6F66
:10271000030EF4206D6F6CC04BF56DC04CF51200CC
:10272000949082B096EF13F099EF13F0010E9AEFA8
:1027300013F0000EFF0A026E82500218FE0B021800
:10274000826E91EF13F01200F9EC10F00F6E0FC0D3
:102750004DF54DC50FF00F50750D760EF324106E2C
:10276000030EF420116E10C04BF511C04CF5120091
:1027700083820A0E12EC0BF08392000E00016E6F42
:10278000000E6F6F010E01EC08F0050E12EC0BF05D
:10279000BDEF13F0120036EC13F02C0E0001786F31
:1027A000250E796F030E7A6F030ED2EC12F01CEC3B
:1027B0000EF0D9EF13F096EF03F00F0139919380EB
:1027C000949C949E959095923B913A9D3A9FF28865
:1027D000F18CF292FBEC13F01200F28AF294D58C99
:1027E000D59AD596070ED512D58ED76A000ED66E1D
:1027F000F28EF28C1200BB680C0EBD6E040EBA6E27
:0B280000949412004C4C444C444414CF
:00000001FF
