:040000008DEF03F08D
:100008000182E1CF3CF0E2CF3DF0D9CF3EF0DACF2C
:100018003FF0F3CF40F0F4CF41F0F2A416EF00F038
:1000280018EF00F07FEF03F0F294436A000E426E7F
:100038006EEF00F0750E4202F3CF35F0F4CF36F0D4
:100048004302F35036267A0E3524D96E030E362035
:10005800DA6EDF50D8B433EF00F035EF00F06CEF14
:1000680000F0750E4202F3CF35F0F4CF36F04302BC
:10007800F35036267A0E3524D96E030E3620DA6E02
:10008800DF06750E4202F3CF35F0F4CF36F04302A7
:10009800F35036267A0E3524D96E030E3620DA6EE2
:1000A800DF50D8A45AEF00F05CEF00F06CEF00F0DE
:1000B800750E4202F3CF35F0F4CF36F04302F35019
:1000C8003626770E3524D96E030E3620DA6EDF6AAF
:1000D800424A432A25EE4AF0DF50356E366A3550DB
:1000E800425C4350800A376E3650800A3758D8A091
:1000F80080EF00F082EF00F01EEF00F04A064A5051
:10010800D8A489EF00F08BEF00F07FEF03F0140E16
:100118004A6E25EE4BF010EE01F0DE50E126DD5080
:10012800E222020EE618D8A49CEF00F09EEF00F041
:10013800DAEF01F025EE4BF010EE01F0DE50E1268B
:10014800DD50E222E76A25EE4BF010EE08F0DE50B3
:10015800E126DD50E222E0CFE7FF25EE4BF010EE7E
:100168000CF0DE50E126DD50E222EACFE7FF25EE73
:100178004BF010EE0BF0DE50E126DD50E222E9CF25
:10018800E7FF25EE4BF010EE0EF0DE50E126DD50D5
:10019800E222E2CFE7FF25EE4BF010EE0DF0DE5045
:1001A800E126DD50E222E1CFE7FF25EE4BF010EE2D
:1001B80010F0DE50E126DD50E222DACFE7FF25EE2F
:1001C8004BF010EE0FF0DE50E126DD50E222D9CFE1
:1001D800E7FF25EE4BF010EE15F0DE50E126DD507E
:1001E800E222FACFE7FF25EE4BF010EE16F0DE50D4
:1001F800E126DD50E222FBCFE7FF25EE4BF010EEC3
:100208000AF0DE50E126DD50E222F4CFE7FF25EECA
:100218004BF010EE09F0DE50E126DD50E222F3CF7C
:10022800E7FF25EE4BF010EE11F0DE50E126DD5031
:10023800E222F5CFE7FF25EE4BF010EE13F0DE508B
:10024800E126DD50E222F7CFE7FF25EE4BF010EE76
:1002580012F0DE50E126DD50E222F6CFE7FF25EE70
:100268004BF010EE14F0DE50E126DD50E222F8CF1C
:10027800E7FF25EE4BF010EE06F0DE50E126DD50EC
:10028800E222E8CFE7FF25EE4BF010EE07F0DE5054
:10029800E126DD50E222D8CFE7FF25EE4BF010EE45
:1002A80074F0DE50E126DD50E222E76AD2EF01F079
:1002B80025EE4BF010EE74F0DE50E126DD50E22220
:1002C800E750356E3550030DF3CF36F0F4CF37F0E5
:1002D80025EE4BF0DECF38F0DDCF39F0365038243C
:1002E8003A6E375039203B6E170E3A24D96E000EFD
:1002F8003B20DA6EFDCFDFFF25EE4BF010EE74F0F9
:10030800DE50E126DD50E222E750356E3550030D10
:10031800F3CF36F0F4CF37F025EE4BF0DECF38F0E0
:10032800DDCF39F0365038243A6E375039203B6EDD
:10033800180E3A24D96E000E3B20DA6EFECFDFFF8E
:1003480025EE4BF010EE74F0DE50E126DD50E2228F
:10035800E750356E3550030DF3CF36F0F4CF37F054
:1003680025EE4BF0DECF38F0DDCF39F036503824AB
:100378003A6E375039203B6E190E3A24D96E000E6A
:100388003B20DA6EFFCFDFFF25EE4BF010EE74F066
:10039800DE50E126DD50E222E72A0600FC50D8A410
:1003A800D8EF01F0DAEF01F05CEF01F0B9EC14F0EE
:1003B80025EE4BF010EE01F0DE50E126DD50E22292
:1003C800E750D8A4EAEF01F0ECEF01F07FEF03F07B
:1003D80025EE4BF010EE01F0DE50E126DD50E22272
:1003E800020EE76E25EE4BF010EE08F0DE50E12627
:1003F800DD50E222E750E06E25EE4BF010EE0CF0F7
:10040800DE50E126DD50E222E750EA6E25EE4BF0A1
:1004180010EE0BF0DE50E126DD50E222E750E96EE7
:1004280025EE4BF010EE0EF0DE50E126DD50E22214
:10043800E750E26E25EE4BF010EE0DF0DE50E126AF
:10044800DD50E222E750E16E25EE4BF010EE10F0A1
:10045800DE50E126DD50E222E750DA6E25EE4BF061
:1004680010EE0FF0DE50E126DD50E222E750D96EA3
:1004780025EE4BF010EE15F0DE50E126DD50E222BD
:10048800E750FA6E25EE4BF010EE16F0DE50E1263E
:10049800DD50E222E750FB6E25EE4BF010EE0AF03D
:1004A800DE50E126DD50E222E750F46E25EE4BF0F7
:1004B80010EE09F0DE50E126DD50E222E750F36E3F
:1004C80025EE4BF010EE11F0DE50E126DD50E22271
:1004D800E750F56E25EE4BF010EE13F0DE50E126F6
:1004E800DD50E222E750F76E25EE4BF010EE12F0E9
:1004F800DE50E126DD50E222E750F66E25EE4BF0A5
:1005080010EE14F0DE50E126DD50E222E750F86EDE
:1005180025EE4BF010EE07F0DE50E126DD50E2222A
:10052800E750D86E25EE4BF010EE06F0DE50E126CF
:10053800DD50E222E750356E3550FC6A25EE4BF06F
:1005480010EE74F0DE50E126DD50E222E750D8B418
:10055800B0EF02F0B2EF02F03AEF03F0050025EE3B
:100568004BF010EE74F0DE50E126DD50E222E70693
:1005780025EE4BF010EE74F0DE50E126DD50E2225D
:10058800E750356E3550030DF3CF36F0F4CF37F022
:1005980025EE4BF0DECF38F0DDCF39F03650382479
:1005A8003A6E375039203B6E170E3A24D96E000E3A
:1005B8003B20DA6EDF50FD6E25EE4BF010EE74F046
:1005C800DE50E126DD50E222E750356E3550030D4E
:1005D800F3CF36F0F4CF37F025EE4BF0DECF38F01E
:1005E800DDCF39F0365038243A6E375039203B6E1B
:1005F800180E3A24D96E000E3B20DA6EDF50FE6EDC
:1006080025EE4BF010EE74F0DE50E126DD50E222CC
:10061800E750356E3550030DF3CF36F0F4CF37F091
:1006280025EE4BF0DECF38F0DDCF39F036503824E8
:100638003A6E375039203B6E190E3A24D96E000EA7
:100648003B20DA6EDF50FF6E25EE4BF010EE74F0B3
:10065800DE50E126DD50E222E750D8A436EF03F061
:1006680038EF03F0B2EF02F07DEF03F0050025EE5E
:100678004BF010EE02F0DE50E126DD50E222E750AA
:10068800FD6E25EE4BF010EE02F0DE50E126DD5057
:10069800E222E6CF35F0E5CF36F035C037F036C088
:1006A80038F0396A38C037F039C038F0396A37500D
:1006B800FE6E100E356E25EE4BF010EE02F0DE5099
:1006C800E126DD50E222E6CF36F0E5CF37F036C03E
:1006D80038F037C039F03A6A35283B6E78EF03F0C6
:1006E800D8903A32393238323B2E74EF03F0385012
:1006F800FF6E140E4A6E41C0F4FF40C0F3FF3FC0C6
:10070800DAFF3EC0D9FF3DC0E2FF3CC0E1FF0192E5
:060718001100CEEF13F00A
:101000000000F29E00018951D96EDA6ADF50D8B42F
:101010000CEF08F00EEF08F039EF0BF025EE4DF075
:101020008951E16EE26A050EE126E7508A6F895127
:101030008A25E16EE26A020EE126DFCFE7FF8951E1
:10104000D96EDA6A050ED9268951E16EE26A050E7B
:10105000E126E7508A6F010E8A25796F7A6B000EC0
:101060007A237C6B030E7B6FA4EC12F000017951A4
:10107000DF6E8951D96EDA6A070ED926DF2A25EE8E
:101080004BF010EE01F0DE50E126DD50E222020EC0
:10109000E618D8A44EEF08F050EF08F08EEF09F0F4
:1010A00025EE4BF010EE01F0DE50E126DD50E2229D
:1010B000010EE76E25EE4BF010EE08F0DE50E12653
:1010C000DD50E222E0CFE7FF25EE4BF010EE0CF012
:1010D000DE50E126DD50E222EACFE7FF25EE4BF0BD
:1010E00010EE0BF0DE50E126DD50E222E9CFE7FF03
:1010F00025EE4BF010EE0EF0DE50E126DD50E22240
:10110000E2CFE7FF25EE4BF010EE0DF0DE50E126CA
:10111000DD50E222E1CFE7FF25EE4BF010EE10F0BC
:10112000DE50E126DD50E222DACFE7FF25EE4BF07C
:1011300010EE0FF0DE50E126DD50E222D9CFE7FFBE
:1011400025EE4BF010EE15F0DE50E126DD50E222E8
:10115000FACFE7FF25EE4BF010EE16F0DE50E12659
:10116000DD50E222FBCFE7FF25EE4BF010EE0AF058
:10117000DE50E126DD50E222F4CFE7FF25EE4BF012
:1011800010EE09F0DE50E126DD50E222F3CFE7FF5A
:1011900025EE4BF010EE11F0DE50E126DD50E2229C
:1011A000F5CFE7FF25EE4BF010EE13F0DE50E12611
:1011B000DD50E222F7CFE7FF25EE4BF010EE12F004
:1011C000DE50E126DD50E222F6CFE7FF25EE4BF0C0
:1011D00010EE14F0DE50E126DD50E222F8CFE7FFFA
:1011E00025EE4BF010EE06F0DE50E126DD50E22257
:1011F000E8CFE7FF25EE4BF010EE07F0DE50E126DA
:10120000DD50E222D8CFE7FF25EE4BF010EE74F070
:10121000DE50E126DD50E222E76A86EF09F025EE96
:101220004BF010EE74F0DE50E126DD50E222E75084
:1012300000018A6F8A51030DF3CF8BF0F4CF8CF04D
:1012400025EE4BF0DECF8DF0DDCF8EF08B518D256E
:101250008F6F8C518E21906F170E8F25D96E000ED7
:101260009021DA6EFDCFDFFF25EE4BF010EE74F02B
:10127000DE50E126DD50E222E7508A6F8A51030DED
:10128000F3CF8BF0F4CF8CF025EE4BF0DECF8DF06A
:10129000DDCF8EF08B518D258F6F8C518E21906F0D
:1012A000180E8F25D96E000E9021DA6EFECFDFFF6B
:1012B00025EE4BF010EE74F0DE50E126DD50E22218
:1012C000E7508A6F8A51030DF3CF8BF0F4CF8CF087
:1012D00025EE4BF0DECF8DF0DDCF8EF08B518D25DE
:1012E0008F6F8C518E21906F190E8F25D96E000E45
:1012F0009021DA6EFFCFDFFF25EE4BF010EE74F099
:10130000DE50E126DD50E222E72A0600FC50D8A498
:101310008CEF09F08EEF09F00FEF09F0A4EC14F058
:1013200025EE4BF010EE01F0DE50E126DD50E2221A
:10133000E750D8A49EEF09F0A0EF09F049EF0BF0B9
:1013400025EE4BF010EE01F0DE50E126DD50E222FA
:10135000020EE76E25EE4BF010EE08F0DE50E126AF
:10136000DD50E222E750E06E25EE4BF010EE0CF07F
:10137000DE50E126DD50E222E750EA6E25EE4BF02A
:1013800010EE0BF0DE50E126DD50E222E750E96E70
:1013900025EE4BF010EE0EF0DE50E126DD50E2229D
:1013A000E750E26E25EE4BF010EE0DF0DE50E12638
:1013B000DD50E222E750E16E25EE4BF010EE10F02A
:1013C000DE50E126DD50E222E750DA6E25EE4BF0EA
:1013D00010EE0FF0DE50E126DD50E222E750D96E2C
:1013E00025EE4BF010EE15F0DE50E126DD50E22246
:1013F000E750FA6E25EE4BF010EE16F0DE50E126C7
:10140000DD50E222E750FB6E25EE4BF010EE0AF0C5
:10141000DE50E126DD50E222E750F46E25EE4BF07F
:1014200010EE09F0DE50E126DD50E222E750F36EC7
:1014300025EE4BF010EE11F0DE50E126DD50E222F9
:10144000E750F56E25EE4BF010EE13F0DE50E1267E
:10145000DD50E222E750F76E25EE4BF010EE12F071
:10146000DE50E126DD50E222E750F66E25EE4BF02D
:1014700010EE14F0DE50E126DD50E222E750F86E67
:1014800025EE4BF010EE07F0DE50E126DD50E222B3
:10149000E750D86E25EE4BF010EE06F0DE50E12658
:1014A000DD50E222E75000018A6F8A51FC6A25EE86
:1014B0004BF010EE74F0DE50E126DD50E222E750F2
:1014C000D8B465EF0AF067EF0AF0F0EF0AF0050014
:1014D00025EE4BF010EE74F0DE50E126DD50E222F6
:1014E000E70625EE4BF010EE74F0DE50E126DD50FD
:1014F000E222E75000018A6F8A51030DF3CF8BF08F
:10150000F4CF8CF025EE4BF0DECF8DF0DDCF8EF0FA
:101510008B518D258F6F8C518E21906F170E8F25DB
:10152000D96E000E9021DA6EDF50FD6E25EE4BF085
:1015300010EE74F0DE50E126DD50E222E7508A6FB3
:101540008A51030DF3CF8BF0F4CF8CF025EE4BF0E6
:10155000DECF8DF0DDCF8EF08B518D258F6F8C51CE
:101560008E21906F180E8F25D96E000E9021DA6EA5
:10157000DF50FE6E25EE4BF010EE74F0DE50E126EB
:10158000DD50E222E7508A6F8A51030DF3CF8BF0D2
:10159000F4CF8CF025EE4BF0DECF8DF0DDCF8EF06A
:1015A0008B518D258F6F8C518E21906F190E8F2549
:1015B000D96E000E9021DA6EDF50FF6E25EE4BF0F3
:1015C00010EE74F0DE50E126DD50E222E750D8A4A0
:1015D000ECEF0AF0EEEF0AF067EF0AF035EF0BF0F0
:1015E000050025EE4BF010EE02F0DE50E126DD5056
:1015F000E222E750FD6E25EE4BF010EE02F0DE50D9
:10160000E126DD50E222E6CF8AF0E5CF8BF08AC0FA
:101610008CF08BC08DF000018E6B8DC08CF08EC075
:101620008DF08E6B8C51FE6E100E8A6F25EE4BF096
:1016300010EE02F0DE50E126DD50E222E6CF8BF024
:10164000E5CF8CF08BC08DF08CC08EF08F6B8A292B
:10165000906F2FEF0BF0D8908F338E338D33902F08
:101660002BEF0BF000018D51FF6E140E4A6E49EF07
:101670000BF08951D96EDA6A010EDF6E4BC5D9FFC6
:101680004CC5DAFF8951E16EE26A010EE126DFCF37
:10169000E7FFF28E12000001906FF29E25EE4BF0F4
:1016A00010EE01F0DE50E126DD50E222020EE618D7
:1016B000D8A45DEF0BF05FEF0BF09DEF0CF025EE83
:1016C0004BF010EE01F0DE50E126DD50E222010E7B
:1016D000E76E25EE4BF010EE08F0DE50E126DD500F
:1016E000E222E0CFE7FF25EE4BF010EE0CF0DE50EB
:1016F000E126DD50E222EACFE7FF25EE4BF010EEC7
:101700000BF0DE50E126DD50E222E9CFE7FF25EEC7
:101710004BF010EE0EF0DE50E126DD50E222E2CF7B
:10172000E7FF25EE4BF010EE0DF0DE50E126DD5028
:10173000E222E1CFE7FF25EE4BF010EE10F0DE5095
:10174000E126DD50E222DACFE7FF25EE4BF010EE86
:101750000FF0DE50E126DD50E222D9CFE7FF25EE83
:101760004BF010EE15F0DE50E126DD50E222FACF0C
:10177000E7FF25EE4BF010EE16F0DE50E126DD50CF
:10178000E222FBCFE7FF25EE4BF010EE0AF0DE5031
:10179000E126DD50E222F4CFE7FF25EE4BF010EE1C
:1017A00009F0DE50E126DD50E222F3CFE7FF25EE1F
:1017B0004BF010EE11F0DE50E126DD50E222F5CFC5
:1017C000E7FF25EE4BF010EE13F0DE50E126DD5082
:1017D000E222F7CFE7FF25EE4BF010EE12F0DE50DD
:1017E000E126DD50E222F6CFE7FF25EE4BF010EECA
:1017F00014F0DE50E126DD50E222F8CFE7FF25EEBF
:101800004BF010EE06F0DE50E126DD50E222E8CF8C
:10181000E7FF25EE4BF010EE07F0DE50E126DD503D
:10182000E222D8CFE7FF25EE4BF010EE74F0DE5049
:10183000E126DD50E222E76A95EF0CF025EE4BF051
:1018400010EE74F0DE50E126DD50E222E750000198
:10185000896F8951030DF3CF8AF0F4CF8BF025EE19
:101860004BF0DECF8CF0DDCF8DF08A518C258E6F62
:101870008B518D218F6F170E8E25D96E000E8F2103
:10188000DA6EFDCFDFFF25EE4BF010EE74F0DE5088
:10189000E126DD50E222E750896F8951030DF3CF35
:1018A0008AF0F4CF8BF025EE4BF0DECF8CF0DDCF5D
:1018B0008DF08A518C258E6F8B518D218F6F180E74
:1018C0008E25D96E000E8F21DA6EFECFDFFF25EE5A
:1018D0004BF010EE74F0DE50E126DD50E222E750CE
:1018E000896F8951030DF3CF8AF0F4CF8BF025EE89
:1018F0004BF0DECF8CF0DDCF8DF08A518C258E6FD2
:101900008B518D218F6F190E8E25D96E000E8F2170
:10191000DA6EFFCFDFFF25EE4BF010EE74F0DE50F5
:10192000E126DD50E222E72A0600FC50D8A49BEF16
:101930000CF09DEF0CF01EEF0CF04DC589F000018E
:101940008951750D7A0EF324D96E030EF420DA6EE8
:1019500090C0DFFFA4EC14F025EE4BF010EE01F088
:10196000DE50E126DD50E222E750D8A4BAEF0CF0B9
:10197000BCEF0CF053EF0EF025EE4BF010EE01F043
:10198000DE50E126DD50E222020EE76E25EE4BF03E
:1019900010EE08F0DE50E126DD50E222E750E06E66
:1019A00025EE4BF010EE0CF0DE50E126DD50E22289
:1019B000E750EA6E25EE4BF010EE0BF0DE50E1261C
:1019C000DD50E222E750E96E25EE4BF010EE0EF00E
:1019D000DE50E126DD50E222E750E26E25EE4BF0CC
:1019E00010EE0DF0DE50E126DD50E222E750E16E10
:1019F00025EE4BF010EE10F0DE50E126DD50E22235
:101A0000E750DA6E25EE4BF010EE0FF0DE50E126D7
:101A1000DD50E222E750D96E25EE4BF010EE15F0C6
:101A2000DE50E126DD50E222E750FA6E25EE4BF063
:101A300010EE16F0DE50E126DD50E222E750FB6E9C
:101A400025EE4BF010EE0AF0DE50E126DD50E222EA
:101A5000E750F46E25EE4BF010EE09F0DE50E12673
:101A6000DD50E222E750F36E25EE4BF010EE11F060
:101A7000DE50E126DD50E222E750F56E25EE4BF018
:101A800010EE13F0DE50E126DD50E222E750F76E53
:101A900025EE4BF010EE12F0DE50E126DD50E22292
:101AA000E750F66E25EE4BF010EE14F0DE50E12616
:101AB000DD50E222E750F86E25EE4BF010EE07F015
:101AC000DE50E126DD50E222E750D86E25EE4BF0E5
:101AD00010EE06F0DE50E126DD50E222E750000174
:101AE000896F8951FC6A25EE4BF010EE74F0DE50E0
:101AF000E126DD50E222E750D8B481EF0DF083EF0C
:101B00000DF00CEF0EF0050025EE4BF010EE74F02A
:101B1000DE50E126DD50E222E70625EE4BF010EE26
:101B200074F0DE50E126DD50E222E7500001896FBB
:101B30008951030DF3CF8AF0F4CF8BF025EE4BF0F3
:101B4000DECF8CF0DDCF8DF08A518C258E6F8B51DE
:101B50008D218F6F170E8E25D96E000E8F21DA6EB4
:101B6000DF50FD6E25EE4BF010EE74F0DE50E126F6
:101B7000DD50E222E750896F8951030DF3CF8AF0DF
:101B8000F4CF8BF025EE4BF0DECF8CF0DDCF8DF077
:101B90008A518C258E6F8B518D218F6F180E8E255B
:101BA000D96E000E8F21DA6EDF50FE6E25EE4BF0FF
:101BB00010EE74F0DE50E126DD50E222E750896F2E
:101BC0008951030DF3CF8AF0F4CF8BF025EE4BF063
:101BD000DECF8CF0DDCF8DF08A518C258E6F8B514E
:101BE0008D218F6F190E8E25D96E000E8F21DA6E22
:101BF000DF50FF6E25EE4BF010EE74F0DE50E12664
:101C0000DD50E222E750D8A408EF0EF00AEF0EF004
:101C100083EF0DF051EF0EF0050025EE4BF010EEC6
:101C200002F0DE50E126DD50E222E750FD6E25EEA7
:101C30004BF010EE02F0DE50E126DD50E222E6CF5E
:101C400089F0E5CF8AF089C08BF08AC08CF0000162
:101C50008D6B8CC08BF08DC08CF08D6B8B51FE6EBC
:101C6000100E896F25EE4BF010EE02F0DE50E126EB
:101C7000DD50E222E6CF8AF0E5CF8BF08AC08CF00F
:101C80008BC08DF08E6B89298F6F4BEF0EF0D89043
:101C90008E338D338C338F2F47EF0EF000018C5134
:101CA000FF6E140E4A6EF28E1200F1EC14F07AEC14
:101CB00014F025EE4BF010EE01F0DE50E126DD5081
:101CC000E222E750D8A467EF0EF069EF0EF000EFC4
:101CD00010F025EE4BF010EE01F0DE50E126DD5065
:101CE000E222020EE76E25EE4BF010EE08F0DE5019
:101CF000E126DD50E222E750E06E25EE4BF010EEDB
:101D00000CF0DE50E126DD50E222E750EA6E25EECF
:101D10004BF010EE0BF0DE50E126DD50E222E750F2
:101D2000E96E25EE4BF010EE0EF0DE50E126DD50B0
:101D3000E222E750E26E25EE4BF010EE0DF0DE50A1
:101D4000E126DD50E222E750E16E25EE4BF010EE89
:101D500010F0DE50E126DD50E222E750DA6E25EE8B
:101D60004BF010EE0FF0DE50E126DD50E222E7509E
:101D7000D96E25EE4BF010EE15F0DE50E126DD5069
:101D8000E222E750FA6E25EE4BF010EE16F0DE5030
:101D9000E126DD50E222E750FB6E25EE4BF010EE1F
:101DA0000AF0DE50E126DD50E222E750F46E25EE27
:101DB0004BF010EE09F0DE50E126DD50E222E75054
:101DC000F36E25EE4BF010EE11F0DE50E126DD5003
:101DD000E222E750F56E25EE4BF010EE13F0DE50E8
:101DE000E126DD50E222E750F76E25EE4BF010EED3
:101DF00012F0DE50E126DD50E222E750F66E25EECD
:101E00004BF010EE14F0DE50E126DD50E222E750F8
:101E1000F86E25EE4BF010EE07F0DE50E126DD50B7
:101E2000E222E750D86E25EE4BF010EE06F0DE50C1
:101E3000E126DD50E222E7500001A16FA151FC6ACA
:101E400025EE4BF010EE74F0DE50E126DD50E2227C
:101E5000E750D8B42EEF0FF030EF0FF0B9EF0FF0DE
:101E6000050025EE4BF010EE74F0DE50E126DD505B
:101E7000E222E70625EE4BF010EE74F0DE50E1268C
:101E8000DD50E222E7500001A16FA151030DF3CF15
:101E9000A2F0F4CFA3F025EE4BF0DECFA4F0DDCF1F
:101EA000A5F0A251A425A66FA351A521A76F170ED7
:101EB000A625D96E000EA721DA6EDF50FD6E25EE45
:101EC0004BF010EE74F0DE50E126DD50E222E750D8
:101ED000A16FA151030DF3CFA2F0F4CFA3F025EE33
:101EE0004BF0DECFA4F0DDCFA5F0A251A425A66F64
:101EF000A351A521A76F180EA625D96E000EA72104
:101F0000DA6EDF50FE6E25EE4BF010EE74F0DE5010
:101F1000E126DD50E222E750A16FA151030DF3CF7E
:101F2000A2F0F4CFA3F025EE4BF0DECFA4F0DDCF8E
:101F3000A5F0A251A425A66FA351A521A76F190E44
:101F4000A625D96E000EA721DA6EDF50FF6E25EEB2
:101F50004BF010EE74F0DE50E126DD50E222E75047
:101F6000D8A4B5EF0FF0B7EF0FF030EF0FF0FEEFA2
:101F70000FF0050025EE4BF010EE02F0DE50E126EA
:101F8000DD50E222E750FD6E25EE4BF010EE02F040
:101F9000DE50E126DD50E222E6CFA1F0E5CFA2F04F
:101FA000A1C0A3F0A2C0A4F00001A56BA4C0A3F03F
:101FB000A5C0A4F0A56BA351FE6E100EA16F25EE77
:101FC0004BF010EE02F0DE50E126DD50E222E6CFCB
:101FD000A2F0E5CFA3F0A2C0A4F0A3C0A5F0A66B29
:101FE000A129A76FF8EF0FF0D890A633A533A4333B
:101FF000A72FF4EF0FF00001A451FF6E140E4A6EEC
:10200000F28E12000001996B9A6B9D6B3EEF10F0FF
:102010009D51750D770EF324D96E030EF420DA6E00
:10202000DF50D8A416EF10F018EF10F03DEF10F0CD
:102030009A51D8B41EEF10F020EF10F031EF10F0ED
:102040009D51750D7B0EF324D96E030EF420DA6ECC
:10205000DE50995DD8B02FEF10F031EF10F03DEF6A
:1020600010F09D51750D7B0EF324D96E030EF420F4
:10207000DA6EDF50996F010E9A6F9D2B25EE4AF0B4
:10208000DE509D5DD8A047EF10F049EF10F008EF4B
:1020900010F09A51D8A44FEF10F051EF10F054EF18
:1020A00010F0000E9AEF10F04DC598F09B6B8DEF7D
:1020B00010F098519B25916F926B92374AC597F01B
:1020C0009751936F946B4CEC12F0000191519C6FFF
:1020D0009C51750D770EF324D96E030EF420DA6E41
:1020E000DF50D8A476EF10F078EF10F08CEF10F0FE
:1020F0009C51750D7B0EF324D96E030EF420DA6E1D
:102100009951DE18D8A487EF10F089EF10F08CEF0A
:1021100010F09C519AEF10F09B2B25EE4AF0DE5008
:102120009B5DD8A096EF10F098EF10F059EF10F0EB
:1021300051EF10F012000001816B826B856BD7EFBD
:1021400010F08551750D770EF324D96E030EF4202F
:10215000DA6EDF50D8A4AFEF10F0B1EF10F0D6EF89
:1021600010F08251D8B4B7EF10F0B9EF10F0CAEF09
:1021700010F08551750D7B0EF324D96E030EF420FB
:10218000DA6EDE50815DD8B0C8EF10F0CAEF10F003
:10219000D6EF10F08551750D7B0EF324D96E030E2A
:1021A000F420DA6EDF50816F010E826F852B25EEF1
:1021B0004AF0DE50855DD8A0E0EF10F0E2EF10F0BD
:1021C000A1EF10F08251D8A4E8EF10F0EAEF10F080
:1021D000EDEF10F0000E33EF11F04DC580F0836B82
:1021E00026EF11F080518325796F7A6B7A374AC5D3
:1021F0007FF07F517B6F7C6BA4EC12F00001795172
:10220000846F8451750D770EF324D96E030EF4207C
:10221000DA6EDF50D8A40FEF11F011EF11F025EFB7
:1022200011F08451750D7B0EF324D96E030EF4204A
:10223000DA6E8151DE18D8A420EF11F022EF11F0F0
:1022400025EF11F0845133EF11F0832B25EE4AF086
:10225000DE50835DD8A02FEF11F031EF11F0F2EFD7
:1022600010F0EAEF10F012002D6A2E6A316A6FEF5B
:1022700011F03150750D770EF324D96E030EF42052
:10228000DA6EDF50D8A447EF11F049EF11F06EEF8E
:1022900011F02E50D8B44FEF11F051EF11F062EF62
:1022A00011F03150750D7B0EF324D96E030EF4201E
:1022B000DA6EDE502D5CD8B060EF11F062EF11F0F5
:1022C0006EEF11F03150750D7B0EF324D96E030EB5
:1022D000F420DA6EDF502D6E010E2E6E312A25EEBF
:1022E0004AF0DE50315CD8A078EF11F07AEF11F0AF
:1022F00039EF11F02E50D8A480EF11F082EF11F0D9
:1023000085EF11F0000ECAEF11F04DC52CF02F6AC9
:10231000BDEF11F02C502F24256E266A26364AC5B3
:102320002BF02B50276E286AFCEC12F02550306EF3
:102330003050750D770EF324D96E030EF420DA6E4B
:10234000DF50D8A4A6EF11F0A8EF11F0BCEF11F008
:102350003050750D7B0EF324D96E030EF420DA6E27
:102360002D50DE18D8A4B7EF11F0B9EF11F0BCEF83
:1023700011F03050CAEF11F02F2A25EE4AF0DE504E
:102380002F5CD8A0C6EF11F0C8EF11F08AEF11F062
:1023900082EF11F01200F29E00017F51D96EDA6ACD
:1023A000DF50D8B4D6EF11F0D8EF11F04AEF12F0A9
:1023B0004BC5D9FF4CC5DAFF7F51E16EE26A010ED1
:1023C000E126DE50E618D8A4E8EF11F0EAEF11F0AC
:1023D0004AEF12F07F51D96EDA6A070ED926DF5024
:1023E000D8B4F5EF11F0F7EF11F040EF12F07F5194
:1023F000D96EDA6A060ED926DF50806F7F518025AC
:10240000D96EDA6A020ED926DF50826F8251750DBD
:10241000770EF324D96E030EF420DA6EDF6A7F5153
:10242000D96EDA6A060ED9267F51E16EE26A060E8F
:10243000E126E750806F010E8025796F7A6B000EE0
:102440007A237C6B030E7B6FA4EC12F000017951B0
:10245000DF6E7F51D96EDA6A070ED926DF06825108
:10246000750D760EF324D96E030EF420DA6E7F51CB
:10247000E16EE26A010EE126DFCFE7FF4AEF12F0DC
:102480007F51D96EDA6ADF6A7F51D96EDA6A070E38
:10249000D926DF6AF28E12000001966B92BF55EFCB
:1024A00012F053EF12F05BEF12F0916D921FD8B063
:1024B000922B010E966F94BF62EF12F060EF12F054
:1024C00066EF12F0936D941FD8B0942B9351941132
:1024D000D8B46DEF12F06FEF12F093EF12F0010E1F
:1024E000956F77EF12F0D89093379437952B94AF80
:1024F0007CEF12F07EEF12F073EF12F09351915DCA
:1025000094519259D8A087EF12F089EF12F08DEF15
:1025100012F09351915F9451925BD890943393331E
:10252000952F7EEF12F09651D8B499EF12F09BEFF1
:1025300012F09FEF12F0916D921FD8B0922B91C0C4
:1025400091F092C092F0120000017E6B7ABFADEF65
:1025500012F0ABEF12F0B3EF12F0796D7A1FD8B032
:102560007A2B010E7E6F7CBFBAEF12F0B8EF12F03B
:10257000BEEF12F07B6D7C1FD8B07C2B7B517C11A1
:10258000D8B4C5EF12F0C7EF12F0EBEF12F0010E66
:102590007D6FCFEF12F0D8907B377C377D2B7CAFEF
:1025A000D4EF12F0D6EF12F0CBEF12F07B51795D41
:1025B0007C517A59D8A0DFEF12F0E1EF12F0E5EF8D
:1025C00012F07B51795F7C517A5BD8907C337B33FE
:1025D0007D2FD6EF12F07E51D8B4F1EF12F0F3EF69
:1025E00012F0F7EF12F0796D7A1FD8B07A2B79C01C
:1025F00079F07AC07AF012002A6A26BE04EF13F04E
:1026000002EF13F00AEF13F0256C261ED8B0262A2D
:10261000010E2A6E28BE11EF13F00FEF13F015EF25
:1026200013F0276C281ED8B0282A27502810D8B4B9
:102630001CEF13F01EEF13F042EF13F0010E296EA2
:1026400026EF13F0D89027362836292A28AE2BEF0C
:1026500013F02DEF13F022EF13F02750255C2850D4
:102660002658D8A036EF13F038EF13F03CEF13F0F4
:102670002750255E2850265AD89028322732292EF6
:102680002DEF13F02A50D8B448EF13F04AEF13F0AF
:102690004EEF13F0256C261ED8B0262A25C025F053
:1026A00026C026F0120030EC14F0000E0001916FED
:1026B000000E926F050E936F020E97EC13F0000E52
:1026C0000001916F000E926F050E936F030E97EC51
:1026D00013F0000E0001916F000E926F050E936FC4
:1026E000040E97EC13F0000E0001916F000E926F34
:1026F000030E936F020E97EC13F0000E0001916F22
:10270000000E926F030E936F030E97EC13F0000E02
:102710000001916F000E926F030E936F040E97EC01
:1027200013F055EC0EF093EF13F08DEF03F0010171
:10273000006F00C101F10101056B93C006F191C06A
:1027400003F192C004F1026B096B0D6B0C6B0F6B04
:102750000E6B116B106B166B176B0B6B0A6B086BA8
:10276000126B146B136B156B076B756B21EE01F01D
:102770004AC594F000019451750D760EF324E16E74
:10278000030EF420E26E740EDBCFE3FFE806FCE2FA
:102790004AC5E8FF010FE8CF4AF51200FA0EF66EBF
:1027A000290EF76E000EF86E00EE44F010EE07F002
:1027B0000900F5CFEEFFE550E150FAE101EE76F0C9
:1027C00013EED8F0EE6AE550E150FCE1E250FAE198
:1027D00000EE02F0230EEE6AE806FDE101900192A0
:1027E000000EF86E000153EF13F000019151D96E05
:1027F000DA6ADF6A9151D96EDA6A010ED926DF6A88
:102800009151D96EDA6A050ED926DF6A9151D96ED7
:10281000DA6A060ED926DF6A9151D96EDA6A070E96
:10282000D926DF6A120000019551D96EDA6A040ECA
:10283000D926DF6A9551D96EDA6A050ED926DF6A84
:102840009551060F916F040E926F62EC14F0000127
:1028500095510D0F916F000E926F62EC14F0120003
:10286000000EE8CF4AF5760EE8CF4BF5030EE8CF21
:102870004CF5000EE8CF4DF51E0E0001916F290EAC
:10288000926F000E936F010E97EC13F049EC14F069
:102890001200949C949E95900F013B913A9D3A9F13
:1028A0001E0E0001916F000E926F62EC14F0020E8A
:1028B0000001956F13EC14F0160E0001916FF5EC0A
:1028C00013F0120000019251936F946B9151D96EE5
:1028D000DA6A93C0DEFF94C0DDFF9151D96EDA6AE7
:1028E000050ED926DF6A9151D96EDA6A060ED9260D
:1028F000DF6A120002EC10F000019E6F9EC04DF5E1
:102900004DC59EF09E51750D760EF3249F6F030EFC
:10291000F420A06F9FC04BF5A0C04CF5120094901E
:1029200082B095EF14F098EF14F0010E99EF14F0C7
:10293000000EFF0A0001606F82506019FE0B6019E3
:10294000826E90EF14F012009BEC10F00001866F85
:1029500086C04DF54DC586F08651750D760EF32473
:10296000876F030EF420886F87C04BF588C04CF545
:10297000120034EC11F0326E32C04DF54DC532F01C
:102980003250750D760EF324336E030EF420346E40
:1029900033C04BF534C04CF51200160E0001896FA0
:1029A00001EC08F0828C050E4BEC0BF0829C160EAD
:1029B00000017F6FCBEC11F0CDEF14F01200160E7A
:1029C0000001896F01EC08F0828E050E4BEC0BF0D4
:1029D000829E160E00017F6FCBEC11F0DFEF14F03A
:1029E0001200F28AF294D58CD59AD596070ED5129C
:1029F000D58ED76A000ED66E12004C4C444C44441F
:012A000014C1
:00000001FF
